S01700004763634170706C69636174696F6E312E737265635B
S113000065C0000084C0000082C0000080C0000001
S11300107EC000007CC000007AC0000078C00000F0
S113002076C0000074C0000072C0000070C0000000
S11300306EC000006CC000006AC0000068C0000010
S113004066C0000064C0000062C0000060C0000020
S11300505EC000005CC000005AC0000058C0000030
S113006056C0000024C4000052C0000050C000006C
S11300704EC000004CC000004AC0000048C0000050
S113008046C0000044C0000042C0000040C0000060
S113009013C500003CC000003AC0000038C0000096
S11300A036C0000034C0000032C0000030C0000080
S11300B02EC000002CC000002AC0000028C0000090
S11300C026C0000024C0000022C0000011241FBE6E
S11300D0CFEFD1E2DEBFCDBF00E00CBF1CE0A0E05B
S11300E0B2E0E0E9FBE200E00BBF02C007900D9232
S11300F0AC35B107D9F720E1ACE5BCE001C01D92F5
S1130100AE31B207E1F70E941C0D0C94C61578CFEE
S11301108091000290910102089580935E0C0895ED
S11301208093600C0895FC01E45AF34F65830895AD
S113013080935F0C089520E030E09091000D9823A7
S113014011F021E030E0C90108958091FF0C90E0A6
S11301500895FC01E450F34F858190E00895362F13
S113016020E0280F391FC9010895282F30E0C90164
S113017008958070892F90E008950F931F93CF9373
S1130180DF938091440D9091450D892B09F4B8C0FB
S113019080915E0C8E3F09F4A9C080910002909179
S11301A00102892B29F41092430D86E08093420DBD
S11301B08091430D90E06091420D70E0681B790BD3
S11301C08450934F49D39091430D980F9093430DCE
S11301D08091420D981718F44AD2019771F07091EA
S11301E0430D472F50E0DA0111978A010250104065
S11301F060E0ED01C450D34F18C08091430D8823B3
S113020009F071C086E090E073C0F901E450F34F47
S113021080818F3F19F481818F3F61F0201731076E
S113022019F488818F3F31F06F5F262F30E02A1751
S11302303B075CF36623A1F090E0421B530B08C01C
S1130240E450F34FDF01A20FB31F8C9180839F5FB3
S1130250E92FF0E0E417F5079CF3761B7093430D48
S11302602091430D8091420D281728F190915E0C46
S11302708091FE0C9817B9F56091FF0C6C5F609348
S1130280420D261788F4822F90E070E0681B790BEA
S11302908450934FE1D29091430D980F9093430D66
S11302A08091420D981738F08091FF0CA82FB0E090
S11302B020E090E00CC085E090E0909301028093F0
S11302C000021EC0E450F34F8281980F2F5FE22F8B
S11302D0F0E0AE17BF07B4F7A450B34F9095139650
S11302E08C91891719F087E090E002C081E090E0DA
S11302F090930102809300021092450D1092440DD8
S1130300DF91CF911F910F9108951F938091440D18
S11303109091450D019709F45DC081E090E09093C0
S1130320450D8093440D80915F0C893940F4909180
S1130330600C892F8150863028F0933819F084E0BE
S113034090E02FC08FEF80935C0C80935D0C8091C4
S11303505F0CA82FB0E020E090E005C0E45AF34F12
S11303608281980F2F5FE22FF0E0AE17BF07B4F73A
S1130370A45AB34F909513969C9380910002909148
S113038001020697029708F438D110915F0C1C5FA4
S11303908CE59CE0612F70E035D1181759F082E0AC
S11303A090E090930102809300021092450D109208
S11303B0440D10C08091600C823029F48091620C4D
S11303C090E0069602C086E090E040D110920102CF
S11303D0109200021F91089598DF8091000290917D
S11303E00102892B39F4C9DE809100029091010247
S11303F00597C9F30895282F8091440D9091450DD8
S1130400892B91F420935E0C83E08093600C6093BD
S1130410610CCA014093620C80709093630C85E078
S113042080935F0CD9CF0895FFCF282F8091440D7E
S11304309091450D892BB1F420935E0C82E080935A
S1130440600C6093610C8093620C84E080935F0C79
S1130450C3DF3091020D20E08091010D280F311D82
S1130460C9010895FFCF282F8091440D9091450D27
S1130470892B71F420935E0C83E08093600C60936D
S1130480610C4093620C84E080935F0CA5CF0895C7
S1130490FFCF282F8091440D9091450D892B91F425
S11304A020935E0C82E08093600C6093610C81E089
S11304B08093620C84E080935F0C8EDF8091010D49
S11304C090E00895FFCF282F8091440D9091450D21
S11304D0892B51F420935E0C81E08093600C82E0C0
S11304E080935F0C79CF0895FFCF86C008950F9352
S11304F01F938C016F5F7F4F882777FD8095982F1E
S11305000E94930F9B01AC0160E074E284EF99E4D4
S11305100E94F80EAB01BC01C80115D0892B19F457
S113052020E030E00CC081E090E0909301028093E1
S113053000021092450D1092440D21E030E0C901F3
S11305401F910F910895EF92FF920F931F937A01D9
S11305508B0182E48093C00088E98093C10086E027
S11305608093C20060E074E284EF99E4A8019701EB
S11305700E94F80E0E94650F615070407093C50090
S11305806093C40060E074E284E799E4A8019701F1
S11305900E94F80E20E030E040E451E40E941F1075
S11305A060930C1070930D1080930E1090930F10A5
S11305B020910C1030910D1040910E1050910F109D
S11305C060E070E08AE793E40E94F80E0E94650FF1
S11305D070930B1060930A107298739A8FEF809344
S11305E0C6001092460E1092470E81E090E01F91D3
S11305F00F91FF90EF90089508958091470E809396
S1130600460E0895AC01F8947398729A20E030E095
S113061011C08091C00085FFFCCF8091C000806430
S11306208093C000FA01E20FF31F80818093C6001B
S11306302F5F3F4F2617370764F38091C00086FF72
S1130640FCCF7298739A7894C9010895109213108C
S11306501092121020910A1030910B10265F3F4F18
S1130660280F391F30931110209310100895AF9262
S1130670BF92CF92DF92EF92FF920F931F938091DC
S113068012109091131001969093131080931210EE
S1130690209112103091131080911010909111102C
S11306A08217930718F421E030E074C0A0900C1076
S11306B0B0900D10C0900E10D0900F10C601B5016F
S11306C02BEA3AEA4AEA50E40E941F107B018C01AB
S11306D020E030E040E85FE30E948210882314F4B5
S11306E061E054C0C801B70120E030E04FE753E4B3
S11306F00E94AA1018160CF045C0C601B50120E0EE
S113070030E04AE754E40E94F80E5B016C0120E0FB
S113071030E04AE755E40E941F107B018C0120E081
S113072030E040E85FE30E94821088231CF461E01B
S113073070E024C0C801B70120E03FEF4FE757E461
S11307400E94AA101816B4F4C601B50120E030E0E6
S113075040E251E40E941F100E94650F80E991E07D
S113076005C0FC013197F1F76150704061157105C6
S1130770C1F70EC0C801B7010E94650FCB010197F4
S1130780F1F706C0C801B7010E94650F6A95F1F739
S113079020E030E0C9011F910F91FF90EF90DF90AE
S11307A0CF90BF90AF9008959091460E8091470EE0
S11307B0981719F420E030E017C09091460E80910C
S11307C0470E981738F48091470E9091460E282FC3
S11307D030E008C08091470E9091460E282F30E0FB
S11307E020503F4F291B3109C90108951F93182F29
S11307F0DBDF8F3F910591F0E091470EF0E0EA5B7B
S1130800F24F10838091470E8F3F19F41092470ED8
S113081005C08091470E8F5F8093470E1F91089506
S11308209091460E8091470E981711F4EFEF12C085
S1130830E091460EF0E0EA5BF24FE0818091460ED3
S11308408F3F19F41092460E05C08091460E8F5FBB
S11308508093460E8E2F0895EF92FF920F931F936D
S1130860CF93DF937C01EB019091460E8091470E6C
S1130870981719F400E010E012C096DF8C01C81735
S1130880D9070CF48E01C0E0D0E006C0C9DFF7013F
S1130890EC0FFD1F80832196C017D107BCF3C8015C
S11308A0DF91CF911F910F91FF90EF9008951F92C8
S11308B00F920FB60F920BB60F9211242F933F9302
S11308C04F935F936F937F938F939F93AF93BF9354
S11308D0EF93FF938091C60089DFFF91EF91BF9161
S11308E0AF919F918F917F916F915F914F913F91C4
S11308F02F910F900BBE0F900FBE0F901F90189565
S1130900AC0120E030E00CC08091C80085FFFCCF32
S1130910FA01E20FF31F80818093CE002F5F3F4FD7
S1130920261737078CF30895DC019091C80E809147
S1130930C90E981711F480E008959091C80E809123
S1130940C90E981719F420E030E017C09091C80E32
S11309508091C90E981738F48091C90E9091C80EF1
S1130960282F30E008C08091C90E9091C80E282F1E
S113097030E020583F4F291B3109A9016217730742
S11309800CF4AB0120E030E020C09091C80E8091BF
S1130990C90E981711F49FEF12C0E091C80EF0E051
S11309A0E85BF14F90818091C80E8F3719F4109253
S11309B0C80E05C08091C80E8F5F8093C80EFD01DC
S11309C0E20FF31F90832F5F3F4F24173507ECF29C
S11309D0842F08959091C80E8091C90E981719F428
S11309E020E030E017C09091C80E8091C90E98178E
S11309F038F48091C90E9091C80E282F30E008C0B9
S1130A008091C90E9091C80E282F30E020583F4F96
S1130A10291B3109C9010895482F9091C80E80916E
S1130A20C90E9817D1F09091C80E8091C90E9817ED
S1130A3038F48091C90E9091C80E282F30E008C078
S1130A408091C90E9091C80E282F30E020583F4F56
S1130A50291B31092F37310591F0E091C90EF0E0DF
S1130A60E85BF14F40838091C90E8F3719F41092DF
S1130A70C90E08958091C90E8F5F8093C90E0895A1
S1130A809091C80E8091C90E981711F4EFEF12C01F
S1130A90E091C80EF0E0E85BF14FE0818091C80E70
S1130AA08F3719F41092C80E05C08091C80E8F5F5D
S1130AB08093C80E8E2F08951F920F920FB60F9237
S1130AC00BB60F9211242F933F934F935F936F9321
S1130AD07F938F939F93AF93BF93EF93FF938091F3
S1130AE0CE009ADFFF91EF91BF91AF919F918F91CB
S1130AF07F916F915F914F913F912F910F900BBE1A
S1130B000F900FBE0F901F901895DF93CF930F9205
S1130B100F92CDB7DEB7982F8A3099F48DE0898390
S1130B209A83FE0131969E012D5F3F4F8091C8004C
S1130B3085FFFCCF81918093CE00E217F307B1F7D4
S1130B4006C08091C80085FFFCCF9093CE0080E062
S1130B5090E00F900F90CF91DF9108959091C80E7F
S1130B608091C90E9817D1F39091C80E8091C90E47
S1130B70981738F48091C90E9091C80E282F30E050
S1130B8008C08091C90E9091C80E282F30E02058DB
S1130B903F4F291B3109232B09F39091C80E8091F3
S1130BA0C90E981711F4EFEF15C0E091C80EF0E0EC
S1130BB0E85BF14FE0818091C80E8F3719F41092F1
S1130BC0C80E05C08091C80E8F5F8093C80EED30AB
S1130BD009F4EAE08E2F90E008950E94930F9B01A0
S1130BE0AC0160E074E284EF99E40E94F80E0E9484
S1130BF0650F6150704022E42093C80028E92093D7
S1130C00C90026E02093CA002FEF2093CE00109253
S1130C10C80E1092C90E272F332727FD3A9520932B
S1130C20CD006093CC007298739A85E895E06EEAE3
S1130C3075E00E9424119093CB0E8093CA0E089500
S1130C4060E071EE80E090E0C8DF78940895C2DE41
S1130C50181619060CF03FC08091141090911510CD
S1130C600E946E118A3011F08D3091F480911E0F24
S1130C7090911F0F181619068CF510921F0F1092E1
S1130C801E0F81E090E09093210F8093200F089530
S1130C90882339F120911E0F30911F0FA9014F5F56
S1130CA05F4F50931F0F40931E0FF901E253F14F12
S1130CB0808380911E0F90911F0F8F349105A4F0B3
S1130CC010921F0F10921E0F81E090E09093210F5D
S1130CD08093200F089580E090E0089580E090E0F4
S1130CE0089580E090E0089580E090E00895809178
S1130CF0200F9091210F181619063CF41092210F21
S1130D001092200F8EEC9EE0089580E090E008950C
S1130D108EE099E00E94BD1160E071EE80E090E009
S1130D205CDF789486E880937A0081E080937C008D
S1130D3008958130910551F08230910561F000975A
S1130D4071F421E020937C00179809C022E02093DD
S1130D507C00169804C023E020937C00159824E0BE
S1130D602A95F1F7EAE7F0E02081206120832081D1
S1130D7020642083208124FFFDCF2EEF22B99C0123
S1130D80220F331F220F331F220F331FFC01EE0FDC
S1130D90FF1FE20FF31FE451F04F60E070E020E02A
S1130DA030E02F5F3F4F4281538141935193640F51
S1130DB0751F24303105A9F720917800309179000E
S1130DC0AC014F5F5F4FFA01EE0FFF1F440F551F39
S1130DD0440F551F440F551FE40FF51FE451F04F06
S1130DE031832083620F731F6B39710554F0FC014A
S1130DF0EE0FFF1FE85DF04F81E090E09183808368
S1130E000895FC01EE0FFF1FE85DF04F1182108280
S1130E1008959F938F938DE199E09F938F930E9400
S1130E20AC110F900F900F900F90089561E070E057
S1130E3080E090E05CDB41E050E06FE270E08FE145
S1130E4090E0D9DA40E050E060E270E08EEF90E0AC
S1130E50D2DA40E050E068E170E08EEF90E003DB2E
S1130E602FE38DE093E0215080409040E1F700C0F3
S1130E70000008950F931F93CF93DF9300D0CDB755
S1130E80DEB720E23CE240E029833A834B83BE0193
S1130E906F5F7F4F0E94F210009789F00CE41FE00F
S1130EA00E94D510F801819391938F01BE016F5F69
S1130EB07F4F80E090E00E94F210009789F70F9036
S1130EC00F900F90DF91CF911F910F910895809112
S1130ED03E0F90913F0F88519C4F90933F0F80930A
S1130EE03E0F20913C0F30913D0F821793073CF049
S1130EF010923F0F10923E0F80E090E0089581E041
S1130F0090E00895A0914E0FB0914F0FA233B10518
S1130F10ACF4E0E5FFE0AA0FBB1FA295B295B07F49
S1130F20BA27A07FBA27A055BD4F20E73FE08191A3
S1130F3091918D939D93E217F307C9F70895CF928A
S1130F40DF92EF92FF920F931F93CF93DF93CDB76E
S1130F50DEB76E970FB6F894DEBF0FBECDBFFE01AD
S1130F6031968EE1DF011D928A95E9F700EF18E0D2
S1130F707F010F2EFEE0CF2EF9E0DF2EF02D64E28C
S1130F8070E0F801819191918F014FDAD7018D932F
S1130F909D937D010C151D0591F78E8D8F938D8D7D
S1130FA08F938C8D8F938B8D8F938A8D8F93898D57
S1130FB08F93888D8F938F898F938E898F938D894B
S1130FC08F938C898F938B898F938A898F93898947
S1130FD08F931F9282E08F9382E299E09F938F9385
S1130FE00E94AC110FB6F894DEBF0FBECDBF6E9653
S1130FF00FB6F894DEBF0FBECDBFDF91CF911F9126
S11310000F91FF90EF90DF90CF900895880F991F74
S113101082959295907F9827807F9827FC01E055D0
S1131020FD4F818D8F93808D8F9387898F938689D0
S11310308F9385898F9384898F9383898F938289F2
S11310408F9381898F9380898F9387858F938685EA
S11310508F9385858F9384858F9383858F938285E2
S11310608F9381858F9380858F9387818F938681DA
S11310708F9385818F9384818F9383818F938281D2
S11310808F9381818F9380818F931F9283E08F93BD
S11310908BE499E09F938F930E94AC118DB79EB718
S11310A04E960FB6F8949EBF0FBE8DBF0895CF9293
S11310B0DF92EF92FF920F931F93CF93DF93CDB7FD
S11310C0DEB76E970FB6F894DEBF0FBECDBFFE013C
S11310D031968EE1DF011D928A95E9F700EF18E061
S11310E07F010F2EFEE0CF2EF9E0DF2EF02D68E217
S11310F070E0F801819191918F0197D9D7018D9377
S11311009D937D010C151D0591F7888D8F938F8913
S11311108F938E898F938D898F938C898F938B89ED
S11311208F938A898F9389898F9388898F938F85E9
S11311308F938E858F938D858F938C858F938B85DD
S11311408F938A858F9389858F9388858F938F81D9
S11311508F938E818F938D818F938C818F938B81CD
S11311608F938A818F9389818F931F9284E08F93C9
S113117086E799E09F938F930E94AC110FB6F89481
S1131180DEBF0FBECDBF6E960FB6F894DEBF0FBEA6
S1131190CDBFDF91CF911F910F91FF90EF90DF9022
S11311A0CF900895CF92DF92EF92FF920F931F9307
S11311B0CF93DF93CDB7DEB76E970FB6F894DEBF4B
S11311C00FBECDBFFE0131968EE1DF011D928A95DF
S11311D0E9F700EF18E07F010F2EFEE0CF2EF9E0D3
S11311E0DF2EF02D6AE270E0F801819191918F0178
S11311F01CD90E94B500D7018D939D937D010C15D8
S11312001D0581F7888D8F938F898F938E898F9396
S11312108D898F938C898F938B898F938A898F93F0
S113122089898F9388898F938F858F938E858F93E8
S11312308D858F938C858F938B858F938A858F93E0
S113124089858F9388858F938F818F938E818F93D8
S11312508D818F938C818F938B818F938A818F93D0
S113126089818F931F9285E08F9386E799E09F93FE
S11312708F930E94AC110FB6F894DEBF0FBECDBFA2
S11312806E960FB6F894DEBF0FBECDBFDF91CF913F
S11312901F910F91FF90EF90DF90CF90089590935E
S11312A03B0F80933A0F7093390F6093380F20915E
S11312B0400F3091410F232B61F49093430F80939F
S11312C0420F7093410F6093400F1092390F1092A8
S11312D0380F08958091400F9091410F1816190608
S11312E00CF450C080914A0F90914B0F019709F074
S11312F049C08091320F9091330F892BD1F4E09142
S1131300440FF091450FEE0FFF1FEE0FFF1FE25F3A
S1131310FD4F80819181029761F461E070E081E08A
S113132090E0BDDF81E090E09093330F8093320F23
S113133008951092330F1092320FE091440FF09100
S1131340450FEE0FFF1FEE0FFF1FE25FFD4F62819F
S1131350738180819181A3DF8091440F9091450F27
S113136001969093450F8093440F20911002309181
S113137011022817390734F481E090E09093450F67
S11313808093440F08959093430F8093420F70937A
S1131390410F6093400F1092390F1092380F81E083
S11313A090E090930D0280930C0210923F0F1092E4
S11313B03E0F089581E090E090930D0280930C021B
S11313C01092410F1092400F10923F0F10923E0F57
S11313D08FEF9FEF90930B0280930A02089581E0B0
S11313E090E00E949B00019719F483EA99E0C5D725
S11313F082E090E00E949B00019719F488EB99E049
S1131400BCD784E090E00E949B00019719F48BEC18
S113141099E0B3D788E090E00E949B00019719F40B
S11314208BED99E0AAD780E190E00E949B000197A0
S113143019F48FEE99E0A1D780E290E00E949B001E
S1131440019719F48FEF99E098D780E490E00E9417
S11314509B00019719F48FE09AE08FC708958430B8
S1131460910591F034F48230910551F0039781F0A5
S11314701FC086309105A1F07CF00797A9F018C031
S113148087E29AE07AC7089588E59AE076C70895D6
S113149084E89AE072C7089587EB9AE06EC70895CE
S11314A084EE9AE06AC708958FE09BE066C70895CA
S11314B088E39BE062C708950F931F93CF93DF9354
S11314C08C01EB018EEF90E00E948D0083E890E0A8
S11314D00E94900060E270E080E090E00E9493003F
S11314E062E070E081E090E00E949300B80182E045
S11314F090E00E949300CE010E94B500BC0183E0FD
S113150090E00E949300CE010E94B900BC0184E0E7
S113151090E00E94930087E090E00E9498000E946F
S1131520EC010E9488008130910511F458DF01C05C
S113153096DFDF91CF911F910F9108952F923F92E3
S11315404F925F926F927F928F929F92AF92BF92CF
S1131550CF92DF92EF92FF920F931F93CF93DF937B
S1131560CDB7DEB7C854D1090FB6F894DEBF0FBEAD
S1131570CDBF25969FAF8EAF2597C2970CF083C140
S1131580FE0131968EE1DF011D928A95E9F72596D9
S11315908EAD9FAD2597880F991F82959295907F68
S11315A09827807F98279C0120553D4F27963FAF71
S11315B02EAF27976E2E7F2E0F2EFEE08F2EF9E092
S11315C09F2EF02D7F01590100EF18E0C12CD12C82
S11315D064E270E0D8018D919D918D010E94150205
S11315E0F501219131915F01A901481B590BCA01F1
S11315F0992324F0D7014D935C9306C0919581956E
S11316009109F70191838083D7018D919D917D018B
S1131610C816D9060CF46C0108151905C9F61E0183
S1131620BFE12B0E311C8EE1F10111928A95E9F78D
S113163084E690E098A38F8F2596EEADFFAD2597B5
S1131640EE0FFF1FE295F295F07FFE27E07FFE2765
S1131650E055FD4F668D778D882777FD8095982F0F
S113166062D423966CAF7DAF8EAF9FAF239728963D
S11316702FAE289729963FAE29973EAE2DAEA62CC5
S1131680B72CEE24D7FCE094FE2CD5010D911D91CE
S11316905D01C701B60147D42B013C01B80188277D
S11316A077FD8095982F3FD4A3019201A1D39B018C
S11316B0AC0123966CAD7DAD8EAD9FAD2397BFD4A9
S11316C0FFD36115710521F0F1017183608305C0B9
S11316D0E1E0F0E0D101ED93FC93F2E02F0E311C38
S11316E02DAD3EADA216B30681F62596EEADFFAD47
S11316F02597EE0FFF1FE295F295F07FFE27E07F1E
S1131700FE27E055FD4F668D778D8BEF93E126D54F
S1131710882777FD8095982F06D49B01AC01C301DF
S1131720B2018DD4CDD3683E33E073072CF07093AF
S11317303D0F60933C0F06C088EE93E090933D0FFD
S113174080933C0F8EEF90E00E948D0083E890E040
S11317500E94900060E270E080E090E00E949300BC
S113176062E070E081E090E00E9493002896CFACA4
S113177028972996DFAC29970F2EF0EFEF2EF8E08B
S1131780FF2EF02D02E010E0D7016D917D917D01D7
S1131790C8010E949300F601A190B1906F01C501A8
S11317A00E94B500BC01C80101960E949300C501C6
S11317B00E94B900BC01C80102960E9493000D5F0B
S11317C01F4FE814F90401F781E390E00E949800A8
S11317D00E94EC010E9488008130910509F052C0FA
S11317E0FEDD8EEF90E00E948D0083E890E00E9481
S11317F090006EE170E080E090E00E94930062E06F
S113180070E081E090E00E9493002796CEACDFACBC
S113181027970F2EF0EFEF2EF8E0FF2EF02D02E0C9
S113182010E0D7016D917D917D01C8010E94930064
S11318305601F601819191916F010E94B500BC019E
S1131840C80101960E949300D5018D919C910E943C
S1131850B900BC01C80102960E9493000D5F1F4F9E
S1131860E814F904F1F681E390E00E9498000E94E4
S1131870EC010E9488008130910511F4B0DD03C0B1
S1131880EEDD01C0ECDDC85BDF4F0FB6F894DEBFC0
S11318900FBECDBFDF91CF911F910F91FF90EF90BD
S11318A0DF90CF90BF90AF909F908F907F906F907C
S11318B05F904F903F902F90089548990EC080916B
S11318C0480F9091490F892B09F050C081E090E0B6
S11318D09093490F8093480F08958091480F9091F9
S11318E0490F019709F042C01092490F1092480F16
S11318F080914A0F90914B0F9C012F5F3F4F309383
S11319004B0F20934A0F26E030E0A901481B590BE6
S1131910CA01181619063CF08FE388B910924B0FD0
S113192010924A0F0BC021E030E0A90102C0440F1D
S1131930551F8A95E2F7CA01809588B93BDD80E09E
S113194090E0FCDD81E090E09093450F8093440F9C
S113195080914A0F90914B0F019741F480910E02B0
S113196090910F029093470F8093460F08950F9321
S11319701F93CF93DF93ABDA892B09F058C0E09122
S1131980420FF091430FEE0FFF1FE65CFD4FC08145
S1131990D1810881198180910C0290910D02081760
S11319A0190714F584E59BE0E8D483E090E0909374
S11319B0430F8093420F1F930F9380910D028F93D7
S11319C080910C028F938FE59BE09F938F93C4D4F7
S11319D081E090E090930D0280930C020F900F90A1
S11319E00F900F900F900F9080910D028F93809124
S11319F00C028F938EE89BE09F938F93ADD48091DC
S1131A000C0290910D02880F991FC80FD91F88816D
S1131A10998194DD80910C0290910D02019690932E
S1131A200D0280930C020F900F900F900F90DF9196
S1131A30CF911F910F9108952F923F924F925F92F1
S1131A406F927F928F929F92AF92BF92CF92DF92CA
S1131A50EF92FF920F931F93CF93DF938CEF81B993
S1131A608EEF82B98FE787B98EE788B980E78AB9A4
S1131A7081E18BB9DBD9E4D84BD980912E0F9091B9
S1131A802F0F019741F440E050E068E170E08EEFE1
S1131A9090E00E9433020F2EFCE44F2EFFE05F2EF5
S1131AA0F02D0F2EF0E53F2EF02D0F2EF0EA2F2E05
S1131AB0F02D0F2EF8E2CF2EFFE0DF2EF02D0F2EAB
S1131AC0F2E2AF2EFFE0BF2EF02D0F2EFAE2EF2E42
S1131AD0FFE0FF2EF02D0F2EF4E28F2EFFE09F2E5D
S1131AE0F02D0CE21FE00F2EF6E26F2EFFE07F2EAA
S1131AF0F02D80E090E01DD981E090E01AD982E0D9
S1131B0090E017D9DADEA3D8181619060CF08AC0AB
S1131B10EED8EC01009709F485C0ACD9F2018081BC
S1131B2091818630910509F463C094F48230910563
S1131B3009F44AC034F4009701F1019709F446C04E
S1131B4069C08430910509F44FC00CF440C04EC004
S1131B508930910579F134F487309105B9F008970B
S1131B6021F158C08B30910509F457C00CF449C0D9
S1131B70873E934009F41FC14DC0EEE4FFE080812D
S1131B809181DCDC81E090E044D947C0E0E5FFE0EE
S1131B9060817181EEE4FFE08081918180DBFFED63
S1131BA0F8B981E090E035D938C004DC81E090E0F8
S1131BB030D933C0E0E5FFE060817181EEE4FFE0FD
S1131BC080819181E0DB29C0BAD927C09BD9EEE49A
S1131BD0FFE0808191818233910524F080E090E0E0
S1131BE018D91BC013DA19C062DA17C0DBDA15C0C2
S1131BF040E050E068E170E08EEF90E00E94330234
S1131C000CC01092340F1092350F1092360F1092B0
S1131C10370F03C080E090E0FCD8FE01232D119221
S1131C202A95E9F7F201222D11922A95E9F70199F3
S1131C3017C08091080290910902181619066CF5D4
S1131C4010920902109208028FE788B980912E0F32
S1131C5090912F0F019709F180E090E06FDC1DC097
S1131C608091080290910902892B39F4469881E009
S1131C7090E090930902809308028091460F90911E
S1131C80470F181619061CF025DB71DE06C0885EA6
S1131C9093409093470F8093460FF6018081918182
S1131CA0009751F4F50180819181892B81F082EABA
S1131CB09BE063D345980BC0F501208131818217E5
S1131CC0930729F081EC9BE058D38FE588B9F7019D
S1131CD080819181009751F4F40180819181892B55
S1131CE081F080EE9BE049D344980BC0F40120813D
S1131CF031818217930729F08FEF9BE03ED38FE663
S1131D0088B9F80180819181009751F4F3018081B1
S1131D109181892B81F08EE19CE02FD343980BC0F5
S1131D20F301208131818217930729F08DE39CE030
S1131D3024D387E788B9F60180819181F5019183E5
S1131D408083F70180819181F40191838083F8017C
S1131D5080819181F30191838083FFE32DE083E00F
S1131D60F15020408040E1F700C000008091340F22
S1131D709091350FA091360FB091370F0196A11DA8
S1131D80B11D8093340F9093350FA093360FB09309
S1131D90370F8091300F9091310F01969093310F4E
S1131DA08093300F499709F0A4CEC9D81092310F0F
S1131DB01092300F9ECE87EE93E02BD860E070E057
S1131DC080E090E079DB80E090E0DF91CF911F919B
S1131DD00F91FF90EF90DF90CF90BF90AF909F90C6
S1131DE08F907F906F905F904F903F902F900895C9
S1131DF00CD0EBC0E3D040F0DAD030F021F45F3FF8
S1131E0019F0CCC0511115C1CFC0F0D098F399236B
S1131E10C9F35523B1F3951B550BBB27AA276217AA
S1131E207307840738F09F5F5F4F220F331F441FEF
S1131E30AA1FA9F333D00E2E3AF0E0E830D0915027
S1131E405040E695001CCAF729D0FE2F27D0660F14
S1131E50771F881FBB1F261737074807AB07B0E853
S1131E6009F0BB0B802DBF01FF2793585F4F2AF069
S1131E709E3F510568F092C0DCC05F3FECF3983E92
S1131E80DCF3869577956795B795F7959F5FC9F7C6
S1131E90880F911D9695879597F90895E1E0660F4F
S1131EA0771F881FBB1F621773078407BA0720F0C8
S1131EB0621B730B840BBA0BEE1F88F7E095089531
S1131EC004D06894B111B5C0089598D088F09F5794
S1131ED090F0B92F9927B751A0F0D1F0660F771F72
S1131EE0881F991F1AF0BA95C9F712C0B13081F052
S1131EF09FD0B1E008959CC0672F782F8827B85FE2
S1131F0039F0B93FCCF3869577956795B395D9F7B2
S1131F103EF490958095709561957F4F8F4F9F4FBC
S1131F200895E89409C097FB3EF4909580957095C8
S1131F3061957F4F8F4F9F4F9923A9F0F92F96E911
S1131F40BB279395F695879577956795B795F11186
S1131F50F8CFFAF4BB0F11F460FF1BC06F5F7F4F23
S1131F608F4F9F4F16C0882311F096E911C0772335
S1131F7021F09EE8872F762F05C0662371F096E83E
S1131F80862F70E060E02AF09A95660F771F881F0D
S1131F90DAF7880F9695879597F9089597F99F67CB
S1131FA080E870E060E008959FEF80EC08950024DD
S1131FB00A941616170618060906089500240A94AA
S1131FC012161306140605060895092E0394000C30
S1131FD011F4882352F0BB0F40F4BF2B11F460FFBF
S1131FE004C06F5F7F4F8F4F9F4F089557FD9058E8
S1131FF0440F551F59F05F3F71F04795880F97FBC9
S1132000991F61F09F3F79F0879508951216130682
S11320101406551FF2CF4695F1DF08C016161706B1
S11320201806991FF1CF86957105610508940895E6
S1132030E894BB2766277727CB0197F908950BD03F
S1132040C4CFB5DF28F0BADF18F0952309F0A6CF86
S1132050ABCF1124EECFCADFA0F3959FD1F3950F38
S113206050E0551F629FF001729FBB27F00DB11D18
S1132070639FAA27F00DB11DAA1F649F6627B00DA8
S1132080A11D661F829F2227B00DA11D621F739F91
S1132090B00DA11D621F839FA00D611D221F749F9F
S11320A03327A00D611D231F849F600D211D822FE6
S11320B0762F6A2F11249F5750408AF0E1F088232D
S11320C04AF0EE0FFF1FBB1F661F771F881F91503A
S11320D05040A9F79E3F510570F060CFAACF5F3FF3
S11320E0ECF3983EDCF3869577956795B795F7956D
S11320F0E7959F5FC1F7FE2B880F911D96958795F5
S113210097F9089503D008F481E00895990F000821
S1132110550FAA0BE0E8FEEF16161706E807F907B5
S1132120C0F012161306E407F50798F0621B730B50
S1132130840B950B39F40A2661F0232B242B252BD1
S113214021F408950A2609F4A140A6958FEF811D74
S1132150811D0895DBDF08F48FEF089597FB072EA8
S113216016F4009406D077FD08D00BD007FC05D0F8
S11321703EF4909581959F4F0895709561957F4F9A
S11321800895AA1BBB1B51E107C0AA1FBB1FA617BA
S1132190B70710F0A61BB70B881F991F5A95A9F70C
S11321A080959095BC01CD010895FC01882799275D
S11321B0E89421912032E9F3293010F02E30C8F34D
S11321C02B3239F02D3231F4689403C035D0820FAC
S11321D0911D219120532A30C8F31EF490958195C6
S11321E09F4F08954CEC5EE000C0FA01A191B081CC
S11321F0009719F41097E1F0CD01DC01CD010D90A9
S1132200002011F4C00113C0FB012191222319F015
S11322102015D9F7F3CFFB012191201519F41E9253
S1132220119606C02223C1F70D900020A1F7D0011A
S1132230FA01A193B08308957AE0979F902D879F28
S1132240802D910D112408950F931F93CF93DF9345
S1132250EC018B01009731F46115710519F480E0EC
S113226090E037C06EE070E081E090E0A1D2FC0124
S11322700097A9F380E883830115110571F0138792
S1132280028781E883838091141090911510892B23
S113229021F4F0931510E09314102097C9F0D1871E
S11322A0C087838182608383809116109091171078
S11322B0892B71F4F0931710E09316108091181085
S11322C090911910892B21F4F0931910E0931810B0
S11322D0CF01DF91CF911F910F910895CF93DF9399
S11322E0EC012B8120FF33C026FF0AC02F7B2B83F8
S11322F08E819F8101969F838E838A8190E029C07D
S113230022FF0FC0E881F9818081992787FD90958C
S1132310009719F420622B831AC03196F983E8835D
S11323200EC0EA85FB85199597FF09C02B8101969C
S113233011F480E101C080E2822B8B8308C02E81DE
S11323403F812F5F3F4F3F832E83992702C08FEF3A
S11323509FEFDF91CF910895CF93DF93CDB7DEB791
S1132360FE01369661917191AF01809116109091A2
S1132370171030D0DF91CF9108950F931F93CF930F
S1132380DF93E0911610F0911710238121FF1BC0F9
S1132390EC0100E010E08991609116107091171023
S11323A0DB011896ED91FC911997882331F019956A
S11323B0892B89F30FEF1FEFEECF8AE01995892B54
S11323C011F4C80102C08FEF9FEFDF91CF911F91ED
S11323D00F9108952F923F924F925F926F927F9246
S11323E08F929F92AF92BF92CF92DF92EF92FF9221
S11323F00F931F93CF93DF93CDB7DEB72C970FB610
S1132400F894DEBF0FBECDBF7C016B018A01FC01D5
S113241017821682838181FFB0C1CE0101964C01DF
S1132420F7019381F60193FD859193FF81916F01EB
S1132430882309F49EC1853239F493FD859193FF75
S113244081916F01853221F4B70190E00FD3E8CF79
S1132450512C312C20E02032A0F48B3269F030F47E
S1132460803259F0833269F420612CC08D3239F006
S1132470803339F4216026C02260246023C02860A0
S113248021C027FD27C030ED380F3A3078F426FFFD
S113249006C0FAE05F9E300D1124532E13C08AE06B
S11324A0389E300D1124332E20620CC08E3221F45C
S11324B026FD5FC1206406C08C3611F4206802C07A
S11324C0883641F4F60193FD859193FF81916F0164
S11324D08111C1CF982F9F7D9554933028F40C5FC0
S11324E01F4FFFE3F9830DC0833631F0833771F05A
S11324F0833509F057C021C0F801808189830E5FBC
S11325001F4F44244394512C540114C03801F2E069
S11325106F0E711CF801A080B18026FF03C0652DE9
S113252070E002C06FEF7FEFC5012C8794D22C01BD
S113253083012C852F77222E16C03801F2E06F0E0E
S1132540711CF801A080B18026FF03C0652D70E0E6
S113255002C06FEF7FEFC5012C876BD22C012C8555
S11325602068222E830123FC19C0832D90E0481695
S11325705906A0F4B70180E290E078D23A94F5CFFE
S1132580F50127FC859127FE81915F01B70190E059
S11325906DD231103A94F1E04F1A510841145104AC
S11325A079F7DEC0843611F0893631F5F80127FF5A
S11325B007C060817181828193810C5F1F4F08C0C5
S11325C060817181882777FD8095982F0E5F1F4F5A
S11325D02F76B22E97FF09C09095809570956195DE
S11325E07F4F8F4F9F4F2068B22E2AE030E0A40126
S11325F06FD2A82EA81843C0853729F42F7EB22E97
S11326002AE030E025C0F22FF97FBF2E8F36C1F0CB
S113261018F4883579F0ADC0803719F0883721F087
S1132620A8C02F2F2061B22EB4FE0DC08B2D846064
S1132630B82E09C024FF0AC09F2F9660B92E06C089
S113264028E030E005C020E130E002C020E132E0C3
S1132650F801B7FE07C060817181828193810C5FAC
S11326601F4F06C06081718180E090E00E5F1F4FB4
S1132670A4012ED2A82EA818FB2DFF77BF2EB6FEDC
S11326800BC02B2D2E7FA51450F4B4FE0AC0B2FC4F
S113269008C02B2D2E7E05C07A2C2B2D03C07A2C3E
S11326A001C0752C24FF0DC0FE01EA0DF11D8081CF
S11326B0803311F4297E09C022FF06C073947394F9
S11326C004C0822F867809F0739423FD12C020FF82
S11326D006C05A2C731418F4530C5718732C731423
S11326E060F4B70180E290E02C87C0D173942C850C
S11326F0F6CF731410F4371801C0312C24FF11C025
S1132700B70180E390E02C87B1D12C8522FF16C05D
S113271021FF03C088E590E002C088E790E0B7019C
S11327200CC0822F867851F021FD02C080E201C0E6
S11327308BE227FD8DE2B70190E098D1A51430F427
S1132740B70180E390E092D15A94F8CFAA94F401AF
S1132750EA0DF11D8081B70190E088D1A110F6CF78
S1132760332009F45DCEB70180E290E07FD13A9442
S1132770F7CFF7018681978102C08FEF9FEF2C96E8
S11327800FB6F894DEBF0FBECDBFDF91CF911F917E
S11327900F91FF90EF90DF90CF90BF90AF909F90FC
S11327A08F907F906F905F904F903F902F900895FF
S11327B00F931F93CF93DF93869F8001879F100D04
S11327C0969F100D1124C8010DD0EC01009721F043
S11327D0A80160E070E038D1CE01DF91CF911F9164
S11327E00F910895CF93DF938230910510F482E026
S11327F090E0E0911C10F0911D1020E030E0A0E08A
S1132800B0E0309739F14081518148175907B8F049
S11328104817590771F482819381109729F0139610
S11328209C938E9312972CC090931D1080931C1030
S113283027C02115310531F04217530718F0A901BB
S1132840DB0101C0EF019A01BD01DF010280F381C8
S1132850E02DD7CF21153105F9F0281B390B243091
S1132860310580F48A819B816115710521F0FB019A
S11328709383828304C090931D1080931C10FE01E7
S1132880329644C0FE01E20FF31F819391932250CC
S11328903109398328833AC020911A1030911B10D2
S11328A0232B41F4209104023091050230931B1034
S11328B020931A1020910202309103022115310550
S11328C041F42DB73EB74091060250910702241BF4
S11328D0350BE0911A10F0911B10E217F307A0F4E6
S11328E02E1B3F0B2817390778F0AC014E5F5F4F62
S11328F02417350748F04E0F5F1F50931B10409369
S11329001A108193919302C0E0E0F0E0CF01DF91CF
S1132910CF910895CF93DF93009709F487C0FC010A
S1132920329713821282C0911C10D0911D102097EF
S113293081F420813181280F391F80911A109091E0
S11329401B108217930779F5F0931B10E0931A106C
S11329506DC0DE0120E030E0AE17BF0750F41296E0
S11329604D915C9113979D014115510509F1DA01CF
S1132970F3CFB383A28340815181840F951F8A17BB
S11329809B0771F48D919C911197840F951F02966A
S11329909183808312968D919C9113979383828364
S11329A02115310529F4F0931D10E0931C103EC04D
S11329B0D9011396FC93EE9312974D915D91A40F58
S11329C0B51FEA17FB0779F480819181840F951F65
S11329D00296D90111969C938E93828193811396CA
S11329E09C938E931297E0E0F0E08A819B8100979C
S11329F019F0FE01EC01F9CFCE010296288139814C
S1132A00820F931F20911A1030911B102817390739
S1132A1069F4309729F410921D1010921C1002C012
S1132A2013821282D0931B10C0931A10DF91CF919E
S1132A300895FC010590615070400110D8F780950D
S1132A4090958E0F9F1F0895DC0101C06D93415036
S1132A505040E0F70895FC0161507040019001106E
S1132A60D8F7809590958E0F9F1F08950F931F930D
S1132A70CF93DF93182F092FEB018B8181FD03C0C6
S1132A808FEF9FEF20C082FF10C04E815F812C81A9
S1132A903D81421753077CF4E881F9819F012F5F40
S1132AA03F4F39832883108306C0E885F985812F39
S1132AB01995892B29F72E813F812F5F3F4F3F8343
S1132AC02E83812F902FDF91CF911F910F91089525
S1132AD0FA01AA27283051F1203181F1E8946F934B
S1132AE06E7F6E5F7F4F8F4F9F4FAF4FB1E03ED0F1
S1132AF0B4E03CD0670F781F891F9A1FA11D680F8F
S1132B00791F8A1F911DA11D6A0F711D811D911DC1
S1132B10A11D20D009F468943F912AE0269F112436
S1132B203019305D3193DEF6CF010895462F47709A
S1132B30405D4193B3E00FD0C9F7F6CF462F4F70F5
S1132B40405D4A3318F0495D31FD4052419302D053
S1132B50A9F7EACFB4E0A6959795879577956795F9
S1132B60BA95C9F700976105710508959B01AC01F9
S1132B700A2E06945795479537952795BA95C9F720
S1132B80620F731F841F951FA01D0895F894FFCF33
S1132B90010000001E1020000100FFFF0100E803F7
S1132BA00A000000010003000A0003000A000300F9
S1132BB00A0003000A0003000A0003000A000300DD
S1132BC00A0003000A0000000100AC02A8029602F9
S1132BD08402760268025A024A02070003000400D3
S1132BE00500060007000800090006000A000B00A3
S1132BF00C000D000E000F00060023002400250029
S1132C0026002700280006001D001E001F002000CB
S1132C102100220008000A000B000C000D000E0029
S1132C200F0010001100080029002A002B002C00BE
S1132C302D002E002F0030000100010001000000D3
S1132C4000014202F102B501D3029E012D016B0283
S1132C5000020002000200020002000200026400FE
S1132C60BF018702DE02A401DA029E01C8015B03F0
S1132C700002000200020002000200020002C8007A
S1132C80250000023203000232030002CD000002DC
S1132C90000200020002000200020002C80000005C
S1132CA000014202F102B501D3029E012D016B0223
S1132CB0000200020002000200020002000264009E
S1132CC000014202F102B501D3029E012D016B0203
S1132CD0000200020002000200020002000264007E
S1132CE000014202F102B501D3029E012D016B02E3
S1132CF0000200020002000200020002000264005E
S1132D0000014202F102B501D3029E012D016B02C2
S1132D10000200020002000200020002000264003D
S1132D2000014202F102B501D3029E012D016B02A2
S1132D30000200020002000200020002000264001D
S1132D4000014202F102B501D3029E012D016B0282
S1132D5000020002000200020002000200026400FD
S1132D6000014202F102B501D3029E012D016B0262
S1132D7000020002000200020002000200026400DD
S1132D8039017E02B6029C00540293015D01930254
S1132D900002000200020002000200020002C80059
S1132DA02A0165023A02360132029F0024016002C0
S1132DB00002000200020002000200020002C80039
S1132DC05C01FA02AB02680194026101B0015D0288
S1132DD00002000200020002000200020002C80019
S1132DE0CD01EC02A1025201510227011C025A0337
S1132DF00002000200020002000200020002C800F9
S1132E0032017F029B02E5007102AA01540188028B
S1132E100002000200020002000200020002C800D8
S1132E20580197021E021B011502A30057019202CA
S1132E300002000200020002000200020002C800B8
S1132E403F013503D7029501AB027401800154029E
S1132E500002000200020002000200020002C80098
S1132E60BC01D102CC028B019F026B01DE01450340
S1132E700002000200020002000200020002C80078
S1132E8030017F02AD0211017B02CB015201A2028B
S1132E900002000200020002000200020002C80058
S1132EA06B00E40072030803D60364024E00900131
S1132EB00002000200020002000200020002C80038
S1132EC0660033019803CC029803CC0266003301F8
S1132ED000020002000200020002000200023200AE
S1132EE0660033019803CC029803CC0266003301D8
S1132EF0000200020002000200020002000232008E
S1132F00660033019803CC029803CC0266003301B7
S1132F10000200020002000200020002000232006D
S1132F20660033019803CC029803CC026600330197
S1132F30000200020002000200020002000232004D
S1132F40660033019803CC029803CC026600330177
S1132F50000200020002000200020002000232002D
S1132F60660033019803CC029803CC026600330157
S1132F70000200020002000200020002000232000D
S1132F80660033019803CC029803CC026600330137
S1132F9000020002000200020002000200023200ED
S1132FA0660033019803CC029803CC026600330117
S1132FB000020002000200020002000200023200CD
S1132FC0660033019803CC029803CC0266003301F7
S1132FD000020002000200020002000200023200AD
S1132FE000003301980332039803320300003301D5
S1132FF0000200020002000200020002000232008D
S1133000000033019803CC029803CC020000330182
S1133010000200020002000200020002000232006C
S1133020660033019803CC029803CC026600330196
S1133030000200020002000200020002000232004C
S11330400000330198033203980332030000330174
S1133050000200020002000200020002000232002C
S1133060000033019803CC029803CC020000330122
S1133070000200020002000200020002000232000C
S1133080660033019803CC029803CC026600330136
S113309000020002000200020002000200023200EC
S11330A06600CD00FF03CC02FF03CC026600CD0016
S11330B0000200020002000200020002000264009A
S11330C066003301FF03CC02FF03CC026600330128
S11330D0000200020002000200020002000264007A
S11330E0660033019803CC029803CC0266003301D6
S11330F0000200020002000200020002000264005A
S11331006600CD00FF03CC02FF03CC026600CD00B5
S11331100002000200020002000200020002640039
S113312066003301FF03CC02FF03CC0266003301C7
S11331300002000200020002000200020002640019
S1133140660033019803CC029803CC026600330175
S113315000020002000200020002000200026400F9
S11331609A01CC0232030002980366020000330184
S113317000020002000200020002000200026400D9
S1133180330100023203000298030002CD00000262
S113319000020002000200020002000200026400B9
S11331A033010002980300023203000200003301DD
S11331B00002000200020002000200020002640099
S11331C033010002980300029803660266009A0124
S11331D00002000200020002000200020002640079
S11331E0CD00000266023301FF03CC0266009A019F
S11331F00002000200020002000200020002640059
S1133200CD000002CC02000232030002660000027C
S11332100002000200020002000200020002640038
S113322066000002CC020002FF03CC02CD000002C3
S11332300002000200020002000200020002640018
S113324066000002CC0200029803660266009A013E
S113325000020002000200020002000200026400F8
S1133260CD0000023203000232030002CD0000024E
S113327000020002000200020002000200026400D8
S1133280130004000E0011000500070010000600E2
S11332900D000C000B000A000900080002002323A3
S11332A0232073656E736F72496E69740025640A16
S11332B00A004E45434B2E2E2E2025643A7B25646E
S11332C02C2025642C2025642C2025642C202564A6
S11332D02C2025642C2025647D0A0025643A25646D
S11332E02C25642C25642C25642C25642C25642C25
S11332F025642C25642C25642C25642C25642C251C
S1133300642C25640A0025643A25642C25642C2544
S1133310642C25642C25642C25642C25642C2564BC
S11333202C25642C25642C25642C25640A00256432
S11333303B0A00496E70757420766F6C7461676522
S1133340206572726F722100416E676C65206C6932
S11333506D6974206572726F7221004F76657268B0
S1133360656174206572726F7221004F7574206FED
S1133370662072616E6765206572726F7221004308
S11333806865636B73756D206572726F7221004F8F
S11333907665726C6F6164206572726F7221004988
S11333A06E737472756374696F6E20636F646520E5
S11333B06572726F722100434F4D4D5F5458464100
S11333C0494C3A204661696C6564207472616E737D
S11333D06D697420696E737472756374696F6E209D
S11333E07061636B65742100434F4D4D5F545845C4
S11333F052524F523A20496E636F72726563742061
S1133400696E737472756374696F6E207061636B37
S113341065742100434F4D4D5F52584641494C3A23
S1133420204661696C6564206765742073746174F7
S11334307573207061636B65742066726F6D2064B0
S113344065766963652100434F4D4D5F525857417E
S11334504954494E473A204E6F7720726563696537
S113346076696E6720737461747573207061636B21
S113347065742100434F4D4D5F525854494D454F9B
S113348055543A205468657265206973206E6F2024
S1133490737461747573207061636B657421004388
S11334A04F4D4D5F5258434F52525550543A204954
S11334B06E636F72726563742073746174757320C4
S11334C07061636B657421005468697320697320AB
S11334D0756E6B6E6F776E206572726F7220636F9C
S11334E064652100232323206D6F7665203100233A
S11334F02323206D6F74696F6E436F756E74203E65
S1133500206D61782E206D6F74696F6E436F756ED8
S1133510743A25642C206D61783A25640A002323CB
S113352023206D6F74696F6E436F756E743A2564F2
S11335300A00232323206D61696E28292073656E98
S1133540736F7256616C75655B305D203D3D203054
S113355000232323206D61696E28292073656E730F
S11335606F7256616C75655B305D203D3D203100A6
S1133570232323206D61696E28292073656E736F80
S11335807256616C75655B315D203D3D20300023D2
S11335902323206D61696E28292073656E736F7211
S11335A056616C75655B315D203D3D203100232300
S11335B023206D61696E28292073656E736F7256BE
S11335C0616C75655B325D203D3D20300023232313
S11335D0206D61696E28292073656E736F72566160
S10F35E06C75655B325D203D3D203100C0
S9030000FC
