:1000000065C0000084C0000082C0000080C0000005
:100010007EC000007CC000007AC0000078C00000F4
:1000200076C0000074C0000072C0000070C0000004
:100030006EC000006CC000006AC0000068C0000014
:1000400066C0000064C0000062C0000060C0000024
:100050005EC000005CC000005AC0000058C0000034
:1000600056C0000024C4000052C0000050C0000070
:100070004EC000004CC000004AC0000048C0000054
:1000800046C0000044C0000042C0000040C0000064
:1000900013C500003CC000003AC0000038C000009A
:1000A00036C0000034C0000032C0000030C0000084
:1000B0002EC000002CC000002AC0000028C0000094
:1000C00026C0000024C0000022C0000011241FBE72
:1000D000CFEFD1E2DEBFCDBF00E00CBF19E0A0E062
:1000E000B2E0EAEAFBE200E00BBF02C007900D922B
:1000F000AC37B107D9F72DE0ACE7B9E001C01D92EC
:10010000AE33B207E1F70E94290D0C94D31578CFD6
:100110008091000290910102089580937E090895D4
:10012000809380090895FC01E458F64F6583089593
:1001300080937F09089520E030E09091200A982371
:1001400011F021E030E0C901089580911F0A90E08C
:100150000895FC01E45EF54F858190E00895362F07
:1001600020E0280F391FC9010895282F30E0C90168
:1001700008958070892F90E008950F931F93CF9377
:10018000DF938091640A9091650A892B09F4B8C0C5
:1001900080917E098E3F09F4A9C080910002909160
:1001A0000102892B29F41092630A86E08093620A87
:1001B0008091630A90E06091620A70E0681B790B9D
:1001C000845E954F49D39091630A980F9093630A88
:1001D0008091620A981718F44AD2019771F07091D1
:1001E000630A472F50E0DA0111978A01025010404C
:1001F00060E0ED01C45ED54F18C08091630A88238A
:1002000009F071C086E090E073C0F901E45EF54F3B
:1002100080818F3F19F481818F3F61F02017310772
:1002200019F488818F3F31F06F5F262F30E02A1755
:100230003B075CF36623A1F090E0421B530B08C020
:10024000E45EF54FDF01A20FB31F8C9180839F5FA7
:10025000E92FF0E0E417F5079CF3761B7093630A2F
:100260002091630A8091620A281728F190917E09F3
:1002700080911E0A9817B9F560911F0A6C5F609310
:10028000620A261788F4822F90E070E0681B790BD1
:10029000845E954FE1D29091630A980F9093630A20
:1002A0008091620A981738F080911F0AA82FB0E059
:1002B00020E090E00CC085E090E0909301028093F4
:1002C00000021EC0E45EF54F8281980F2F5FE22F7F
:1002D000F0E0AE17BF07B4F7A45EB54F9095139644
:1002E0008C91891719F087E090E002C081E090E0DE
:1002F00090930102809300021092650A1092640AA2
:10030000DF91CF911F910F9108951F938091640AFF
:100310009091650A019709F45DC081E090E09093A7
:10032000650A8093640A80917F09893940F490912D
:100330008009892F8150863028F0933819F084E0A5
:1003400090E02FC08FEF80937C0980937D0980918E
:100350007F09A82FB0E020E090E005C0E458F64FF8
:100360008281980F2F5FE22FF0E0AE17BF07B4F73E
:10037000A458B64F909513969C938091000290914B
:1003800001020697029708F438D110917F091C5F8B
:100390008CE799E0612F70E035D1181759F082E0B1
:1003A00090E090930102809300021092650A1092EF
:1003B000640A10C080918009823029F480918209FA
:1003C00090E0069602C086E090E040D110920102D3
:1003D000109200021F91089598DF80910002909181
:1003E0000102892B39F4C9DE80910002909101024B
:1003F0000597C9F30895282F8091640A9091650AA2
:10040000892B91F420937E0983E080938009609387
:100410008109CA014093820980709093830985E025
:1004200080937F09D9CF0895FFCF282F8091640A48
:100430009091650A892BB1F420937E0982E0809324
:100440008009609381098093820984E080937F0909
:10045000C3DF3091220A20E08091210A280F311D4C
:10046000C9010895FFCF282F8091640A9091650AF1
:10047000892B71F420937E0983E080938009609337
:1004800081094093820984E080937F09A5CF089574
:10049000FFCF282F8091640A9091650A892B91F4EF
:1004A00020937E0982E0809380096093810981E036
:1004B0008093820984E080937F098EDF8091210AF6
:1004C00090E00895FFCF282F8091640A9091650AEB
:1004D000892B51F420937E0981E08093800982E08A
:1004E00080937F0979CF0895FFCF86C008950F9339
:1004F0001F938C016F5F7F4F882777FD8095982F22
:100500000E94A00F9B01AC0160E074E284EF99E4CB
:100510000E94050FAB01BC01C80115D0892B19F44D
:1005200020E030E00CC081E090E0909301028093E5
:1005300000021092650A1092640A21E030E0C901BD
:100540001F910F910895EF92FF920F931F937A01DD
:100550008B0182E48093C00088E98093C10086E02B
:100560008093C20060E074E284EF99E4A8019701EF
:100570000E94050F0E94720F615070407093C50079
:100580006093C40060E074E284E799E4A8019701F5
:100590000E94050F20E030E040E451E40E942C105E
:1005A00060932C0D70932D0D80932E0D90932F0D35
:1005B00020912C0D30912D0D40912E0D50912F0D2D
:1005C00060E070E08AE793E40E94050F0E94720FDA
:1005D00070932B0D60932A0D7298739A8FEF80930E
:1005E000C6001092660B1092670B81E090E01F919D
:1005F0000F91FF90EF90089508958091670B80937D
:10060000660B0895AC01F8947398729A20E030E07C
:1006100011C08091C00085FFFCCF8091C000806434
:100620008093C000FA01E20FF31F80818093C6001F
:100630002F5F3F4F2617370764F38091C00086FF76
:10064000FCCF7298739A7894C90108951092330D73
:100650001092320D20912A0D30912B0D265F3F4FC5
:10066000280F391F3093310D2093300D0895AF922C
:10067000BF92CF92DF92EF92FF920F931F938091E0
:10068000320D9091330D01969093330D8093320D7E
:100690002091320D3091330D8091300D9091310DBC
:1006A0008217930718F421E030E074C0A0902C0D5D
:1006B000B0902D0DC0902E0DD0902F0DC601B5011C
:1006C0002BEA3AEA4AEA50E40E942C107B018C01A2
:1006D00020E030E040E85FE30E948F10882314F4AC
:1006E00061E054C0C801B70120E030E04FE753E4B7
:1006F0000E94B71018160CF045C0C601B50120E0E5
:1007000030E04AE754E40E94050F5B016C0120E0F1
:1007100030E04AE755E40E942C107B018C0120E078
:1007200030E040E85FE30E948F1088231CF461E012
:1007300070E024C0C801B70120E03FEF4FE757E465
:100740000E94B7101816B4F4C601B50120E030E0DD
:1007500040E251E40E942C100E94720F80E991E067
:1007600005C0FC013197F1F76150704061157105CA
:10077000C1F70EC0C801B7010E94720FCB010197EB
:10078000F1F706C0C801B7010E94720F6A95F1F730
:1007900020E030E0C9011F910F91FF90EF90DF90B2
:1007A000CF90BF90AF9008959091660B8091670BAA
:1007B000981719F420E030E017C09091660B8091F3
:1007C000670B981738F48091670B9091660B282F70
:1007D00030E008C08091670B9091660B282F30E0C5
:1007E00020503F4F291B3109C90108951F93182F2D
:1007F000DBDF8F3F910591F0E091670BF0E0EA5964
:10080000F54F10838091670B8F3F19F41092670B9F
:1008100005C08091670B8F5F8093670B1F910895D0
:100820009091660B8091670B981711F4EFEF12C04F
:10083000E091660BF0E0EA59F54FE0818091660B9C
:100840008F3F19F41092660B05C08091660B8F5F85
:100850008093660B8E2F0895EF92FF920F931F9354
:10086000CF93DF937C01EB019091660B8091670B36
:10087000981719F400E010E012C096DF8C01C81739
:10088000D9070CF48E01C0E0D0E006C0C9DFF70143
:10089000EC0FFD1F80832196C017D107BCF3C80160
:1008A000DF91CF911F910F91FF90EF9008951F92CC
:1008B0000F920FB60F920BB60F9211242F933F9306
:1008C0004F935F936F937F938F939F93AF93BF9358
:1008D000EF93FF938091C60089DFFF91EF91BF9165
:1008E000AF919F918F917F916F915F914F913F91C8
:1008F0002F910F900BBE0F900FBE0F901F90189569
:10090000AC0120E030E00CC08091C80085FFFCCF36
:10091000FA01E20FF31F80818093CE002F5F3F4FDB
:10092000261737078CF30895DC019091E80B80912E
:10093000E90B981711F480E008959091E80B8091ED
:10094000E90B981719F420E030E017C09091E80BFC
:100950008091E90B981738F48091E90B9091E80B9E
:10096000282F30E008C08091E90B9091E80B282FE8
:1009700030E020583F4F291B3109A9016217730746
:100980000CF4AB0120E030E020C09091E80B8091A6
:10099000E90B981711F49FEF12C0E091E80BF0E01B
:1009A000E859F44F90818091E80B8F3719F4109239
:1009B000E80B05C08091E80B8F5F8093E80BFD0189
:1009C000E20FF31F90832F5F3F4F24173507ECF2A0
:1009D000842F08959091E80B8091E90B981719F4F2
:1009E00020E030E017C09091E80B8091E90B981758
:1009F00038F48091E90B9091E80B282F30E008C083
:100A00008091E90B9091E80B282F30E020583F4F60
:100A1000291B3109C9010895482F9091E80B809155
:100A2000E90B9817D1F09091E80B8091E90B98179A
:100A300038F48091E90B9091E80B282F30E008C042
:100A40008091E90B9091E80B282F30E020583F4F20
:100A5000291B31092F37310591F0E091E90BF0E0C6
:100A6000E859F44F40838091E90B8F3719F41092C5
:100A7000E90B08958091E90B8F5F8093E90B08954E
:100A80009091E80B8091E90B981711F4EFEF12C0E9
:100A9000E091E80BF0E0E859F44FE0818091E80B39
:100AA0008F3719F41092E80B05C08091E80B8F5F27
:100AB0008093E80B8E2F08951F920F920FB60F921E
:100AC0000BB60F9211242F933F934F935F936F9325
:100AD0007F938F939F93AF93BF93EF93FF938091F7
:100AE000CE009ADFFF91EF91BF91AF919F918F91CF
:100AF0007F916F915F914F913F912F910F900BBE1E
:100B00000F900FBE0F901F901895DF93CF930F9209
:100B10000F92CDB7DEB7982F8A3099F48DE0898394
:100B20009A83FE0131969E012D5F3F4F8091C80050
:100B300085FFFCCF81918093CE00E217F307B1F7D8
:100B400006C08091C80085FFFCCF9093CE0080E066
:100B500090E00F900F90CF91DF9108959091E80B66
:100B60008091E90B9817D1F39091E80B8091E90BF4
:100B7000981738F48091E90B9091E80B282F30E01A
:100B800008C08091E90B9091E80B282F30E02058A5
:100B90003F4F291B3109232B09F39091E80B8091DA
:100BA000E90B981711F4EFEF15C0E091E80BF0E0B6
:100BB000E859F44FE0818091E80B8F3719F41092D7
:100BC000E80B05C08091E80B8F5F8093E80BED3058
:100BD00009F4EAE08E2F90E008950E94A00F9B0197
:100BE000AC0160E074E284EF99E40E94050F0E947A
:100BF000720F6150704022E42093C80028E92093CE
:100C0000C90026E02093CA002FEF2093CE00109257
:100C1000E80B1092E90B272F332727FD3A952093F5
:100C2000CD006093CC007298739A85E895E06EEAE7
:100C300075E00E9431119093EB0B8093EA0B0895BD
:100C400060E071EE80E090E0C8DF78940895C2DE45
:100C5000181619060CF03FC08091340D9091350D97
:100C60000E947B118A3011F08D3091F480913E0CFE
:100C700090913F0C181619068CF510923F0C1092AB
:100C80003E0C81E090E09093410C8093400C0895DD
:100C9000882339F120913E0C30913F0CA9014F5F20
:100CA0005F4F50933F0C40933E0CF901E251F44FDB
:100CB000808380913E0C90913F0C8F349105A4F07D
:100CC00010923F0C10923E0C81E090E09093410C0A
:100CD0008093400C089580E090E0089580E090E0DB
:100CE000089580E090E0089580E090E0089580917C
:100CF000400C9091410C181619063CF41092410CCE
:100D00001092400C8EEE9BE0089580E090E00895F4
:100D100082E396E00E94CA1160E071EE80E090E00C
:100D20005CDF789486E880937A0081E080937C0091
:100D300008958130910551F08230910561F000975E
:100D400071F421E020937C00179809C022E02093E1
:100D50007C00169804C023E020937C00159824E0C2
:100D60002A95F1F7EAE7F0E02081206120832081D5
:100D700020642083208124FFFDCF2EEF22B99C0127
:100D8000220F331F220F331F220F331FFC01EE0FE0
:100D9000FF1FE20FF31FE45FF24F60E070E020E01E
:100DA00030E02F5F3F4F4281538141935193640F55
:100DB000751F24303105A9F7209178003091790012
:100DC000AC014F5F5F4FFA01EE0FFF1F440F551F3D
:100DD000440F551F440F551FE40FF51FE45FF24FFA
:100DE00031832083620F731F6B39710554F0FC014E
:100DF000EE0FFF1FE85BF34F81E090E0918380836B
:100E00000895FC01EE0FFF1FE85BF34F1182108283
:100E100008959F938F9381E496E09F938F930E9410
:100E2000B9110F900F900F900F90089561E070E04E
:100E300080E090E05CDB41E050E06FE270E08FE149
:100E400090E0D9DA40E050E060E270E08EEF90E0B0
:100E5000D2DA40E050E068E170E08EEF90E003DB32
:100E60002FE38DE093E0215080409040E1F700C0F7
:100E7000000008950F931F93CF93DF9300D0CDB759
:100E8000DEB720E23CE240E029833A834B83BE0197
:100E90006F5F7F4F0E94FF10009789F00CE61CE007
:100EA0000E94E210F801819391938F01BE016F5F60
:100EB0007F4F80E090E00E94FF10009789F70F902D
:100EC0000F900F90DF91CF911F910F910895809116
:100ED0005E0C90915F0C88519C4F90935F0C8093B7
:100EE0005E0C20915C0C30915D0C821793073CF0F6
:100EF00010925F0C10925E0C80E090E0089581E00B
:100F000090E00895A0916E0CB0916F0CA233B105E2
:100F1000C4F4E0E7FCE0AA0FBB1FCD01880F991FC6
:100F2000880F991F880F991FA80FB91FA256BD4F90
:100F300022E83CE0819191918D939D93E217F30714
:100F4000C9F70895CF92DF92EF92FF920F931F930C
:100F5000CF93DF93CDB7DEB760970FB6F894DEBFBF
:100F60000FBECDBFFE01319680E1DF011D928A9553
:100F7000E9F702E216E07F010F2EF2E3CF2EF6E052
:100F8000DF2EF02D64E270E0F801819191918F01E4
:100F90004CDAD7018D939D937D010C151D0591F7BA
:100FA00088898F938F858F938E858F938D858F936F
:100FB0008C858F938B858F938A858F9389858F936B
:100FC00088858F938F818F938E818F938D818F935F
:100FD0008C818F938B818F938A818F9389818F935B
:100FE0001F9282E08F9386E496E09F938F930E94F6
:100FF000B9110FB6F894DEBF0FBECDBF60960FB625
:10100000F894DEBF0FBECDBFDF91CF911F910F913E
:10101000FF90EF90DF90CF9008959C01220F331F37
:10102000F901EE0FFF1FEE0FFF1FEE0FFF1FE20F84
:10103000F31FE256FD4F218D2F93208D2F9327898B
:101040002F9326892F9325892F9324892F930196F7
:10105000DC01AA0FBB1FCD01880F991F880F991FB4
:10106000880F991FA80FB91FA256BD4F11968C91DA
:1010700011978F938C918F9381898F9380898F9310
:1010800087858F9386858F9385858F9384858F93AE
:1010900083858F9382858F9381858F9380858F93AE
:1010A00087818F9386818F9385818F9384818F939E
:1010B00083818F9382818F9381818F9380818F939E
:1010C0001F9283E08F938BE696E09F938F930E940D
:1010D000B9118DB79EB74E960FB6F8949EBF0FBE4E
:1010E0008DBF0895CF92DF92EF92FF920F931F93DF
:1010F000CF93DF93CDB7DEB760970FB6F894DEBF1E
:101100000FBECDBFFE01319680E1DF011D928A95B1
:10111000E9F702E216E07F010F2EF2E3CF2EF6E0B0
:10112000DF2EF02D68E270E0F801819191918F013E
:101130007CD9D7018D939D937D010C151D0591F7E9
:10114000888D8F938F898F938E898F938D898F93BD
:101150008C898F938B898F938A898F9389898F93B9
:1011600088898F938F858F938E858F938D858F93AD
:101170008C858F938B858F938A858F9389858F93A9
:1011800088858F938F818F938E818F938D818F939D
:101190008C818F938B818F938A818F9389818F9399
:1011A0001F9284E08F9386E996E09F938F930E942D
:1011B000B9110FB6F894DEBF0FBECDBF60960FB663
:1011C000F894DEBF0FBECDBFDF91CF911F910F917D
:1011D000FF90EF90DF90CF900895CF92DF92EF9243
:1011E000FF920F931F93CF93DF93CDB7DEB7609736
:1011F0000FB6F894DEBF0FBECDBFFE01319680E181
:10120000DF011D928A95E9F702E216E07F010F2EB9
:10121000F2E3CF2EF6E0DF2EF02D6AE270E0F80167
:10122000819191918F0101D90E94B500D7018D93D1
:101230009D937D010C151D0581F7888D8F938F89F6
:101240008F938E898F938D898F938C898F938B89C0
:101250008F938A898F9389898F9388898F938F85BC
:101260008F938E858F938D858F938C858F938B85B0
:101270008F938A858F9389858F9388858F938F81AC
:101280008F938E818F938D818F938C818F938B81A0
:101290008F938A818F9389818F931F9285E08F939B
:1012A00086E996E09F938F930E94B9110FB6F89448
:1012B000DEBF0FBECDBF60960FB6F894DEBF0FBE87
:1012C000CDBFDF91CF911F910F91FF90EF90DF90F5
:1012D000CF90089590935B0C80935A0C7093590CA7
:1012E0006093580C2091600C3091610C232B61F4B9
:1012F0009093630C8093620C7093610C6093600C0C
:101300001092590C1092580C08958091600C909195
:10131000610C181619060CF450C080916A0C90915B
:101320006B0C019709F049C08091520C9091530CBD
:10133000892BD1F4E091640CF091650CEE0FFF1F46
:10134000EE0FFF1FE25FFD4F80819181029761F4F4
:1013500061E070E081E090E0BDDF81E090E090939B
:10136000530C8093520C08951092530C1092520C0F
:10137000E091640CF091650CEE0FFF1FEE0FFF1F64
:10138000E25FFD4F6281738180819181A3DF809153
:10139000640C9091650C01969093650C8093640C9D
:1013A00020911002309111022817390734F481E09E
:1013B00090E09093650C8093640C08959093630C77
:1013C0008093620C7093610C6093600C1092590CC6
:1013D0001092580C81E090E090930D0280930C02E3
:1013E00010925F0C10925E0C089581E090E0909353
:1013F0000D0280930C021092610C1092600C1092FE
:101400005F0C10925E0C8FEF9FEF90930B02809316
:101410000A02089581E090E00E949B00019719F470
:1014200083EC96E0B7D782E090E00E949B000197A2
:1014300019F488ED96E0AED784E090E00E949B001E
:10144000019719F48BEE96E0A5D788E090E00E9412
:101450009B00019719F48BEF96E09CD780E190E018
:101460000E949B00019719F48FE097E093D780E2E8
:1014700090E00E949B00019719F48FE197E08AD7D2
:1014800080E490E00E949B00019719F48FE297E0BE
:1014900081C708958430910591F034F4823091052C
:1014A00051F0039781F01FC086309105A1F07CF0C8
:1014B0000797A9F018C087E497E06CC7089588E7FC
:1014C00097E068C7089584EA97E064C7089587EDB8
:1014D00097E060C7089584E098E05CC708958FE2C4
:1014E00098E058C7089588E598E054C708950F9389
:1014F0001F93CF93DF938C01EB018EEF90E00E945E
:101500008D0083E890E00E94900060E270E080E04F
:1015100090E00E94930062E070E081E090E00E9421
:101520009300B80182E090E00E949300CE010E94F7
:10153000B500BC0183E090E00E949300CE010E94C0
:10154000B900BC0184E090E00E94930087E090E045
:101550000E9498000E94EC010E9488008130910551
:1015600011F458DF01C096DFDF91CF911F910F91E9
:1015700008952F923F924F925F926F927F928F9237
:101580009F92AF92BF92CF92DF92EF92FF920F9312
:101590001F93CF93DF93CDB7DEB7AA970FB6F8941A
:1015A000DEBF0FBECDBF9EA38DA3C2970CF079C145
:1015B000FE01319680E1DF011D928A95E9F78DA148
:1015C0009EA1880F991F9C01220F331F220F331FEA
:1015D000220F331F820F931F9C0122563D4F38A7C5
:1015E0002FA36E2E7F2E0F2EF2E38F2EF6E09F2E6E
:1015F000F02D7F01690102E216E0A12CB12C64E21A
:1016000070E0D8018D919D918D010E941502F60127
:10161000219131916F01A901481B590BCA019923EE
:1016200024F0D7014D935C9306C091958195910963
:10163000F70191838083D7018D919D917D01A8163B
:10164000B9060CF45C0108151905C9F68E010F5E88
:101650001F4F80E1F80111928A95E9F784E690E046
:101660009A8B898B8DA19EA1880F991FFC01EE0F8B
:10167000FF1FEE0FFF1FEE0FFF1F8E0F9F1FFC01BE
:10168000E256FD4F60897189882777FD8095982FF4
:1016900057D46B017C0109A71AA71AA309A3180143
:1016A000062D172D4501AA2497FCA094BA2CD80129
:1016B000ED91FD918D01FCA3EBA3C501B40140D4D4
:1016C0002B013C012BA13CA1B901882777FD809516
:1016D000982F36D4A301920198D39B01AC01C70186
:1016E000B601BAD4FAD36115710521F0D1016D9319
:1016F0007C9305C021E030E0F1013183208332E0AA
:10170000230E311C49A15AA10417150781F68DA19A
:101710009EA1880F991FFC01EE0FFF1FEE0FFF1F08
:10172000EE0FFF1F8E0F9F1FFC01E256FD4F6089D9
:1017300071898BEF93E11FD5882777FD8095982FCE
:10174000FFD39B01AC01C301B20186D4C6D3683E6E
:1017500053E075072CF070935D0C60935C0C06C031
:1017600088EE93E090935D0C80935C0C8EEF90E09C
:101770000E948D0083E890E00E94900060E270E09B
:1017800080E090E00E94930062E070E081E090E0F1
:101790000E949300C9A4DAA40F2EF2E2AF2EF6E065
:1017A000BF2EF02D02E010E0D5016D917D915D011D
:1017B000C8010E949300F601E190F1906F01C7010A
:1017C0000E94B500BC01C80101960E949300C701A8
:1017D0000E94B900BC01C80102960E9493000D5FEF
:1017E0001F4F0A31110501F78CE190E00E9498002B
:1017F0000E94EC010E9488008130910509F050C0E0
:1018000009DE8EEF90E00E948D0083E890E00E9458
:1018100090006EE170E080E090E00E94930062E052
:1018200070E081E090E00E949300EFA0F8A40F2EFA
:10183000F2E2CF2EF6E0DF2EF02D02E010E0D6012E
:101840006D917D916D01C8010E9493005701F701D0
:10185000819191917F010E94B500BC01C801019660
:101860000E949300D5018D919C910E94B900BC010A
:10187000C80102960E9493000D5F1F4F0A311105A7
:10188000F1F68CE190E00E9498000E94EC010E9429
:1018900088008130910511F4BDDD03C0FBDD01C07E
:1018A000F9DDAA960FB6F894DEBF0FBECDBFDF916B
:1018B000CF911F910F91FF90EF90DF90CF90BF904D
:1018C000AF909F908F907F906F905F904F903F90E0
:1018D0002F90089548990EC08091680C9091690CE2
:1018E000892B09F050C081E090E09093690C8093BF
:1018F000680C08958091680C9091690C019709F02B
:1019000042C01092690C1092680C80916A0C909100
:101910006B0C9C012F5F3F4F30936B0C20936A0C34
:1019200026E030E0A901481B590BCA011816190618
:101930003CF08FE388B910926B0C10926A0C0BC0CC
:1019400021E030E0A90102C0440F551F8A95E2F75B
:10195000CA01809588B949DD80E090E00ADE81E027
:1019600090E09093650C8093640C80916A0C909148
:101970006B0C019741F480910E0290910F029093AD
:10198000670C8093660C08950F931F93CF93DF939A
:101990009EDA892B09F058C0E091620CF091630C3B
:1019A000EE0FFF1FE65CFD4FC081D18108811981D8
:1019B00080910C0290910D020817190714F584E725
:1019C00098E0E8D483E090E09093630C8093620CFD
:1019D0001F930F9380910D028F9380910C028F9330
:1019E0008FE798E09F938F93C4D481E090E0909329
:1019F0000D0280930C020F900F900F900F900F909C
:101A00000F9080910D028F9380910C028F938EEA3C
:101A100098E09F938F93ADD480910C0290910D022A
:101A2000880F991FC80FD91F88819981A2DD8091E5
:101A30000C0290910D02019690930D0280930C027E
:101A40000F900F900F900F90DF91CF911F910F91FA
:101A500008952F923F924F925F926F927F928F9252
:101A60009F92AF92BF92CF92DF92EF92FF920F932D
:101A70001F93CF93DF938CEF81B98EEF82B98FE7FD
:101A800087B98EE788B980E78AB981E18BB9CED969
:101A9000D7D83ED980914E0C90914F0C019741F4CC
:101AA00040E050E068E170E08EEF90E00E94330289
:101AB0000F2EFCE64F2EFCE05F2EF02D0F2EF0E5F2
:101AC0003F2EF02D0F2EF0EA2F2EF02D0F2EF8E4E2
:101AD000CF2EFCE0DF2EF02D0F2EF2E4AF2EFCE037
:101AE000BF2EF02D0F2EFAE4EF2EFCE0FF2EF02D8E
:101AF0000F2EF4E48F2EFCE09F2EF02D0CE41CE062
:101B00000F2EF6E46F2EFCE07F2EF02D80E090E0AB
:101B100010D981E090E00DD982E090E00AD9DADEB8
:101B200096D8181619060CF08AC0E1D8EC01009777
:101B300009F485C09FD9F201808191818630910599
:101B400009F463C094F48230910509F44AC034F476
:101B5000009701F1019709F446C069C084309105EE
:101B600009F44FC00CF440C04EC08930910579F1A2
:101B700034F487309105B9F0089721F158C08B30C3
:101B8000910509F457C00CF449C0873E934009F40D
:101B90001FC14DC0EEE6FCE080819181EADC81E06E
:101BA00090E037D947C0E0E7FCE060817181EEE664
:101BB000FCE0808191818EDBFFEDF8B981E090E05F
:101BC00028D938C012DC81E090E023D933C0E0E7A7
:101BD000FCE060817181EEE6FCE080819181EEDBCA
:101BE00029C0B0D927C08ED9EEE6FCE08081918172
:101BF0008233910524F080E090E00BD91BC00DDA10
:101C000019C070DA17C0E9DA15C040E050E068E1A9
:101C100070E08EEF90E00E9433020CC01092540CE2
:101C20001092550C1092560C1092570C03C080E085
:101C300090E0EFD8FE01232D11922A95E9F7F201E9
:101C4000222D11922A95E9F7019917C08091080277
:101C500090910902181619066CF51092090210925B
:101C600008028FE788B980914E0C90914F0C019734
:101C700009F180E090E07DDC1DC080910802909128
:101C80000902892B39F4469881E090E0909309028B
:101C9000809308028091660C9091670C18161906C3
:101CA0001CF033DB71DE06C0885E93409093670CB6
:101CB0008093660CF60180819181009751F4F501C3
:101CC00080819181892B81F082EC98E063D34598E3
:101CD0000BC0F501208131818217930729F081EE35
:101CE00098E058D38FE588B9F701808191810097FA
:101CF00051F4F40180819181892B81F080E099E099
:101D000049D344980BC0F401208131818217930795
:101D100029F08FE199E03ED38FE688B9F801808100
:101D20009181009751F4F30180819181892B81F099
:101D30008EE399E02FD343980BC0F30120813181CA
:101D40008217930729F08DE599E024D387E788B9B6
:101D5000F60180819181F50191838083F701808173
:101D60009181F40191838083F80180819181F30155
:101D700091838083FFE32DE083E0F1502040804099
:101D8000E1F700C000008091540C9091550CA09197
:101D9000560CB091570C0196A11DB11D8093540CA7
:101DA0009093550CA093560CB093570C8091500C07
:101DB0009091510C01969093510C8093500C49973F
:101DC00009F0A4CEBFD81092510C1092500C9ECEA8
:101DD00087EE93E01ED860E070E080E090E087DB63
:101DE00080E090E0DF91CF911F910F91FF90EF90F5
:101DF000DF90CF90BF90AF909F908F907F906F902B
:101E00005F904F903F902F9008950CD0EBC0E3D09F
:101E100040F0DAD030F021F45F3F19F0CCC051111E
:101E200015C1CFC0F0D098F39923C9F35523B1F36E
:101E3000951B550BBB27AA2762177307840738F039
:101E40009F5F5F4F220F331F441FAA1FA9F333D098
:101E50000E2E3AF0E0E830D091505040E695001C4C
:101E6000CAF729D0FE2F27D0660F771F881FBB1F08
:101E7000261737074807AB07B0E809F0BB0B802DE2
:101E8000BF01FF2793585F4F2AF09E3F510568F02E
:101E900092C0DCC05F3FECF3983EDCF3869577950B
:101EA0006795B795F7959F5FC9F7880F911D969530
:101EB000879597F90895E1E0660F771F881FBB1F8C
:101EC000621773078407BA0720F0621B730B840B39
:101ED000BA0BEE1F88F7E095089504D06894B1110D
:101EE000B5C0089598D088F09F5790F0B92F9927E2
:101EF000B751A0F0D1F0660F771F881F991F1AF015
:101F0000BA95C9F712C0B13081F09FD0B1E0089501
:101F10009CC0672F782F8827B85F39F0B93FCCF382
:101F2000869577956795B395D9F73EF4909580950A
:101F3000709561957F4F8F4F9F4F0895E89409C02A
:101F400097FB3EF490958095709561957F4F8F4FEC
:101F50009F4F9923A9F0F92F96E9BB279395F69502
:101F6000879577956795B795F111F8CFFAF4BB0F80
:101F700011F460FF1BC06F5F7F4F8F4F9F4F16C0E4
:101F8000882311F096E911C0772321F09EE8872F6E
:101F9000762F05C0662371F096E8862F70E060E02A
:101FA0002AF09A95660F771F881FDAF7880F9695A3
:101FB000879597F9089597F99F6780E870E060E04A
:101FC00008959FEF80EC089500240A9416161706D2
:101FD00018060906089500240A941216130614061A
:101FE00005060895092E0394000C11F4882352F07D
:101FF000BB0F40F4BF2B11F460FF04C06F5F7F4F35
:102000008F4F9F4F089557FD9058440F551F59F01B
:102010005F3F71F04795880F97FB991F61F09F3FD5
:1020200079F087950895121613061406551FF2CFFE
:102030004695F1DF08C0161617061806991FF1CF4E
:1020400086957105610508940895E894BB27662775
:102050007727CB0197F908950BD0C4CFB5DF28F0CF
:10206000BADF18F0952309F0A6CFABCF1124EECF3D
:10207000CADFA0F3959FD1F3950F50E0551F629FE3
:10208000F001729FBB27F00DB11D639FAA27F00DD1
:10209000B11DAA1F649F6627B00DA11D661F829FF8
:1020A0002227B00DA11D621F739FB00DA11D621FDD
:1020B000839FA00D611D221F749F3327A00D611DFA
:1020C000231F849F600D211D822F762F6A2F1124DC
:1020D0009F5750408AF0E1F088234AF0EE0FFF1F2F
:1020E000BB1F661F771F881F91505040A9F79E3F66
:1020F000510570F060CFAACF5F3FECF3983EDCF360
:10210000869577956795B795F795E7959F5FC1F7A2
:10211000FE2B880F911D9695879597F9089503D00A
:1021200008F481E00895990F0008550FAA0BE0E824
:10213000FEEF16161706E807F907C0F01216130689
:10214000E407F50798F0621B730B840B950B39F4C9
:102150000A2661F0232B242B252B21F408950A262F
:1021600009F4A140A6958FEF811D811D0895DBDF45
:1021700008F48FEF089597FB072E16F4009406D00D
:1021800077FD08D00BD007FC05D03EF490958195E3
:102190009F4F0895709561957F4F0895AA1BBB1BB3
:1021A00051E107C0AA1FBB1FA617B70710F0A61B57
:1021B000B70B881F991F5A95A9F780959095BC0178
:1021C000CD010895FC0188279927E89421912032B8
:1021D000E9F3293010F02E30C8F32B3239F02D32CC
:1021E00031F4689403C035D0820F911D21912053A2
:1021F0002A30C8F31EF4909581959F4F08954CEEB8
:102200005BE000C0FA01A191B081009719F410972A
:10221000E1F0CD01DC01CD010D90002011F4C001F1
:1022200013C0FB012191222319F02015D9F7F3CF18
:10223000FB012191201519F41E92119606C022234C
:10224000C1F70D900020A1F7D001FA01A193B0834E
:1022500008957AE0979F902D879F802D910D1124EE
:1022600008950F931F93CF93DF93EC018B01009799
:1022700031F46115710519F480E090E037C06EE02B
:1022800070E081E090E0A1D2FC010097A9F380E822
:1022900083830115110571F01387028781E8838319
:1022A0008091340D9091350D892B21F4F093350DEB
:1022B000E093340D2097C9F0D187C0878381826075
:1022C00083838091360D9091370D892B71F4F093B3
:1022D000370DE093360D8091380D9091390D892B93
:1022E00021F4F093390DE093380DCF01DF91CF91B8
:1022F0001F910F910895CF93DF93EC012B8120FF65
:1023000033C026FF0AC02F7B2B838E819F810196CD
:102310009F838E838A8190E029C022FF0FC0E881CD
:10232000F9818081992787FD9095009719F42062A3
:102330002B831AC03196F983E8830EC0EA85FB85AA
:10234000199597FF09C02B81019611F480E101C016
:1023500080E2822B8B8308C02E813F812F5F3F4F0D
:102360003F832E83992702C08FEF9FEFDF91CF919C
:102370000895CF93DF93CDB7DEB7FE013696619116
:102380007191AF018091360D9091370D30D0DF9172
:10239000CF9108950F931F93CF93DF93E091360D64
:1023A000F091370D238121FF1BC0EC0100E010E00C
:1023B00089916091360D7091370DDB011896ED9182
:1023C000FC911997882331F01995892B89F30FEF28
:1023D0001FEFEECF8AE01995892B11F4C80102C0D6
:1023E0008FEF9FEFDF91CF911F910F9108952F9263
:1023F0003F924F925F926F927F928F929F92AF9295
:10240000BF92CF92DF92EF92FF920F931F93CF93E1
:10241000DF93CDB7DEB72C970FB6F894DEBF0FBEB3
:10242000CDBF7C016B018A01FC011782168283817A
:1024300081FFB0C1CE0101964C01F7019381F601F5
:1024400093FD859193FF81916F01882309F49EC1CB
:10245000853239F493FD859193FF81916F01853227
:1024600021F4B70190E00FD3E8CF512C312C20E0BC
:102470002032A0F48B3269F030F4803259F083328C
:1024800069F420612CC08D3239F0803339F4216039
:1024900026C02260246023C0286021C027FD27C0F9
:1024A00030ED380F3A3078F426FF06C0FAE05F9E30
:1024B000300D1124532E13C08AE0389E300D1124A4
:1024C000332E20620CC08E3221F426FD5FC12064C1
:1024D00006C08C3611F4206802C0883641F4F6013B
:1024E00093FD859193FF81916F018111C1CF982F49
:1024F0009F7D9554933028F40C5F1F4FFFE3F983C1
:102500000DC0833631F0833771F0833509F057C041
:1025100021C0F801808189830E5F1F4F44244394BA
:10252000512C540114C03801F2E06F0E711CF801F7
:10253000A080B18026FF03C0652D70E002C06FEF60
:102540007FEFC5012C8794D22C0183012C852F7736
:10255000222E16C03801F2E06F0E711CF801A08027
:10256000B18026FF03C0652D70E002C06FEF7FEFE2
:10257000C5012C876BD22C012C852068222E83016B
:1025800023FC19C0832D90E048165906A0F4B7012A
:1025900080E290E078D23A94F5CFF50127FC85915E
:1025A00027FE81915F01B70190E06DD231103A941E
:1025B000F1E04F1A51084114510479F7DEC0843616
:1025C00011F0893631F5F80127FF07C0608171816C
:1025D000828193810C5F1F4F08C0608171818827C1
:1025E00077FD8095982F0E5F1F4F2F76B22E97FFA5
:1025F00009C090958095709561957F4F8F4F9F4F43
:102600002068B22E2AE030E0A4016FD2A82EA818CC
:1026100043C0853729F42F7EB22E2AE030E025C052
:10262000F22FF97FBF2E8F36C1F018F4883579F07C
:10263000ADC0803719F0883721F0A8C02F2F206156
:10264000B22EB4FE0DC08B2D8460B82E09C024FFBD
:102650000AC09F2F9660B92E06C028E030E005C062
:1026600020E130E002C020E132E0F801B7FE07C00F
:1026700060817181828193810C5F1F4F06C06081F0
:10268000718180E090E00E5F1F4FA4012ED2A82E32
:10269000A818FB2DFF77BF2EB6FE0BC02B2D2E7F6B
:1026A000A51450F4B4FE0AC0B2FC08C02B2D2E7E37
:1026B00005C07A2C2B2D03C07A2C01C0752C24FF69
:1026C0000DC0FE01EA0DF11D8081803311F4297ED9
:1026D00009C022FF06C07394739404C0822F8678C9
:1026E00009F0739423FD12C020FF06C05A2C731406
:1026F00018F4530C5718732C731460F4B70180E26C
:1027000090E02C87C0D173942C85F6CF731410F40D
:10271000371801C0312C24FF11C0B70180E390E0CD
:102720002C87B1D12C8522FF16C021FF03C088E57C
:1027300090E002C088E790E0B7010CC0822F867855
:1027400051F021FD02C080E201C08BE227FD8DE245
:10275000B70190E098D1A51430F4B70180E390E080
:1027600092D15A94F8CFAA94F401EA0DF11D808118
:10277000B70190E088D1A110F6CF332009F45DCEE7
:10278000B70180E290E07FD13A94F7CFF7018681DC
:10279000978102C08FEF9FEF2C960FB6F894DEBFA3
:1027A0000FBECDBFDF91CF911F910F91FF90EF90A2
:1027B000DF90CF90BF90AF909F908F907F906F9061
:1027C0005F904F903F902F9008950F931F93CF935A
:1027D000DF93869F8001879F100D969F100D112417
:1027E000C8010DD0EC01009721F0A80160E070E075
:1027F00038D1CE01DF91CF911F910F910895CF93E2
:10280000DF938230910510F482E090E0E0913C0D7E
:10281000F0913D0D20E030E0A0E0B0E0309739F1DC
:102820004081518148175907B8F04817590771F48A
:1028300082819381109729F013969C938E9312971F
:102840002CC090933D0D80933C0D27C02115310580
:1028500031F04217530718F0A901DB0101C0EF0165
:102860009A01BD01DF010280F381E02DD7CF211550
:102870003105F9F0281B390B2430310580F48A81A9
:102880009B816115710521F0FB019383828304C054
:1028900090933D0D80933C0DFE01329644C0FE01A5
:1028A000E20FF31F819391932250310939832883DA
:1028B0003AC020913A0D30913B0D232B41F42091E9
:1028C00004023091050230933B0D20933A0D209184
:1028D0000202309103022115310541F42DB73EB7B4
:1028E0004091060250910702241B350BE0913A0DEE
:1028F000F0913B0DE217F307A0F42E1B3F0B2817B6
:10290000390778F0AC014E5F5F4F2417350748F068
:102910004E0F5F1F50933B0D40933A0D819391935F
:1029200002C0E0E0F0E0CF01DF91CF910895CF93B6
:10293000DF93009709F487C0FC013297138212825B
:10294000C0913C0DD0913D0D209781F420813181C3
:10295000280F391F80913A0D90913B0D82179307F4
:1029600079F5F0933B0DE0933A0D6DC0DE0120E068
:1029700030E0AE17BF0750F412964D915C9113975B
:102980009D014115510509F1DA01F3CFB383A2830B
:1029900040815181840F951F8A179B0771F48D9197
:1029A0009C911197840F951F0296918380831296B4
:1029B0008D919C911397938382832115310529F47E
:1029C000F0933D0DE0933C0D3EC0D9011396FC936E
:1029D000EE9312974D915D91A40FB51FEA17FB0777
:1029E00079F480819181840F951F0296D901119607
:1029F0009C938E938281938113969C938E931297CE
:102A0000E0E0F0E08A819B81009719F0FE01EC0183
:102A1000F9CFCE01029628813981820F931F209130
:102A20003A0D30913B0D2817390769F4309729F496
:102A300010923D0D10923C0D02C013821282D09371
:102A40003B0DC0933A0DDF91CF910895FC010590A5
:102A5000615070400110D8F7809590958E0F9F1FA0
:102A60000895DC0101C06D9341505040E0F7089596
:102A7000FC016150704001900110D8F7809590954D
:102A80008E0F9F1F08950F931F93CF93DF93182FDF
:102A9000092FEB018B8181FD03C08FEF9FEF20C0D9
:102AA00082FF10C04E815F812C813D814217530708
:102AB0007CF4E881F9819F012F5F3F4F39832883A0
:102AC000108306C0E885F985812F1995892B29F790
:102AD0002E813F812F5F3F4F3F832E83812F902F89
:102AE000DF91CF911F910F910895FA01AA27283005
:102AF00051F1203181F1E8946F936E7F6E5F7F4FCB
:102B00008F4F9F4FAF4FB1E03ED0B4E03CD0670F46
:102B1000781F891F9A1FA11D680F791F8A1F911D99
:102B2000A11D6A0F711D811D911DA11D20D009F4E9
:102B300068943F912AE0269F11243019305D31932B
:102B4000DEF6CF010895462F4770405D4193B3E014
:102B50000FD0C9F7F6CF462F4F70405D4A3318F0BB
:102B6000495D31FD4052419302D0A9F7EACFB4E06C
:102B7000A6959795879577956795BA95C9F7009724
:102B80006105710508959B01AC010A2E06945795C5
:102B9000479537952795BA95C9F7620F731F841F1C
:0A2BA000951FA01D0895F894FFCFC3
:102BAA00010000003E0D20000100FFFF0100E803C4
:102BBA000A000000010003000A0003000A000300E3
:102BCA000A0003000A0003000A0003000A000300C7
:102BDA000A0003000A00000001009A029602840219
:102BEA00720264025602480206000A000B000C0038
:102BFA000D000E000F000600230024002500260009
:102C0A002700280006001D001E001F0020002100CA
:102C1A00220008000A000B000C000D000E000F0035
:102C2A0010001100080029002A002B002C002D009A
:102C3A002E002F00300001000100010000000001F9
:102C4A004202F102B501D3029E012D016B0264001A
:102C5A00BF018702DE02A401DA029E01C8015B03FA
:102C6A00C800250000023203000232030002CD0030
:102C7A000002C800CD000002320300023203000243
:102C8A00CD0000026400CD000002320300023203CC
:102C9A000002CD0000026400CD00000232030002EF
:102CAA0032030002CD0000026400CD0000023203AC
:102CBA00000232030002CD0000026400CD000002CF
:102CCA003203000232030002CD00000264006600F3
:102CDA009A01980366029803660266009A016400E4
:102CEA00CD0000023203000232030002CD000002CE
:102CFA00640039017E02B6029C00540293015D0110
:102D0A009302C8002A0165023A02360132029F0084
:102D1A0024016002C8005C01FA02AB026801940255
:102D2A006101B0015D02C800CD01EC02A1025201AD
:102D3A00510227011C025A03C80032017F029B027A
:102D4A00E5007102AA0154018802C80058019702DD
:102D5A001E021B011502A30057019202C8003F017F
:102D6A003503D7029501AB02740180015402C800F1
:102D7A00BC01D102CC028B019F026B01DE0145032B
:102D8A00C80030017F02AD0211017B02CB01520162
:102D9A00A202C8006B00E40072030803D6036402AF
:102DAA004E009001C800660033019803CC029803D4
:102DBA00CC02660033013200660033019803CC026C
:102DCA009803CC026600330132006600330198038F
:102DDA00CC029803CC02660033013200660033014C
:102DEA009803CC029803CC026600330132006600D5
:102DFA0033019803CC029803CC02660033013200F7
:102E0A00660033019803CC029803CC0266003301B2
:102E1A003200660033019803CC029803CC026600A4
:102E2A0033013200660033019803CC029803CC02C6
:102E3A00660033013200660033019803CC0298031E
:102E4A00CC026600330132000000330198033203DA
:102E5A009803320300003301320000003301980363
:102E6A00CC029803CC020000330132006600330121
:102E7A009803CC029803CC026600330132000000AA
:102E8A0033019803320398033203000033013200FE
:102E9A00000033019803CC029803CC0200003301EE
:102EAA003200660033019803CC029803CC02660014
:102EBA00330132006600CD00FF03CC02FF03CC02CF
:102ECA006600CD00640066003301FF03CC02FF03F5
:102EDA00CC02660033016400660033019803CC0219
:102EEA009803CC026600330164006600CD00FF033C
:102EFA00CC02FF03CC026600CD00640066003301F9
:102F0A00FF03CC02FF03CC026600330164006600B3
:102F1A0033019803CC029803CC02660033016400A3
:102F2A009A01CC02320300029803660200003301C0
:102F3A006400330100023203000298030002CD004C
:102F4A000002640033010002980300023203000207
:102F5A000000330164003301000298030002980361
:102F6A00660266009A016400CD000002660233011F
:102F7A00FF03CC0266009A016400CD000002CC0275
:102F8A0000023203000266000002640066000002CA
:102F9A00CC020002FF03CC02CD00000264006600EE
:102FAA000002CC0200029803660266009A016400DD
:102FBA00CD0000023203000232030002CD000002FB
:102FCA006400130004000E00110005000700100041
:102FDA0006002323232073656E736F72496E69742A
:102FEA000025640A0A0025643A7B25642C2025649E
:102FFA002C2025642C2025642C2025642C20256473
:10300A002C2025642C2025647D0A0025643A256439
:10301A002C25642C25642C25642C25642C25642CF1
:10302A0025642C25642C25642C25642C25642C25E8
:10303A00642C25640A0025643A25642C25642C2511
:10304A00642C25642C25642C25642C25642C256489
:10305A002C25642C25642C25642C25640A002564FF
:10306A003B0A00496E70757420766F6C74616765EF
:10307A00206572726F722100416E676C65206C69FF
:10308A006D6974206572726F7221004F766572687D
:10309A00656174206572726F7221004F7574206FBA
:1030AA00662072616E6765206572726F72210043D5
:1030BA006865636B73756D206572726F7221004F5C
:1030CA007665726C6F6164206572726F7221004955
:1030DA006E737472756374696F6E20636F646520B2
:1030EA006572726F722100434F4D4D5F54584641CD
:1030FA00494C3A204661696C6564207472616E734A
:10310A006D697420696E737472756374696F6E2069
:10311A007061636B65742100434F4D4D5F54584590
:10312A0052524F523A20496E636F7272656374202D
:10313A00696E737472756374696F6E207061636B04
:10314A0065742100434F4D4D5F52584641494C3AF0
:10315A00204661696C6564206765742073746174C4
:10316A007573207061636B65742066726F6D20647D
:10317A0065766963652100434F4D4D5F525857414B
:10318A004954494E473A204E6F7720726563696504
:10319A0076696E6720737461747573207061636BEE
:1031AA0065742100434F4D4D5F525854494D454F68
:1031BA0055543A205468657265206973206E6F20F1
:1031CA00737461747573207061636B657421004355
:1031DA004F4D4D5F5258434F52525550543A204921
:1031EA006E636F7272656374207374617475732091
:1031FA007061636B65742100546869732069732078
:10320A00756E6B6E6F776E206572726F7220636F68
:10321A0064652100232323206D6F76652031002306
:10322A002323206D6F74696F6E436F756E74203E31
:10323A00206D61782E206D6F74696F6E436F756EA5
:10324A00743A25642C206D61783A25640A00232398
:10325A0023206D6F74696F6E436F756E743A2564BF
:10326A000A00232323206D61696E28292073656E65
:10327A00736F7256616C75655B305D203D3D203021
:10328A0000232323206D61696E28292073656E73DC
:10329A006F7256616C75655B305D203D3D20310073
:1032AA00232323206D61696E28292073656E736F4D
:1032BA007256616C75655B315D203D3D203000239F
:1032CA002323206D61696E28292073656E736F72DE
:1032DA0056616C75655B315D203D3D2031002323CD
:1032EA0023206D61696E28292073656E736F72568B
:1032FA00616C75655B325D203D3D203000232323E0
:10330A00206D61696E28292073656E736F7256612C
:0C331A006C75655B325D203D3D2031008C
:00000001FF
