S01700004763634170706C69636174696F6E312E737265635B
S11300006CC000008BC0000089C0000087C00000E5
S113001085C0000083C0000081C000007FC00000D4
S11300207DC000007BC0000079C0000077C00000E4
S113003075C0000073C0000071C000006FC00000F4
S11300406DC000006BC0000069C0000067C0000004
S113005065C0000063C0000061C000005FC0000014
S11300605DC000002BC4000059C0000057C0000050
S113007055C0000053C0000051C000004FC0000034
S11300804DC000004BC0000049C0000047C0000044
S11300901AC5000043C0000041C000003FC000007A
S11300A03DC000003BC0000039C0000037C0000064
S11300B035C0000033C0000031C000002FC0000074
S11300C02DC000002BC0000029C00000380B440BD9
S11300D0500B5C0B680B740B800B11241FBECFEF0D
S11300E0D1E2DEBFCDBF00E00CBF13E1A0E0B2E07F
S11300F0E2EAF0E300E00BBF02C007900D92A439DE
S1130100B107D9F727E1A4E9B3E101C01D92AA36EA
S1130110B207E1F70E94950F0C944F1871CF8091AC
S1130120000290910102089580939613089580939C
S113013098130895FC01EC56FC4E65830895809352
S11301409713089520E030E090913814982311F02B
S113015021E030E0C90108958091371490E00895BA
S1130160FC01EC5CFB4E858190E00895362F20E085
S1130170280F391FC9010895282F30E0C9010895B7
S11301808070892F90E008950F931F93CF93DF938E
S113019080917C1490917D14892B09F4B8C08091CE
S11301A096138E3F09F4A9C0809100029091010238
S11301B0892B29F410927B1486E080937A14809121
S11301C07B1490E060917A1470E0681B790B8C5C6E
S11301D09B4E49D390917B14980F90937B148091FC
S11301E07A14981718F44AD2019771F070917B141D
S11301F0472F50E0DA0111978A010250104060E065
S1130200ED01CC5CDB4E18C080917B14882309F08F
S113021071C086E090E073C0F901EC5CFB4E808114
S11302208F3F19F481818F3F61F02017310719F452
S113023088818F3F31F06F5F262F30E02A173B070C
S11302405CF36623A1F090E0421B530B08C0EC5C06
S1130250FB4EDF01A20FB31F8C9180839F5FE92FB8
S1130260F0E0E417F5079CF3761B70937B14209160
S11302707B1480917A14281728F190919613809119
S113028036149817B9F5609137146C5F60937A143B
S1130290261788F4822F90E070E0681B790B8C5C41
S11302A09B4EE1D290917B14980F90937B14809194
S11302B07A14981738F080913714A82FB0E020E012
S11302C090E00CC085E090E09093010280930002DE
S11302D01EC0EC5CFB4E8281980F2F5FE22FF0E092
S11302E0AE17BF07B4F7AC5CBB4E909513968C91D8
S11302F0891719F087E090E002C081E090E09093C4
S113030001028093000210927D1410927C14DF91FC
S1130310CF911F910F9108951F9380917C14909118
S11303207D14019709F45DC081E090E090937D1401
S113033080937C1480919713893940F49091981399
S1130340892F8150863028F0933819F084E090E0AA
S11303502FC08FEF809394138093951380919713FC
S1130360A82FB0E020E090E005C0EC56FC4E82815E
S1130370980F2F5FE22FF0E0AE17BF07B4F7AC562B
S1130380BC4E909513969C9380910002909101022B
S11303900697029708F438D1109197131C5F84E9EB
S11303A093E1612F70E035D1181759F082E090E0A5
S11303B0909301028093000210927D1410927C1499
S11303C010C080919813823029F480919A1390E0A0
S11303D0069602C086E090E040D11092010210928D
S11303E000021F91089598DF80910002909101020C
S11303F0892B39F4C9DE809100029091010205979E
S1130400C9F30895282F80917C1490917D14892B31
S113041091F42093961383E0809398136093991337
S1130420CA0140939A13807090939B1385E0809344
S11304309713D9CF0895FFCF282F80917C149091E2
S11304407D14892BB1F42093961382E08093981342
S11304506093991380939A1384E080939713C3DF76
S113046030913A1420E080913914280F311DC901CC
S11304700895FFCF282F80917C1490917D14892BAF
S113048071F42093961383E08093981360939913E7
S113049040939A1384E080939713A5CF0895FFCFD8
S11304A0282F80917C1490917D14892B91F42093B2
S11304B0961382E0809398136093991381E080935C
S11304C09A1384E0809397138EDF8091391490E01F
S11304D00895FFCF282F80917C1490917D14892B4F
S11304E051F42093961381E08093981382E08093D3
S11304F0971379CF0895FFCF86C008950F931F9364
S11305008C016F5F7F4F882777FD8095982F0E941D
S113051016129B01AC0160E074E284EF99E40E943E
S11305207B11AB01BC01C80115D0892B19F420E063
S113053030E00CC081E090E09093010280930002CF
S113054010927D1410927C1421E030E0C9011F91B7
S11305500F910895EF92FF920F931F937A018B01ED
S113056082E48093C00088E98093C10086E0809390
S1130570C20060E074E284EF99E4A80197010E944C
S11305807B110E94E811615070407093C500609324
S1130590C40060E074E284E799E4A80197010E9432
S11305A07B1120E030E040E451E40E94A212609309
S11305B058177093591780935A1790935B1720918B
S11305C058173091591740915A1750915B1760E0B2
S11305D070E08AE793E40E947B110E94E811709313
S11305E05717609356177298739A8FEF8093C600CB
S11305F010927E1510927F1581E090E01F910F916B
S1130600FF90EF900895089580917F1580937E1553
S11306100895AC01F8947398729A20E030E011C008
S11306208091C00085FFFCCF8091C00080648093DE
S1130630C000FA01E20FF31F80818093C6002F5F90
S11306403F4F2617370764F38091C00086FFFCCF25
S11306507298739A7894C901089510925F17109252
S11306605E172091561730915717265F3F4F280F7A
S1130670391F30935D1720935C170895AF92BF9292
S1130680CF92DF92EF92FF920F931F9380915E17A8
S113069090915F17019690935F1780935E17209156
S11306A05E1730915F1780915C1790915D178217E8
S11306B0930718F421E030E074C0A0905817B0906C
S11306C05917C0905A17D0905B17C601B5012BEA91
S11306D03AEA4AEA50E40E94A2127B018C0120E02B
S11306E030E040E85FE30E940513882314F461E0DE
S11306F054C0C801B70120E030E04FE753E40E9442
S11307002D1318160CF045C0C601B50120E030E0E9
S11307104AE754E40E947B115B016C0120E030E065
S11307204AE755E40E94A2127B018C0120E030E0EC
S113073040E85FE30E94051388231CF461E070E045
S113074024C0C801B70120E03FEF4FE757E40E94FF
S11307502D131816B4F4C601B50120E030E040E2D0
S113076051E40E94A2120E94E81180E991E005C0C0
S1130770FC013197F1F76150704061157105C1F7C3
S11307800EC0C801B7010E94E811CB010197F1F72F
S113079006C0C801B7010E94E8116A95F1F720E08C
S11307A030E0C9011F910F91FF90EF90DF90CF903F
S11307B0BF90AF90089590917E1580917F15981702
S11307C019F420E030E017C090917E1580917F15D8
S11307D0981738F480917F1590917E15282F30E07A
S11307E008C080917F1590917E15282F30E020500D
S11307F03F4F291B3109C90108951F93182FDBDFCF
S11308008F3F910591F0E0917F15F0E0E258FB4EA7
S1130810108380917F158F3F19F410927F1505C0C6
S113082080917F158F5F80937F151F91089590911C
S11308307E1580917F15981711F4EFEF12C0E091A7
S11308407E15F0E0E258FB4EE08180917E158F3FEB
S113085019F410927E1505C080917E158F5F8093E8
S11308607E158E2F0895EF92FF920F931F93CF93CF
S1130870DF937C01EB0190917E1580917F15981791
S113088019F400E010E012C096DF8C01C817D907F4
S11308900CF48E01C0E0D0E006C0C9DFF701EC0F14
S11308A0FD1F80832196C017D107BCF3C801DF91D7
S11308B0CF911F910F91FF90EF9008951F920F9287
S11308C00FB60F920BB60F9211242F933F934F93B1
S11308D05F936F937F938F939F93AF93BF93EF93A4
S11308E0FF938091C60089DFFF91EF91BF91AF9193
S11308F09F918F917F916F915F914F913F912F9134
S11309000F900BBE0F900FBE0F901F901895AC0167
S113091020E030E00CC08091C80085FFFCCFFA01D4
S1130920E20FF31F80818093CE002F5F3F4F261785
S113093037078CF30895DC0190910016809101161D
S1130940981711F480E00895909100168091011693
S1130950981719F420E030E017C0909100168091A8
S11309600116981738F48091011690910016282FDB
S113097030E008C08091011690910016282F30E0D5
S113098020583F4F291B3109A901621773070CF442
S1130990AB0120E030E020C0909100168091011658
S11309A0981711F49FEF12C0E0910016F0E0E058A0
S11309B0FA4E9081809100168F3719F41092001628
S11309C005C0809100168F5F80930016FD01E20F31
S11309D0F31F90832F5F3F4F24173507ECF2842FCA
S11309E008959091001680910116981719F420E04B
S11309F030E017C09091001680910116981738F4D2
S1130A008091011690910016282F30E008C0809143
S1130A10011690910016282F30E020583F4F291BD3
S1130A203109C9010895482F90910016809101164B
S1130A309817D1F09091001680910116981738F408
S1130A408091011690910016282F30E008C0809103
S1130A50011690910016282F30E020583F4F291B93
S1130A6031092F37310591F0E0910116F0E0E0589B
S1130A70FA4E4083809101168F3719F410920116B3
S1130A800895809101168F5F8093011608959091C7
S1130A90001680910116981711F4EFEF12C0E0913F
S1130AA00016F0E0E058FA4EE081809100168F378E
S1130AB019F41092001605C0809100168F5F809380
S1130AC000168E2F08951F920F920FB60F920BB639
S1130AD00F9211242F933F934F935F936F937F93C0
S1130AE08F939F93AF93BF93EF93FF938091CE0027
S1130AF09ADFFF91EF91BF91AF919F918F917F9179
S1130B006F915F914F913F912F910F900BBE0F907A
S1130B100FBE0F901F901895DF93CF930F920F92F3
S1130B20CDB7DEB7982F8A3099F48DE089839A8304
S1130B30FE0131969E012D5F3F4F8091C80085FFD5
S1130B40FCCF81918093CE00E217F307B1F706C082
S1130B508091C80085FFFCCF9093CE0080E090E0A8
S1130B600F900F90CF91DF9108959091001680918E
S1130B7001169817D1F390910016809101169817D9
S1130B8038F48091011690910016282F30E008C0A7
S1130B908091011690910016282F30E020583F4F85
S1130BA0291B3109232B09F390910016809101161A
S1130BB0981711F4EFEF15C0E0910016F0E0E0583B
S1130BC0FA4EE081809100168F3719F410920016C6
S1130BD005C0809100168F5F80930016ED3009F4F4
S1130BE0EAE08E2F90E008950E9416129B01AC015A
S1130BF060E074E284EF99E40E947B110E94E811A2
S1130C006150704022E42093C80028E92093C90071
S1130C1026E02093CA002FEF2093CE0010920016F6
S1130C2010920116272F332727FD3A952093CD00E4
S1130C306093CC007298739A8CE895E065EB75E04C
S1130C400E94AD139093031680930216089560E0FA
S1130C5071EE80E090E0C8DF78940895C2DE181643
S1130C6019060CF03FC080916017909161170E94A3
S1130C70F7138A3011F08D3091F4809156169091CB
S1130C805716181619068CF5109257161092561608
S1130C9081E090E090935916809358160895882324
S1130CA039F12091561630915716A9014F5F5F4FC5
S1130CB05093571640935616F901EA5FF94E808314
S1130CC080915616909157168F349105A4F0109286
S1130CD057161092561681E090E09093591680931F
S1130CE05816089580E090E0089580E090E008951B
S1130CF080E090E0089580E090E008958091581697
S1130D0090915916181619063CF41092591610921F
S1130D10581686E096E1089580E090E0089584EC0A
S1130D209FE00E94461460E071EE80E090E05CDF9A
S1130D30789486E880937A0081E080937C0008951B
S1130D40CF93DF93EC018130910551F0823091050E
S1130D5061F0009771F481E080937C00179809C0DA
S1130D6082E080937C00169804C083E080937C002A
S1130D70159884E08A95F1F7EAE7F0E080818061D4
S1130D808083808180648083808184FFFDCF8EEFA7
S1130D9082B9CE01880F991F880F991F880F991F58
S1130DA0FE01EE0FFF1FE80FF91FE85CF84E60E04C
S1130DB070E020E030E02F5F3F4F42815381419348
S1130DC05193640F751F24303105A9F78091780081
S1130DD0909179009E012F5F3F4FF901EE0FFF1FA5
S1130DE0220F331F220F331F220F331FE20FF31F73
S1130DF0E85CF84E91838083860F971F209719F43F
S1130E002DE230E002C027E330E065E070E00E94AC
S1130E103113261737074CF4CC0FDD1FCC58D94EAD
S1130E2081E090E09983888306C0CC0FDD1FCC5805
S1130E30D94E198218828091780090917900DF91BF
S1130E40CF9108959F938F9383ED9FE09F938F930A
S1130E500E9435140F900F900F900F90089561E049
S1130E6070E080E090E04ADB41E050E06FE270E047
S1130E708FE190E0C7DA40E050E060E270E08EEF8E
S1130E8090E0C0DA40E050E068E170E08EEF90E07E
S1130E90F1DA2FE38DE093E0215080409040E1F7B8
S1130EA000C0000008950F931F93CF93DF9300D0E9
S1130EB0CDB7DEB720E23CE240E029833A834B839E
S1130EC0BE016F5F7F4F0E947B13009789F008E992
S1130ED016E10E945E13F801819391938F01BE0184
S1130EE06F5F7F4F80E090E00E947B13009789F74B
S1130EF00F900F900F90DF91CF911F910F91089554
S1130F0080918A1690918B168C599F4F90938B16D3
S1130F1080938A1620918816309189168217930738
S1130F203CF010928B1610928A1680E090E008959F
S1130F3081E090E00895A0919A16B0919B16A43692
S1130F40B105ACF4ECE9F6E1AA0FBB1FA295B2958A
S1130F50B07FBA27A07FBA27AA5DBC4F2CEB36E13D
S1130F60819191918D939D93E217F307C9F70895A9
S1130F70CF92DF92EF92FF920F931F93CF93DF9361
S1130F80CDB7DEB76E970FB6F894DEBF0FBECDBFF8
S1130F90FE0131968EE1DF011D928A95E9F706EA9A
S1130FA01FE07F010F2EF4ECCF2EFFE0DF2EF02D9B
S1130FB064E270E0F801819191918F013DDAD701EB
S1130FC08D939D937D010C151D0591F78E8D8F9347
S1130FD08D8D8F938C8D8F938B8D8F938A8D8F9323
S1130FE0898D8F93888D8F938F898F938E898F931B
S1130FF08D898F938C898F938B898F938A898F9313
S113100089898F931F9282E08F9388ED9FE09F934D
S11310108F930E9435140FB6F894DEBF0FBECDBF78
S11310206E960FB6F894DEBF0FBECDBFDF91CF91A1
S11310301F910F91FF90EF90DF90CF900895880F4C
S1131040991F82959295907F9827807F9827FC011D
S1131050EA5DFC4F818D8F93808D8F9387898F9369
S113106086898F9385898F9384898F9383898F93BE
S113107082898F9381898F9380898F9387858F93BA
S113108086858F9385858F9384858F9383858F93AE
S113109082858F9381858F9380858F9387818F93AA
S11310A086818F9385818F9384818F9383818F939E
S11310B082818F9381818F9380818F931F9283E0AC
S11310C08F9381E090E19F938F930E9435148DB7A5
S11310D09EB74E960FB6F8949EBF0FBE8DBF08956F
S11310E0CF92DF92EF92FF920F931F93CF93DF93F0
S11310F0CDB7DEB76E970FB6F894DEBF0FBECDBF87
S1131100FE0131968EE1DF011D928A95E9F706EA28
S11311101FE07F010F2EF4ECCF2EFFE0DF2EF02D29
S113112068E270E0F801819191918F0185D9D7012E
S11311308D939D937D010C151D0591F7888D8F93DB
S11311408F898F938E898F938D898F938C898F93B9
S11311508B898F938A898F9389898F9388898F93B9
S11311608F858F938E858F938D858F938C858F93A9
S11311708B858F938A858F9389858F9388858F93A9
S11311808F818F938E818F938D818F938C818F9399
S11311908B818F938A818F9389818F931F9284E0AF
S11311A08F938CE290E19F938F930E9435140FB636
S11311B0F894DEBF0FBECDBF6E960FB6F894DEBFB7
S11311C00FBECDBFDF91CF911F910F91FF90EF9094
S11311D0DF90CF900895CF92DF92EF92FF920F931A
S11311E01F93CF93DF93CDB7DEB76E970FB6F89406
S11311F0DEBF0FBECDBFFE0131968EE1DF011D9231
S11312008A95E9F706EA1FE07F010F2EF4ECCF2E52
S1131210FFE0DF2EF02D6AE270E0F80181919191F8
S11312208F010AD90E94BC00D7018D939D937D0143
S11312300C151D0581F7888D8F938F898F938E8967
S11312408F938D898F938C898F938B898F938A89C0
S11312508F9389898F9388898F938F858F938E85B8
S11312608F938D858F938C858F938B858F938A85B0
S11312708F9389858F9388858F938F818F938E81A8
S11312808F938D818F938C818F938B818F938A81A0
S11312908F9389818F931F9285E08F938CE290E1E5
S11312A09F938F930E9435140FB6F894DEBF0FBE40
S11312B0CDBF6E960FB6F894DEBF0FBECDBFDF91E3
S11312C0CF911F910F91FF90EF90DF90CF900895F1
S11312D09093871680938616709385166093841670
S11312E020918C1630918D16232BA1F420918E160B
S11312F030918F16309383162093821690938F1615
S113130080938E1670938D1660938C1610928516AA
S113131010928416089590938F1680938E1670936E
S11313208D1660938C16109285161092841681E0A7
S113133090E090930F0280930E0210928B161092FD
S11313408A16089581E090E090930F0280930E0234
S113135010928D1610928C1610928B1610928A167B
S11313608FEF9FEF90930D0280930C020895CF931B
S1131370DF9380915A1690915B160197C9F480917E
S113138009028F93809108028F9384E590E19F93E3
S11313908F930E94351480910802909109029093D2
S11313A05F1680935E160F900F900F900F903FC1C1
S11313B080915E1690915F1690935D1680935C16F3
S11313C0069709F06BC080E790E10E9446144091B3
S11313D0621650916316E4E6F6E181E090E0C0E025
S11313E0D0E0219131914217530714F4A901EC0183
S11313F0019686309105A9F741355105ECF08091AD
S11314006616909167164597BCF080916816909186
S1131410691689978CF080916A1690916B1645979E
S11314205CF080E890E10E94461487E090E090939D
S11314305F1680935E16FBC0DF93CF9380E990E143
S11314409F938F930E9435140F900F900F900F90DD
S1131450C330D10571F01CF4219724F418C02697E9
S11314607CF015C081E090E090935F1680935E1647
S1131470DEC085E090E090935F1680935E16D7C03F
S113148082E090E090935F1680935E16D0C085E072
S113149090E090935F1680935E16C9C08FEA90E146
S11314A00E94461480917416909175160097B9F4B1
S11314B08091761690917716892B69F5809178162C
S11314C090917916892B39F58FEB90E10E9446149F
S11314D086E090E090935F1680935E16A8C08130FA
S11314E0910509F045C08091761690917716892B65
S11314F009F041C08091781690917916892BD9F51D
S113150086ED90E10E94461484E090E090935F168B
S113151080935E168CC080917616909177168130F8
S1131520910591F48091781690917916892B09F0A0
S11315304FC08DEE90E10E94461486E090E09093B7
S11315405F1680935E1673C0892B09F041C08091A9
S11315507816909179160197D9F584E091E10E946B
S1131560461481E090E090935F1680935E165FC00E
S11315708130910559F580917616909177168130D6
S1131580910589F48091781690917916892BC9F583
S11315908BE191E10E94461482E090E090935F1603
S11315A080935E1644C0892B61F5809178169091E2
S11315B07916019731F582E391E10E94461486E0A1
S11315C090E090935F1680935E1631C00097B9F453
S11315D08091761690917716019749F58091781647
S11315E090917916019719F589E491E10E944614C6
S11315F085E090E090935F1680935E1618C0019783
S1131600B1F48091761690917716019781F48091C8
S1131610781690917916019751F480E691E10E9431
S1131620461486E090E090935F1680935E16DF91F7
S1131630CF910895CF93DF93809190169091911656
S1131640C0916A02D0916B02E0915E16F0915F1630
S11316503197E730F10520F4EA59FF4F0C94441315
S1131660FC01EE0FFF1FEE0FFF1FE859FD4F53C0A3
S1131670FC01EE0FFF1FEE0FFF1FE45AFD4FC09158
S11316805E02D0915F0247C0FC01EE0FFF1FEE0F18
S1131690FF1FE05BFD4FC0915202D09153023BC04B
S11316A0FC01EE0FFF1FEE0FFF1FEC5BFD4FC0911F
S11316B04602D09147022FC0FC01EE0FFF1FEE0F30
S11316C0FF1FE85CFD4FC0913A02D0913B0223C05A
S11316D0FC01EE0FFF1FEE0FFF1FE05DFD4FC091F9
S11316E03202D091330217C0FC01EE0FFF1FEE0F40
S11316F0FF1FE05EFD4FC0912202D09123020BC078
S1131700FC01EE0FFF1FEE0FFF1FE05FFD4FC091C6
S11317101202D091130280918C1690918D16181696
S1131720190684F18091961690919716019751F5B8
S113173080918216909183168D7F019751F080815C
S11317409181039731F461E070E081E090E0C0DDC5
S113175019C06281738180819181BADD8091901674
S1131760909191160196C817D9072CF09093911671
S11317708093901607C081E090E090939116809337
S11317809016F5DDDF91CF91089581E090E00E94FD
S1131790A200019721F48CE791E10E94461482E0B3
S11317A090E00E94A200019721F481E991E10E9456
S11317B0461484E090E00E94A200019721F484EA98
S11317C091E10E94461488E090E00E94A2000197F3
S11317D021F484EB91E10E94461480E190E00E94A0
S11317E0A200019721F488EC91E10E94461480E262
S11317F090E00E94A200019721F488ED91E10E94FB
S1131800461480E490E00E94A200019721F488EE3F
S113181091E10C94461408958430910599F034F4C0
S11318208230910551F0039791F025C086309105DF
S1131830C1F094F00797D1F01EC080E092E10C94BF
S11318404614089581E392E10C94461408958DE5BD
S113185092E10C944614089580E992E10C944614A4
S113186008958DEB92E10C944614089588EE92E16C
S11318700C944614089581E193E10C944614089560
S11318800F931F93CF93DF938C01EB018EEF90E0C6
S11318900E94940083E890E00E94970060E270E068
S11318A080E090E00E949A0062E070E081E090E0C5
S11318B00E949A00B80182E090E00E949A00CE0152
S11318C00E94BC00BC0183E090E00E949A00CE011B
S11318D00E94C000BC0184E090E00E949A0087E06E
S11318E090E00E949F000E94F3010E948F008130CB
S11318F0910511F44ADF01C08FDFDF91CF911F9171
S11319000F9108952F923F924F925F926F927F9220
S11319108F929F92AF92BF92CF92DF92EF92FF92FB
S11319200F931F93CF93DF93CDB7DEB7C854D1097C
S11319300FB6F894DEBF0FBECDBF25969FAF8EAF16
S11319402597843691050CF082C1FE0131968EE113
S1131950DF011D928A95E9F725968EAD9FAD2597F7
S1131960880F991F82959295907F9827807F98275A
S11319709C012A5D3C4F27963FAF2EAF27976E2ED2
S11319807F2E0F2EF4EC8F2EFFE09F2EF02D7F0183
S1131990590106EA1FE0C12CD12C64E270E0D801A1
S11319A08D919D918D010E941C02F501219131912F
S11319B05F01A901481B590BCA01992324F0D701DF
S11319C04D935C9306C0919581959109F70191839C
S11319D08083D7018D919D917D01C816D9060CF4A1
S11319E06C0108151905C9F61E01BFE12B0E311C47
S11319F08EE1F10111928A95E9F784E690E098A3CB
S1131A008F8F2596EEADFFAD2597EE0FFF1FE29564
S1131A10F295F07FFE27E07FFE27EA5DFC4F668D9E
S1131A20778D882777FD8095982F00D523966CAF06
S1131A307DAF8EAF9FAF239728962FAE2897299618
S1131A403FAE29973EAE2DAEA62CB72CEE24D7FC84
S1131A50E094FE2CD5010D911D915D01C701B601E5
S1131A60E5D42B013C01B801882777FD8095982F98
S1131A70DDD4A30192013FD49B01AC0123966CAD4C
S1131A807DAD8EAD9FAD23975DD59DD46115710558
S1131A9021F0F1017183608305C0E1E0F0E0D10140
S1131AA0ED93FC93F2E02F0E311C2DAD3EADA2164A
S1131AB0B30681F62596EEADFFAD2597EE0FFF1F19
S1131AC0E295F295F07FFE27E07FFE27EA5DFC4F6A
S1131AD0668D778D8BEF93E1C4D5882777FD80954C
S1131AE0982FA4D49B01AC01C301B2012BD56BD4B4
S1131AF0643671052CF0709389166093881606C0BD
S1131B0084E690E090938916809388168EEF90E097
S1131B100E94940083E890E00E94970060E270E0E5
S1131B2080E090E00E949A0062E070E081E090E042
S1131B300E949A002896CFAC28972996DFAC299763
S1131B400F2EF6EAEF2EFFE0FF2EF02D02E010E05C
S1131B50D7016D917D917D01C8010E949A00F60123
S1131B60A190B1906F01C5010E94BC00BC01C801E5
S1131B7001960E949A00C5010E94C000BC01C801E0
S1131B8002960E949A000D5F1F4FE814F90401F7B2
S1131B9081E390E00E949F000E94F3010E948F0065
S1131BA08130910509F052C0F0DD8EEF90E00E9483
S1131BB0940083E890E00E9497006EE170E080E07A
S1131BC090E00E949A0062E070E081E090E00E9460
S1131BD09A002796CEACDFAC27970F2EF6EAEF2EAD
S1131BE0FFE0FF2EF02D02E010E0D7016D917D9112
S1131BF07D01C8010E949A005601F60181919191DC
S1131C006F010E94BC00BC01C80101960E949A00A9
S1131C10D5018D919C910E94C000BC01C80102961F
S1131C200E949A000D5F1F4FE814F904F1F681E356
S1131C3090E00E949F000E94F3010E948F00813077
S1131C40910511F4A2DD03C0E7DD01C0E5DDC85B49
S1131C50DF4F0FB6F894DEBF0FBECDBFDF91CF913B
S1131C601F910F91FF90EF90DF90CF90BF90AF90B6
S1131C709F908F907F906F905F904F903F902F90A8
S1131C80089548990EC08091941690919516892BC9
S1131C9009F050C081E090E09093951680939416DB
S1131CA008958091941690919516019709F042C079
S1131CB010929516109294168091961690919716FC
S1131CC09C012F5F3F4F309397162093961626E082
S1131CD030E0A901481B590BCA01181619063CF03B
S1131CE08FE388B910929716109296160BC021E0D4
S1131CF030E0A90102C0440F551F8A95E2F7CA01DA
S1131D00809588B91FDB80E090E0FCDD81E090E005
S1131D1090939116809390168091961690919716B1
S1131D20019741F48091680290916902909393160F
S1131D308093921608950F931F93CF93DF9380910E
S1131D408C1690918D16181619060CF080C0D8D8F0
S1131D50892B09F07CC080918E1690918F168D305E
S1131D6091055CF09F938F938DE293E19F938F9302
S1131D707CD50F900F900F900F9080918E169091BC
S1131D808F16FC01EE0FFF1FE059FD4FC081D1817A
S1131D904881598120910E0230910F024217530756
S1131DA0BCF421E030E030930F0220930E02209126
S1131DB08C1630918D162336310554F42150310997
S1131DC030938D1620938C16121613060CF03FC018
S1131DD0089749F500910E0210910F0280E090E0FF
S1131DE00E94A006F801EE0FFF1FEE59F94E9183F1
S1131DF0808380910E0290910F02FC01EE0FFF1F71
S1131E00EE59F94E21812F9320812F939F938F9325
S1131E1089E493E19F938F9328D50F900F900F90AF
S1131E200F900F900F9080910E0290910F02880FE7
S1131E30991FC80FD91F8881998164DD80910E0292
S1131E4090910F02019690930F0280930E02DF91FE
S1131E50CF911F910F910895CF93DF9351D8892B80
S1131E6009F060C0E0918E16F0918F16EE0FFF1FFF
S1131E70E059FD4FC081D1812881398180910E02C2
S1131E8090910F0228173907CCF580916C16909128
S1131E906D16019690936D1680936C168A30910599
S1131EA054F486E693E1F2D484E090E090938F16A4
S1131EB080938E161DC08431910554F485E793E117
S1131EC0E5D485E090E090938F1680938E1610C031
S1131ED04E9754F484E893E1D9D483E090E090934E
S1131EE08F1680938E1604C010926D1610926C1685
S1131EF081E090E090930F0280930E0280910E0295
S1131F0090910F02880F991FC80FD91F888199815A
S1131F10F9DC80910E0290910F02019690930F02CA
S1131F2080930E02DF91CF9108952F923F924F92AA
S1131F305F926F927F928F929F92AF92BF92CF9255
S1131F40DF92EF92FF920F931F93CF93DF938CEF67
S1131F5081B98EEF82B98FE787B98EE788B980E7B8
S1131F608AB981E18BB90E942F070E9427060E943B
S1131F708F0680917A1690917B16019741F440E088
S1131F8050E068E170E08EEF90E00E943A020F2E7C
S1131F90F8E94F2EF6E15F2EF02D0F2EF0E53F2EDF
S1131FA0F02D0F2EF0EA2F2EF02D0F2EF4E7CF2E6A
S1131FB0F6E1DF2EF02D0F2EFEE6AF2EF6E1BF2E5A
S1131FC0F02D0F2EF6E7EF2EF6E1FF2EF02D0F2E5B
S1131FD0F0E78F2EF6E19F2EF02D08E716E10F2E85
S1131FE0F2E76F2EF6E17F2EF02D80E090E00E9464
S1131FF0A00681E090E00E94A00682E090E00E94AA
S1132000A0063FDE0E942E06181619060CF095C095
S11320100E947E06EC01009709F48FC00E945307CA
S1132020F201808191818630910509F46BC094F4AA
S11320308230910509F44DC034F4009701F1019701
S113204009F44AC071C08430910509F456C00CF4F7
S113205045C056C08930910591F134F4873091051B
S1132060C1F0089731F160C08B30910509F460C06C
S11320700CF451C0873E934009F41FC155C0EAE9EE
S1132080F6E1808191813EDC81E090E00E942207AC
S11320904FC0ECE9F6E160817181EAE9F6E1808103
S11320A0918116D9FFEDF8B981E090E00E942207F2
S11320B03FC048D981E090E00E94220739C0ECE992
S11320C0F6E160817181EAE9F6E18081918123D9A9
S11320D02FC00E94B8072CC00E949B07EAE9F6E1D2
S11320E080819181843691052CF080E090E00E94FB
S11320F022071EC00E941F081BC00E94700818C03F
S11321006AD816C040E050E068E170E08EEF90E0DD
S11321100E943A020DC010927E1610927F16109201
S113212080161092811604C080E090E00E9422077D
S1132130FE01232D11922A95E9F7F201222D119225
S11321402A95E9F7019917C080910A0290910B0230
S113215018161906ACF510920B0210920A028FE7BA
S113216088B980917A1690917B16019749F180E0A5
S113217090E0C8DB25C080910A0290910B02892B64
S113218039F4469881E090E090930B0280930A0220
S11321908091921690919316181619065CF04ADAFB
S11321A08091601690916116019711F455DE08C074
S11321B0C2DD06C0845691099093931680939216BB
S11321C0F60180819181009739F4F5018081918134
S11321D0892B49F0459A07C0F50120813181821786
S11321E0930709F04598F70180819181009739F4AC
S11321F0F40180819181892B49F0449A07C0F4014C
S1132200208131818217930709F04498F801808175
S11322109181009739F4F30180819181892B49F0F0
S1132220439A07C0F301208131818217930709F093
S11322304398F60180819181F50191838083F701B0
S113224080819181F40191838083F801808191815F
S1132250F3019183808387EA91E60197F1F700C047
S1132260000080917E1690917F16A0918016B09107
S113227081160196A11DB11D80937E1690937F1641
S1132280A0938016B093811680917C1690917D1650
S1132290019690937D1680937C16499709F0A5CEFC
S11322A080917A1690917B16019711F40E94B807D9
S11322B010927D1610927C1698CE87EE93E00E94C1
S11322C0220760E070E080E090E0DADA80E090E0FD
S11322D0DF91CF911F910F91FF90EF90DF90CF90FE
S11322E0BF90AF909F908F907F906F905F904F9032
S11322F03F902F9008950CD0EBC0E3D040F0DAD09B
S113230030F021F45F3F19F0CCC0511115C1CFC09A
S1132310F0D098F39923C9F35523B1F3951B550BCA
S1132320BB27AA2762177307840738F09F5F5F4FA4
S1132330220F331F441FAA1FA9F333D00E2E3AF0E5
S1132340E0E830D091505040E695001CCAF729D0FF
S1132350FE2F27D0660F771F881FBB1F261737074E
S11323604807AB07B0E809F0BB0B802DBF01FF277E
S113237093585F4F2AF09E3F510568F092C0DCC02D
S11323805F3FECF3983EDCF3869577956795B795B8
S1132390F7959F5FC9F7880F911D9695879597F9D3
S11323A00895E1E0660F771F881FBB1F621773074C
S11323B08407BA0720F0621B730B840BBA0BEE1F61
S11323C088F7E095089504D06894B111B5C00895D4
S11323D098D088F09F5790F0B92F9927B751A0F063
S11323E0D1F0660F771F881F991F1AF0BA95C9F7A5
S11323F012C0B13081F09FD0B1E008959CC0672F26
S1132400782F8827B85F39F0B93FCCF38695779554
S11324106795B395D9F73EF490958095709561953D
S11324207F4F8F4F9F4F0895E89409C097FB3EF468
S113243090958095709561957F4F8F4F9F4F99230D
S1132440A9F0F92F96E9BB279395F695879577958B
S11324506795B795F111F8CFFAF4BB0F11F460FF4B
S11324601BC06F5F7F4F8F4F9F4F16C0882311F0A3
S113247096E911C0772321F09EE8872F762F05C0B7
S1132480662371F096E8862F70E060E02AF09A9552
S1132490660F771F881FDAF7880F9695879597F947
S11324A0089597F99F6780E870E060E008959FEFD2
S11324B080EC089500240A941616170618060906D7
S11324C0089500240A9412161306140605060895A6
S11324D0092E0394000C11F4882352F0BB0F40F42E
S11324E0BF2B11F460FF04C06F5F7F4F8F4F9F4F6E
S11324F0089557FD9058440F551F59F05F3F71F0F0
S11325004795880F97FB991F61F09F3F79F0879556
S11325100895121613061406551FF2CF4695F1DFDF
S113252008C0161617061806991FF1CF869571056F
S1132530610508940895E894BB2766277727CB01A3
S113254097F908950BD0C4CFB5DF28F0BADF18F09F
S1132550952309F0A6CFABCF1124EECFCADFA0F3A9
S1132560959FD1F3950F50E0551F629FF001729F24
S1132570BB27F00DB11D639FAA27F00DB11DAA1F43
S1132580649F6627B00DA11D661F829F2227B00D90
S1132590A11D621F739FB00DA11D621F839FA00D1B
S11325A0611D221F749F3327A00D611D231F849F6B
S11325B0600D211D822F762F6A2F11249F575040C2
S11325C08AF0E1F088234AF0EE0FFF1FBB1F661F5D
S11325D0771F881F91505040A9F79E3F510570F016
S11325E060CFAACF5F3FECF3983EDCF386957795F6
S11325F06795B795F795E7959F5FC1F7FE2B880F11
S1132600911D9695879597F9089503D008F481E074
S11326100895990F0008550FAA0BE0E8FEEF16166F
S11326201706E807F907C0F012161306E407F507C2
S113263098F0621B730B840B950B39F40A2661F036
S1132640232B242B252B21F408950A2609F4A140D9
S1132650A6958FEF811D811D0895DBDF08F48FEFB0
S1132660089597FB072E16F4009406D077FD08D042
S113267011D007FC05D03EF4909581959F4F0895A5
S1132680709561957F4F0895EE0FFF1F0590F491AB
S1132690E02D1994AA1BBB1B51E107C0AA1FBB1F45
S11326A0A617B70710F0A61BB70B881F991F5A95DA
S11326B0A9F780959095BC01CD010895FC01882768
S11326C09927E89421912032E9F3293010F02E3033
S11326D0C8F32B3239F02D3231F4689403C035D06D
S11326E0820F911D219120532A30C8F31EF4909536
S11326F081959F4F089544E056E100C0FA01A191ED
S1132700B081009719F41097E1F0CD01DC01CD01FF
S11327100D90002011F4C00113C0FB01219122236C
S113272019F02015D9F7F3CFFB012191201519F4E5
S11327301E92119606C02223C1F70D900020A1F726
S1132740D001FA01A193B08308957AE0979F902D68
S1132750879F802D910D112408950F931F93CF937C
S1132760DF93EC018B01009731F46115710519F4C5
S113277080E090E037C06EE070E081E090E0A1D2AC
S1132780FC010097A9F380E883830115110571F01A
S11327901387028781E88383809160179091611782
S11327A0892B21F4F0936117E09360172097C9F007
S11327B0D187C087838182608383809162179091DF
S11327C06317892B71F4F0936317E0936217809178
S11327D0641790916517892B21F4F0936517E093A2
S11327E06417CF01DF91CF911F910F910895CF937B
S11327F0DF93EC012B8120FF33C026FF0AC02F7B1F
S11328002B838E819F8101969F838E838A8190E0A2
S113281029C022FF0FC0E881F9818081992787FDB3
S11328209095009719F420622B831AC03196F9838E
S1132830E8830EC0EA85FB85199597FF09C02B81B3
S1132840019611F480E101C080E2822B8B8308C0E1
S11328502E813F812F5F3F4F3F832E83992702C0F4
S11328608FEF9FEFDF91CF910895CF93DF93CDB793
S1132870DEB7FE01369661917191AF0180916217C6
S11328809091631730D0DF91CF9108950F931F93E8
S1132890CF93DF93E0916217F0916317238121FFB7
S11328A01BC0EC0100E010E0899160916217709107
S11328B06317DB011896ED91FC911997882331F089
S11328C01995892B89F30FEF1FEFEECF8AE0199545
S11328D0892B11F4C80102C08FEF9FEFDF91CF91D4
S11328E01F910F9108952F923F924F925F926F9292
S11328F07F928F929F92AF92BF92CF92DF92EF928C
S1132900FF920F931F93CF93DF93CDB7DEB72C972E
S11329100FB6F894DEBF0FBECDBF7C016B018A01F8
S1132920FC0117821682838181FFB0C1CE0101961A
S11329304C01F7019381F60193FD859193FF8191F9
S11329406F01882309F49EC1853239F493FD859182
S113295093FF81916F01853221F4B70190E00FD389
S1132960E8CF512C312C20E02032A0F48B3269F0D6
S113297030F4803259F0833269F420612CC08D32F6
S113298039F0803339F4216026C02260246023C0EA
S1132990286021C027FD27C030ED380F3A3078F485
S11329A026FF06C0FAE05F9E300D1124532E13C09B
S11329B08AE0389E300D1124332E20620CC08E32F2
S11329C021F426FD5FC1206406C08C3611F4206812
S11329D002C0883641F4F60193FD859193FF8191FD
S11329E06F018111C1CF982F9F7D9554933028F4A6
S11329F00C5F1F4FFFE3F9830DC0833631F083373B
S1132A0071F0833509F057C021C0F80180818983B2
S1132A100E5F1F4F44244394512C540114C03801B9
S1132A20F2E06F0E711CF801A080B18026FF03C094
S1132A30652D70E002C06FEF7FEFC5012C8794D243
S1132A402C0183012C852F77222E16C03801F2E049
S1132A506F0E711CF801A080B18026FF03C0652DA4
S1132A6070E002C06FEF7FEFC5012C876BD22C01A1
S1132A702C852068222E830123FC19C0832D90E02D
S1132A8048165906A0F4B70180E290E078D23A944F
S1132A90F5CFF50127FC859127FE81915F01B701F0
S1132AA090E06DD231103A94F1E04F1A510841147C
S1132AB0510479F7DEC0843611F0893631F5F80116
S1132AC027FF07C060817181828193810C5F1F4F52
S1132AD008C060817181882777FD8095982F0E5FEB
S1132AE01F4F2F76B22E97FF09C090958095709551
S1132AF061957F4F8F4F9F4F2068B22E2AE030E0C0
S1132B00A4016FD2A82EA81843C0853729F42F7EBC
S1132B10B22E2AE030E025C0F22FF97FBF2E8F3687
S1132B20C1F018F4883579F0ADC0803719F08837D2
S1132B3021F0A8C02F2F2061B22EB4FE0DC08B2D22
S1132B408460B82E09C024FF0AC09F2F9660B92E56
S1132B5006C028E030E005C020E130E002C020E1FA
S1132B6032E0F801B7FE07C06081718182819381F0
S1132B700C5F1F4F06C06081718180E090E00E5FA2
S1132B801F4FA4012ED2A82EA818FB2DFF77BF2E0D
S1132B90B6FE0BC02B2D2E7FA51450F4B4FE0AC034
S1132BA0B2FC08C02B2D2E7E05C07A2C2B2D03C021
S1132BB07A2C01C0752C24FF0DC0FE01EA0DF11D15
S1132BC08081803311F4297E09C022FF06C07394EA
S1132BD0739404C0822F867809F0739423FD12C085
S1132BE020FF06C05A2C731418F4530C5718732C76
S1132BF0731460F4B70180E290E02C87C0D1739421
S1132C002C85F6CF731410F4371801C0312C24FF2F
S1132C1011C0B70180E390E02C87B1D12C8522FF4D
S1132C2016C021FF03C088E590E002C088E790E069
S1132C30B7010CC0822F867851F021FD02C080E2DA
S1132C4001C08BE227FD8DE2B70190E098D1A51475
S1132C5030F4B70180E390E092D15A94F8CFAA946B
S1132C60F401EA0DF11D8081B70190E088D1A11033
S1132C70F6CF332009F45DCEB70180E290E07FD136
S1132C803A94F7CFF7018681978102C08FEF9FEFC7
S1132C902C960FB6F894DEBF0FBECDBFDF91CF9157
S1132CA01F910F91FF90EF90DF90CF90BF90AF9066
S1132CB09F908F907F906F905F904F903F902F9058
S1132CC008950F931F93CF93DF93869F8001879F6F
S1132CD0100D969F100D1124C8010DD0EC01009722
S1132CE021F0A80160E070E038D1CE01DF91CF91EE
S1132CF01F910F910895CF93DF938230910510F4C3
S1132D0082E090E0E0916817F091691720E030E0EC
S1132D10A0E0B0E0309739F140815181481759075C
S1132D20B8F04817590771F482819381109729F0FC
S1132D3013969C938E9312972CC09093691780934B
S1132D40681727C02115310531F04217530718F0D1
S1132D50A901DB0101C0EF019A01BD01DF0102807D
S1132D60F381E02DD7CF21153105F9F0281B390B5C
S1132D702430310580F48A819B816115710521F02D
S1132D80FB019383828304C090936917809368172F
S1132D90FE01329644C0FE01E20FF31F819391932A
S1132DA022503109398328833AC020916617309123
S1132DB06717232B41F420910402309105023093CC
S1132DC067172093661720910202309103022115A0
S1132DD0310541F42DB73EB74091060250910702E8
S1132DE0241B350BE0916617F0916717E217F30780
S1132DF0A0F42E1B3F0B2817390778F0AC014E5F67
S1132E005F4F2417350748F04E0F5F1F5093671725
S1132E10409366178193919302C0E0E0F0E0CF0104
S1132E20DF91CF910895CF93DF93009709F487C082
S1132E30FC01329713821282C0916817D0916917EE
S1132E40209781F420813181280F391F80916617E2
S1132E50909167178217930779F5F0936717E093BA
S1132E6066176DC0DE0120E030E0AE17BF0750F4F6
S1132E7012964D915C9113979D014115510509F1ED
S1132E80DA01F3CFB383A28340815181840F951F6C
S1132E908A179B0771F48D919C911197840F951F4C
S1132EA002969183808312968D919C9113979383BC
S1132EB082832115310529F4F0936917E09368178B
S1132EC03EC0D9011396FC93EE9312974D915D91F8
S1132ED0A40FB51FEA17FB0779F480819181840F51
S1132EE0951F0296D90111969C938E9382819381AA
S1132EF013969C938E931297E0E0F0E08A819B8175
S1132F00009719F0FE01EC01F9CFCE010296288159
S1132F103981820F931F2091661730916717281704
S1132F20390769F4309729F41092691710926817D9
S1132F3002C013821282D0936717C0936617DF9181
S1132F40CF910895FC010590615070400110D8F7AD
S1132F50809590958E0F9F1F0895DC0101C06D939D
S1132F6041505040E0F70895FC01615070400190D9
S1132F700110D8F7809590958E0F9F1F08950F9399
S1132F801F93CF93DF93182F092FEB018B8181FDC2
S1132F9003C08FEF9FEF20C082FF10C04E815F817E
S1132FA02C813D81421753077CF4E881F9819F010C
S1132FB02F5F3F4F39832883108306C0E885F98546
S1132FC0812F1995892B29F72E813F812F5F3F4F40
S1132FD03F832E83812F902FDF91CF911F910F91EB
S1132FE00895FA01AA27283051F1203181F1E8949B
S1132FF06F936E7F6E5F7F4F8F4F9F4FAF4FB1E0E8
S11330003ED0B4E03CD0670F781F891F9A1FA11DE2
S1133010680F791F8A1F911DA11D6A0F711D811DE3
S1133020911DA11D20D009F468943F912AE0269FA8
S113303011243019305D3193DEF6CF010895462F07
S11330404770405D4193B3E00FD0C9F7F6CF462FE8
S11330504F70405D4A3318F0495D31FD4052419351
S113306002D0A9F7EACFB4E0A6959795879577950E
S11330706795BA95C9F700976105710508959B0195
S1133080AC010A2E06945795479537952795BA951E
S1133090C9F7620F731F841F951FA01D0895F8942C
S10530A0FFCF5C
S11330A2010000006A17200006000100FFFF010072
S11330B264000300030003000A0001000C00010085
S11330C26400030007000100080001000900010078
S11330D26400010003000200640002000400050011
S11330E20300020064000200030002000400030063
S11330F264000200050004000300020064000200F0
S11331020400040003000200E803010003000600B7
S113311222031E030C03FE02F002E202D402CA02DC
S1133122BE02B602A8029A028A02070051005200A5
S11331325300540055005600570006004B004C0043
S11331424D004E004F005000060045004600470067
S1133152480049004A0003003D003E003F000600CB
S113316236003700380039003900040032003300D9
S11331723400350006000A000B000C000D000E009E
S11331820F00060023002400250026002700280043
S113319206001D001E001F00200021002200060060
S11331A20A000B000C000D000E000F00080029009D
S11331B22A002B002C002D002E002F0030000100CD
S11331C201000100000070003D018E03C2028E0363
S11331D2C20270003D01F40206024102FC00360103
S11331E2F101E8036400700033018E03C2028E030E
S11331F2C20225003D01F40206024102FC0036012E
S1133202F101E803640025000002320300023203E4
S11332120002CD000002F40206024102FC00360163
S1133222F101E803C80070003D018E03C2028E035F
S1133232C20270003D01F40206024102FC003601A2
S1133242F101E803640070003D018E03C2028E03A3
S1133252C20270003D01F40206024102FC00360182
S1133262F101E803640070003D018E03C2028E0383
S1133272C20270003D01F40206024102FC00360162
S1133282F101E803640070003D018E03C2028E0363
S1133292C20270003D01F40206024102FC00360142
S11332A2F101E803640070003D018E03C2028E0343
S11332B2C20270003D01F40206024102FC00360122
S11332C2F101E803640070003D018E03C2028E0323
S11332D2C20270003D01F40206024102FC00360102
S11332E2F101E803640070003D018E03C2028E0303
S11332F2C20270003D01F40206024102FC003601E2
S1133302F101E8036400DE003301A203C2028E036A
S1133312C2022F006001F40200024102FC003601E5
S1133322F101E80396005C003D01B603E0025C0390
S11333329A0270003D01F40200024102FC003601CF
S1133342F101E80396005C003D01B603E002CF03FD
S11333529F0270003D01F40200024102FC003601AA
S1133362F101E8039600520033012003B802CF03AF
S11333729F0266003301F40200024102FC0036019E
S1133382F101E803960052002901A203C2028E034E
S1133392AE02A2004701F40200024102FC0036011F
S11333A2F101E803960052002901A203C2028E032E
S11333B2C2022F006001F40200024102FC00360145
S11333C2F101E80396007A005B01C003E002CF0337
S11333D29F0234002E01F40206024102FC0036016F
S11333E2F101E8036400520029018903C202930334
S11333F2C7023E006001F40206024102FC003601EB
S1133402F101E8036400520029018903C202930313
S1133412C7023E006001F40206024102FC003601CA
S1133422F101E8036400520029018903C2029303F3
S1133432C7023E006001F40206024102FC003601AA
S1133442F101E8036400660033019803CC02980397
S1133452CC0266003301F40206024102FC0036018A
S1133462F101E8033200660033019803CC029803A9
S1133472CC0266003301F40206024102FC0036016A
S1133482F101E8033200660033019803CC02980389
S1133492CC0266003301F40206024102FC0036014A
S11334A2F101E8033200660033019803CC02980369
S11334B2CC0266003301F40206024102FC0036012A
S11334C2F101E8033200660033019803CC02980349
S11334D2CC0266003301F40206024102FC0036010A
S11334E2F101E8033200660033019803CC02980329
S11334F2CC0266003301F40206024102FC003601EA
S1133502F101E8033200660033019803CC02980308
S1133512CC0266003301F40206024102FC003601C9
S1133522F101E8033200660033019803CC029803E8
S1133532CC0266003301F40206024102FC003601A9
S1133542F101E8033200660033019803CC029803C8
S1133552CC0266003301F40206024102FC00360189
S1133562F101E803320000003301980332039803A7
S1133572320300003301F40206024102FC00360168
S1133582F101E8039600000033019803CC0298038A
S1133592CC0200003301F40206024102FC003601AF
S11335A2F101E803B400660033019803CC029803E6
S11335B2CC0266003301F40206024102FC00360129
S11335C2F101E803B40000003301980332039803C5
S11335D2320300003301F40206024102FC00360108
S11335E2F101E803B400000033019803CC0298030C
S11335F2CC0200003301F40206024102FC0036014F
S1133602F101E803B400660033019803CC02980385
S1133612CC0266003301F40206024102FC003601C8
S1133622F101E803B4006600CD00FF03CC02FF03FE
S1133632CC026600CD00F40206024102FC0036010F
S1133642F101E803960066003301FF03CC02FF0395
S1133652CC0266003301F40206024102FC00360188
S1133662F101E803B400660033019803CC02980325
S1133672CC0266003301F40206024102FC00360168
S1133682F101E803B4006600CD00FF03CC02FF039E
S1133692CC026600CD00F40206024102FC003601AF
S11336A2F101E803B40066003301FF03CC02FF0317
S11336B2CC0266003301F40206024102FC00360128
S11336C2F101E803B400660033019803CC029803C5
S11336D2CC0266003301F40206024102FC00360108
S11336E2F101E803B4009A01CC0232030002980308
S11336F2660200003301F40206024102FC003601B4
S1133702F101E8036400330100023203000298036A
S11337120002CD000002F40206024102FC0036015E
S1133722F101E8036400330100029803000232034A
S1133732000200003301F40206024102FC003601D9
S1133742F101E803640033010002980300029803C4
S1133752660266009A01F40206024102FC00360186
S1133762F101E8036400CD00000266023301FF03A5
S1133772CC0266009A01F40206024102FC00360100
S1133782F101E8036400CD000002CC02000232031E
S1133792000266000002F40206024102FC00360145
S11337A2F101E803640066000002CC020002FF0398
S11337B2CC02CD000002F40206024102FC003601F2
S11337C2F101E803640066000002CC0200029803DF
S11337D2660266009A01F40206024102FC00360106
S11337E2F101E8036400CD00000232030002320357
S11337F20002CD000002F40206024102FC0036017E
S1133802F101E803640070003D018E03C2028E03DD
S1133812C20270003D01F6020302D2015701F80010
S1133822C101E803320070003D018E03C2028E031F
S1133832C20270003D013D020F02C4008D01CF009F
S11338420302E803320070003D018E03C2028E03BC
S1133852C20270003D01F8010F027D0081019F0048
S11338621902E803320070003D018E03C2028E0386
S1133872C20270003D01F8013903A100D801B3006E
S1133882BE01E803640070003D018E03C2028E0390
S1133892C20270003D01F801A102A100D801B300E7
S11338A2BE01E803640070003D018E03C2028E0370
S11338B2C20270003D01F8010102A100D801B30067
S11338C2BE01E803640070003D018E03C2028E0350
S11338D2C20270003D01F8017C01A100D801B300CD
S11338E2BE01E803640070003D018E03C2028E0330
S11338F2C20270003D01F801C400A100D801B30066
S1133902BE01E803640070003D018E03C2028E030F
S1133912C20270003D01F40203029401BD00E800FA
S1133922A102E803640070003D018E03C2028E030B
S1133932C20270003D01F40203029401BD00E800DA
S1133942A102E803640070003D018E03C2028E03EB
S1133952C20270003D01F40203029401BD00E800BA
S1133962A102E803640070003D018E03C2028E03CB
S1133972C20270003D01F8010F027D0081019F0027
S11339821902E803320070003D018E03C2028E0365
S1133992C20270003D013D020F02C4008D01CF003E
S11339A20302E803320070003D018E03C2028E035B
S11339B2C20270003D01F6020302D2015701F8006F
S11339C2C101E803320070003D018E03C2028E037E
S11339D2C20270003D01F40206024102FC003601FB
S11339E2F101E803640070003D018E03C2028E03FC
S11339F2C20270003D01F40206024102FC003601DB
S1133A02F101E803640070003D018E03C2028E03DB
S1133A12C20270003D01F40206024102FC003601BA
S1133A22F101E803640070003D018E03C2028E03BB
S1133A32C20270003D01F40206024102FC0036019A
S1133A42F101E803640070003D018E03C2028E039B
S1133A52C20270003D01F40206024102FC0036017A
S1133A62F101E803640070003D018E03C2028E037B
S1133A72C20270003D01F6020002D2015701F800B1
S1133A82C101E803320070003D018E03C2028E03BD
S1133A92C20270003D013D020002C4008D01CF004C
S1133AA20302E803320070003D018E03C2028E035A
S1133AB2C20270003D0112020002FA0077013601CF
S1133AC2FB01E803320070003D018E03C2028E0343
S1133AD2C20270003D01F40100022C015E01AE013C
S1133AE2F401E803320070003D018E03C2028E032A
S1133AF2C20270003D01F401300290015E01AE0188
S1133B02F401E803320070003D018E03C2028E0309
S1133B12C20270003D01F4015802F401E001E00127
S1133B22A401E8033200DE003301A203C2028E03C1
S1133B32C2022F006001B0025B02D7023202DC0132
S1133B42F301E80364005C003D01B603E0025C0398
S1133B529A0270003D01B0025B02D7023202DC011C
S1133B62F301E80364005C003D01B603E002CF0305
S1133B729F0270003D01B0025B02D7023202DC01F7
S1133B82F301E8036400520033012003AE02CF03C1
S1133B929F0266003301B0025B02D7023202DC01EB
S1133BA2F301E803640052002901A203C2028E0356
S1133BB2AE02A2004701B0025B02D7023202DC016C
S1133BC2F301E803640052002901A203C2028E0336
S1133BD2C2022F006001B0025B02D7023202DC0192
S1133BE2F301E803640070003D018E03C2028E03F8
S1133BF2C20270003D01F4014001F401E001E00160
S1133C02A401E8031E0070003D018E03C2028E036C
S1133C12C20270003D01F4014001F401E001E0013F
S1133C22A401F401640070003D018E03C2028E03FC
S1133C32C20270003D01F4017701F401E001E001E8
S1133C42A401F401320070003D018E03C2028E030E
S1133C52C20270003D01F401A90190015E01AE01AE
S1133C62F401F401320070003D018E03C2028E039E
S1133C72C20270003D01F40100022C015E01AE019A
S1133C82F401F401320070003D018E03C2028E037E
S1133C92C20270003D013D020002C4008D01CF004A
S1133CA20302F401320070003D018E03C2028E034E
S1133CB2C20270003D01F6020002D20157012C013A
S1133CC2C101F401320070003D018E03C2028E0371
S1133CD2C20270003D01F40206024102FC003601F8
S1133CE2F101E803640070003D018E03C2028E03F9
S1133CF2C20270003D01F40206024102FC003601D8
S1133D02F101E803640070003D018E03C2028E03D8
S1133D12C20270003D01F40206024102FC003601B7
S1133D22F101E803640070003D018E03C2028E03B8
S1133D32C20270003D01F40206024102FC00360197
S1133D42F101E803640070003D018E03C2028E0398
S1133D52C20270003D01F40206024102FC00360177
S1133D62F101E803640070003D018E03C2028E0378
S1133D72C20270003D01F40206024102FC00360157
S1133D82F101E803640070003D018E03C2028E0358
S1133D92C20270003D01F40206024102FC00360137
S1133DA2F101E803640070003D018E03C2028E0338
S1133DB2C20270003D01F40206024102FC00360117
S1133DC2F101E803640070003D018E03C2028E0318
S1133DD2C20270003D01F40206024102FC003601F7
S1133DE2F101E803640070003D018E03C2028E03F8
S1133DF2C20270003D01F40206024102FC003601D7
S1133E02F101E803640070003D018E03C2028E03D7
S1133E12C20270003D01F40206024102FC003601B6
S1133E22F101E803640070003D018E03C2028E03B7
S1133E32C20270003D01F40206024102FC00360196
S1133E42F101E8036400130004000E0011000500F0
S1133E520700100006000D000C000B000A00090008
S1133E6208000F002323232073656E736F72496E5B
S1133E7269740025640A0A004E65636B2E2E2E2097
S1133E8225643A7B25642C2025642C2025642C206F
S1133E9225642C2025642C2025642C2025647D0A8D
S1133EA20025643A25642C25642C25642C25642C75
S1133EB225642C25642C25642C25642C25642C254E
S1133EC2642C25642C25642C25640A0025643A2577
S1133ED2642C25642C25642C25642C25642C2564EF
S1133EE22C25642C25642C25642C25642C25642C17
S1133EF225640A004D6F6465416374546573742EBE
S1133F02206D4D6F6465416374203D2025640A0071
S1133F126A756467654D6F6465416374203120007E
S1133F226A756467654D6F6465416374203220006D
S1133F326A756467654D6F646541637420332073E9
S1133F42656E736F724D617849643A25640A006A3A
S1133F52756467654D6F6465416374203420006A3B
S1133F62756467654D6F6465416374207061747430
S1133F7265726E3A31006A756467654D6F646541B6
S1133F826374207061747465726E3A32006A756487
S1133F9267654D6F64654163742070617474657202
S1133FA26E3A33006A756467654D6F646541637484
S1133FB2207061747465726E3A34006A7564676560
S1133FC24D6F6465416374207061747465726E3AF6
S1133FD235006A756467654D6F646541637420706A
S1133FE261747465726E3A36006A756467654D6F02
S1133FF26465416374207061747465726E3A37004B
S11340026A756467654D6F64654163742070617499
S11340127465726E3A380025643B0A00496E707505
S11340227420766F6C74616765206572726F722199
S113403200416E676C65206C696D697420657272EB
S11340426F7221004F7665726865617420657272C1
S11340526F7221004F7574206F662072616E6765FE
S1134062206572726F722100436865636B73756DAC
S1134072206572726F7221004F7665726C6F616493
S1134082206572726F722100496E73747275637463
S1134092696F6E20636F6465206572726F722100AE
S11340A2434F4D4D5F54584641494C3A204661694D
S11340B26C6564207472616E736D697420696E73C9
S11340C27472756374696F6E207061636B657421B9
S11340D200434F4D4D5F54584552524F523A204976
S11340E26E636F727265637420696E737472756342
S11340F274696F6E207061636B65742100434F4D68
S11341024D5F52584641494C3A204661696C656498
S11341122067657420737461747573207061636BB6
S113412265742066726F6D2064657669636521002B
S1134132434F4D4D5F525857414954494E473A20D7
S11341424E6F7720726563696576696E6720737452
S113415261747573207061636B65742100434F4D04
S11341624D5F525854494D454F55543A2054686551
S11341727265206973206E6F207374617475732085
S11341827061636B65742100434F4D4D5F52584318
S11341924F52525550543A20496E636F727265639E
S11341A27420737461747573207061636B65742118
S11341B2005468697320697320756E6B6E6F776E35
S11341C2206572726F7220636F646521006D6F7671
S11341D265204F6F707321206D6F74696F6E4E7519
S11341E26D6265723A25640A006D6F76652034202B
S11341F273656172636853656E736F72735B256472
S11342025D3A25640A00232323206D6F7665546585
S11342127374203100232323206D6F7665546573F4
S113422274203200232323206D6F766554657374E2
S10742322033000031
S9030000FC
