S01700004763634170706C69636174696F6E312E737265635B
S113000065C0000084C0000082C0000080C0000001
S11300107EC000007CC000007AC0000078C00000F0
S113002076C0000074C0000072C0000070C0000000
S11300306EC000006CC000006AC0000068C0000010
S113004066C0000064C0000062C0000060C0000020
S11300505EC000005CC000005AC0000058C0000030
S113006056C0000024C4000052C0000050C000006C
S11300704EC000004CC000004AC0000048C0000050
S113008046C0000044C0000042C0000040C0000060
S113009013C500003CC000003AC0000038C0000096
S11300A036C0000034C0000032C0000030C0000080
S11300B02EC000002CC000002AC0000028C0000090
S11300C026C0000024C0000022C0000011241FBE6E
S11300D0CFEFD1E2DEBFCDBF00E00CBF1AE0A0E05D
S11300E0B2E0ECE5FBE200E00BBF02C007900D922A
S11300F0A63BB107D9F72EE0A6EBBAE001C01D92EA
S1130100AA34B207E1F70E94AA0D0C94AC1578CF7B
S1130110809100029091010208958093B80A089595
S11301208093BA0A0895FC01EA54F54F6583089553
S11301308093B90A089520E030E090915A0B9823F7
S113014011F021E030E0C90108958091590B90E04D
S11301500895FC01EA5AF44F858190E00895362F02
S113016020E0280F391FC9010895282F30E0C90164
S113017008958070892F90E008950F931F93CF9373
S1130180DF9380919E0B90919F0B892B09F4B8C04B
S11301908091B80A8E3F09F4A9C080910002909121
S11301A00102892B29F410929D0B86E080939C0B0D
S11301B080919D0B90E060919C0B70E0681B790B23
S11301C08A5A944F49D390919D0B980F90939D0B0D
S11301D080919C0B981718F44AD2019771F0709192
S11301E09D0B472F50E0DA0111978A01025010400D
S11301F060E0ED01CA5AD44F18C080919D0B88234A
S113020009F071C086E090E073C0F901EA5AF44F36
S113021080818F3F19F481818F3F61F0201731076E
S113022019F488818F3F31F06F5F262F30E02A1751
S11302303B075CF36623A1F090E0421B530B08C01C
S1130240EA5AF44FDF01A20FB31F8C9180839F5FA2
S1130250E92FF0E0E417F5079CF3761B70939D0BF0
S113026020919D0B80919C0B281728F19091B80A3E
S11302708091580B9817B9F56091590B6C5F609396
S11302809C0B261788F4822F90E070E0681B790B92
S11302908A5A944FE1D290919D0B980F90939D0BA5
S11302A080919C0B981738F08091590BA82FB0E0DF
S11302B020E090E00CC085E090E0909301028093F0
S11302C000021EC0EA5AF44F8281980F2F5FE22F7A
S11302D0F0E0AE17BF07B4F7AA5AB44F909513963F
S11302E08C91891719F087E090E002C081E090E0DA
S11302F0909301028093000210929F0B10929E0B28
S1130300DF91CF911F910F9108951F9380919E0BC0
S113031090919F0B019709F45DC081E090E0909368
S11303209F0B80939E0B8091B90A893940F4909178
S1130330BA0A892F8150863028F0933819F084E066
S113034090E02FC08FEF8093B60A8093B70A809114
S1130350B90AA82FB0E020E090E005C0EA54F54FB8
S11303608281980F2F5FE22FF0E0AE17BF07B4F73A
S1130370AA54B54F909513969C9380910002909146
S113038001020697029708F438D11091B90A1C5F4C
S113039086EB9AE0612F70E035D1181759F082E0AE
S11303A090E0909301028093000210929F0B1092B0
S11303B09E0B10C08091BA0A823029F48091BC0A45
S11303C090E0069602C086E090E040D110920102CF
S11303D0109200021F91089598DF8091000290917D
S11303E00102892B39F4C9DE809100029091010247
S11303F00597C9F30895282F80919E0B90919F0B28
S1130400892B91F42093B80A83E08093BA0A60930D
S1130410BB0ACA014093BC0A80709093BD0A85E070
S11304208093B90AD9CF0895FFCF282F80919E0BCE
S113043090919F0B892BB1F42093B80A82E08093AA
S1130440BA0A6093BB0A8093BC0A84E08093B90A19
S1130450C3DF30915C0B20E080915B0B280F311DD2
S1130460C9010895FFCF282F80919E0B90919F0B77
S1130470892B71F42093B80A83E08093BA0A6093BD
S1130480BB0A4093BC0A84E08093B90AA5CF0895BF
S1130490FFCF282F80919E0B90919F0B892B91F475
S11304A02093B80A82E08093BA0A6093BB0A81E081
S11304B08093BC0A84E08093B90A8EDF80915B0B41
S11304C090E00895FFCF282F80919E0B90919F0B71
S11304D0892B51F42093B80A81E08093BA0A82E010
S11304E08093B90A79CF0895FFCF86C008950F93FA
S11304F01F938C016F5F7F4F882777FD8095982F1E
S11305000E94790F9B01AC0160E074E284EF99E4EE
S11305100E94DE0EAB01BC01C80115D0892B19F471
S113052020E030E00CC081E090E0909301028093E1
S1130530000210929F0B10929E0B21E030E0C90143
S11305401F910F910895EF92FF920F931F937A01D9
S11305508B0182E48093C00088E98093C10086E027
S11305608093C20060E074E284EF99E4A8019701EB
S11305700E94DE0E0E944B0F615070407093C500C4
S11305806093C40060E074E284E799E4A8019701F1
S11305900E94DE0E20E030E040E451E40E940510A9
S11305A06093380E7093390E80933A0E90933B0EFD
S11305B02091380E3091390E40913A0E50913B0EF5
S11305C060E070E08AE793E40E94DE0E0E944B0F25
S11305D07093370E6093360E7298739A8FEF8093F0
S11305E0C6001092A00C1092A10C81E090E01F9123
S11305F00F91FF90EF90089508958091A10C80933E
S1130600A00C0895AC01F8947398729A20E030E03D
S113061011C08091C00085FFFCCF8091C000806430
S11306208093C000FA01E20FF31F80818093C6001B
S11306302F5F3F4F2617370764F38091C00086FF72
S1130640FCCF7298739A7894C901089510923F0E62
S113065010923E0E2091360E3091370E265F3F4F9A
S1130660280F391F30933D0E20933C0E0895AF920E
S1130670BF92CF92DF92EF92FF920F931F938091DC
S11306803E0E90913F0E019690933F0E80933E0E46
S113069020913E0E30913F0E80913C0E90913D0E84
S11306A08217930718F421E030E074C0A090380E4C
S11306B0B090390EC0903A0ED0903B0EC601B501F1
S11306C02BEA3AEA4AEA50E40E9405107B018C01C5
S11306D020E030E040E85FE30E946810882314F4CF
S11306E061E054C0C801B70120E030E04FE753E4B3
S11306F00E94901018160CF045C0C601B50120E008
S113070030E04AE754E40E94DE0E5B016C0120E015
S113071030E04AE755E40E9405107B018C0120E09B
S113072030E040E85FE30E94681088231CF461E035
S113073070E024C0C801B70120E03FEF4FE757E461
S11307400E9490101816B4F4C601B50120E030E000
S113075040E251E40E9405100E944B0F80E991E0B1
S113076005C0FC013197F1F76150704061157105C6
S1130770C1F70EC0C801B7010E944B0FCB0101970E
S1130780F1F706C0C801B7010E944B0F6A95F1F753
S113079020E030E0C9011F910F91FF90EF90DF90AE
S11307A0CF90BF90AF9008959091A00C8091A10C30
S11307B0981719F420E030E017C09091A00C8091B4
S11307C0A10C981738F48091A10C9091A00C282FBB
S11307D030E008C08091A10C9091A00C282F30E04B
S11307E020503F4F291B3109C90108951F93182F29
S11307F0DBDF8F3F910591F0E091A10CF0E0E05632
S1130800F44F10838091A10C8F3F19F41092A10C26
S113081005C08091A10C8F5F8093A10C1F91089556
S11308209091A00C8091A10C981711F4EFEF12C0D5
S1130830E091A00CF0E0E056F44FE0818091A00C30
S11308408F3F19F41092A00C05C08091A00C8F5F0B
S11308508093A00C8E2F0895EF92FF920F931F9315
S1130860CF93DF937C01EB019091A00C8091A10CBC
S1130870981719F400E010E012C096DF8C01C81735
S1130880D9070CF48E01C0E0D0E006C0C9DFF7013F
S1130890EC0FFD1F80832196C017D107BCF3C8015C
S11308A0DF91CF911F910F91FF90EF9008951F92C8
S11308B00F920FB60F920BB60F9211242F933F9302
S11308C04F935F936F937F938F939F93AF93BF9354
S11308D0EF93FF938091C60089DFFF91EF91BF9161
S11308E0AF919F918F917F916F915F914F913F91C4
S11308F02F910F900BBE0F900FBE0F901F90189565
S1130900AC0120E030E00CC08091C80085FFFCCF32
S1130910FA01E20FF31F80818093CE002F5F3F4FD7
S1130920261737078CF30895DC019091220D8091EE
S1130930230D981711F480E008959091220D809171
S1130940230D981719F420E030E017C09091220D80
S11309508091230D981738F48091230D9091220DE6
S1130960282F30E008C08091230D9091220D282F6C
S113097030E020583F4F291B3109A9016217730742
S11309800CF4AB0120E030E020C09091220D809166
S1130990230D981711F49FEF12C0E091220DF0E09F
S11309A0EE55F34F90818091220D8F3719F41092F8
S11309B0220D05C08091220D8F5F8093220DFD01D1
S11309C0E20FF31F90832F5F3F4F24173507ECF29C
S11309D0842F08959091220D8091230D981719F476
S11309E020E030E017C09091220D8091230D9817DC
S11309F038F48091230D9091220D282F30E008C007
S1130A008091230D9091220D282F30E020583F4FE4
S1130A10291B3109C9010895482F9091220D809115
S1130A20230D9817D1F09091220D8091230D9817E2
S1130A3038F48091230D9091220D282F30E008C0C6
S1130A408091230D9091220D282F30E020583F4FA4
S1130A50291B31092F37310591F0E091230DF0E086
S1130A60EE55F34F40838091230D8F3719F4109284
S1130A70230D08958091230D8F5F8093230D089596
S1130A809091220D8091230D981711F4EFEF12C06D
S1130A90E091220DF0E0EE55F34FE0818091220DBC
S1130AA08F3719F41092220D05C08091220D8F5FAB
S1130AB08093220D8E2F08951F920F920FB60F92DE
S1130AC00BB60F9211242F933F934F935F936F9321
S1130AD07F938F939F93AF93BF93EF93FF938091F3
S1130AE0CE009ADFFF91EF91BF91AF919F918F91CB
S1130AF07F916F915F914F913F912F910F900BBE1A
S1130B000F900FBE0F901F901895DF93CF930F9205
S1130B100F92CDB7DEB7982F8A3099F48DE0898390
S1130B209A83FE0131969E012D5F3F4F8091C8004C
S1130B3085FFFCCF81918093CE00E217F307B1F7D4
S1130B4006C08091C80085FFFCCF9093CE0080E062
S1130B5090E00F900F90CF91DF9108959091220D26
S1130B608091230D9817D1F39091220D8091230D3C
S1130B70981738F48091230D9091220D282F30E09E
S1130B8008C08091230D9091220D282F30E0205829
S1130B903F4F291B3109232B09F39091220D80919A
S1130BA0230D981711F4EFEF15C0E091220DF0E03A
S1130BB0EE55F34FE0818091220D8F3719F4109296
S1130BC0220D05C08091220D8F5F8093220DED30A0
S1130BD009F4EAE08E2F90E008950E94790F9B01BA
S1130BE0AC0160E074E284EF99E40E94DE0E0E949E
S1130BF04B0F6150704022E42093C80028E92093F1
S1130C00C90026E02093CA002FEF2093CE00109253
S1130C10220D1092230D272F332727FD3A95209379
S1130C20CD006093CC007298739A85E895E06EEAE3
S1130C3075E00E940A119093250D8093240D089568
S1130C4060E071EE80E090E0C8DF78940895C2DE41
S1130C50181619060CF03FC08091400E9091410E79
S1130C600E9454118A3011F08D3091F48091780DE6
S1130C709091790D181619068CF51092790D109231
S1130C80780D81E090E090937B0D80937A0D089528
S1130C90882339F12091780D3091790DA9014F5FA6
S1130CA05F4F5093790D4093780DF901E85DF24F51
S1130CB080838091780D9091790D8F349105A4F003
S1130CC01092790D1092780D81E090E090937B0D55
S1130CD080937A0D089580E090E0089580E090E09C
S1130CE0089580E090E0089580E090E00895809178
S1130CF07A0D90917B0D181619063CF410927B0D19
S1130D0010927A0D88E29DE0089580E090E00895C5
S1130D109F938F9384E596E09F938F930E94921103
S1130D200F900F900F900F90089561E070E080E0B5
S1130D3090E0DDDB41E050E06FE270E08FE190E0B5
S1130D405ADB40E050E060E270E08EEF90E053DB6D
S1130D5040E050E068E170E08EEF90E084DB2FE348
S1130D608DE093E0215080409040E1F700C0000006
S1130D7008950F931F93CF93DF9300D0CDB7DEB7C1
S1130D8020E23CE240E029833A834B83BE016F5F5B
S1130D907F4F0E94D810009789F006E91DE00E9459
S1130DA0BB10F801819391938F01BE016F5F7F4F58
S1130DB080E090E00E94D810009789F70F900F9080
S1130DC00F90DF91CF911F910F9108958091880D1D
S1130DD09091890D0A969093890D8093880D2091A6
S1130DE0860D3091870D821793073CF01092890D80
S1130DF01092880D80E090E0089581E090E00895DD
S1130E00A091980DB091990DA233B105C4F4EAE90B
S1130E10FDE0AA0FBB1FCD01880F991F880F991FF2
S1130E20880F991FA80FB91FAA56BD4F2CEA3DE0A1
S1130E30819191918D939D93E217F307C9F70895DA
S1130E40CF92DF92EF92FF920F931F93CF93DF9392
S1130E50CDB7DEB760970FB6F894DEBF0FBECDBF37
S1130E60FE01319680E1DF011D928A95E9F70AE1DE
S1130E7016E07F010F2EFAE2CF2EF6E0DF2EF02DE2
S1130E8064E270E0F801819191918F01CEDAD7018B
S1130E908D939D937D010C151D0591F7888D8F937E
S1130EA08F898F938E898F938D898F938C898F935C
S1130EB08B898F938A898F9389898F9388898F935C
S1130EC08F858F938E858F938D858F938C858F934C
S1130ED08B858F938A858F9389858F9388858F934C
S1130EE08F818F938E818F938D818F938C818F933C
S1130EF08B818F938A818F9389818F931F9282E054
S1130F008F9389E596E09F938F930E9492110FB679
S1130F10F894DEBF0FBECDBF60960FB6F894DEBF67
S1130F200FBECDBFDF91CF911F910F91FF90EF9036
S1130F30DF90CF9008959C01220F331FF901EE0F2B
S1130F40FF1FEE0FFF1FEE0FFF1FE20FF31FEA5606
S1130F50FD4F218D2F93208D2F9327892F93268941
S1130F602F9325892F9324892F930196DC01AA0FAF
S1130F70BB1FCD01880F991F880F991F880F991FD8
S1130F80A80FB91FAA56BD4F11968C9111978F9334
S1130F908C918F9381898F9380898F9387858F9389
S1130FA086858F9385858F9384858F9383858F938F
S1130FB082858F9381858F9380858F9387818F938B
S1130FC086818F9385818F9384818F9383818F937F
S1130FD082818F9381818F9380818F931F9283E08D
S1130FE08F938CE896E09F938F930E9492118DB714
S1130FF09EB74E960FB6F8949EBF0FBE8DBF089550
S1131000CF92DF92EF92FF920F931F93CF93DF93D0
S1131010CDB7DEB760970FB6F894DEBF0FBECDBF75
S1131020FE01319680E1DF011D928A95E9F70AE11C
S113103016E07F010F2EFAE2CF2EF6E0DF2EF02D20
S113104068E270E0F801819191918F01EED9D701A6
S11310508D939D937D010C151D0591F7888D8F93BC
S11310608F898F938E898F938D898F938C898F939A
S11310708B898F938A898F9389898F9388898F939A
S11310808F858F938E858F938D858F938C858F938A
S11310908B858F938A858F9389858F9388858F938A
S11310A08F818F938E818F938D818F938C818F937A
S11310B08B818F938A818F9389818F931F9284E090
S11310C08F9387EB96E09F938F930E9492110FB6B4
S11310D0F894DEBF0FBECDBF60960FB6F894DEBFA6
S11310E00FBECDBFDF91CF911F910F91FF90EF9075
S11310F0DF90CF900895CF92DF92EF92FF920F93FB
S11311001F93CF93DF93CDB7DEB760970FB6F894F4
S1131110DEBF0FBECDBFFE01319680E1DF011D921F
S11311208A95E9F70AE116E07F010F2EFAE2CF2E45
S1131130F6E0DF2EF02D6AE270E0F80181919191E2
S11311408F0173D912D8D7018D939D937D010C150E
S11311501D0589F7888D8F938F898F938E898F933F
S11311608D898F938C898F938B898F938A898F93A1
S113117089898F9388898F938F858F938E858F9399
S11311808D858F938C858F938B858F938A858F9391
S113119089858F9388858F938F818F938E818F9389
S11311A08D818F938C818F938B818F938A818F9381
S11311B089818F931F9285E08F9389EE96E09F93A8
S11311C08F930E9492110FB6F894DEBF0FBECDBF6D
S11311D060960FB6F894DEBF0FBECDBFDF91CF91FE
S11311E01F910F91FF90EF90DF90CF9008950F9390
S11311F01F93CF93DF93182F092FEB018EE197E014
S11312000E94A3111093840D0093850DD093830D38
S1131210C093820D20918A0D30918B0D232B61F4A4
S113122010938C0D00938D0DD0938B0DC0938A0D6C
S11312301092830D1092820D8091830D8F93809173
S1131240820D8F930F931F938AE397E09F938F935D
S11312500E9492110F900F900F900F900F900F908B
S1131260DF91CF911F910F91089580918A0D9091F4
S11312708B0D181619060CF450C08091940D9091A2
S1131280950D019709F049C080917C0D90917D0DD9
S1131290892BD1F4E0918E0DF0918F0DEE0FFF1F8D
S11312A0EE0FFF1FE25FFD4F80819181029761F491
S11312B061E070E081E090E09ADF81E090E090935B
S11312C07D0D80937C0D089510927D0D10927C0D00
S11312D0E0918E0DF0918F0DEE0FFF1FEE0FFF1FAB
S11312E0E25FFD4F628173818081918180DF809113
S11312F08E0D90918F0D019690938F0D80938E0D8E
S113130020911002309111022817390734F481E03A
S113131090E090938F0D80938E0D08950F931F93FB
S1131320CF93DF938C01EB0187E697E00E94A31132
S113133010938D0D00938C0DD0938B0DC0938A0D5B
S11313401092830D1092820D81E090E090930D0233
S113135080930C021092890D1092880DDF91CF9129
S11313601F910F91089583E897E0EDD781E090E015
S113137090930D0280930C0210928B0D10928A0DA3
S11313801092890D1092880D8FEF9FEF90930B02AE
S113139080930A02089581E090E00E949B000197E7
S11313A019F483EA97E0CFD782E090E00E949B0093
S11313B0019719F488EB97E0C6D784E090E00E9487
S11313C09B00019719F48BEC97E0BDD788E090E07F
S11313D00E949B00019719F48BED97E0B4D780E14C
S11313E090E00E949B00019719F48FEE97E0ABD731
S11313F080E290E00E949B00019719F48FEF97E040
S1131400A2D780E490E00E949B00019719F48FE03A
S113141098E099C708958430910591F034F48230AE
S1131420910551F0039781F01FC086309105A1F01A
S11314307CF00797A9F018C087E298E084C7089564
S113144088E598E080C7089584E898E07CC708950B
S113145087EB98E078C7089584EE98E074C7089500
S11314608FE099E070C7089588E399E06CC7089508
S11314700F931F93CF93DF938C01EB018EEF90E0DA
S11314800E948D0083E890E00E94900060E270E08A
S113149080E090E00E94930062E070E081E090E0E0
S11314A00E949300B80182E090E00E949300CE0174
S11314B00E94B500BC0183E090E00E949300CE013D
S11314C00E94B900BC0184E090E00E94930087E090
S11314D090E00E9498000E94EC010E9488008130F4
S11314E0910511F458DF01C096DFDF91CF911F9170
S11314F00F9108952F923F924F925F926F927F9235
S11315008F929F92AF92BF92CF92DF92EF92FF920F
S11315100F931F93CF93DF93CDB7DEB7AB970FB67F
S1131520F894DEBF0FBECDBF9EA38DA39F938F9370
S113153084E599E09F938F93F5D60F900F900F90C9
S11315400F902DA13EA1223331058CF01F9288E02B
S11315508F933F932F9380E899E09F938F93E2D6E4
S11315600F900F900F900F900F900F9092C1FE016B
S1131570319680E1DF011D928A95E9F78DA19EA144
S1131580880F991F9C01220F331F220F331F220F34
S1131590331F820F931F9C012A563D4F38A72FA358
S11315A0EBA3FBA70F2EFAE24F2EF6E05F2EF02DF1
S11315B07F010F2EFAE1CF2EF6E0DF2EF02D190178
S11315C0812C912C560164E270E0D6018D919D919D
S11315D06D010E941502F101019111911F01081B77
S11315E0190B3701D7010D931C931F930F939F93EE
S11315F08F93F50181818F9380818F93A4E9B9E062
S1131600BF93AF938FD60FB6F894DEBF0FBECDBF96
S1131610112334F4119501951109D7010D931C93ED
S1131620F30180819181F2E0EF0EF11C8816990696
S11316300CF44C01C414D50429F68E010F5E1F4F1F
S113164080E1D8011D928A95E9F784E690E09A8BAF
S1131650898B8DA19EA1880F991FFC01EE0FFF1F9E
S1131660EE0FFF1FEE0FFF1F8E0F9F1FFC01EA56A8
S1131670FD4F60897189882777FD8095982F39D42B
S11316806B017C0109A71AA71AA309A318010BA1CE
S11316901BA5AA2497FCA094BA2CF801219131919E
S11316A08F013CA32BA3C501B40123D42B013C011E
S11316B0ABA1BCA1BD01882777FD8095982F19D4D3
S11316C0A30192017BD39B01AC01C701B6019DD458
S11316D0DDD36115710521F0F1017183608305C0CB
S11316E0E1E0F0E0D101ED93FC93F2E02F0E311C28
S11316F029A13AA10217130781F68DA19EA1880F93
S1131700991FFC01EE0FFF1FEE0FFF1FEE0FFF1FCF
S11317108E0F9F1FFC01EA56FD4F608971898BEF84
S113172093E102D5882777FD8095982FE2D39B011A
S1131730AC01C301B20169D4A9D36A3071052CF09C
S11317407093870D6093860D06C08AE090E09093B5
S1131750870D8093860D8EEF90E00E948D0083E8C4
S113176090E00E94900060E270E080E090E00E94CF
S1131770930062E070E081E090E00E949300C9A4CD
S1131780DAA40F2EFAE1AF2EF6E0BF2EF02D02E020
S113179010E0D5016D917D915D01C8010E94930017
S11317A0F601E190F1906F01C7010E94B500BC0100
S11317B0C80101960E949300C7010E94B900BC01B0
S11317C0C80102960E9493000D5F1F4F0A31110554
S11317D001F78CE190E00E9498000E94EC010E94C5
S11317E088008130910509F050C0D5DD8EEF90E07E
S11317F00E948D0083E890E00E9490006EE170E00A
S113180080E090E00E94930062E070E081E090E06C
S11318100E949300EFA0F8A40F2EFAE1CF2EF6E079
S1131820DF2EF02D02E010E0D6016D917D916D0167
S1131830C8010E9493005701F701819191917F01A2
S11318400E94B500BC01C80101960E949300D50115
S11318508D919C910E94B900BC01C80102960E941E
S113186093000D5F1F4F0A311105F1F68CE190E0F2
S11318700E9498000E94EC010E948800813091052A
S113188011F489DD03C0C7DD01C0C5DD81EC99E039
S11318905AD5AB960FB6F894DEBF0FBECDBFDF911D
S11318A0CF911F910F91FF90EF90DF90CF90BF9059
S11318B0AF909F908F907F906F905F904F903F90EC
S11318C02F90089548990EC08091920D9091930D98
S11318D0892B09F050C081E090E09093930D8093A0
S11318E0920D08958091920D9091930D019709F0B6
S11318F042C01092930D1092920D8091940D90918C
S1131900950D9C012F5F3F4F3093950D2093940DBF
S113191026E030E0A901481B590BCA011816190624
S11319203CF08FE388B91092950D1092940D0BC082
S113193021E030E0A90102C0440F551F8A95E2F767
S1131940CA01809588B90FDD80E090E0D3DD81E0A5
S113195090E090938F0D80938E0D8091940D9091D3
S1131960950D019741F480910E0290910F0290938E
S1131970910D8093900D0895CF93DF9380918A0DFC
S113198090918B0D181619060CF0E1C01FDA892B03
S113199009F0DDC080918C0D90918D0DFC01EE0F4E
S11319A0FF1FE65CFD4FC081D1819F938F9383EE2F
S11319B099E09F938F93B6D42881398180910C024A
S11319C090910D020F900F900F900F9028173907E8
S11319D00CF0A9C03F932F939F938F938AEF99E0C4
S11319E09F938F939FD481E090E090930D02809316
S11319F00C0280918D0D8F9380918C0D8F9380912B
S1131A00850D8F938091840D8F938091830D8F9397
S1131A108091820D8F9389E29AE09F938F9382D471
S1131A2080918A0D90918B0D2DB73EB7225F3F4F69
S1131A300FB6F8943EBF0FBE2DBF833691050CF050
S1131A4072C0019790938B0D80938A0D1816190616
S1131A500CF469C08091820D9091830D18161906BB
S1131A600CF05CC08091840D9091850D9C012250F6
S1131A70310922303105A0F480918C0D90918D0DA7
S1131A80019759F188E69AE05ED481E090E0909362
S1131A908D0D80938C0D90938B0D80938A0D34C0A3
S1131AA020918C0D30918D0D2430310519F405975A
S1131AB0A1F405C0049789F42530310571F489E750
S1131AC09AE041D410928D0D10928C0D81E090E03B
S1131AD090938B0D80938A0D17C089E89AE033D4D4
S1131AE08091840D9091850D90938D0D80938C0D34
S1131AF08091820D9091830D90938B0D80938A0D2C
S1131B001092830D1092820D3FE58AEE90E03150E1
S1131B1080409040E1F700C0000019C089E99AE0D4
S1131B2012D421DC14C080910C0290910D02880F14
S1131B30991FC80FD91F88819981DCDC80910C0220
S1131B4090910D02019690930D0280930C02DF9107
S1131B50CF9108956F927F928F929F92AF92BF928E
S1131B60CF92DF92EF92FF920F931F93CF93DF9365
S1131B7011B882E182B98FE787B98EE788B980E727
S1131B808AB981E18BB9D1D85BD808EA1AE0C6E9F1
S1131B90DDE00F2EF0E58F2EF02D0F2EFAE9CF2E7B
S1131BA0FDE0DF2EF02D0F2EF8E9EF2EFDE0FF2EE5
S1131BB0F02D0F2EFFED6F2EF02D0F2EF0EA9F2E3D
S1131BC0F02D0F2EFFE77F2EF02D7CDE40D8181667
S1131BD019060CF08CC08BD85C01009709F487C0FF
S1131BE0BF928F931F930F939DD3C501C2D80F90BB
S1131BF00F900F900F90888199818630910509F498
S1131C005CC094F48230910509F444C034F4009724
S1131C1001F1019709F440C062C08430910509F4D0
S1131C2048C00CF43AC047C08930910559F134F4E6
S1131C3087309105B1F0089701F151C08B309105BF
S1131C4009F450C00CF442C0873E934009F49CC090
S1131C5046C0F701808191814DDC81E090E058D845
S1131C6041C0F60160817181F70180819181BFDA01
S1131C7068B881E090E04CD835C075DB81E090E035
S1131C8047D830C0F60160817181F701808191816C
S1131C9045DB28C0D5D826C0B3D8F701808191810F
S1131CA08233910524F080E090E032D81BC043D900
S1131CB019C0A6D917C01FDA15C040E050E068E18A
S1131CC070E08EEF90E00E9433020CC010927E0D03
S1131CD010927F0D1092800D1092810D03C080E050
S1131CE090E016D8F501282D11922A95E9F7FE0106
S1131CF0292D11922A95E9F7019910C080910802C3
S1131D0090910902181619062CF5109209021092E6
S1131D10080278B880E090E0EDDB1CC080910802F6
S1131D2090910902892B39F4469881E090E09093D0
S1131D300902809308028091900D9091910D1816DC
S1131D4019061CF092DA18DE05C00A979093910DDB
S1131D508093900D83EC99E00197F1F700C00000A7
S1131D6080917E0D90917F0DA091800DB091810D99
S1131D700196A11DB11D80937E0D90937F0DA093BC
S1131D80800DB093810D21CF87EE93E00E948806E9
S1131D9060E070E080E090E06BDB80E090E0DF9159
S1131DA0CF911F910F91FF90EF90DF90CF90BF9054
S1131DB0AF909F908F907F906F9008950CD0EBC060
S1131DC0E3D040F0DAD030F021F45F3F19F0CCC01A
S1131DD0511115C1CFC0F0D098F39923C9F35523FD
S1131DE0B1F3951B550BBB27AA276217730784070A
S1131DF038F09F5F5F4F220F331F441FAA1FA9F3C0
S1131E0033D00E2E3AF0E0E830D091505040E695B1
S1131E10001CCAF729D0FE2F27D0660F771F881F12
S1131E20BB1F261737074807AB07B0E809F0BB0B01
S1131E30802DBF01FF2793585F4F2AF09E3F510525
S1131E4068F092C0DCC05F3FECF3983EDCF386950B
S1131E5077956795B795F7959F5FC9F7880F911D9B
S1131E609695879597F90895E1E0660F771F881F87
S1131E70BB1F621773078407BA0720F0621B730B3A
S1131E80840BBA0BEE1F88F7E095089504D068948C
S1131E90B111B5C0089598D088F09F5790F0B92F2C
S1131EA09927B751A0F0D1F0660F771F881F991FAB
S1131EB01AF0BA95C9F712C0B13081F09FD0B1E0E1
S1131EC008959CC0672F782F8827B85F39F0B93FF1
S1131ED0CCF3869577956795B395D9F73EF49095AD
S1131EE08095709561957F4F8F4F9F4F0895E8942B
S1131EF009C097FB3EF490958095709561957F4F4E
S1131F008F4F9F4F9923A9F0F92F96E9BB279395FB
S1131F10F695879577956795B795F111F8CFFAF40B
S1131F20BB0F11F460FF1BC06F5F7F4F8F4F9F4F3C
S1131F3016C0882311F096E911C0772321F09EE89A
S1131F40872F762F05C0662371F096E8862F70E000
S1131F5060E02AF09A95660F771F881FDAF7880FDA
S1131F609695879597F9089597F99F6780E870E0AB
S1131F7060E008959FEF80EC089500240A941616FB
S1131F80170618060906089500240A941216130663
S1131F90140605060895092E0394000C11F48823F1
S1131FA052F0BB0F40F4BF2B11F460FF04C06F5F0D
S1131FB07F4F8F4F9F4F089557FD9058440F551FE3
S1131FC059F05F3F71F04795880F97FB991F61F0B7
S1131FD09F3F79F087950895121613061406551F2E
S1131FE0F2CF4695F1DF08C0161617061806991F9A
S1131FF0F1CF86957105610508940895E894BB278F
S113200066277727CB0197F908950BD0C4CFB5DFA6
S113201028F0BADF18F0952309F0A6CFABCF11242E
S1132020EECFCADFA0F3959FD1F3950F50E0551F73
S1132030629FF001729FBB27F00DB11D639FAA2719
S1132040F00DB11DAA1F649F6627B00DA11D661F68
S1132050829F2227B00DA11D621F739FB00DA11D89
S1132060621F839FA00D611D221F749F3327A00D43
S1132070611D231F849F600D211D822F762F6A2FDF
S113208011249F5750408AF0E1F088234AF0EE0F64
S1132090FF1FBB1F661F771F881F91505040A9F771
S11320A09E3F510570F060CFAACF5F3FECF3983E9E
S11320B0DCF3869577956795B795F795E7959F5FD8
S11320C0C1F7FE2B880F911D9695879597F9089572
S11320D003D008F481E00895990F0008550FAA0B66
S11320E0E0E8FEEF16161706E807F907C0F0121627
S11320F01306E407F50798F0621B730B840B950B2A
S113210039F40A2661F0232B242B252B21F408957E
S11321100A2609F4A140A6958FEF811D811D08951B
S1132120DBDF08F48FEF089597FB072E16F4009475
S113213006D077FD08D00BD007FC05D03EF490956F
S113214081959F4F0895709561957F4F0895AA1BBF
S1132150BB1B51E107C0AA1FBB1FA617B70710F08E
S1132160A61BB70B881F991F5A95A9F780959095C0
S1132170BC01CD010895FC0188279927E894219199
S11321802032E9F3293010F02E30C8F32B3239F025
S11321902D3231F4689403C035D0820F911D219102
S11321A020532A30C8F31EF4909581959F4F0895CB
S11321B046E25DE000C0FA01A191B081009719F4F4
S11321C01097E1F0CD01DC01CD010D90002011F458
S11321D0C00113C0FB012191222319F02015D9F766
S11321E0F3CFFB012191201519F41E92119606C01C
S11321F02223C1F70D900020A1F7D001FA01A19389
S1132200B08308957AE0979F902D879F802D910D3C
S1132210112408950F931F93CF93DF93EC018B0147
S1132220009731F46115710519F480E090E037C02E
S11322306EE070E081E090E0A1D2FC010097A9F388
S113224080E883830115110571F01387028781E803
S113225083838091400E9091410E892B21F4F09359
S1132260410EE093400E2097C9F0D187C087838147
S1132270826083838091420E9091430E892B71F486
S1132280F093430EE093420E8091440E9091450EDC
S1132290892B21F4F093450EE093440ECF01DF9196
S11322A0CF911F910F910895CF93DF93EC012B8170
S11322B020FF33C026FF0AC02F7B2B838E819F8192
S11322C001969F838E838A8190E029C022FF0FC0EC
S11322D0E881F9818081992787FD9095009719F409
S11322E020622B831AC03196F983E8830EC0EA85F5
S11322F0FB85199597FF09C02B81019611F480E1A4
S113230001C080E2822B8B8308C02E813F812F5F26
S11323103F4F3F832E83992702C08FEF9FEFDF91BA
S1132320CF910895CF93DF93CDB7DEB7FE013696F4
S113233061917191AF018091420E9091430E30D022
S1132340DF91CF9108950F931F93CF93DF93E09183
S1132350420EF091430E238121FF1BC0EC0100E0EB
S113236010E089916091420E7091430EDB01189642
S1132370ED91FC911997882331F01995892B89F3F4
S11323800FEF1FEFEECF8AE01995892B11F4C801E6
S113239002C08FEF9FEFDF91CF911F910F910895AE
S11323A02F923F924F925F926F927F928F929F9261
S11323B0AF92BF92CF92DF92EF92FF920F931F934F
S11323C0CF93DF93CDB7DEB72C970FB6F894DEBF6B
S11323D00FBECDBF7C016B018A01FC0117821682FE
S11323E0838181FFB0C1CE0101964C01F701938135
S11323F0F60193FD859193FF81916F01882309F480
S11324009EC1853239F493FD859193FF81916F01CB
S1132410853221F4B70190E00FD3E8CF512C312C51
S113242020E02032A0F48B3269F030F4803259F08D
S1132430833269F420612CC08D3239F0803339F451
S1132440216026C02260246023C0286021C027FDAB
S113245027C030ED380F3A3078F426FF06C0FAE092
S11324605F9E300D1124532E13C08AE0389E300D28
S11324701124332E20620CC08E3221F426FD5FC15C
S1132480206406C08C3611F4206802C0883641F4FA
S1132490F60193FD859193FF81916F018111C1CF65
S11324A0982F9F7D9554933028F40C5F1F4FFFE3C2
S11324B0F9830DC0833631F0833771F0833509F029
S11324C057C021C0F801808189830E5F1F4F4424C7
S11324D04394512C540114C03801F2E06F0E711C66
S11324E0F801A080B18026FF03C0652D70E002C012
S11324F06FEF7FEFC5012C8794D22C0183012C85CB
S11325002F77222E16C03801F2E06F0E711CF801ED
S1132510A080B18026FF03C0652D70E002C06FEF7C
S11325207FEFC5012C876BD22C012C852068222ECD
S1132530830123FC19C0832D90E048165906A0F4AA
S1132540B70180E290E078D23A94F5CFF50127FC08
S1132550859127FE81915F01B70190E06DD2311022
S11325603A94F1E04F1A51084114510479F7DEC04E
S1132570843611F0893631F5F80127FF07C06081F0
S11325807181828193810C5F1F4F08C060817181CA
S1132590882777FD8095982F0E5F1F4F2F76B22ED8
S11325A097FF09C090958095709561957F4F8F4FE7
S11325B09F4F2068B22E2AE030E0A4016FD2A82EEB
S11325C0A81843C0853729F42F7EB22E2AE030E0C4
S11325D025C0F22FF97FBF2E8F36C1F018F488354D
S11325E079F0ADC0803719F0883721F0A8C02F2FBB
S11325F02061B22EB4FE0DC08B2D8460B82E09C0AC
S113260024FF0AC09F2F9660B92E06C028E030E050
S113261005C020E130E002C020E132E0F801B7FE5D
S113262007C060817181828193810C5F1F4F06C056
S11326306081718180E090E00E5F1F4FA4012ED273
S1132640A82EA818FB2DFF77BF2EB6FE0BC02B2D8E
S11326502E7FA51450F4B4FE0AC0B2FC08C02B2D82
S11326602E7E05C07A2C2B2D03C07A2C01C0752C2C
S113267024FF0DC0FE01EA0DF11D8081803311F4A9
S1132680297E09C022FF06C07394739404C0822F6C
S1132690867809F0739423FD12C020FF06C05A2CDB
S11326A0731418F4530C5718732C731460F4B70193
S11326B080E290E02C87C0D173942C85F6CF7314FC
S11326C010F4371801C0312C24FF11C0B70180E386
S11326D090E02C87B1D12C8522FF16C021FF03C0C6
S11326E088E590E002C088E790E0B7010CC0822F33
S11326F0867851F021FD02C080E201C08BE227FD03
S11327008DE2B70190E098D1A51430F4B70180E3CD
S113271090E092D15A94F8CFAA94F401EA0DF11DF5
S11327208081B70190E088D1A110F6CF332009F45D
S11327305DCEB70180E290E07FD13A94F7CFF70104
S11327408681978102C08FEF9FEF2C960FB6F89485
S1132750DEBF0FBECDBFDF91CF911F910F91FF90D0
S1132760EF90DF90CF90BF90AF909F908F907F902D
S11327706F905F904F903F902F9008950F931F9309
S1132780CF93DF93869F8001879F100D969F100D36
S11327901124C8010DD0EC01009721F0A80160E0DC
S11327A070E038D1CE01DF91CF911F910F91089540
S11327B0CF93DF938230910510F482E090E0E091B2
S11327C0480EF091490E20E030E0A0E0B0E03097F0
S11327D039F14081518148175907B8F04817590712
S11327E071F482819381109729F013969C938E93B0
S11327F012972CC09093490E8093480E27C0211540
S1132800310531F04217530718F0A901DB0101C06B
S1132810EF019A01BD01DF010280F381E02DD7CFE2
S113282021153105F9F0281B390B2430310580F4CA
S11328308A819B816115710521F0FB019383828359
S113284004C09093490E8093480EFE01329644C012
S1132850FE01E20FF31F81939193225031093983D2
S113286028833AC02091460E3091470E232B41F421
S113287020910402309105023093470E2093460EB6
S113288020910202309103022115310541F42DB744
S11328903EB74091060250910702241B350BE0918C
S11328A0460EF091470EE217F307A0F42E1B3F0BE0
S11328B02817390778F0AC014E5F5F4F24173507AE
S11328C048F04E0F5F1F5093470E4093460E81937E
S11328D0919302C0E0E0F0E0CF01DF91CF91089541
S11328E0CF93DF93009709F487C0FC0132971382DA
S11328F01282C091480ED091490E209781F4208114
S11329003181280F391F8091460E9091470E82170E
S1132910930779F5F093470EE093460E6DC0DE0100
S113292020E030E0AE17BF0750F412964D915C9151
S113293013979D014115510509F1DA01F3CFB383D2
S1132940A28340815181840F951F8A179B0771F4DC
S11329508D919C911197840F951F0296918380838A
S113296012968D919C91139793838283211531053F
S113297029F4F093490EE093480E3EC0D901139612
S1132980FC93EE9312974D915D91A40FB51FEA1736
S1132990FB0779F480819181840F951F0296D901F8
S11329A011969C938E938281938113969C938E931C
S11329B01297E0E0F0E08A819B81009719F0FE0114
S11329C0EC01F9CFCE01029628813981820F931F41
S11329D02091460E3091470E2817390769F4309735
S11329E029F41092490E1092480E02C013821282EA
S11329F0D093470EC093460EDF91CF910895FC010A
S1132A000590615070400110D8F7809590958E0F15
S1132A109F1F0895DC0101C06D9341505040E0F7C1
S1132A200895FC016150704001900110D8F7809521
S1132A3090958E0F9F1F08950F931F93CF93DF934D
S1132A40182F092FEB018B8181FD03C08FEF9FEFBE
S1132A5020C082FF10C04E815F812C813D814217CE
S1132A6053077CF4E881F9819F012F5F3F4F39833D
S1132A702883108306C0E885F985812F1995892B51
S1132A8029F72E813F812F5F3F4F3F832E83812F74
S1132A90902FDF91CF911F910F910895FA01AA27EA
S1132AA0283051F1203181F1E8946F936E7F6E5F8D
S1132AB07F4F8F4F9F4FAF4FB1E03ED0B4E03CD03B
S1132AC0670F781F891F9A1FA11D680F791F8A1F1E
S1132AD0911DA11D6A0F711D811D911DA11D20D085
S1132AE009F468943F912AE0269F11243019305D3F
S1132AF03193DEF6CF010895462F4770405D419330
S1132B00B3E00FD0C9F7F6CF462F4F70405D4A337C
S1132B1018F0495D31FD4052419302D0A9F7EACF44
S1132B20B4E0A6959795879577956795BA95C9F773
S1132B3000976105710508959B01AC010A2E069466
S1132B405795479537952795BA95C9F7620F731F1F
S10F2B50841F951FA01D0895F894FFCF6A
S1132B5C010000004A0E20000100FFFF0100B80B29
S1132B6C0A00000001000100010003000A00040037
S1132B7C040003000A000500040003000A00050019
S1132B8C040003000A000000010092028E0280027D
S1132B9C6E0262025602480206000A000B000C0088
S1132BAC0D000E000F000500230024002500260054
S1132BBC270005001E001F00200021002200080031
S1132BCC16001700180019001A001B001C001D0029
S1132BDC060010001100120013001400150001006F
S1132BEC0100010000000002F601000200020002D4
S1132BFC000200020A0264000002F6010002000254
S1132C0C0002000200020A0264000002F601000243
S1132C1C00020002000200020A0264000002F60133
S1132C2C000200020002000200020A026400000218
S1132C3CF601000200020002000200020A02640013
S1132C4C0002F601000200020002000200020A0265
S1132C5C64000002F60100020002000200020002FD
S1132C6C0A0264000002F6010002000200020002E3
S1132C7C00020A0264000002F601000200020002D3
S1132C8C000200020A0264000002F60100020002C3
S1132C9C0002000200020A0264000002F6010002B3
S1132CAC00020002000200020A0264000002F601A3
S1132CBC000200020002000200020A026400000288
S1132CCCF601000200020002000200020A02640083
S1132CDC0002F601000200020002000200020A02D5
S1132CEC64000002F601000200020002000200026D
S1132CFC0A0264000002F601000200020002000253
S1132D0C00020A0264000002F60100020002000242
S1132D1C000200020A0264000002F6010002000232
S1132D2C0002000200020A0264000002F601000222
S1132D3C00020002000200020A0264000002F60112
S1132D4C000200020002000200020A0264000002F7
S1132D5CF601000200020002000200020A026400F2
S1132D6C0002F601000200020002000200020A0244
S1132D7C6400CE01EC013202410200020002DD01CA
S1132D8C1402C800CE01EC01320237020002000228
S1132D9CE701AB01C800F601CE010002BF01140229
S1132DAC000200020002C8003202C9010002BF0185
S1132DBC3202000232021402C8002302D801AA0211
S1132DCC96023202000232021402C80019024B02AB
S1132DDC320296023202000232021402C8000002CD
S1132DEC000246024102EC0100020A023202C8004F
S1132DFCCE01EC0132022302E2010002CE013202C6
S1132E0CC8000002F60100020002000200020002E7
S1132E1C0A0264000002F601000200020002000231
S1132E2C00020A0264000002F60100020002000221
S1132E3C000200020A0264000002F6010002000211
S1132E4C0002000200020A0264000002F601000201
S1132E5C00020002000200020A0264000002F601F1
S1132E6C000200020002000200020A0264000002D6
S1132E7CF601000200020002000200020A026400D1
S1132E8C0002F601000200020002000200020A0223
S1132E9C64000002F60100020002000200020002BB
S1132EAC0A0264000002F6010002000200020002A1
S1132EBC00020A0264000002F60100020002000291
S1132ECC000200020A0264000002F6010002000281
S1132EDC0002000200020A0264000002F601000271
S1132EEC00020002000200020A0264000002F60161
S1132EFC000200020002000200020A026400000246
S1132F0CF601000200020002000200020A02640040
S1132F1C0002F601000200020002000200020A0292
S1132F2C64000002F601000200020002000200022A
S1132F3C0A0264000002F601000200020002000210
S1132F4C00020A0264000002F60100020002000200
S1132F5C000200020A0264000002F60100020002F0
S1132F6C0002000200020A026400030004001100C3
S1132F7C0E001000060007000500232323207365B0
S1132F8C6E736F72496E6974002323232073656E0C
S1132F9C736F7254657374282920414443203A2575
S1132FAC640D0A0025640A0A00676574416E676C37
S1132FBC6528292025643A25642C25642C25642C49
S1132FCC25642C25642C25642C25642C25642C2543
S1132FDC642C25642C25642C25640A0025643A256C
S1132FEC642C25642C25642C25642C25642C2564E4
S1132FFC2C25642C25642C25642C25642C25642C0C
S113300C25642C25640A006765744C6F6164282957
S113301C2025643A25642C25642C25642C25642CE9
S113302C25642C25642C25642C25642C25642C25E2
S113303C642C25642C25640A00676574566F6C74C3
S113304C61676528292025643A25642C25642C2580
S113305C642C25642C25642C25642C25642C256473
S113306C2C25642C25642C25642C25640A0023232C
S113307C232073746172744D6F74696F6E282920E8
S113308C53544152542023232300232323206E65BD
S113309C78744D6F74696F6E4E756D6265723A25F6
S11330AC642C206E6578744D6F74696F6E54696D01
S11330BC65733A25640A0023232320666F726365C3
S11330CC4D6F74696F6E2829205354415254202338
S11330DC2323002323232073746F704D6F74696F43
S11330EC6E28292053544152542023232300256451
S11330FC3B0A00496E70757420766F6C7461676559
S113310C206572726F722100416E676C65206C6968
S113311C6D6974206572726F7221004F76657268E6
S113312C656174206572726F7221004F7574206F23
S113313C662072616E6765206572726F722100433E
S113314C6865636B73756D206572726F7221004FC5
S113315C7665726C6F6164206572726F72210049BE
S113316C6E737472756374696F6E20636F6465201B
S113317C6572726F722100434F4D4D5F5458464136
S113318C494C3A204661696C6564207472616E73B3
S113319C6D697420696E737472756374696F6E20D3
S11331AC7061636B65742100434F4D4D5F545845FA
S11331BC52524F523A20496E636F72726563742097
S11331CC696E737472756374696F6E207061636B6E
S11331DC65742100434F4D4D5F52584641494C3A5A
S11331EC204661696C65642067657420737461742E
S11331FC7573207061636B65742066726F6D2064E7
S113320C65766963652100434F4D4D5F52585741B4
S113321C4954494E473A204E6F772072656369656D
S113322C76696E6720737461747573207061636B57
S113323C65742100434F4D4D5F525854494D454FD1
S113324C55543A205468657265206973206E6F205A
S113325C737461747573207061636B6574210043BE
S113326C4F4D4D5F5258434F52525550543A20498A
S113327C6E636F72726563742073746174757320FA
S113328C7061636B657421005468697320697320E1
S113329C756E6B6E6F776E206572726F7220636FD2
S11332AC6465210023232323232320536572766F23
S11332BC436F6E74726F6C282920535441525420FE
S11332CC6163743A256420232323232323230A00D4
S11332DC616374206572726F723A202564202F200A
S11332EC25640A0023232320736572766F49643A9C
S11332FC2025642C204E6F7720616E676C653A250F
S113330C642C20616E676C65446966663A25640AB0
S113331C0023232323232320536572766F436F6E7C
S113332C74726F6C282920454E44202323232323B5
S113333C232300232323206D6F74696F6E4E756DE8
S113334C626572203D2025640A00232323206D6FBF
S113335C74696F6E436F756E74203E206D61782EA8
S113336C206D6F74696F6E436F756E743A25642C9F
S113337C206D61783A25640A00232323206E657836
S113338C744D6F74696F6E54696D65733A2025645E
S113339C2C206E6578744D6F74696F6E4E756D620A
S11333AC65723A25642C206D6F74696F6E4E756D61
S11333BC6265723A25640A00232323204143545F37
S11333CC5052455F57414C4B002323232041435417
S11333DC5F44454641554C5400232323206E6578A5
S11333EC74206D6F74696F6E002323232073746FC4
S11333FC704D6F74696F6E007265616444617461C1
S109340C3D25730A0000D7
S9030000FC
