S01700004763634170706C69636174696F6E312E737265635B
S113000065C0000084C0000082C0000080C0000001
S11300107EC000007CC000007AC0000078C00000F0
S113002076C0000074C0000072C0000070C0000000
S11300306EC000006CC000006AC0000068C0000010
S113004066C0000064C0000062C0000060C0000020
S11300505EC000005CC000005AC0000058C0000030
S113006056C0000024C4000052C0000050C000006C
S11300704EC000004CC000004AC0000048C0000050
S113008046C0000044C0000042C0000040C0000060
S113009013C500003CC000003AC0000038C0000096
S11300A036C0000034C0000032C0000030C0000080
S11300B02EC000002CC000002AC0000028C0000090
S11300C026C0000024C0000022C0000011241FBE6E
S11300D0CFEFD1E2DEBFCDBF00E00CBF1EE0A0E059
S11300E0B2E0EEEBFBE200E00BBF02C007900D9222
S11300F0AC38B107D9F722E1ACE8BEE001C01D92EB
S1130100A035B207E1F70E942A0D0C94DD1578CFD3
S11301108091000290910102089580938E0E0895BB
S11301208093900E0895FC01E457F14F6583089580
S113013080938F0E089520E030E09091300F982343
S113014011F021E030E0C901089580912F0F90E073
S11301500895FC01E45DF04F858190E00895362F09
S113016020E0280F391FC9010895282F30E0C90164
S113017008958070892F90E008950F931F93CF9373
S1130180DF938091740F9091750F892B09F4B8C097
S113019080918E0E8E3F09F4A9C080910002909147
S11301A00102892B29F41092730F86E08093720F59
S11301B08091730F90E06091720F70E0681B790B6F
S11301C0845D904F49D39091730F980F9093730F60
S11301D08091720F981718F44AD2019771F07091B8
S11301E0730F472F50E0DA0111978A010250104033
S11301F060E0ED01C45DD04F18C08091730F882377
S113020009F071C086E090E073C0F901E45DF04F3D
S113021080818F3F19F481818F3F61F0201731076E
S113022019F488818F3F31F06F5F262F30E02A1751
S11302303B075CF36623A1F090E0421B530B08C01C
S1130240E45DF04FDF01A20FB31F8C9180839F5FA9
S1130250E92FF0E0E417F5079CF3761B7093730F16
S11302602091730F8091720F281728F190918E0EB0
S113027080912E0F9817B9F560912F0F6C5F6093E2
S1130280720F261788F4822F90E070E0681B790BB8
S1130290845D904FE1D29091730F980F9093730FF8
S11302A08091720F981738F080912F0FA82FB0E02B
S11302B020E090E00CC085E090E0909301028093F0
S11302C000021EC0E45DF04F8281980F2F5FE22F81
S11302D0F0E0AE17BF07B4F7A45DB04F9095139646
S11302E08C91891719F087E090E002C081E090E0DA
S11302F090930102809300021092750F1092740F74
S1130300DF91CF911F910F9108951F938091740FE6
S11303109091750F019709F45DC081E090E090938E
S1130320750F8093740F80918F0E893940F49091EA
S1130330900E892F8150863028F0933819F084E08C
S113034090E02FC08FEF80938C0E80938D0E809160
S11303508F0EA82FB0E020E090E005C0E457F14FE5
S11303608281980F2F5FE22FF0E0AE17BF07B4F73A
S1130370A457B14F909513969C938091000290914D
S113038001020697029708F438D110918F0E1C5F72
S11303908CE89EE0612F70E035D1181759F082E0A7
S11303A090E090930102809300021092750F1092D6
S11303B0740F10C08091900E823029F48091920EB7
S11303C090E0069602C086E090E040D110920102CF
S11303D0109200021F91089598DF8091000290917D
S11303E00102892B39F4C9DE809100029091010247
S11303F00597C9F30895282F8091740F9091750F74
S1130400892B91F420938E0E83E08093900E609359
S1130410910ECA014093920E80709093930E85E0E2
S113042080938F0ED9CF0895FFCF282F8091740F1A
S11304309091750F892BB1F420938E0E82E08093F6
S1130440900E6093910E8093920E84E080938F0EB1
S1130450C3DF3091320F20E08091310F280F311D1E
S1130460C9010895FFCF282F8091740F9091750FC3
S1130470892B71F420938E0E83E08093900E609309
S1130480910E4093920E84E080938F0EA5CF089531
S1130490FFCF282F8091740F9091750F892B91F4C1
S11304A020938E0E82E08093900E6093910E81E0F3
S11304B08093920E84E080938F0E8EDF8091310FB3
S11304C090E00895FFCF282F8091740F9091750FBD
S11304D0892B51F420938E0E81E08093900E82E05C
S11304E080938F0E79CF0895FFCF86C008950F9320
S11304F01F938C016F5F7F4F882777FD8095982F1E
S11305000E94AA0F9B01AC0160E074E284EF99E4BD
S11305100E940F0FAB01BC01C80115D0892B19F43F
S113052020E030E00CC081E090E0909301028093E1
S113053000021092750F1092740F21E030E0C9018F
S11305401F910F910895EF92FF920F931F937A01D9
S11305508B0182E48093C00088E98093C10086E027
S11305608093C20060E074E284EF99E4A8019701EB
S11305700E940F0F0E947C0F615070407093C50061
S11305806093C40060E074E284E799E4A8019701F1
S11305900E940F0F20E030E040E451E40E94361046
S11305A060933E1270933F128093401290934112D5
S11305B020913E1230913F124091401250914112CD
S11305C060E070E08AE793E40E940F0F0E947C0FC2
S11305D070933D1260933C127298739A8FEF8093DC
S11305E0C600109276101092771081E090E01F916F
S11305F00F91FF90EF900895089580917710809364
S113060076100895AC01F8947398729A20E030E063
S113061011C08091C00085FFFCCF8091C000806430
S11306208093C000FA01E20FF31F80818093C6001B
S11306302F5F3F4F2617370764F38091C00086FF72
S1130640FCCF7298739A7894C90108951092451258
S11306501092441220913C1230913D12265F3F4F7C
S1130660280F391F30934312209342120895AF92FA
S1130670BF92CF92DF92EF92FF920F931F938091DC
S1130680441290914512019690934512809344121E
S1130690209144123091451280914212909143125C
S11306A08217930718F421E030E074C0A0903E1242
S11306B0B0903F12C0904012D0904112C601B501D3
S11306C02BEA3AEA4AEA50E40E9436107B018C0194
S11306D020E030E040E85FE30E949910882314F49E
S11306E061E054C0C801B70120E030E04FE753E4B3
S11306F00E94C11018160CF045C0C601B50120E0D7
S113070030E04AE754E40E940F0F5B016C0120E0E3
S113071030E04AE755E40E9436107B018C0120E06A
S113072030E040E85FE30E94991088231CF461E004
S113073070E024C0C801B70120E03FEF4FE757E461
S11307400E94C1101816B4F4C601B50120E030E0CF
S113075040E251E40E9436100E947C0F80E991E04F
S113076005C0FC013197F1F76150704061157105C6
S1130770C1F70EC0C801B7010E947C0FCB010197DD
S1130780F1F706C0C801B7010E947C0F6A95F1F722
S113079020E030E0C9011F910F91FF90EF90DF90AE
S11307A0CF90BF90AF90089590917610809177107C
S11307B0981719F420E030E017C0909176108091DA
S11307C07710981738F48091771090917610282F2D
S11307D030E008C08091771090917610282F30E097
S11307E020503F4F291B3109C90108951F93182F29
S11307F0DBDF8F3F910591F0E0917710F0E0EA584C
S1130800F04F1083809177108F3F19F41092771076
S113081005C0809177108F5F809377101F910895A2
S11308209091761080917710981711F4EFEF12C021
S1130830E0917610F0E0EA58F04FE0818091761074
S11308408F3F19F41092761005C0809176108F5F57
S1130850809376108E2F0895EF92FF920F931F933B
S1130860CF93DF937C01EB01909176108091771008
S1130870981719F400E010E012C096DF8C01C81735
S1130880D9070CF48E01C0E0D0E006C0C9DFF7013F
S1130890EC0FFD1F80832196C017D107BCF3C8015C
S11308A0DF91CF911F910F91FF90EF9008951F92C8
S11308B00F920FB60F920BB60F9211242F933F9302
S11308C04F935F936F937F938F939F93AF93BF9354
S11308D0EF93FF938091C60089DFFF91EF91BF9161
S11308E0AF919F918F917F916F915F914F913F91C4
S11308F02F910F900BBE0F900FBE0F901F90189565
S1130900AC0120E030E00CC08091C80085FFFCCF32
S1130910FA01E20FF31F80818093CE002F5F3F4FD7
S1130920261737078CF30895DC019091F810809115
S1130930F910981711F480E008959091F8108091BF
S1130940F910981719F420E030E017C09091F810CE
S11309508091F910981738F48091F9109091F8105B
S1130960282F30E008C08091F9109091F810282FBA
S113097030E020583F4F291B3109A9016217730742
S11309800CF4AB0120E030E020C09091F81080918D
S1130990F910981711F49FEF12C0E091F810F0E0ED
S11309A0E858FF4E90818091F8108F3719F4109217
S11309B0F81005C08091F8108F5F8093F810FD0146
S11309C0E20FF31F90832F5F3F4F24173507ECF29C
S11309D0842F08959091F8108091F910981719F4C4
S11309E020E030E017C09091F8108091F91098172A
S11309F038F48091F9109091F810282F30E008C055
S1130A008091F9109091F810282F30E020583F4F32
S1130A10291B3109C9010895482F9091F81080913C
S1130A20F9109817D1F09091F8108091F910981757
S1130A3038F48091F9109091F810282F30E008C014
S1130A408091F9109091F810282F30E020583F4FF2
S1130A50291B31092F37310591F0E091F910F0E0AD
S1130A60E858FF4E40838091F9108F3719F41092A3
S1130A70F91008958091F9108F5F8093F91008950B
S1130A809091F8108091F910981711F4EFEF12C0BB
S1130A90E091F810F0E0E858FF4EE0818091F81002
S1130AA08F3719F41092F81005C08091F8108F5FF9
S1130AB08093F8108E2F08951F920F920FB60F9205
S1130AC00BB60F9211242F933F934F935F936F9321
S1130AD07F938F939F93AF93BF93EF93FF938091F3
S1130AE0CE009ADFFF91EF91BF91AF919F918F91CB
S1130AF07F916F915F914F913F912F910F900BBE1A
S1130B000F900FBE0F901F901895DF93CF930F9205
S1130B100F92CDB7DEB7982F8A3099F48DE0898390
S1130B209A83FE0131969E012D5F3F4F8091C8004C
S1130B3085FFFCCF81918093CE00E217F307B1F7D4
S1130B4006C08091C80085FFFCCF9093CE0080E062
S1130B5090E00F900F90CF91DF9108959091F8104D
S1130B608091F9109817D1F39091F8108091F910B1
S1130B70981738F48091F9109091F810282F30E0EC
S1130B8008C08091F9109091F810282F30E0205877
S1130B903F4F291B3109232B09F39091F8108091C1
S1130BA0F910981711F4EFEF15C0E091F810F0E088
S1130BB0E858FF4EE0818091F8108F3719F41092B5
S1130BC0F81005C08091F8108F5F8093F810ED3015
S1130BD009F4EAE08E2F90E008950E94AA0F9B0189
S1130BE0AC0160E074E284EF99E40E940F0F0E946C
S1130BF07C0F6150704022E42093C80028E92093C0
S1130C00C90026E02093CA002FEF2093CE00109253
S1130C10F8101092F910272F332727FD3A952093C7
S1130C20CD006093CC007298739A85E895E06EEAE3
S1130C3075E00E943B119093FB108093FA10089585
S1130C4060E071EE80E090E0C8DF78940895C2DE41
S1130C50181619060CF03FC0809146129091471265
S1130C600E9485118A3011F08D3091F480914E11DB
S1130C7090914F11181619068CF510924F1110927D
S1130C804E1181E090E0909351118093501108959A
S1130C90882339F120914E1130914F11A9014F5FF2
S1130CA05F4F50934F1140934E11F901E250FF4EA4
S1130CB0808380914E1190914F118F349105A4F04F
S1130CC010924F1110924E1181E090E090935111C7
S1130CD080935011089580E090E0089580E090E0C2
S1130CE0089580E090E0089580E090E00895809178
S1130CF0501190915111181619063CF4109251118B
S1130D00109250118EEF90E1089580E090E00895E4
S1130D108CE89BE00E94D41160E071EE80E090E0EA
S1130D205CDF789486E880937A0081E080937C008D
S1130D3008958130910551F08230910561F000975A
S1130D4071F421E020937C00179809C022E02093DD
S1130D507C00169804C023E020937C00159824E0BE
S1130D602A95F1F7EAE7F0E02081206120832081D1
S1130D7020642083208124FFFDCF2EEF22B99C0123
S1130D80220F331F220F331F220F331FFC01EE0FDC
S1130D90FF1FE20FF31FE25EFD4E60E070E020E013
S1130DA030E02F5F3F4F4281538141935193640F51
S1130DB0751F24303105A9F720917800309179000E
S1130DC0AC014F5F5F4FFA01EE0FFF1F440F551F39
S1130DD0440F551F440F551FE40FF51FE25EFD4EEF
S1130DE031832083620F731F6B39710554F0FC014A
S1130DF0EE0FFF1FE65AFE4E81E090E09183808360
S1130E000895FC01EE0FFF1FE65AFE4E1182108278
S1130E1008959F938F938BE99BE09F938F930E94F8
S1130E20C3110F900F900F900F90089561E070E040
S1130E3080E090E05CDB41E050E06FE270E08FE145
S1130E4090E0D9DA40E050E060E270E08EEF90E0AC
S1130E50D2DA40E050E068E170E08EEF90E003DB2E
S1130E602FE38DE093E0215080409040E1F700C0F3
S1130E70000008950F931F93CF93DF9300D0CDB755
S1130E80DEB720E23CE240E029833A834B83BE0193
S1130E906F5F7F4F0E940911009789F00EE711E1FF
S1130EA00E94EC10F801819391938F01BE016F5F52
S1130EB07F4F80E090E00E940911009789F70F901E
S1130EC00F900F90DF91CF911F910F910895809112
S1130ED070119091711188519C4F9093711180936E
S1130EE0701120916E1130916F11821793073CF0AD
S1130EF0109271111092701180E090E0089581E0D9
S1130F0090E00895A0918011B0918111A634B105AB
S1130F10ACF4E2E8F1E1AA0FBB1FA295B295B07F51
S1130F20BA27A07FBA27A255BD4F22EA31E18191A9
S1130F3091918D939D93E217F307C9F70895CF928A
S1130F40DF92EF92FF920F931F93CF93DF93CDB76E
S1130F50DEB76E970FB6F894DEBF0FBECDBFFE01AD
S1130F6031968EE1DF011D928A95E9F70EE61BE0CA
S1130F707F010F2EFCE8CF2EFBE0DF2EF02D64E284
S1130F8070E0F801819191918F014FDAD7018D932F
S1130F909D937D010C151D0591F78E8D8F938D8D7D
S1130FA08F938C8D8F938B8D8F938A8D8F93898D57
S1130FB08F93888D8F938F898F938E898F938D894B
S1130FC08F938C898F938B898F938A898F93898947
S1130FD08F931F9282E08F9380EA9BE09F938F937D
S1130FE00E94C3110FB6F894DEBF0FBECDBF6E963C
S1130FF00FB6F894DEBF0FBECDBFDF91CF911F9126
S11310000F91FF90EF90DF90CF900895880F991F74
S113101082959295907F9827807F9827FC01E255CE
S1131020FD4F818D8F93808D8F9387898F938689D0
S11310308F9385898F9384898F9383898F938289F2
S11310408F9381898F9380898F9387858F938685EA
S11310508F9385858F9384858F9383858F938285E2
S11310608F9381858F9380858F9387818F938681DA
S11310708F9385818F9384818F9383818F938281D2
S11310808F9381818F9380818F931F9283E08F93BD
S113109089EC9BE09F938F930E94C3118DB79EB7F9
S11310A04E960FB6F8949EBF0FBE8DBF0895CF9293
S11310B0DF92EF92FF920F931F93CF93DF93CDB7FD
S11310C0DEB76E970FB6F894DEBF0FBECDBFFE013C
S11310D031968EE1DF011D928A95E9F70EE61BE059
S11310E07F010F2EFCE8CF2EFBE0DF2EF02D68E20F
S11310F070E0F801819191918F0197D9D7018D9377
S11311009D937D010C151D0591F7888D8F938F8913
S11311108F938E898F938D898F938C898F938B89ED
S11311208F938A898F9389898F9388898F938F85E9
S11311308F938E858F938D858F938C858F938B85DD
S11311408F938A858F9389858F9388858F938F81D9
S11311508F938E818F938D818F938C818F938B81CD
S11311608F938A818F9389818F931F9284E08F93C9
S113117084EF9BE09F938F930E94C3110FB6F89462
S1131180DEBF0FBECDBF6E960FB6F894DEBF0FBEA6
S1131190CDBFDF91CF911F910F91FF90EF90DF9022
S11311A0CF900895CF92DF92EF92FF920F931F9307
S11311B0CF93DF93CDB7DEB76E970FB6F894DEBF4B
S11311C00FBECDBFFE0131968EE1DF011D928A95DF
S11311D0E9F70EE61BE07F010F2EFCE8CF2EFBE0C3
S11311E0DF2EF02D6AE270E0F801819191918F0178
S11311F01CD90E94B500D7018D939D937D010C15D8
S11312001D0581F7888D8F938F898F938E898F9396
S11312108D898F938C898F938B898F938A898F93F0
S113122089898F9388898F938F858F938E858F93E8
S11312308D858F938C858F938B858F938A858F93E0
S113124089858F9388858F938F818F938E818F93D8
S11312508D818F938C818F938B818F938A818F93D0
S113126089818F931F9285E08F9384EF9BE09F93F6
S11312708F930E94C3110FB6F894DEBF0FBECDBF8B
S11312806E960FB6F894DEBF0FBECDBFDF91CF913F
S11312901F910F91FF90EF90DF90CF90089590935E
S11312A06D1180936C1170936B1160936A1120918E
S11312B0721130917311232B61F490937511809303
S11312C07411709373116093721110926B111092D8
S11312D06A1108958091721190917311181619066C
S11312E00CF450C080917C1190917D11019709F00C
S11312F049C08091641190916511892BD1F4E091DA
S11313007611F0917711EE0FFF1FEE0FFF1FE05FD4
S1131310FD4F80819181029761F461E070E081E08A
S113132090E0BDDF81E090E09093651180936411BB
S113133008951092651110926411E0917611F09164
S11313407711EE0FFF1FEE0FFF1FE05FFD4F62816D
S1131350738180819181A3DF8091761190917711BF
S11313600196909377118093761120911202309117
S113137013022817390734F481E090E09093771131
S113138080937611089590937511809374117093DE
S113139073116093721110926B1110926A1181E0B3
S11313A090E090930F0280930E02109271111092AC
S11313B07011089581E090E090930F0280930E02E3
S11313C01092731110927211109271111092701187
S11313D08FEF9FEF90930D0280930C02089581E0AC
S11313E090E00E949B00019719F481E29CE0DCD715
S11313F082E090E00E949B00019719F486E39CE050
S1131400D3D784E090E00E949B00019719F489E40B
S11314109CE0CAD788E090E00E949B00019719F4F1
S113142089E59CE0C1D780E190E00E949B00019790
S113143019F48DE69CE0B8D780E290E00E949B000E
S1131440019719F48DE79CE0AFD780E490E00E9407
S11314509B00019719F48DE89CE0A6C70895843099
S1131460910591F034F48230910551F0039781F0A5
S11314701FC086309105A1F07CF00797A9F018C031
S113148085EA9CE091C7089586ED9CE08DC7089598
S113149082E09DE089C7089585E39DE085C70895AE
S11314A082E69DE081C708958DE89DE07DC708959B
S11314B086EB9DE079C708950F931F93CF93DF9335
S11314C08C01EB018EEF90E00E948D0083E890E0A8
S11314D00E94900060E270E080E090E00E9493003F
S11314E062E070E081E090E00E949300B80182E045
S11314F090E00E949300CE010E94B500BC0183E0FD
S113150090E00E949300CE010E94B900BC0184E0E7
S113151090E00E94930087E090E00E9498000E946F
S1131520EC010E9488008130910511F458DF01C05C
S113153096DFDF91CF911F910F9108952F923F92E3
S11315404F925F926F927F928F929F92AF92BF92CF
S1131550CF92DF92EF92FF920F931F93CF93DF937B
S1131560CDB7DEB7C854D1090FB6F894DEBF0FBEAD
S1131570CDBF25969FAF8EAF2597863491050CF08D
S113158083C1FE0131968EE1DF011D928A95E9F750
S113159025968EAD9FAD2597880F991F82959295BC
S11315A0907F9827807F98279C0122553D4F27964E
S11315B03FAF2EAF27976E2E7F2E0F2EFCE88F2E77
S11315C0FBE09F2EF02D7F0159010EE61BE0C12C9C
S11315D0D12C64E270E0D8018D919D918D010E941F
S11315E01502F501219131915F01A901481B590BA5
S11315F0CA01992324F0D7014D935C9306C09195B9
S113160081959109F70191838083D7018D919D91F3
S11316107D01C816D9060CF46C0108151905C9F624
S11316201E01BFE12B0E311C8EE1F10111928A954E
S1131630E9F784E690E098A38F8F2596EEADFFAD91
S11316402597EE0FFF1FE295F295F07FFE27E07FCE
S1131650FE27E255FD4F668D778D882777FD8095AF
S1131660982F78D423966CAF7DAF8EAF9FAF23971E
S113167028962FAE289729963FAE29973EAE2DAED9
S1131680A62CB72CEE24D7FCE094FE2CD5010D91AA
S11316901D915D01C701B6015DD42B013C01B80168
S11316A0882777FD8095982F55D4A3019201B7D34D
S11316B09B01AC0123966CAD7DAD8EAD9FAD2397A0
S11316C0D5D415D46115710521F0F10171836083BE
S11316D005C0E1E0F0E0D101ED93FC93F2E02F0EC0
S11316E0311C2DAD3EADA216B30681F62596EEADA6
S11316F0FFAD2597EE0FFF1FE295F295F07FFE27D1
S1131700E07FFE27E255FD4F668D778D8BEF93E1E9
S11317103CD5882777FD8095982F1CD49B01AC017C
S1131720C301B201A3D4E3D3683E33E073072CF0C2
S113173070936F1160936E1106C088EE93E09093DE
S11317406F1180936E118EEF90E00E948D0083E8FC
S113175090E00E94900060E270E080E090E00E94DF
S1131760930062E070E081E090E00E94930028968C
S1131770CFAC28972996DFAC29970F2EFEE6EF2EE3
S1131780FBE0FF2EF02D02E010E0D7016D917D917A
S11317907D01C8010E949300F601A190B1906F01F0
S11317A0C5010E94B500BC01C80101960E949300C6
S11317B0C5010E94B900BC01C80102960E949300B1
S11317C00D5F1F4FE814F90401F781E390E00E94D4
S11317D098000E94EC010E9488008130910509F074
S11317E052C0FDDD8EEF90E00E948D0083E890E012
S11317F00E9490006EE170E080E090E00E9493000F
S113180062E070E081E090E00E9493002796CEAC05
S1131810DFAC27970F2EFEE6EF2EFBE0FF2EF02D18
S113182002E010E0D7016D917D917D01C8010E9415
S113183093005601F601819191916F010E94B500C8
S1131840BC01C80101960E949300D5018D919C9121
S11318500E94B900BC01C80102960E9493000D5F6A
S11318601F4FE814F904F1F681E390E00E94980018
S11318700E94EC010E9488008130910511F4AFDDD3
S113188003C0EDDD01C0EBDDC85BDF4F0FB6F8949C
S1131890DEBF0FBECDBFDF91CF911F910F91FF909F
S11318A0EF90DF90CF90BF90AF909F908F907F90FC
S11318B06F905F904F903F902F90089548990EC07D
S11318C080917A1190917B11892B09F050C081E0AD
S11318D090E090937B1180937A11089580917A110E
S11318E090917B11019709F042C010927B111092E4
S11318F07A1180917C1190917D119C012F5F3F4F53
S113190030937D1120937C1126E030E0A901481B1F
S1131910590BCA01181619063CF08FE388B91092C6
S11319207D1110927C110BC021E030E0A90102C0AE
S1131930440F551F8A95E2F7CA01809588B93ADDAC
S113194080E090E0FBDD81E090E09093771180935C
S1131950761180917C1190917D11019741F48091D1
S11319601002909111029093791180937811089547
S1131970AEDA892BA1F5E0917411F0917511EE0F97
S1131980FF1FE45CFD4F0190F081E02D2081318147
S113199080910E0290910F022817390764F483E0B6
S11319A090E0909375118093741181E090E090938E
S11319B00F0280930E0280910E0290910F02880F05
S11319C0991FE80FF91F80819181B8DD80910E0283
S11319D090910F02019690930F0280930E02089546
S11319E076DA892BB1F5E0917411F0917511EE0F4F
S11319F0FF1FE45CFD4F0190F081E02D20813181D7
S1131A0080910E0290910F022817390774F4809187
S1131A10080290910902909375118093741181E0EA
S1131A2090E090930F0280930E0280910E029091A9
S1131A300F02880F991FE80FF91F808191817EDDC5
S1131A4080910E0290910F02019690930F02809361
S1131A500E0208952F923F924F925F926F927F925F
S1131A608F929F92AF92BF92CF92DF92EF92FF92AA
S1131A700F931F93CF93DF938CEF81B98EEF82B9CD
S1131A808FE787B98EE788B980E78AB981E18BB996
S1131A90CDD9D6D83DD9809160119091611101972B
S1131AA041F440E050E068E170E08EEF90E00E9485
S1131AB033020F2EFEE74F2EF1E15F2EF02D0F2E95
S1131AC0F0E53F2EF02D0F2EF0EA2F2EF02D0F2EE5
S1131AD0FAE5CF2EF1E1DF2EF02D0F2EF4E5AF2E37
S1131AE0F1E1BF2EF02D0F2EFCE5EF2EF1E1FF2EDC
S1131AF0F02D0F2EF6E58F2EF1E19F2EF02D0EE541
S1131B0011E10F2EF8E56F2EF1E17F2EF02D04C0C8
S1131B10909363118093621180E090E00AD981E090
S1131B2090E007D982E090E004D9C8DE90D8181676
S1131B3019060CF08AC0DBD8EC01009709F485C0C3
S1131B4099D9F201808191818630910509F463C0AD
S1131B5094F48230910509F44AC034F4009701F1F9
S1131B60019709F446C069C08430910509F44FC057
S1131B700CF440C04EC08930910579F134F48730BB
S1131B809105B9F0089721F158C08B30910509F4FB
S1131B9057C00CF449C0873E934009F423C14DC09B
S1131BA0E0E8F1E180819181C9DC81E090E031D904
S1131BB047C0E2E8F1E160817181E0E8F1E1808110
S1131BC091816DDBFFEDF8B981E090E022D938C056
S1131BD0F1DB81E090E01DD933C0E2E8F1E16081FE
S1131BE07181E0E8F1E180819181CDDB29C0A7D941
S1131BF027C088D9E0E8F1E180819181863491059C
S1131C0024F080E090E005D91BC000DA19C04FDA57
S1131C1017C0C8DA15C040E050E068E170E08EEF0C
S1131C2090E00E9433020CC010926611109267116A
S1131C30109268111092691103C080E090E0E9D815
S1131C40FE01232D11922A95E9F7F201222D11921A
S1131C502A95E9F7019917C080910A0290910B0225
S1131C6018161906ACF510920B0210920A028FE7AF
S1131C7088B98091601190916111019749F180E0D8
S1131C8090E05CDC25C080910A0290910B02892BC4
S1131C9039F4469881E090E090930B0280930A0215
S1131CA08091781190917911181619065CF012DB65
S1131CB08091521190915311019711F491DE08C053
S1131CC057DE06C0885E9340909379118093781113
S1131CD0F60180819181009751F4F5018081918111
S1131CE0892B81F082ED9DE05FD345980BC0F5010F
S1131CF0208131818217930729F081EF9DE054D32D
S1131D008FE588B9F70180819181009751F4F4013E
S1131D1080819181892B81F080E19EE045D34498B4
S1131D200BC0F401208131818217930729F08FE2DF
S1131D309EE03AD38FE688B9F801808191810097BB
S1131D4051F4F30180819181892B81F08EE49EE02E
S1131D502BD343980BC0F301208131818217930761
S1131D6029F08DE69EE020D387E788B9F6018081CB
S1131D709181F50191838083F70180819181F40140
S1131D8091838083F80180819181F3019183808321
S1131D90FFE32DE083E0F15020408040E1F700C0F4
S1131DA000008091661190916711A0916811B09123
S1131DB069110196A11DB11D80936611909367115D
S1131DC0A0936811B093691180916211909163118D
S1131DD001968931910509F09BCE109263111092FE
S1131DE062119ACE87EE93E014D860E070E080E050
S1131DF090E062DB80E090E0DF91CF911F910F9142
S1131E00FF90EF90DF90CF90BF90AF909F908F9016
S1131E107F906F905F904F903F902F9008950CD0DB
S1131E20EBC0E3D040F0DAD030F021F45F3F19F09A
S1131E30CCC0511115C1CFC0F0D098F39923C9F388
S1131E405523B1F3951B550BBB27AA2762177307BC
S1131E50840738F09F5F5F4F220F331F441FAA1F70
S1131E60A9F333D00E2E3AF0E0E830D09150504030
S1131E70E695001CCAF729D0FE2F27D0660F771FDE
S1131E80881FBB1F261737074807AB07B0E809F0C0
S1131E90BB0B802DBF01FF2793585F4F2AF09E3F55
S1131EA0510568F092C0DCC05F3FECF3983EDCF370
S1131EB0869577956795B795F7959F5FC9F7880FCE
S1131EC0911D9695879597F90895E1E0660F771F20
S1131ED0881FBB1F621773078407BA0720F0621BB1
S1131EE0730B840BBA0BEE1F88F7E095089504D0AA
S1131EF06894B111B5C0089598D088F09F5790F0B8
S1131F00B92F9927B751A0F0D1F0660F771F881F1A
S1131F10991F1AF0BA95C9F712C0B13081F09FD059
S1131F20B1E008959CC0672F782F8827B85F39F0F7
S1131F30B93FCCF3869577956795B395D9F73EF479
S1131F4090958095709561957F4F8F4F9F4F089521
S1131F50E89409C097FB3EF490958095709561953F
S1131F607F4F8F4F9F4F9923A9F0F92F96E9BB27F5
S1131F709395F695879577956795B795F111F8CF71
S1131F80FAF4BB0F11F460FF1BC06F5F7F4F8F4FDC
S1131F909F4F16C0882311F096E911C0772321F0D2
S1131FA09EE8872F762F05C0662371F096E8862F6A
S1131FB070E060E02AF09A95660F771F881FDAF7C1
S1131FC0880F9695879597F9089597F99F6780E804
S1131FD070E060E008959FEF80EC089500240A9477
S1131FE01616170618060906089500240A941216F0
S1131FF01306140605060895092E0394000C11F423
S1132000882352F0BB0F40F4BF2B11F460FF04C0CF
S11320106F5F7F4F8F4F9F4F089557FD9058440F28
S1132020551F59F05F3F71F04795880F97FB991F33
S113203061F09F3F79F087950895121613061406F0
S1132040551FF2CF4695F1DF08C01616170618067D
S1132050991FF1CF86957105610508940895E89458
S1132060BB2766277727CB0197F908950BD0C4CFF8
S1132070B5DF28F0BADF18F0952309F0A6CFABCF6F
S11320801124EECFCADFA0F3959FD1F3950F50E052
S1132090551F629FF001729FBB27F00DB11D639F16
S11320A0AA27F00DB11DAA1F649F6627B00DA11DBC
S11320B0661F829F2227B00DA11D621F739FB00D62
S11320C0A11D621F839FA00D611D221F749F3327D2
S11320D0A00D611D231F849F600D211D822F762F6B
S11320E06A2F11249F5750408AF0E1F088234AF068
S11320F0EE0FFF1FBB1F661F771F881F91505040B4
S1132100A9F79E3F510570F060CFAACF5F3FECF373
S1132110983EDCF3869577956795B795F795E7959F
S11321209F5FC1F7FE2B880F911D9695879597F9B0
S1132130089503D008F481E00895990F0008550F1D
S1132140AA0BE0E8FEEF16161706E807F907C0F039
S113215012161306E407F50798F0621B730B840B41
S1132160950B39F40A2661F0232B242B252B21F41B
S113217008950A2609F4A140A6958FEF811D811DBB
S11321800895DBDF08F48FEF089597FB072E16F40C
S1132190009406D077FD08D00BD007FC05D03EF4A0
S11321A0909581959F4F0895709561957F4F0895FF
S11321B0AA1BBB1B51E107C0AA1FBB1FA617B70769
S11321C010F0A61BB70B881F991F5A95A9F7809585
S11321D09095BC01CD010895FC0188279927E894C6
S11321E021912032E9F3293010F02E30C8F32B323C
S11321F039F02D3231F4689403C035D0820F911D2B
S1132200219120532A30C8F31EF4909581959F4F55
S113221008954CEF50E100C0FA01A191B0810097FC
S113222019F41097E1F0CD01DC01CD010D900020EF
S113223011F4C00113C0FB012191222319F02015D0
S1132240D9F7F3CFFB012191201519F41E921196B1
S113225006C02223C1F70D900020A1F7D001FA0196
S1132260A193B08308957AE0979F902D879F802D46
S1132270910D112408950F931F93CF93DF93EC01D5
S11322808B01009731F46115710519F480E090E039
S113229037C06EE070E081E090E0A1D2FC010097CD
S11322A0A9F380E883830115110571F01387028770
S11322B081E883838091461290914712892B21F4FF
S11322C0F0934712E09346122097C9F0D187C08754
S11322D08381826083838091481290914912892B73
S11322E071F4F0934912E093481280914A1290914C
S11322F04B12892B21F4F0934B12E0934A12CF0135
S1132300DF91CF911F910F910895CF93DF93EC014B
S11323102B8120FF33C026FF0AC02F7B2B838E81A5
S11323209F8101969F838E838A8190E029C022FF3A
S11323300FC0E881F9818081992787FD90950097E6
S113234019F420622B831AC03196F983E8830EC0F6
S1132350EA85FB85199597FF09C02B81019611F435
S113236080E101C080E2822B8B8308C02E813F81F3
S11323702F5F3F4F3F832E83992702C08FEF9FEF3C
S1132380DF91CF910895CF93DF93CDB7DEB7FE01F0
S1132390369661917191AF018091481290914912E2
S11323A030D0DF91CF9108950F931F93CF93DF9394
S11323B0E0914812F0914912238121FF1BC0EC01E6
S11323C000E010E089916091481270914912DB019C
S11323D01896ED91FC911997882331F01995892B62
S11323E089F30FEF1FEFEECF8AE01995892B11F4D3
S11323F0C80102C08FEF9FEFDF91CF911F910F9122
S113240008952F923F924F925F926F927F928F9294
S11324109F92AF92BF92CF92DF92EF92FF920F936F
S11324201F93CF93DF93CDB7DEB72C970FB6F894F5
S1132430DEBF0FBECDBF7C016B018A01FC01178298
S11324401682838181FFB0C1CE0101964C01F70150
S11324509381F60193FD859193FF81916F01882308
S113246009F49EC1853239F493FD859193FF8191DE
S11324706F01853221F4B70190E00FD3E8CF512CDE
S1132480312C20E02032A0F48B3269F030F4803219
S113249059F0833269F420612CC08D3239F08033D5
S11324A039F4216026C02260246023C0286021C042
S11324B027FD27C030ED380F3A3078F426FF06C0E8
S11324C0FAE05F9E300D1124532E13C08AE0389E2B
S11324D0300D1124332E20620CC08E3221F426FDDF
S11324E05FC1206406C08C3611F4206802C08836AF
S11324F041F4F60193FD859193FF81916F01811160
S1132500C1CF982F9F7D9554933028F40C5F1F4FB3
S1132510FFE3F9830DC0833631F0833771F08335DF
S113252009F057C021C0F801808189830E5F1F4FD5
S113253044244394512C540114C03801F2E06F0E2A
S1132540711CF801A080B18026FF03C0652D70E0E6
S113255002C06FEF7FEFC5012C8794D22C01830159
S11325602C852F77222E16C03801F2E06F0E711CD5
S1132570F801A080B18026FF03C0652D70E002C081
S11325806FEF7FEFC5012C876BD22C012C8520685F
S1132590222E830123FC19C0832D90E0481659068E
S11325A0A0F4B70180E290E078D23A94F5CFF50137
S11325B027FC859127FE81915F01B70190E06DD2E0
S11325C031103A94F1E04F1A51084114510479F74B
S11325D0DEC0843611F0893631F5F80127FF07C0D3
S11325E060817181828193810C5F1F4F08C060817B
S11325F07181882777FD8095982F0E5F1F4F2F7666
S1132600B22E97FF09C090958095709561957F4F84
S11326108F4F9F4F2068B22E2AE030E0A4016FD282
S1132620A82EA81843C0853729F42F7EB22E2AE09D
S113263030E025C0F22FF97FBF2E8F36C1F018F499
S1132640883579F0ADC0803719F0883721F0A8C0FB
S11326502F2F2061B22EB4FE0DC08B2D8460B82EB6
S113266009C024FF0AC09F2F9660B92E06C028E037
S113267030E005C020E130E002C020E132E0F801A2
S1132680B7FE07C060817181828193810C5F1F4F07
S113269006C06081718180E090E00E5F1F4FA4014D
S11326A02ED2A82EA818FB2DFF77BF2EB6FE0BC086
S11326B02B2D2E7FA51450F4B4FE0AC0B2FC08C022
S11326C02B2D2E7E05C07A2C2B2D03C07A2C01C015
S11326D0752C24FF0DC0FE01EA0DF11D80818033AD
S11326E011F4297E09C022FF06C07394739404C0B8
S11326F0822F867809F0739423FD12C020FF06C050
S11327005A2C731418F4530C5718732C731460F464
S1132710B70180E290E02C87C0D173942C85F6CF6A
S1132720731410F4371801C0312C24FF11C0B70101
S113273080E390E02C87B1D12C8522FF16C021FFC5
S113274003C088E590E002C088E790E0B7010CC0C0
S1132750822F867851F021FD02C080E201C08BE215
S113276027FD8DE2B70190E098D1A51430F4B701AC
S113277080E390E092D15A94F8CFAA94F401EA0D40
S1132780F11D8081B70190E088D1A110F6CF3320EC
S113279009F45DCEB70180E290E07FD13A94F7CF9F
S11327A0F7018681978102C08FEF9FEF2C960FB6B9
S11327B0F894DEBF0FBECDBFDF91CF911F910F9173
S11327C0FF90EF90DF90CF90BF90AF909F908F904D
S11327D07F906F905F904F903F902F9008950F934C
S11327E01F93CF93DF93869F8001879F100D969F41
S11327F0100D1124C8010DD0EC01009721F0A8019F
S113280060E070E038D1CE01DF91CF911F910F913C
S11328100895CF93DF938230910510F482E090E025
S1132820E0914E12F0914F1220E030E0A0E0B0E0D1
S1132830309739F14081518148175907B8F048174A
S1132840590771F482819381109729F013969C9310
S11328508E9312972CC090934F1280934E1227C0E0
S11328602115310531F04217530718F0A901DB0196
S113287001C0EF019A01BD01DF010280F381E02D67
S1132880D7CF21153105F9F0281B390B2430310538
S113289080F48A819B816115710521F0FB0193838A
S11328A0828304C090934F1280934E12FE0132969D
S11328B044C0FE01E20FF31F81939193225031092A
S11328C0398328833AC020914C1230914D12232B26
S11328D041F4209104023091050230934D1220936B
S11328E04C1220910202309103022115310541F46A
S11328F02DB73EB74091060250910702241B350BB9
S1132900E0914C12F0914D12E217F307A0F42E1B44
S11329103F0B2817390778F0AC014E5F5F4F24173F
S1132920350748F04E0F5F1F50934D1240934C12E1
S11329308193919302C0E0E0F0E0CF01DF91CF9169
S11329400895CF93DF93009709F487C0FC01329771
S113295013821282C0914E12D0914F12209781F4AB
S113296020813181280F391F80914C1290914D1292
S11329708217930779F5F0934D12E0934C126DC0D2
S1132980DE0120E030E0AE17BF0750F412964D91FF
S11329905C9113979D014115510509F1DA01F3CFBB
S11329A0B383A28340815181840F951F8A179B07AB
S11329B071F48D919C911197840F951F02969183C8
S11329C0808312968D919C91139793838283211512
S11329D0310529F4F0934F12E0934E123EC0D90111
S11329E01396FC93EE9312974D915D91A40FB51F2E
S11329F0EA17FB0779F480819181840F951F029671
S1132A00D90111969C938E938281938113969C9302
S1132A108E931297E0E0F0E08A819B81009719F091
S1132A20FE01EC01F9CFCE01029628813981820F93
S1132A30931F20914C1230914D122817390769F4D5
S1132A40309729F410924F1210924E1202C0138242
S1132A501282D0934D12C0934C12DF91CF910895FE
S1132A60FC010590615070400110D8F78095909555
S1132A708E0F9F1F0895DC0101C06D93415050409B
S1132A80E0F70895FC016150704001900110D8F7FF
S1132A90809590958E0F9F1F08950F931F93CF934A
S1132AA0DF93182F092FEB018B8181FD03C08FEF7A
S1132AB09FEF20C082FF10C04E815F812C813D8139
S1132AC0421753077CF4E881F9819F012F5F3F4F40
S1132AD039832883108306C0E885F985812F1995E9
S1132AE0892B29F72E813F812F5F3F4F3F832E8310
S1132AF0812F902FDF91CF911F910F910895FA01AB
S1132B00AA27283051F1203181F1E8946F936E7F28
S1132B106E5F7F4F8F4F9F4FAF4FB1E03ED0B4E019
S1132B203CD0670F781F891F9A1FA11D680F791F5A
S1132B308A1F911DA11D6A0F711D811D911DA11D6B
S1132B4020D009F468943F912AE0269F112430197B
S1132B50305D3193DEF6CF010895462F4770405D16
S1132B604193B3E00FD0C9F7F6CF462F4F70405DC5
S1132B704A3318F0495D31FD4052419302D0A9F720
S1132B80EACFB4E0A6959795879577956795BA951A
S1132B90C9F700976105710508959B01AC010A2EE0
S1132BA006945795479537952795BA95C9F7620FB7
S1112BB0731F841F951FA01D0895F894FFCF76
S1132BBE010000005012200004000100FFFF01007C
S1132BCEE8030A000000010003000A0003000A00E3
S1132BDE03000A0003000A0003000A0003000A00AF
S1132BEE03000A0003000A0000000100AA02A60264
S1132BFE9402860278026A025C024C0207003200DA
S1132C0E33003400350036003700380006000A0061
S1132C1E0B000C000D000E000F0006002300240014
S1132C2E250026002700280006001D001E001F0098
S1132C3E20002100220006000A000B000C000D00EB
S1132C4E0E000F00080029002A002B002C002D0076
S1132C5E2E002F0030000100010001000000700062
S1132C6E3D018E03C2028E03C20270003D01F002CA
S1132C7E0202A903C200A802370305026400700011
S1132C8E33018E03C2028E03C20225005601F002E6
S1132C9E0202A903C200A80237030502640025003C
S1132CAE00023203000232030002CD0000022F03A1
S1132CBECA002E014A035503ED00D701C800700067
S1132CCE3D018E03C2028E03C20270003D01F0026A
S1132CDE0202A903C200A8023703050264007000B1
S1132CEE3D018E03C2028E03C20270003D01F0024A
S1132CFE0202A903C200A802370305026400700091
S1132D0E3D018E03C2028E03C20270003D01F00229
S1132D1E0202A903C200A802370305026400700070
S1132D2E3D018E03C2028E03C20270003D01F00209
S1132D3E0202A903C200A802370305026400700050
S1132D4E3D018E03C2028E03C20270003D01F002E9
S1132D5E0202A903C200A802370305026400700030
S1132D6E3D018E03C2028E03C20270003D01F002C9
S1132D7E0202A903C200A802370305026400700010
S1132D8E3D018E03C2028E03C20270003D01F002A9
S1132D9E0202A903C200A802370305026400DE0082
S1132DAE6501A203C2028E03C2022F006001F0026B
S1132DBE0202A903C200A8023703050296005C00B2
S1132DCE3D01C003E0025C039A0270003D01F00273
S1132DDE0202A903C200A8023703050296005C0092
S1132DEE3D01C003E002CF039F0270003D01F002DB
S1132DFE0202A903C200A80237030502960052007C
S1132E0E330120039002CF039F0266003301F002C8
S1132E1E0202A903C200A80237030502960052005B
S1132E2E2901A203C2028E03AE02A2004701F002E0
S1132E3E0202A903C200A80237030502960052003B
S1132E4E2901A203C2028E03C2022F006001F00206
S1132E5E0202A903C200A8023703050296007A00F3
S1132E6E5B01C003E002CF039F0234002E01F00287
S1132E7E0202A903C200A80237030502640052002D
S1132E8E29018903C2029303C7023E006001F002C6
S1132E9E0202A903C200A80237030502640052000D
S1132EAE29018903C2029303C7023E006001F002A6
S1132EBE0202A903C200A8023703050264005200ED
S1132ECE29018903C2029303C7023E006001F00286
S1132EDE0202A903C200A8023703050264006600B9
S1132EEE33019803CC029803CC0266003301F0023E
S1132EFE0202A903C200A8023703050232006600CB
S1132F0E33019803CC029803CC0266003301F0021D
S1132F1E0202A903C200A8023703050232006600AA
S1132F2E33019803CC029803CC0266003301F002FD
S1132F3E0202A903C200A80237030502320066008A
S1132F4E33019803CC029803CC0266003301F002DD
S1132F5E0202A903C200A80237030502320066006A
S1132F6E33019803CC029803CC0266003301F002BD
S1132F7E0202A903C200A80237030502320066004A
S1132F8E33019803CC029803CC0266003301F0029D
S1132F9E0202A903C200A80237030502320066002A
S1132FAE33019803CC029803CC0266003301F0027D
S1132FBE0202A903C200A80237030502320066000A
S1132FCE33019803CC029803CC0266003301F0025D
S1132FDE0202A903C200A8023703050232006600EA
S1132FEE33019803CC029803CC0266003301F0023D
S1132FFE0202A903C200A802370305023200000030
S113300E3301980332039803320300003301F002B4
S113301E0202A903C200A80237030502320000000F
S113302E33019803CC029803CC0200003301F00262
S113303E0202A903C200A802370305023200660089
S113304E33019803CC029803CC0266003301F002DC
S113305E0202A903C200A8023703050232000000CF
S113306E3301980332039803320300003301F00254
S113307E0202A903C200A8023703050232000000AF
S113308E33019803CC029803CC0200003301F00202
S113309E0202A903C200A802370305023200660029
S11330AE33019803CC029803CC0266003301F0027C
S11330BE0202A903C200A802370305023200660009
S11330CECD00FF03CC02FF03CC026600CD00F0025C
S11330DE0202A903C200A8023703050264006600B7
S11330EE3301FF03CC02FF03CC0266003301F0026E
S11330FE0202A903C200A802370305026400660097
S113310E33019803CC029803CC0266003301F0021B
S113311E0202A903C200A802370305026400660076
S113312ECD00FF03CC02FF03CC026600CD00F002FB
S113313E0202A903C200A802370305026400660056
S113314E3301FF03CC02FF03CC0266003301F0020D
S113315E0202A903C200A802370305026400660036
S113316E33019803CC029803CC0266003301F002BB
S113317E0202A903C200A8023703050264009A01E1
S113318ECC02320300029803660200003301F002FF
S113319E0202A903C200A802370305026400330128
S11331AE00023203000298030002CD000002F00276
S11331BE0202A903C200A802370305026400330108
S11331CE0002980300023203000200003301F002F1
S11331DE0202A903C200A8023703050264003301E8
S11331EE0002980300029803660266009A01F00238
S11331FE0202A903C200A802370305026400CD002F
S113320E000266023301FF03CC0266009A01F0024B
S113321E0202A903C200A802370305026400CD000E
S113322E0002CC0200023203000266000002F00229
S113323E0202A903C200A802370305026400660055
S113324E0002CC020002FF03CC02CD000002F00209
S113325E0202A903C200A802370305026400660035
S113326E0002CC0200029803660266009A01F00284
S113327E0202A903C200A802370305026400CD00AE
S113328E00023203000232030002CD000002F002FB
S113329E0202A903C200A8023703050264007000EB
S11332AE3D018E03C2028E03C20270003D01F00284
S11332BEFD016D03FA00C6020C03050264007000E2
S11332CE3D018E03C2028E03C20270003D015E02F6
S11332DE0202AB024001C502B60203026400700092
S11332EE3D018E03C2028E03C20270003D01FB013A
S11332FE0002F40159018D02DD0103026400700025
S113330E3D018E03C2028E03C20270003D011402FF
S113331E8C02200232019002E0010502640070006A
S113332E3D018E03C2028E03C20270003D010702EC
S113333E920133023201AA02F10105026400700007
S113334E3D018E03C2028E03C20270003D015E0275
S113335E0202AB024001C502B60203026400700011
S113336E3D018E03C2028E03C20270003D01F002C3
S113337EFD016D03FA00C6020C0305026400700021
S113338E3D018E03C2028E03C20270003D01F002A3
S113339E0202A903C200A8023703050264007000EA
S11333AE3D018E03C2028E03C20270003D01F00283
S11333BE0202A903C200A8023703050264007000CA
S11333CE3D018E03C2028E03C20270003D01F00263
S11333DE0202A903C200A8023703050264007000AA
S11333EE3D018E03C2028E03C20270003D01F00243
S11333FE0202A903C200A80237030502640070008A
S113340E3D018E03C2028E03C20270003D01F00222
S113341E0202A903C200A802370305026400700069
S113342E3D018E03C2028E03C20270003D01F00202
S113343E0202A903C200A802370305026400700049
S113344E3D018E03C2028E03C20270003D01F002E2
S113345E0202A903C200A802370305026400700029
S113346E3D018E03C2028E03C20270003D01F002C2
S113347E0202A903C200A802370305026400700009
S113348E3D018E03C2028E03C20270003D01F002A2
S113349E0202A903C200A8023703050264007000E9
S11334AE3D018E03C2028E03C20270003D01F00282
S11334BE0202A903C200A8023703050264007000C9
S11334CE3D018E03C2028E03C20270003D01F00262
S11334DE0202A903C200A8023703050264007000A9
S11334EE3D018E03C2028E03C20270003D01F00242
S11334FE0202A903C200A802370305026400700089
S113350E3D018E03C2028E03C20270003D01F00221
S113351E0202A903C200A8023703050264001300C5
S113352E04000E00110005000700100006000D0037
S113353E0C000B000A00090008000F0023232320AF
S113354E73656E736F72496E69740025640A0A009E
S113355E4E65636B2E2E2E2025643A7B25642C201B
S113356E25642C2025642C2025642C2025642C20F5
S113357E25642C2025647D0A0025643A25642C25B7
S113358E642C25642C25642C25642C25642C25643C
S113359E2C25642C25642C25642C25642C25642C64
S11335AE25640A0025643A25642C25642C25642C94
S11335BE25642C25642C25642C25642C25642C254B
S11335CE642C25642C25642C25640A0025643B0A8E
S11335DE00496E70757420766F6C74616765206532
S11335EE72726F722100416E676C65206C696D6931
S11335FE74206572726F7221004F76657268656110
S113360E74206572726F7221004F7574206F66207C
S113361E72616E6765206572726F72210043686510
S113362E636B73756D206572726F7221004F7665D0
S113363E726C6F6164206572726F722100496E73D1
S113364E7472756374696F6E20636F64652065723E
S113365E726F722100434F4D4D5F54584641494C91
S113366E3A204661696C6564207472616E736D698B
S113367E7420696E737472756374696F6E207061F1
S113368E636B65742100434F4D4D5F545845525240
S113369E4F523A20496E636F727265637420696E7D
S11336AE737472756374696F6E207061636B657485
S11336BE2100434F4D4D5F52584641494C3A2046E6
S11336CE61696C65642067657420737461747573C5
S11336DE207061636B65742066726F6D206465760D
S11336EE6963652100434F4D4D5F5258574149540C
S11336FE494E473A204E6F77207265636965766945
S113370E6E6720737461747573207061636B657476
S113371E2100434F4D4D5F525854494D454F55541A
S113372E3A205468657265206973206E6F20737435
S113373E61747573207061636B65742100434F4D22
S113374E4D5F5258434F52525550543A20496E636E
S113375E6F72726563742073746174757320706113
S113376E636B657421005468697320697320756EE8
S113377E6B6E6F776E206572726F7220636F646505
S113378E2100232323206D61696E28292073656E21
S113379E736F7256616C75655B305D203D3D2030F4
S11337AE00232323206D61696E28292073656E73AF
S11337BE6F7256616C75655B305D203D3D20310046
S11337CE232323206D61696E28292073656E736F20
S11337DE7256616C75655B315D203D3D2030002372
S11337EE2323206D61696E28292073656E736F72B1
S11337FE56616C75655B315D203D3D2031002323A0
S113380E23206D61696E28292073656E736F72565D
S113381E616C75655B325D203D3D203000232323B2
S113382E206D61696E28292073656E736F725661FF
S10F383E6C75655B325D203D3D2031005F
S9030000FC
