S01700004763634170706C69636174696F6E312E737265635B
S113000065C0000084C0000082C0000080C0000001
S11300107EC000007CC000007AC0000078C00000F0
S113002076C0000074C0000072C0000070C0000000
S11300306EC000006CC000006AC0000068C0000010
S113004066C0000064C0000062C0000060C0000020
S11300505EC000005CC000005AC0000058C0000030
S113006056C0000024C4000052C0000050C000006C
S11300704EC000004CC000004AC0000048C0000050
S113008046C0000044C0000042C0000040C0000060
S113009013C500003CC000003AC0000038C0000096
S11300A036C0000034C0000032C0000030C0000080
S11300B02EC000002CC000002AC0000028C0000090
S11300C026C0000024C0000022C0000011241FBE6E
S11300D0CFEFD1E2DEBFCDBF00E00CBF18E0A0E05F
S11300E0B2E0E6E8FAE200E00BBF02C007900D922E
S11300F0AA39B107D9F72CE0AAE9B8E001C01D92EA
S1130100AE32B207E1F70E943D0D0C94411578CF51
S11301108091000290910102089580939C080895B3
S113012080939E080895FC01E656F74F6583089571
S113013080939D08089520E030E090913E09982333
S113014011F021E030E0C901089580913D0990E06B
S11301500895FC01E65CF64F858190E00895362F02
S113016020E0280F391FC9010895282F30E0C90164
S113017008958070892F90E008950F931F93CF9373
S1130180DF938091820990918309892B09F4B8C087
S113019080919C088E3F09F4A9C08091000290913F
S11301A00102892B29F41092810986E08093800949
S11301B08091810990E06091800970E0681B790B5F
S11301C0865C964F49D390918109980F9093810949
S11301D080918009981718F44AD2019771F07091B0
S11301E08109472F50E0DA0111978A01025010402B
S11301F060E0ED01C65CD64F18C080918109882368
S113020009F071C086E090E073C0F901E65CF64F36
S113021080818F3F19F481818F3F61F0201731076E
S113022019F488818F3F31F06F5F262F30E02A1751
S11302303B075CF36623A1F090E0421B530B08C01C
S1130240E65CF64FDF01A20FB31F8C9180839F5FA2
S1130250E92FF0E0E417F5079CF3761B709381090E
S11302602091810980918009281728F190919C0898
S113027080913C099817B9F560913D096C5F6093D2
S11302808009261788F4822F90E070E0681B790BB0
S1130290865C964FE1D290918109980F90938109E1
S11302A080918009981738F080913D09A82FB0E01B
S11302B020E090E00CC085E090E0909301028093F0
S11302C000021EC0E65CF64F8281980F2F5FE22F7A
S11302D0F0E0AE17BF07B4F7A65CB64F909513963F
S11302E08C91891719F087E090E002C081E090E0DA
S11302F09093010280930002109283091092820964
S1130300DF91CF911F910F9108951F9380918209DE
S113031090918309019709F45DC081E090E0909386
S113032083098093820980919D08893940F49091D2
S11303309E08892F8150863028F0933819F084E084
S113034090E02FC08FEF80939A0880939B08809150
S11303509D08A82FB0E020E090E005C0E656F74FD6
S11303608281980F2F5FE22FF0E0AE17BF07B4F73A
S1130370A656B74F909513969C9380910002909146
S113038001020697029708F438D110919D081C5F6A
S11303908AE998E0612F70E035D1181759F082E0AE
S11303A090E09093010280930002109283091092CE
S11303B0820910C080919E08823029F48091A0089F
S11303C090E0069602C086E090E040D110920102CF
S11303D0109200021F91089598DF8091000290917D
S11303E00102892B39F4C9DE809100029091010247
S11303F00597C9F30895282F809182099091830964
S1130400892B91F420939C0883E080939E08609349
S11304109F08CA014093A00880709093A10885E0CA
S113042080939D08D9CF0895FFCF282F809182090A
S113043090918309892BB1F420939C0882E08093E6
S11304409E0860939F088093A00884E080939D0891
S1130450C3DF3091400920E080913F09280F311D0E
S1130460C9010895FFCF282F8091820990918309B3
S1130470892B71F420939C0883E080939E086093F9
S11304809F084093A00884E080939D08A5CF089519
S1130490FFCF282F8091820990918309892B91F4B1
S11304A020939C0882E080939E0860939F0881E0DB
S11304B08093A00884E080939D088EDF80913F099B
S11304C090E00895FFCF282F8091820990918309AD
S11304D0892B51F420939C0881E080939E0882E04C
S11304E080939D0879CF0895FFCF86C008950F9318
S11304F01F938C016F5F7F4F882777FD8095982F1E
S11305000E940E0F9B01AC0160E074E284EF99E459
S11305100E94730EAB01BC01C80115D0892B19F4DC
S113052020E030E00CC081E090E0909301028093E1
S11305300002109283091092820921E030E0C9017F
S11305401F910F910895EF92FF920F931F937A01D9
S11305508B0182E48093C00088E98093C10086E027
S11305608093C20060E074E284EF99E4A8019701EB
S11305700E94730E0E94E00E615070407093C5009B
S11305806093C40060E074E284E799E4A8019701F1
S11305900E94730E20E030E040E451E40E949A0F80
S11305A060931C0C70931D0C80931E0C90931F0C75
S11305B020911C0C30911D0C40911E0C50911F0C6D
S11305C060E070E08AE793E40E94730E0E94E00EFC
S11305D070931B0C60931A0C7298739A8FEF80932C
S11305E0C6001092840A1092850A81E090E01F915F
S11305F00F91FF90EF90089508958091850A80935C
S1130600840A0895AC01F8947398729A20E030E05B
S113061011C08091C00085FFFCCF8091C000806430
S11306208093C000FA01E20FF31F80818093C6001B
S11306302F5F3F4F2617370764F38091C00086FF72
S1130640FCCF7298739A7894C90108951092230C80
S11306501092220C20911A0C30911B0C265F3F4FF4
S1130660280F391F3093210C2093200C0895AF924A
S1130670BF92CF92DF92EF92FF920F931F938091DC
S1130680220C9091230C01969093230C8093220CBE
S11306902091220C3091230C8091200C9091210CFC
S11306A08217930718F421E030E074C0A0901C0C6A
S11306B0B0901D0CC0901E0CD0901F0CC601B5014B
S11306C02BEA3AEA4AEA50E40E949A0F7B018C0131
S11306D020E030E040E85FE30E94FD0F882314F43B
S11306E061E054C0C801B70120E030E04FE753E4B3
S11306F00E94251018160CF045C0C601B50120E073
S113070030E04AE754E40E94730E5B016C0120E080
S113071030E04AE755E40E949A0F7B018C0120E007
S113072030E040E85FE30E94FD0F88231CF461E0A1
S113073070E024C0C801B70120E03FEF4FE757E461
S11307400E9425101816B4F4C601B50120E030E06B
S113075040E251E40E949A0F0E94E00E80E991E089
S113076005C0FC013197F1F76150704061157105C6
S1130770C1F70EC0C801B7010E94E00ECB0101977A
S1130780F1F706C0C801B7010E94E00E6A95F1F7BF
S113079020E030E0C9011F910F91FF90EF90DF90AE
S11307A0CF90BF90AF9008959091840A8091850A6C
S11307B0981719F420E030E017C09091840A8091D2
S11307C0850A981738F48091850A9091840A282F15
S11307D030E008C08091850A9091840A282F30E087
S11307E020503F4F291B3109C90108951F93182F29
S11307F0DBDF8F3F910591F0E091850AF0E0EC5743
S1130800F64F10838091850A8F3F19F41092850A60
S113081005C08091850A8F5F8093850A1F91089592
S11308209091840A8091850A981711F4EFEF12C011
S1130830E091840AF0E0EC57F64FE0818091840A5D
S11308408F3F19F41092840A05C08091840A8F5F47
S11308508093840A8E2F0895EF92FF920F931F9333
S1130860CF93DF937C01EB019091840A8091850AF8
S1130870981719F400E010E012C096DF8C01C81735
S1130880D9070CF48E01C0E0D0E006C0C9DFF7013F
S1130890EC0FFD1F80832196C017D107BCF3C8015C
S11308A0DF91CF911F910F91FF90EF9008951F92C8
S11308B00F920FB60F920BB60F9211242F933F9302
S11308C04F935F936F937F938F939F93AF93BF9354
S11308D0EF93FF938091C60089DFFF91EF91BF9161
S11308E0AF919F918F917F916F915F914F913F91C4
S11308F02F910F900BBE0F900FBE0F901F90189565
S1130900AC0120E030E00CC08091C80085FFFCCF32
S1130910FA01E20FF31F80818093CE002F5F3F4FD7
S1130920261737078CF30895DC019091060B80910C
S1130930070B981711F480E008959091060B8091AD
S1130940070B981719F420E030E017C09091060BBC
S11309508091070B981738F48091070B9091060B40
S1130960282F30E008C08091070B9091060B282FA8
S113097030E020583F4F291B3109A9016217730742
S11309800CF4AB0120E030E020C09091060B809184
S1130990070B981711F49FEF12C0E091060BF0E0DB
S11309A0EA57F54F90818091060B8F3719F4109216
S11309B0060B05C08091060B8F5F8093060BFD012B
S11309C0E20FF31F90832F5F3F4F24173507ECF29C
S11309D0842F08959091060B8091070B981719F4B2
S11309E020E030E017C09091060B8091070B981718
S11309F038F48091070B9091060B282F30E008C043
S1130A008091070B9091060B282F30E020583F4F20
S1130A10291B3109C9010895482F9091060B809133
S1130A20070B9817D1F09091060B8091070B98173C
S1130A3038F48091070B9091060B282F30E008C002
S1130A408091070B9091060B282F30E020583F4FE0
S1130A50291B31092F37310591F0E091070BF0E0A4
S1130A60EA57F54F40838091070B8F3719F41092A2
S1130A70070B08958091070B8F5F8093070B0895F0
S1130A809091060B8091070B981711F4EFEF12C0A9
S1130A90E091060BF0E0EA57F54FE0818091060BF8
S1130AA08F3719F41092060B05C08091060B8F5FE7
S1130AB08093060B8E2F08951F920F920FB60F92FC
S1130AC00BB60F9211242F933F934F935F936F9321
S1130AD07F938F939F93AF93BF93EF93FF938091F3
S1130AE0CE009ADFFF91EF91BF91AF919F918F91CB
S1130AF07F916F915F914F913F912F910F900BBE1A
S1130B000F900FBE0F901F901895DF93CF930F9205
S1130B100F92CDB7DEB7982F8A3099F48DE0898390
S1130B209A83FE0131969E012D5F3F4F8091C8004C
S1130B3085FFFCCF81918093CE00E217F307B1F7D4
S1130B4006C08091C80085FFFCCF9093CE0080E062
S1130B5090E00F900F90CF91DF9108959091060B44
S1130B608091070B9817D1F39091060B8091070B96
S1130B70981738F48091070B9091060B282F30E0DA
S1130B8008C08091070B9091060B282F30E0205865
S1130B903F4F291B3109232B09F39091060B8091B8
S1130BA0070B981711F4EFEF15C0E091060BF0E076
S1130BB0EA57F54FE0818091060B8F3719F41092B4
S1130BC0060B05C08091060B8F5F8093060BED30FA
S1130BD009F4EAE08E2F90E008950E940E0F9B0125
S1130BE0AC0160E074E284EF99E40E94730E0E9409
S1130BF0E00E6150704022E42093C80028E920935D
S1130C00C90026E02093CA002FEF2093CE00109253
S1130C10060B1092070B272F332727FD3A952093B5
S1130C20CD006093CC007298739A85E895E06EEAE3
S1130C3075E00E949F109093090B8093080B089510
S1130C4060E071EE80E090E0C8DF78940895C2DE41
S1130C50181619060CF03FC08091240C9091250CB5
S1130C600E94E9108A3011F08D3091F480915C0B70
S1130C7090915D0B181619068CF510925D0B10926D
S1130C805C0B81E090E090935F0B80935E0B089582
S1130C90882339F120915C0B30915D0BA9014F5FE2
S1130CA05F4F50935D0B40935C0BF901E45FF44F8D
S1130CB0808380915C0B90915D0B8F349105A4F03F
S1130CC010925D0B10925C0B81E090E090935F0BAF
S1130CD080935E0B089580E090E0089580E090E0BA
S1130CE0089580E090E0089580E090E00895809178
S1130CF05E0B90915F0B181619063CF410925F0B73
S1130D0010925E0B8CE09BE0089580E090E00895E3
S1130D108AE296E00E94381160E071EE80E090E093
S1130D205CDF789486E880937A0081E080937C008D
S1130D300895179884E08A95F1F7EAE7F0E0808156
S1130D4080618083808180648083808184FFFDCF83
S1130D508EEF82B983ED90E30197F1F700C00000B4
S1130D6008959F938F9389E396E09F938F930E94B6
S1130D7027110F900F900F900F90089561E070E08D
S1130D8080E090E0B4DB41E050E06FE270E08FE19E
S1130D9090E031DB40E050E060E270E08EEF90E004
S1130DA02ADB40E050E068E170E08EEF90E05BDB2E
S1130DB02FE38DE093E0215080409040E1F700C0A4
S1130DC0000008950F931F93CF93DF9300D0CDB706
S1130DD0DEB720E23CE240E029833A834B83BE0144
S1130DE06F5F7F4F0E946D10009789F00AE71BE048
S1130DF00E945010F801819391938F01BE016F5F9F
S1130E007F4F80E090E00E946D10009789F70F906B
S1130E100F900F90DF91CF911F910F9108958091C2
S1130E206C0B90916D0B0A9690936D0B80936C0BE9
S1130E3020916A0B30916B0B821793073CF0109250
S1130E406D0B10926C0B80E090E0089581E090E0CF
S1130E500895A0917C0BB0917D0BA233B105C4F42D
S1130E60EEE7FBE0AA0FBB1FCD01880F991F880F87
S1130E70991F880F991FA80FB91FAA56BD4F20E9C3
S1130E803BE0819191918D939D93E217F307C9F70C
S1130E900895CF92DF92EF92FF920F931F93CF9317
S1130EA0DF93CDB7DEB760970FB6F894DEBF0FBE01
S1130EB0CDBFFE01319680E1DF011D928A95E9F7ED
S1130EC00AE116E07F010F2EFAE2CF2EF6E0DF2EC4
S1130ED0F02D64E270E0F801819191918F01A5DA1F
S1130EE0D7018D939D937D010C151D0591F7888D78
S1130EF08F938F898F938E898F938D898F938C890C
S1130F008F938B898F938A898F9389898F9388890B
S1130F108F938F858F938E858F938D858F938C85FB
S1130F208F938B858F938A858F9389858F938885FB
S1130F308F938F818F938E818F938D818F938C81EB
S1130F408F938B818F938A818F9389818F931F9243
S1130F5082E08F938EE396E09F938F930E942711F4
S1130F600FB6F894DEBF0FBECDBF60960FB6F894EF
S1130F70DEBF0FBECDBFDF91CF911F910F91FF90C8
S1130F80EF90DF90CF9008959C01220F331FF90159
S1130F90EE0FFF1FEE0FFF1FEE0FFF1FE20FF31FF9
S1130FA0EA56FD4F218D2F93208D2F9327892F9360
S1130FB026892F9325892F9324892F930196DC0169
S1130FC0AA0FBB1FCD01880F991F880F991F880F87
S1130FD0991FA80FB91FAA56BD4F11968C9111974E
S1130FE08F938C918F9381898F9380898F93878539
S1130FF08F9386858F9385858F9384858F9383853F
S11310008F9382858F9381858F9380858F9387813A
S11310108F9386818F9385818F9384818F9383812E
S11310208F9382818F9381818F9380818F931F927D
S113103083E08F9386E696E09F938F930E94271117
S11310408DB79EB74E960FB6F8949EBF0FBE8DBF58
S11310500895CF92DF92EF92FF920F931F93CF9355
S1131060DF93CDB7DEB760970FB6F894DEBF0FBE3F
S1131070CDBFFE01319680E1DF011D928A95E9F72B
S11310800AE116E07F010F2EFAE2CF2EF6E0DF2E02
S1131090F02D68E270E0F801819191918F01C5D93A
S11310A0D7018D939D937D010C151D0591F7888DB6
S11310B08F938F898F938E898F938D898F938C894A
S11310C08F938B898F938A898F9389898F9388894A
S11310D08F938F858F938E858F938D858F938C853A
S11310E08F938B858F938A858F9389858F9388853A
S11310F08F938F818F938E818F938D818F938C812A
S11311008F938B818F938A818F9389818F931F9281
S113111084E08F938EE396E09F938F930E94271130
S11311200FB6F894DEBF0FBECDBF60960FB6F8942D
S1131130DEBF0FBECDBFDF91CF911F910F91FF9006
S1131140EF90DF90CF900895CF92DF92EF92FF92CD
S11311500F931F93CF93DF93CDB7DEB760970FB68E
S1131160F894DEBF0FBECDBFFE01319680E1DF01F2
S11311701D928A95E9F70AE116E07F010F2EFAE243
S1131180CF2EF6E0DF2EF02D6AE270E0F8018191B7
S113119091918F014AD90E94B500D7018D939D93F7
S11311A07D010C151D0581F7888D8F938F898F9391
S11311B08E898F938D898F938C898F938B898F934D
S11311C08A898F9389898F9388898F938F858F9349
S11311D08E858F938D858F938C858F938B858F933D
S11311E08A858F9389858F9388858F938F818F9339
S11311F08E818F938D818F938C818F938B818F932D
S11312008A818F9389818F931F9285E08F938EE3D8
S113121096E09F938F930E9427110FB6F894DEBF38
S11312200FBECDBF60960FB6F894DEBF0FBECDBF24
S1131230DF91CF911F910F91FF90EF90DF90CF90AE
S113124008959093690B8093680B7093670B609378
S1131250660B20916E0B30916F0B232B61F49093EE
S1131260710B8093700B70936F0B60936E0B1092E5
S1131270670B1092660B089580916E0B90916F0B23
S1131280181619060CF450C08091780B9091790BC4
S1131290019709F049C08091600B9091610B892BF3
S11312A0D1F4E091720BF091730BEE0FFF1FEE0F70
S11312B0FF1FE25FFD4F80819181029761F461E03D
S11312C070E081E090E0BDDF81E090E09093610BFD
S11312D08093600B08951092610B1092600BE09163
S11312E0720BF091730BEE0FFF1FEE0FFF1FE25F07
S11312F0FD4F6281738180819181A3DF8091720BA4
S11313009091730B01969093730B8093720B2091C1
S11313101002309111022817390734F481E090E06B
S11313209093730B8093720B08959093710B809339
S1131330700B70936F0B60936E0B1092670B10928F
S1131340660B81E090E090930D0280930C02109262
S11313506D0B10926C0B089581E090E090930D0258
S113136080930C0210926F0B10926E0B10926D0B07
S113137010926C0B8FEF9FEF90930B0280930A02F5
S1131380089581E090E00E949B00019719F486E99A
S113139096E06ED782E090E00E949B00019719F4DA
S11313A08BEA96E065D784E090E00E949B00019769
S11313B019F48EEB96E05CD788E090E00E949B00E5
S11313C0019719F48EEC96E053D780E190E00E94E7
S11313D09B00019719F482EE96E04AD780E290E0F0
S11313E00E949B00019719F482EF96E041D780E4B4
S11313F090E00E949B00019719F482E097E038C7BF
S113140008958430910591F034F48230910551F0BF
S1131410039781F01FC086309105A1F07CF00797F7
S1131420A9F018C08AE197E023C708958BE497E0F8
S11314301FC7089587E797E01BC708958AEA97E0D6
S113144017C7089587ED97E013C7089582E098E0E1
S11314500FC708958BE298E00BC708950F931F936D
S1131460CF93DF938C01EB018EEF90E00E948D000F
S113147083E890E00E94900060E270E080E090E0F9
S11314800E94930062E070E081E090E00E9493008B
S1131490B80182E090E00E949300CE010E94B50062
S11314A0BC0183E090E00E949300CE010E94B90049
S11314B0BC0184E090E00E94930087E090E00E94E9
S11314C098000E94EC010E9488008130910511F47B
S11314D058DF01C096DFDF91CF911F910F910895DE
S11314E02F923F924F925F926F927F928F929F9230
S11314F0AF92BF92CF92DF92EF92FF920F931F931E
S1131500CF93DF93CDB7DEB7AA970FB6F894DEBFBB
S11315100FBECDBF9EA38DA3C2970CF078C1FE0170
S1131520319680E1DF011D928A95E9F78DA19EA194
S1131530880F991F9C01220F331F220F331F220F84
S1131540331F820F931F9C012A563D4F38A72FA3A8
S11315506E2E7F2E0F2EFAE28F2EF6E09F2EF02DA8
S11315607F0169010AE116E0A12CB12C64E270E06C
S1131570D8018D919D918D010E941502F601219152
S113158031916F01A901481B590BCA01992324F019
S1131590D7014D935C9306C0919581959109F7010C
S11315A091838083D7018D919D917D01A816B90601
S11315B00CF45C0108151905C9F68E010F5E1F4F66
S11315C080E1F80111928A95E9F784E690E09A8B1C
S11315D0898B8DA19EA1880F991FFC01EE0FFF1F1F
S11315E0EE0FFF1FEE0FFF1F8E0F9F1FFC01EA5629
S11315F0FD4F60897189882777FD8095982F0ED4D7
S11316006B017C0109A71AA71AA309A31801062DC7
S1131610172D4501AA2497FCA094BA2CD801ED916A
S1131620FD918D01FCA3EBA3C501B401F7D32B01FC
S11316303C012BA13CA1B901882777FD8095982F07
S1131640EDD3A30192014FD39B01AC01C701B601B5
S113165071D4B1D36115710521F0D1016D937C93DF
S113166005C021E030E0F1013183208332E0230E14
S1131670311C49A15AA10417150781F68DA19EA119
S1131680880F991FFC01EE0FFF1FEE0FFF1FEE0FD7
S1131690FF1F8E0F9F1FFC01EA56FD4F6089718961
S11316A08BEF93E1D6D4882777FD8095982FB6D316
S11316B09B01AC01C301B2013DD47DD36A307105F5
S11316C02CF070936B0B60936A0B06C08AE090E079
S11316D090936B0B80936A0B8EEF90E00E948D00C9
S11316E083E890E00E94900060E270E080E090E087
S11316F00E94930062E070E081E090E00E94930019
S1131700C9A4DAA40F2EFAE1AF2EF6E0BF2EF02D15
S113171002E010E0D5016D917D915D01C8010E9448
S11317209300F601E190F1906F01C7010E94B500AA
S1131730BC01C80101960E949300C7010E94B90030
S1131740BC01C80102960E9493000D5F1F4F0A312D
S1131750110501F78CE190E00E9498000E94EC01D1
S11317600E9488008130910509F050C00ADE8EEF96
S113177090E00E948D0083E890E00E9490006EE16A
S113178070E080E090E00E94930062E070E081E00D
S113179090E00E949300EFA0F8A40F2EFAE1CF2E60
S11317A0F6E0DF2EF02D02E010E0D6016D917D9180
S11317B06D01C8010E9493005701F7018191919135
S11317C07F010E94B500BC01C80101960E949300EC
S11317D0D5018D919C910E94B900BC01C80102966B
S11317E00E9493000D5F1F4F0A311105F1F68CE141
S11317F090E00E9498000E94EC010E9488008130D1
S1131800910511F4BEDD03C0FCDD01C0FADDAA962A
S11318100FB6F894DEBF0FBECDBFDF91CF911F91FD
S11318200F91FF90EF90DF90CF90BF90AF909F907B
S11318308F907F906F905F904F903F902F9008957E
S113184048990EC08091760B9091770B892B09F003
S113185050C081E090E09093770B8093760B0895CD
S11318608091760B9091770B019709F042C010920A
S1131870770B1092760B8091780B9091790B9C01E9
S11318802F5F3F4F3093790B2093780B26E030E0A5
S1131890A901481B590BCA01181619063CF08FE31D
S11318A088B91092790B1092780B0BC021E030E0CC
S11318B0A90102C0440F551F8A95E2F7CA01809519
S11318C088B94ADD80E090E00BDE81E090E09093FF
S11318D0730B8093720B8091780B9091790B019725
S11318E041F480910E0290910F029093750B8093B6
S11318F0740B0895CF93DF9380916E0B90916F0BCF
S1131900181619060CF0B6C08ADA892B09F0B2C091
S11319108091700B9091710BFC01EE0FFF1FE65C40
S1131920FD4FC081D1819F938F9387E498E09F936B
S11319308F938DD42881398180910C0290910D026E
S11319400F900F900F900F90281739070CF07EC05E
S11319503F932F939F938F938EE598E09F938F935C
S113196076D481E090E090930D0280930C028091F4
S11319706E0B90916F0B0F900F900F900F900F9034
S11319800F90833691050CF061C0019790936F0B13
S113199080936E0B181619060CF458C02091660B30
S11319A03091670B121613060CF04EC08091680B31
S11319B09091690BAC01425051094230510590F4A9
S11319C04091700B5091710B4130510539F181E018
S11319D090E09093710B8093700B90936F0B8093B6
S11319E06E0B28C04091700B5091710B443051051F
S11319F021F48530910591F406C08430910571F489
S1131A004530510559F41092710B1092700B81E01E
S1131A1090E090936F0B80936E0B0CC09093710BBE
S1131A208093700B30936F0B20936E0B1092670BA7
S1131A301092660B2FE58AEE90E021508040904092
S1131A40E1F700C0000016C087DC14C080910C02CE
S1131A5090910D02880F991FC80FD91F8881998111
S1131A603FDD80910C0290910D02019690930D023E
S1131A7080930C02DF91CF9108956F927F928F92A1
S1131A809F92AF92BF92CF92DF92EF92FF920F9309
S1131A901F93CF93DF938CEF81B98EEF82B98FE7D9
S1131AA087B98EE788B980E78AB981E18BB966D9AD
S1131AB0C7D82ED90DE818E0CAE7DBE00F2EF0E511
S1131AC08F2EF02D0F2EFEE7CF2EFBE0DF2EF02D14
S1131AD00F2EFCE7EF2EFBE0FF2EF02D0F2EFFED77
S1131AE06F2EF02D0F2EF0EA9F2EF02D0F2EFFE714
S1131AF07F2EF02D1ED9A4DEAAD8181619060CF0D4
S1131B008CC0F5D85C01009709F487C0BF928F930D
S1131B101F930F939CD3C50155D90F900F900F902D
S1131B200F90888199818630910509F45CC094F402
S1131B308230910509F444C034F4009701F101970F
S1131B4009F440C062C08430910509F448C00CF423
S1131B503AC047C08930910559F134F48730910572
S1131B60B1F0089701F151C08B30910509F450C0D0
S1131B700CF442C0873E934009F49CC046C0F70170
S1131B8080819181ADDC81E090E0EBD841C0F60129
S1131B9060817181F7018081918153DB68B881E0B4
S1131BA090E0DFD835C0D8DB81E090E0DAD830C0EF
S1131BB0F60160817181F70180819181B6DB28C0D3
S1131BC068D926C046D9F701808191818233910575
S1131BD024F080E090E0C5D81BC0D6D919C039DA0A
S1131BE017C0B2DA15C040E050E068E170E08EEF53
S1131BF090E00E9433020CC01092620B1092630BAF
S1131C001092640B1092650B03C080E090E0A9D899
S1131C10F501282D11922A95E9F7FE01292D11923B
S1131C202A95E9F7019910C0809108029091090260
S1131C30181619062CF5109209021092080278B8A9
S1131C4080E090E04DDC1CC0809108029091090274
S1131C50892B39F4469881E090E0909309028093AF
S1131C6008028091740B9091750B181619061CF0DC
S1131C7003DB40DE05C00A979093750B8093740BC9
S1131C8083EC99E00197F1F700C000008091620BAA
S1131C909091630BA091640BB091650B0196A11D0B
S1131CA0B11D8093620B9093630BA093640BB0936C
S1131CB0650B20CF87EE93E054D860E070E080E0BD
S1131CC090E0CCDB80E090E0DF91CF911F910F9109
S1131CD0FF90EF90DF90CF90BF90AF909F908F9048
S1131CE07F906F9008950CD0EBC0E3D040F0DAD031
S1131CF030F021F45F3F19F0CCC0511115C1CFC0B1
S1131D00F0D098F39923C9F35523B1F3951B550BE0
S1131D10BB27AA2762177307840738F09F5F5F4FBA
S1131D20220F331F441FAA1FA9F333D00E2E3AF0FB
S1131D30E0E830D091505040E695001CCAF729D015
S1131D40FE2F27D0660F771F881FBB1F2617370764
S1131D504807AB07B0E809F0BB0B802DBF01FF2794
S1131D6093585F4F2AF09E3F510568F092C0DCC043
S1131D705F3FECF3983EDCF3869577956795B795CE
S1131D80F7959F5FC9F7880F911D9695879597F9E9
S1131D900895E1E0660F771F881FBB1F6217730762
S1131DA08407BA0720F0621B730B840BBA0BEE1F77
S1131DB088F7E095089504D06894B111B5C00895EA
S1131DC098D088F09F5790F0B92F9927B751A0F079
S1131DD0D1F0660F771F881F991F1AF0BA95C9F7BB
S1131DE012C0B13081F09FD0B1E008959CC0672F3C
S1131DF0782F8827B85F39F0B93FCCF3869577956B
S1131E006795B395D9F73EF4909580957095619553
S1131E107F4F8F4F9F4F0895E89409C097FB3EF47E
S1131E2090958095709561957F4F8F4F9F4F992323
S1131E30A9F0F92F96E9BB279395F69587957795A1
S1131E406795B795F111F8CFFAF4BB0F11F460FF61
S1131E501BC06F5F7F4F8F4F9F4F16C0882311F0B9
S1131E6096E911C0772321F09EE8872F762F05C0CD
S1131E70662371F096E8862F70E060E02AF09A9568
S1131E80660F771F881FDAF7880F9695879597F95D
S1131E90089597F99F6780E870E060E008959FEFE8
S1131EA080EC089500240A941616170618060906ED
S1131EB0089500240A9412161306140605060895BC
S1131EC0092E0394000C11F4882352F0BB0F40F444
S1131ED0BF2B11F460FF04C06F5F7F4F8F4F9F4F84
S1131EE0089557FD9058440F551F59F05F3F71F006
S1131EF04795880F97FB991F61F09F3F79F087956D
S1131F000895121613061406551FF2CF4695F1DFF5
S1131F1008C0161617061806991FF1CF8695710585
S1131F20610508940895E894BB2766277727CB01B9
S1131F3097F908950BD0C4CFB5DF28F0BADF18F0B5
S1131F40952309F0A6CFABCF1124EECFCADFA0F3BF
S1131F50959FD1F3950F50E0551F629FF001729F3A
S1131F60BB27F00DB11D639FAA27F00DB11DAA1F59
S1131F70649F6627B00DA11D661F829F2227B00DA6
S1131F80A11D621F739FB00DA11D621F839FA00D31
S1131F90611D221F749F3327A00D611D231F849F81
S1131FA0600D211D822F762F6A2F11249F575040D8
S1131FB08AF0E1F088234AF0EE0FFF1FBB1F661F73
S1131FC0771F881F91505040A9F79E3F510570F02C
S1131FD060CFAACF5F3FECF3983EDCF3869577950C
S1131FE06795B795F795E7959F5FC1F7FE2B880F27
S1131FF0911D9695879597F9089503D008F481E08B
S11320000895990F0008550FAA0BE0E8FEEF161685
S11320101706E807F907C0F012161306E407F507D8
S113202098F0621B730B840B950B39F40A2661F04C
S1132030232B242B252B21F408950A2609F4A140EF
S1132040A6958FEF811D811D0895DBDF08F48FEFC6
S1132050089597FB072E16F4009406D077FD08D058
S11320600BD007FC05D03EF4909581959F4F0895C1
S1132070709561957F4F0895AA1BBB1B51E107C062
S1132080AA1FBB1FA617B70710F0A61BB70B881F04
S1132090991F5A95A9F780959095BC01CD01089593
S11320A0FC0188279927E89421912032E9F329300B
S11320B010F02E30C8F32B3239F02D3231F46894FD
S11320C003C035D0820F911D219120532A30C8F3CB
S11320D01EF4909581959F4F08954AE05BE000C0FF
S11320E0FA01A191B081009719F41097E1F0CD01A4
S11320F0DC01CD010D90002011F4C00113C0FB01DF
S11321002191222319F02015D9F7F3CFFB01219156
S1132110201519F41E92119606C02223C1F70D90C2
S11321200020A1F7D001FA01A193B08308957AE0C9
S1132130979F902D879F802D910D112408950F93C3
S11321401F93CF93DF93EC018B01009731F461155A
S1132150710519F480E090E037C06EE070E081E032
S113216090E0A1D2FC010097A9F380E883830115D4
S1132170110571F01387028781E883838091240C11
S11321809091250C892B21F4F093250CE093240CD9
S11321902097C9F0D187C08783818260838380912F
S11321A0260C9091270C892B71F4F093270CE09363
S11321B0260C8091280C9091290C892B21F4F09302
S11321C0290CE093280CCF01DF91CF911F910F913F
S11321D00895CF93DF93EC012B8120FF33C026FFBA
S11321E00AC02F7B2B838E819F8101969F838E83D0
S11321F08A8190E029C022FF0FC0E881F9818081A3
S1132200992787FD9095009719F420622B831AC0B3
S11322103196F983E8830EC0EA85FB85199597FF0B
S113222009C02B81019611F480E101C080E2822B68
S11322308B8308C02E813F812F5F3F4F3F832E83C6
S1132240992702C08FEF9FEFDF91CF910895CF932D
S1132250DF93CDB7DEB7FE01369661917191AF0180
S11322608091260C9091270C30D0DF91CF91089566
S11322700F931F93CF93DF93E091260CF091270CDB
S1132280238121FF1BC0EC0100E010E089916091E3
S1132290260C7091270CDB011896ED91FC9119978F
S11322A0882331F01995892B89F30FEF1FEFEECFB7
S11322B08AE01995892B11F4C80102C08FEF9FEFB2
S11322C0DF91CF911F910F9108952F923F924F92DA
S11322D05F926F927F928F929F92AF92BF92CF92B2
S11322E0DF92EF92FF920F931F93CF93DF93CDB7BB
S11322F0DEB72C970FB6F894DEBF0FBECDBF7C01BE
S11323006B018A01FC0117821682838181FFB0C1AF
S1132310CE0101964C01F7019381F60193FD85915D
S113232093FF81916F01882309F49EC1853239F4AA
S113233093FD859193FF81916F01853221F4B7015B
S113234090E00FD3E8CF512C312C20E02032A0F4C0
S11323508B3269F030F4803259F0833269F42061B1
S11323602CC08D3239F0803339F4216026C02260CC
S1132370246023C0286021C027FD27C030ED380F1A
S11323803A3078F426FF06C0FAE05F9E300D11243F
S1132390532E13C08AE0389E300D1124332E206250
S11323A00CC08E3221F426FD5FC1206406C08C3639
S11323B011F4206802C0883641F4F60193FD85913A
S11323C093FF81916F018111C1CF982F9F7D955407
S11323D0933028F40C5F1F4FFFE3F9830DC083365D
S11323E031F0833771F0833509F057C021C0F8010B
S11323F0808189830E5F1F4F44244394512C5401E0
S113240014C03801F2E06F0E711CF801A080B18095
S113241026FF03C0652D70E002C06FEF7FEFC5019A
S11324202C8794D22C0183012C852F77222E16C061
S11324303801F2E06F0E711CF801A080B18026FF14
S113244003C0652D70E002C06FEF7FEFC5012C87DC
S11324506BD22C012C852068222E830123FC19C009
S1132460832D90E048165906A0F4B70180E290E06D
S113247078D23A94F5CFF50127FC859127FE819116
S11324805F01B70190E06DD231103A94F1E04F1A38
S113249051084114510479F7DEC0843611F08936AD
S11324A031F5F80127FF07C0608171818281938132
S11324B00C5F1F4F08C060817181882777FD80956C
S11324C0982F0E5F1F4F2F76B22E97FF09C090955D
S11324D08095709561957F4F8F4F9F4F2068B22EE6
S11324E02AE030E0A4016FD2A82EA81843C0853793
S11324F029F42F7EB22E2AE030E025C0F22FF97F96
S1132500BF2E8F36C1F018F4883579F0ADC080370E
S113251019F0883721F0A8C02F2F2061B22EB4FE05
S11325200DC08B2D8460B82E09C024FF0AC09F2FD4
S11325309660B92E06C028E030E005C020E130E006
S113254002C020E132E0F801B7FE07C0608171816A
S1132550828193810C5F1F4F06C06081718180E08E
S113256090E00E5F1F4FA4012ED2A82EA818FB2DB9
S1132570FF77BF2EB6FE0BC02B2D2E7FA51450F473
S1132580B4FE0AC0B2FC08C02B2D2E7E05C07A2CE6
S11325902B2D03C07A2C01C0752C24FF0DC0FE0125
S11325A0EA0DF11D8081803311F4297E09C022FFD8
S11325B006C07394739404C0822F867809F07394D0
S11325C023FD12C020FF06C05A2C731418F4530CB8
S11325D05718732C731460F4B70180E290E02C87D1
S11325E0C0D173942C85F6CF731410F4371801C03E
S11325F0312C24FF11C0B70180E390E02C87B1D1C6
S11326002C8522FF16C021FF03C088E590E002C09C
S113261088E790E0B7010CC0822F867851F021FD45
S113262002C080E201C08BE227FD8DE2B70190E099
S113263098D1A51430F4B70180E390E092D15A9474
S1132640F8CFAA94F401EA0DF11D8081B70190E05E
S113265088D1A110F6CF332009F45DCEB70180E212
S113266090E07FD13A94F7CFF7018681978102C039
S11326708FEF9FEF2C960FB6F894DEBF0FBECDBF41
S1132680DF91CF911F910F91FF90EF90DF90CF904A
S1132690BF90AF909F908F907F906F905F904F907E
S11326A03F902F9008950F931F93CF93DF93869FAE
S11326B08001879F100D969F100D1124C8010DD025
S11326C0EC01009721F0A80160E070E038D1CE0160
S11326D0DF91CF911F910F910895CF93DF938230B3
S11326E0910510F482E090E0E0912C0CF0912D0C17
S11326F020E030E0A0E0B0E0309739F14081518132
S113270048175907B8F04817590771F48281938123
S1132710109729F013969C938E9312972CC0909344
S11327202D0C80932C0C27C02115310531F0421754
S1132730530718F0A901DB0101C0EF019A01BD01A3
S1132740DF010280F381E02DD7CF21153105F9F0A7
S1132750281B390B2430310580F48A819B81611553
S1132760710521F0FB019383828304C090932D0CA7
S113277080932C0CFE01329644C0FE01E20FF31F3D
S11327808193919322503109398328833AC020914F
S11327902A0C30912B0C232B41F42091040230910C
S11327A0050230932B0C20932A0C209102023091C5
S11327B003022115310541F42DB73EB740910602BD
S11327C050910702241B350BE0912A0CF0912B0C3D
S11327D0E217F307A0F42E1B3F0B2817390778F0F4
S11327E0AC014E5F5F4F2417350748F04E0F5F1F53
S11327F050932B0C40932A0C8193919302C0E0E0F8
S1132800F0E0CF01DF91CF910895CF93DF9300974C
S113281009F487C0FC01329713821282C0912C0CF8
S1132820D0912D0C209781F420813181280F391FFC
S113283080912A0C90912B0C8217930779F5F093D1
S11328402B0CE0932A0C6DC0DE0120E030E0AE17C3
S1132850BF0750F412964D915C9113979D01411559
S1132860510509F1DA01F3CFB383A2834081518189
S1132870840F951F8A179B0771F48D919C91119772
S1132880840F951F02969183808312968D919C915B
S11328901397938382832115310529F4F0932D0C2A
S11328A0E0932C0C3EC0D9011396FC93EE9312973F
S11328B04D915D91A40FB51FEA17FB0779F4808150
S11328C09181840F951F0296D90111969C938E9342
S11328D08281938113969C938E931297E0E0F0E0AB
S11328E08A819B81009719F0FE01EC01F9CFCE019A
S11328F0029628813981820F931F20912A0C3091EE
S11329002B0C2817390769F4309729F410922D0CF1
S113291010922C0C02C013821282D0932B0CC09301
S11329202A0CDF91CF910895FC010590615070400D
S11329300110D8F7809590958E0F9F1F0895DC01A4
S113294001C06D9341505040E0F70895FC0161507F
S1132950704001900110D8F7809590958E0F9F1FBD
S113296008950F931F93CF93DF93182F092FEB0133
S11329708B8181FD03C08FEF9FEF20C082FF10C0C9
S11329804E815F812C813D81421753077CF4E8819D
S1132990F9819F012F5F3F4F39832883108306C03D
S11329A0E885F985812F1995892B29F72E813F8197
S11329B02F5F3F4F3F832E83812F902FDF91CF9145
S11329C01F910F910895FA01AA27283051F120315F
S11329D081F1E8946F936E7F6E5F7F4F8F4F9F4FAF
S11329E0AF4FB1E03ED0B4E03CD0670F781F891FF1
S11329F09A1FA11D680F791F8A1F911DA11D6A0FBF
S1132A00711D811D911DA11D20D009F468943F9171
S1132A102AE0269F11243019305D3193DEF6CF0170
S1132A200895462F4770405D4193B3E00FD0C9F736
S1132A30F6CF462F4F70405D4A3318F0495D31FDA3
S1132A404052419302D0A9F7EACFB4E0A6959795F6
S1132A50879577956795BA95C9F7009761057105CC
S1132A6008959B01AC010A2E069457954795379516
S1132A702795BA95C9F7620F731F841F951FA01D70
S1092A800895F894FFCF55
S1132A86010000002E0C20000100FFFF0100E803F6
S1132A960A000000010003000A0003000A00030004
S1132AA60A0003000A0003000A0003000A000300E8
S1132AB60A0003000A000000010092028E0280024E
S1132AC66E0262025602480206000A000B000C005F
S1132AD60D000E000F00050023002400250026002B
S1132AE6270005001E001F00200021002200080008
S1132AF616001700180019001A001B001C001D0000
S1132B060600100011001200130014001500010045
S1132B16010001000000CD0000023203000232036E
S1132B260002CD0000026400CD0000023203000260
S1132B3632030002CD0000026400CD00000232031D
S1132B46000232030002CD0000026400CD00000240
S1132B563203000232030002CD0000026400CD00FD
S1132B6600023203000232030002CD0000026400B8
S1132B76CD0000023203000232030002CD0000023F
S1132B866400CD0000023203000232030002CD00CD
S1132B9600026400CD000002320300023203000288
S1132BA6CD0000026400CD000002320300023203AD
S1132BB60002CD0000026400CD00000232030002D0
S1132BC632030002CD0000026400CD00000232038D
S1132BD6000232030002CD0000026400CD000002B0
S1132BE63203000232030002CD0000026400CD006D
S1132BF600023203000232030002CD000002640028
S1132C06CD0000023203000232030002CD000002AE
S1132C166400CD0000023203000232030002CD003C
S1132C2600026400CD0000023203000232030002F7
S1132C36CD0000026400CD0000023203000232031C
S1132C460002CD0000026400CD000002320300023F
S1132C5632030002CD0000026400CD0000023203FC
S1132C66000232030002CD0000026400CD0000021F
S1132C763203000232030002CD0000026400CD00DC
S1132C8600023203000232030002CD000002640097
S1132C96CD0000023203000232030002CD0000021E
S1132CA664003301CC0232030002320300026600E0
S1132CB6330164003301CC0298030002CC02000203
S1132CC6660033016400CD000002320300023203C1
S1132CD60002CD0000026400CD00000232030002AF
S1132CE632030002CD0000026400CD000002CC02D3
S1132CF633019803CC02CD0000026400CD0000022B
S1132D06CC0233019803CC02CD00000264006600B5
S1132D16000232030002320300026600000264006D
S1132D26CD0000023203000232030002CD0000028D
S1132D366400CD0000023203000232030002CD001B
S1132D4600026400CD0000023203000232030002D6
S1132D56CD0000026400CD000002320300023203FB
S1132D660002CD0000026400CD000002320300021E
S1132D7632030002CD0000026400CD0000023203DB
S1132D86000232030002CD0000026400CD000002FE
S1132D963203000232030002CD0000026400CD00BB
S1132DA600023203000232030002CD000002640076
S1132DB6CD0000023203000232030002CD000002FD
S1132DC66400CD0000023203000232030002CD008B
S1132DD600026400CD000002320300023203000246
S1132DE6CD0000026400CD0000023203000232036B
S1132DF60002CD0000026400CD000002320300028E
S1132E0632030002CD0000026400CD00000232034A
S1132E16000232030002CD0000026400CD0000026D
S1132E263203000232030002CD0000026400CD002A
S1132E3600023203000232030002CD0000026400E5
S1132E46CD0000023203000232030002CD0000026C
S1132E566400CD0000023203000232030002CD00FA
S1132E6600026400CD0000023203000232030002B5
S1132E76CD0000026400CD000002320300023203DA
S1132E860002CD0000026400CD00000232030002FD
S1132E9632030002CD0000026400130004000E0099
S1132EA61100050007001000060023232320736584
S1132EB66E736F72496E69740025640A0A0025648C
S1132EC63A25642C25642C25642C25642C25642C35
S1132ED625642C25642C25642C25642C25642C253A
S1132EE6642C25640A0025643A25642C25642C2563
S1132EF6642C25642C25642C25642C25642C2564DB
S1132F062C25642C25642C25642C25642C25640A24
S1132F160025643B0A00496E70757420766F6C74E4
S1132F26616765206572726F722100416E676C6518
S1132F36206C696D6974206572726F7221004F7618
S1132F46657268656174206572726F7221004F75CF
S1132F5674206F662072616E6765206572726F7287
S1132F662100436865636B73756D206572726F72B9
S1132F7621004F7665726C6F6164206572726F72A0
S1132F862100496E737472756374696F6E20636F82
S1132F966465206572726F722100434F4D4D5F5414
S1132FA6584641494C3A204661696C6564207472FE
S1132FB6616E736D697420696E7374727563746976
S1132FC66F6E207061636B65742100434F4D4D5FD6
S1132FD654584552524F523A20496E636F72726585
S1132FE6637420696E737472756374696F6E20708E
S1132FF661636B65742100434F4D4D5F52584641E2
S1133006494C3A204661696C65642067657420738F
S11330167461747573207061636B65742066726F76
S11330266D206465766963652100434F4D4D5F529B
S11330365857414954494E473A204E6F7720726596
S113304663696576696E672073746174757320703D
S113305661636B65742100434F4D4D5F525854496B
S11330664D454F55543A205468657265206973205E
S11330766E6F20737461747573207061636B65740D
S11330862100434F4D4D5F5258434F5252555054B1
S11330963A20496E636F7272656374207374617447
S11330A67573207061636B657421005468697320BD
S11330B6697320756E6B6E6F776E206572726F72B0
S11330C620636F64652100232323206D6F74696F69
S11330D66E4E756D626572203D2025640A002323B9
S11330E623206D6F74696F6E436F756E74203E2076
S11330F66D61782E206D6F74696F6E436F756E7493
S11331063A25642C206D61783A25640A007265615B
S10D311664446174613D25730A00EE
S9030000FC
