S01700004763634170706C69636174696F6E312E737265635B
S113000065C0000084C0000082C0000080C0000001
S11300107EC000007CC000007AC0000078C00000F0
S113002076C0000074C0000072C0000070C0000000
S11300306EC000006CC000006AC0000068C0000010
S113004066C0000064C0000062C0000060C0000020
S11300505EC000005CC000005AC0000058C0000030
S113006056C0000024C4000052C0000050C000006C
S11300704EC000004CC000004AC0000048C0000050
S113008046C0000044C0000042C0000040C0000060
S113009013C500003CC000003AC0000038C0000096
S11300A036C0000034C0000032C0000030C0000080
S11300B02EC000002CC000002AC0000028C0000090
S11300C026C0000024C0000022C0000011241FBE6E
S11300D0CFEFD1E2DEBFCDBF00E00CBF18E0A0E05F
S11300E0B2E0E6E3FAE200E00BBF02C007900D9233
S11300F0A83CB107D9F72CE0A8ECB8E001C01D92E8
S1130100AE35B207E1F70E94290D0C94191578CF8A
S1130110809100029091010208958093CA08089585
S11301208093CC080895FC01E853F74F6583089544
S11301308093CB08089520E030E090916C099823D7
S113014011F021E030E0C901089580916B0990E03D
S11301500895FC01E859F64F858190E00895362F03
S113016020E0280F391FC9010895282F30E0C90164
S113017008958070892F90E008950F931F93CF9373
S1130180DF938091B0099091B109892B09F4B8C02B
S11301908091CA088E3F09F4A9C080910002909111
S11301A00102892B29F41092AF0986E08093AE09ED
S11301B08091AF0990E06091AE0970E0681B790B03
S11301C08859964F49D39091AF09980F9093AF09EE
S11301D08091AE09981718F44AD2019771F0709182
S11301E0AF09472F50E0DA0111978A0102501040FD
S11301F060E0ED01C859D64F18C08091AF0988233B
S113020009F071C086E090E073C0F901E859F64F37
S113021080818F3F19F481818F3F61F0201731076E
S113022019F488818F3F31F06F5F262F30E02A1751
S11302303B075CF36623A1F090E0421B530B08C01C
S1130240E859F64FDF01A20FB31F8C9180839F5FA3
S1130250E92FF0E0E417F5079CF3761B7093AF09E0
S11302602091AF098091AE09281728F19091CA080E
S113027080916A099817B9F560916B096C5F609376
S1130280AE09261788F4822F90E070E0681B790B82
S11302908859964FE1D29091AF09980F9093AF0986
S11302A08091AE09981738F080916B09A82FB0E0BF
S11302B020E090E00CC085E090E0909301028093F0
S11302C000021EC0E859F64F8281980F2F5FE22F7B
S11302D0F0E0AE17BF07B4F7A859B64F9095139640
S11302E08C91891719F087E090E002C081E090E0DA
S11302F090930102809300021092B1091092B00908
S1130300DF91CF911F910F9108951F938091B009B0
S11303109091B109019709F45DC081E090E0909358
S1130320B1098093B0098091CB08893940F4909148
S1130330CC08892F8150863028F0933819F084E056
S113034090E02FC08FEF8093C8088093C9088091F4
S1130350CB08A82FB0E020E090E005C0E853F74FA9
S11303608281980F2F5FE22FF0E0AE17BF07B4F73A
S1130370A853B74F909513969C9380910002909147
S113038001020697029708F438D11091CB081C5F3C
S113039088EC98E0612F70E035D1181759F082E0AD
S11303A090E090930102809300021092B1091092A0
S11303B0B00910C08091CC08823029F48091CE0815
S11303C090E0069602C086E090E040D110920102CF
S11303D0109200021F91089598DF8091000290917D
S11303E00102892B39F4C9DE809100029091010247
S11303F00597C9F30895282F8091B0099091B10908
S1130400892B91F42093CA0883E08093CC086093ED
S1130410CD08CA014093CE0880709093CF0885E040
S11304208093CB08D9CF0895FFCF282F8091B009AE
S11304309091B109892BB1F42093CA0882E080938A
S1130440CC086093CD088093CE0884E08093CB08D9
S1130450C3DF30916E0920E080916D09280F311DB2
S1130460C9010895FFCF282F8091B0099091B10957
S1130470892B71F42093CA0883E08093CC0860939D
S1130480CD084093CE0884E08093CB08A5CF08958F
S1130490FFCF282F8091B0099091B109892B91F455
S11304A02093CA0882E08093CC086093CD0881E051
S11304B08093CE0884E08093CB088EDF80916D0911
S11304C090E00895FFCF282F8091B0099091B10951
S11304D0892B51F42093CA0881E08093CC0882E0F0
S11304E08093CB0879CF0895FFCF86C008950F93EA
S11304F01F938C016F5F7F4F882777FD8095982F1E
S11305000E94E60E9B01AC0160E074E284EF99E482
S11305100E944B0EAB01BC01C80115D0892B19F404
S113052020E030E00CC081E090E0909301028093E1
S113053000021092B1091092B00921E030E0C90123
S11305401F910F910895EF92FF920F931F937A01D9
S11305508B0182E48093C00088E98093C10086E027
S11305608093C20060E074E284EF99E4A8019701EB
S11305700E944B0E0E94B80E615070407093C500EB
S11305806093C40060E074E284E799E4A8019701F1
S11305900E944B0E20E030E040E451E40E94720FD0
S11305A060934C0C70934D0C80934E0C90934F0CB5
S11305B020914C0C30914D0C40914E0C50914F0CAD
S11305C060E070E08AE793E40E944B0E0E94B80E4C
S11305D070934B0C60934A0C7298739A8FEF8093CC
S11305E0C6001092B20A1092B30A81E090E01F9103
S11305F00F91FF90EF90089508958091B30A80932E
S1130600B20A0895AC01F8947398729A20E030E02D
S113061011C08091C00085FFFCCF8091C000806430
S11306208093C000FA01E20FF31F80818093C6001B
S11306302F5F3F4F2617370764F38091C00086FF72
S1130640FCCF7298739A7894C90108951092530C50
S11306501092520C20914A0C30914B0C265F3F4F64
S1130660280F391F3093510C2093500C0895AF92EA
S1130670BF92CF92DF92EF92FF920F931F938091DC
S1130680520C9091530C01969093530C8093520CFE
S11306902091520C3091530C8091500C9091510C3C
S11306A08217930718F421E030E074C0A0904C0C3A
S11306B0B0904D0CC0904E0CD0904F0CC601B501BB
S11306C02BEA3AEA4AEA50E40E94720F7B018C0159
S11306D020E030E040E85FE30E94D50F882314F463
S11306E061E054C0C801B70120E030E04FE753E4B3
S11306F00E94FD0F18160CF045C0C601B50120E09C
S113070030E04AE754E40E944B0E5B016C0120E0A8
S113071030E04AE755E40E94720F7B018C0120E02F
S113072030E040E85FE30E94D50F88231CF461E0C9
S113073070E024C0C801B70120E03FEF4FE757E461
S11307400E94FD0F1816B4F4C601B50120E030E094
S113075040E251E40E94720F0E94B80E80E991E0D9
S113076005C0FC013197F1F76150704061157105C6
S1130770C1F70EC0C801B7010E94B80ECB010197A2
S1130780F1F706C0C801B7010E94B80E6A95F1F7E7
S113079020E030E0C9011F910F91FF90EF90DF90AE
S11307A0CF90BF90AF9008959091B20A8091B30A10
S11307B0981719F420E030E017C09091B20A8091A4
S11307C0B30A981738F48091B30A9091B20A282F8B
S11307D030E008C08091B30A9091B20A282F30E02B
S11307E020503F4F291B3109C90108951F93182F29
S11307F0DBDF8F3F910591F0E091B30AF0E0EE5416
S1130800F64F10838091B30A8F3F19F41092B30A04
S113081005C08091B30A8F5F8093B30A1F91089536
S11308209091B20A8091B30A981711F4EFEF12C0B5
S1130830E091B20AF0E0EE54F64FE0818091B20A02
S11308408F3F19F41092B20A05C08091B20A8F5FEB
S11308508093B20A8E2F0895EF92FF920F931F9305
S1130860CF93DF937C01EB019091B20A8091B30A9C
S1130870981719F400E010E012C096DF8C01C81735
S1130880D9070CF48E01C0E0D0E006C0C9DFF7013F
S1130890EC0FFD1F80832196C017D107BCF3C8015C
S11308A0DF91CF911F910F91FF90EF9008951F92C8
S11308B00F920FB60F920BB60F9211242F933F9302
S11308C04F935F936F937F938F939F93AF93BF9354
S11308D0EF93FF938091C60089DFFF91EF91BF9161
S11308E0AF919F918F917F916F915F914F913F91C4
S11308F02F910F900BBE0F900FBE0F901F90189565
S1130900AC0120E030E00CC08091C80085FFFCCF32
S1130910FA01E20FF31F80818093CE002F5F3F4FD7
S1130920261737078CF30895DC019091340B8091DE
S1130930350B981711F480E008959091340B809151
S1130940350B981719F420E030E017C09091340B60
S11309508091350B981738F48091350B9091340BB6
S1130960282F30E008C08091350B9091340B282F4C
S113097030E020583F4F291B3109A9016217730742
S11309800CF4AB0120E030E020C09091340B809156
S1130990350B981711F49FEF12C0E091340BF0E07F
S11309A0EC54F54F90818091340B8F3719F41092E9
S11309B0340B05C08091340B8F5F8093340BFD01A1
S11309C0E20FF31F90832F5F3F4F24173507ECF29C
S11309D0842F08959091340B8091350B981719F456
S11309E020E030E017C09091340B8091350B9817BC
S11309F038F48091350B9091340B282F30E008C0E7
S1130A008091350B9091340B282F30E020583F4FC4
S1130A10291B3109C9010895482F9091340B809105
S1130A20350B9817D1F09091340B8091350B9817B2
S1130A3038F48091350B9091340B282F30E008C0A6
S1130A408091350B9091340B282F30E020583F4F84
S1130A50291B31092F37310591F0E091350BF0E076
S1130A60EC54F54F40838091350B8F3719F4109275
S1130A70350B08958091350B8F5F8093350B089566
S1130A809091340B8091350B981711F4EFEF12C04D
S1130A90E091340BF0E0EC54F54FE0818091340B9D
S1130AA08F3719F41092340B05C08091340B8F5F8B
S1130AB08093340B8E2F08951F920F920FB60F92CE
S1130AC00BB60F9211242F933F934F935F936F9321
S1130AD07F938F939F93AF93BF93EF93FF938091F3
S1130AE0CE009ADFFF91EF91BF91AF919F918F91CB
S1130AF07F916F915F914F913F912F910F900BBE1A
S1130B000F900FBE0F901F901895DF93CF930F9205
S1130B100F92CDB7DEB7982F8A3099F48DE0898390
S1130B209A83FE0131969E012D5F3F4F8091C8004C
S1130B3085FFFCCF81918093CE00E217F307B1F7D4
S1130B4006C08091C80085FFFCCF9093CE0080E062
S1130B5090E00F900F90CF91DF9108959091340B16
S1130B608091350B9817D1F39091340B8091350B0C
S1130B70981738F48091350B9091340B282F30E07E
S1130B8008C08091350B9091340B282F30E0205809
S1130B903F4F291B3109232B09F39091340B80918A
S1130BA0350B981711F4EFEF15C0E091340BF0E01A
S1130BB0EC54F54FE0818091340B8F3719F4109287
S1130BC0340B05C08091340B8F5F8093340BED3070
S1130BD009F4EAE08E2F90E008950E94E60E9B014E
S1130BE0AC0160E074E284EF99E40E944B0E0E9431
S1130BF0B80E6150704022E42093C80028E9209385
S1130C00C90026E02093CA002FEF2093CE00109253
S1130C10340B1092350B272F332727FD3A95209359
S1130C20CD006093CC007298739A85E895E06EEAE3
S1130C3075E00E9477109093370B8093360B0895DC
S1130C4060E071EE80E090E0C8DF78940895C2DE41
S1130C50181619060CF03FC08091540C9091550C55
S1130C600E94C1108A3011F08D3091F480918A0B6A
S1130C7090918B0B181619068CF510928B0B109211
S1130C808A0B81E090E090938D0B80938C0B0895F8
S1130C90882339F120918A0B30918B0BA9014F5F86
S1130CA05F4F50938B0B40938A0BF901E65CF44F32
S1130CB0808380918A0B90918B0B8F349105A4F0E3
S1130CC010928B0B10928A0B81E090E090938D0B25
S1130CD080938C0B089580E090E0089580E090E08C
S1130CE0089580E090E0089580E090E00895809178
S1130CF08C0B90918D0B181619063CF410928D0BE9
S1130D0010928C0B8AE39BE0089580E090E00895B4
S1130D1088E296E00E94101160E071EE80E090E0BD
S1130D205CDF789486E880937A0081E080937C008D
S1130D3008951798EAE7F0E08081806180838081DC
S1130D4080648083808184FFFDCF8EEF82B980919F
S1130D507800909179009F938F9387E396E09F9317
S1130D608F930E94FF100F900F900F900F90089593
S1130D709F938F9382E596E09F938F930E94FF1039
S1130D800F900F900F900F90089561E070E080E055
S1130D9090E0ADDB41E050E06FE270E08FE190E085
S1130DA02ADB40E050E060E270E08EEF90E023DB6D
S1130DB040E050E068E170E08EEF90E054DB2FE318
S1130DC08DE093E0215080409040E1F700C00000A6
S1130DD008950F931F93CF93DF9300D0CDB7DEB761
S1130DE020E23CE240E029833A834B83BE016F5FFB
S1130DF07F4F0E944510009789F00AEA1BE00E9489
S1130E002810F801819391938F01BE016F5F7F4F8A
S1130E1080E090E00E944510009789F70F900F90B2
S1130E200F90DF91CF911F910F91089580919C0BAA
S1130E3090919D0B0A9690939D0B80939C0B20910F
S1130E409A0B30919B0B821793073CF010929D0BE9
S1130E5010929C0B80E090E0089581E090E008956A
S1130E60A091AC0BB091AD0BA233B105C4F4EEEA82
S1130E70FBE0AA0FBB1FCD01880F991F880F991F94
S1130E80880F991FA80FB91FAC56BD4F20EC3BE04B
S1130E90819191918D939D93E217F307C9F708957A
S1130EA0CF92DF92EF92FF920F931F93CF93DF9332
S1130EB0CDB7DEB760970FB6F894DEBF0FBECDBFD7
S1130EC0FE01319680E1DF011D928A95E9F708E180
S1130ED016E07F010F2EF8E2CF2EF6E0DF2EF02D84
S1130EE064E270E0F801819191918F019EDAD7015B
S1130EF08D939D937D010C151D0591F7888D8F931E
S1130F008F898F938E898F938D898F938C898F93FB
S1130F108B898F938A898F9389898F9388898F93FB
S1130F208F858F938E858F938D858F938C858F93EB
S1130F308B858F938A858F9389858F9388858F93EB
S1130F408F818F938E818F938D818F938C818F93DB
S1130F508B818F938A818F9389818F931F9282E0F3
S1130F608F9387E596E09F938F930E94FF100FB6AF
S1130F70F894DEBF0FBECDBF60960FB6F894DEBF07
S1130F800FBECDBFDF91CF911F910F91FF90EF90D6
S1130F90DF90CF9008959C01220F331FF901EE0FCB
S1130FA0FF1FEE0FFF1FEE0FFF1FE20FF31FEC56A4
S1130FB0FD4F218D2F93208D2F9327892F932689E1
S1130FC02F9325892F9324892F930196DC01AA0F4F
S1130FD0BB1FCD01880F991F880F991F880F991F78
S1130FE0A80FB91FAC56BD4F11968C9111978F93D2
S1130FF08C918F9381898F9380898F9387858F9329
S113100086858F9385858F9384858F9383858F932E
S113101082858F9381858F9380858F9387818F932A
S113102086818F9385818F9384818F9383818F931E
S113103082818F9381818F9380818F931F9283E02C
S11310408F938FE796E09F938F930E94FF108DB745
S11310509EB74E960FB6F8949EBF0FBE8DBF0895EF
S1131060CF92DF92EF92FF920F931F93CF93DF9370
S1131070CDB7DEB760970FB6F894DEBF0FBECDBF15
S1131080FE01319680E1DF011D928A95E9F708E1BE
S113109016E07F010F2EF8E2CF2EF6E0DF2EF02DC2
S11310A068E270E0F801819191918F01BED9D70176
S11310B08D939D937D010C151D0591F7888D8F935C
S11310C08F898F938E898F938D898F938C898F933A
S11310D08B898F938A898F9389898F9388898F933A
S11310E08F858F938E858F938D858F938C858F932A
S11310F08B858F938A858F9389858F9388858F932A
S11311008F818F938E818F938D818F938C818F9319
S11311108B818F938A818F9389818F931F9284E02F
S11311208F9387E596E09F938F930E94FF100FB6ED
S1131130F894DEBF0FBECDBF60960FB6F894DEBF45
S11311400FBECDBFDF91CF911F910F91FF90EF9014
S1131150DF90CF900895CF92DF92EF92FF920F939A
S11311601F93CF93DF93CDB7DEB760970FB6F89494
S1131170DEBF0FBECDBFFE01319680E1DF011D92BF
S11311808A95E9F708E116E07F010F2EF8E2CF2EE9
S1131190F6E0DF2EF02D6AE270E0F8018191919182
S11311A08F0143D90E94B500D7018D939D937D0192
S11311B00C151D0581F7888D8F938F898F938E89E8
S11311C08F938D898F938C898F938B898F938A8941
S11311D08F9389898F9388898F938F858F938E8539
S11311E08F938D858F938C858F938B858F938A8531
S11311F08F9389858F9388858F938F818F938E8129
S11312008F938D818F938C818F938B818F938A8120
S11312108F9389818F931F9285E08F9387E596E062
S11312209F938F93ECD70FB6F894DEBF0FBECDBF5C
S113123060960FB6F894DEBF0FBECDBFDF91CF919D
S11312401F910F91FF90EF90DF90CF9008959093AE
S1131250990B8093980B7093970B6093960B209146
S11312609E0B30919F0B232B61F49093A10B8093E1
S1131270A00B70939F0B60939E0B1092970B109290
S1131280960B089580919E0B90919F0B181619064A
S11312900CF450C08091A80B9091A90B019709F010
S11312A049C08091900B9091910B892BD1F4E091DE
S11312B0A20BF091A30BEE0FFF1FEE0FFF1FE25FD7
S11312C0FD4F80819181029761F461E070E081E0DB
S11312D090E0BDDF81E090E09093910B8093900BC0
S11312E008951092910B1092900BE091A20BF09143
S11312F0A30BEE0FFF1FEE0FFF1FE25FFD4F628196
S1131300738180819181A3DF8091A20B9091A30BC3
S113131001969093A30B8093A20B2091100230911D
S113132011022817390734F481E090E09093A30B5D
S11313308093A20B08959093A10B8093A00B7093BC
S11313409F0B60939E0B1092970B1092960B81E06B
S113135090E090930D0280930C0210929D0B1092DA
S11313609C0B089581E090E090930D0280930C0211
S113137010929F0B10929E0B10929D0B10929C0B3F
S11313808FEF9FEF90930B0280930A02089581E000
S113139090E00E949B00019719F48FEA96E040D7F1
S11313A082E090E00E949B00019719F484EC96E09F
S11313B037D784E090E00E949B00019719F487EDF1
S11313C096E02ED788E090E00E949B00019719F4E4
S11313D087EE96E025D780E190E00E949B0001977C
S11313E019F48BEF96E01CD780E290E00E949B00FA
S11313F0019719F48BE097E013D780E490E00E9402
S11314009B00019719F48BE197E00AC70895843093
S1131410910591F034F48230910551F0039781F0F5
S11314201FC086309105A1F07CF00797A9F018C081
S113143083E397E0F5C6089584E697E0F1C608953E
S113144080E997E0EDC6089583EC97E0E9C6089536
S113145080EF97E0E5C608958BE198E0E1C6089532
S113146084E498E0DDC608950F931F93CF93DF9330
S11314708C01EB018EEF90E00E948D0083E890E0F8
S11314800E94900060E270E080E090E00E9493008F
S113149062E070E081E090E00E949300B80182E095
S11314A090E00E949300CE010E94B500BC0183E04D
S11314B090E00E949300CE010E94B900BC0184E038
S11314C090E00E94930087E090E00E9498000E94C0
S11314D0EC010E9488008130910511F458DF01C0AD
S11314E096DFDF91CF911F910F9108952F923F9234
S11314F04F925F926F927F928F929F92AF92BF9220
S1131500CF92DF92EF92FF920F931F93CF93DF93CB
S1131510CDB7DEB7AA970FB6F894DEBF0FBECDBF26
S11315209EA38DA3C2970CF078C1FE01319680E191
S1131530DF011D928A95E9F78DA19EA1880F991F5D
S11315409C01220F331F220F331F220F331F820FE0
S1131550931F9C012C563D4F38A72FA36E2E7F2E30
S11315600F2EF8E28F2EF6E09F2EF02D7F016901F9
S113157008E116E0A12CB12C64E270E0D8018D9151
S11315809D918D010E941502F601219131916F0107
S1131590A901481B590BCA01992324F0D7014D9383
S11315A05C9306C0919581959109F701918380839D
S11315B0D7018D919D917D01A816B9060CF45C01AB
S11315C008151905C9F68E010F5E1F4F80E1F80159
S11315D011928A95E9F784E690E09A8B898B8DA124
S11315E09EA1880F991FFC01EE0FFF1FEE0FFF1F36
S11315F0EE0FFF1F8E0F9F1FFC01EC56FD4F6089FD
S11316007189882777FD8095982FE0D36B017C0141
S113161009A71AA71AA309A31801062D172D450116
S1131620AA2497FCA094BA2CD801ED91FD918D01C8
S1131630FCA3EBA3C501B401C9D32B013C012BA12D
S11316403CA1B901882777FD8095982FBFD3A301CA
S1131650920121D39B01AC01C701B60143D483D3CA
S11316606115710521F0D1016D937C9305C021E0D2
S113167030E0F1013183208332E0230E311C49A193
S11316805AA10417150781F68DA19EA1880F991FF1
S1131690FC01EE0FFF1FEE0FFF1FEE0FFF1F8E0F5B
S11316A09F1FFC01EC56FD4F608971898BEF93E11C
S11316B0A8D4882777FD8095982F88D39B01AC0107
S11316C0C301B2010FD44FD36A3071052CF070936B
S11316D09B0B60939A0B06C08AE090E090939B0B5F
S11316E080939A0B8EEF90E00E948D0083E890E047
S11316F00E94900060E270E080E090E00E9493001D
S113170062E070E081E090E00E949300C9A4DAA452
S11317100F2EF8E1AF2EF6E0BF2EF02D02E010E020
S1131720D5016D917D915D01C8010E949300F60180
S1131730E190F1906F01C7010E94B500BC01C8019E
S113174001960E949300C7010E94B900BC01C80120
S113175002960E9493000D5F1F4F0A31110501F795
S11317608CE190E00E9498000E94EC010E948800A5
S11317708130910509F050C00ADE8EEF90E00E949E
S11317808D0083E890E00E9490006EE170E080E0BC
S113179090E00E94930062E070E081E090E00E949B
S11317A09300EFA0F8A40F2EF8E1CF2EF6E0DF2E81
S11317B0F02D02E010E0D6016D917D916D01C8011C
S11317C00E9493005701F701819191917F010E943A
S11317D0B500BC01C80101960E949300D5018D910A
S11317E09C910E94B900BC01C80102960E9493001A
S11317F00D5F1F4F0A311105F1F68CE190E00E9454
S113180098000E94EC010E9488008130910511F437
S1131810BEDD03C0FCDD01C0FADDAA960FB6F89464
S1131820DEBF0FBECDBFDF91CF911F910F91FF900F
S1131830EF90DF90CF90BF90AF909F908F907F906C
S11318406F905F904F903F902F90089548990EC0ED
S11318508091A60B9091A70B892B09F050C081E0D1
S113186090E09093A70B8093A60B08958091A60B0C
S11318709091A70B019709F042C01092A70B109208
S1131880A60B8091A80B9091A90B9C012F5F3F4F51
S11318903093A90B2093A80B26E030E0A901481B44
S11318A0590BCA01181619063CF08FE388B9109237
S11318B0A90B1092A80B0BC021E030E0A90102C0D3
S11318C0440F551F8A95E2F7CA01809588B94ADD0D
S11318D080E090E00BDE81E090E09093A30B809396
S11318E0A20B8091A80B9091A90B019741F48091D0
S11318F00E0290910F029093A50B8093A40B089570
S1131900CF93DF9380919E0B90919F0B181619062D
S11319100CF09CC08BDA892B09F098C08091780078
S11319209091790084369105B8F080918E0B909156
S11319308F0B892B89F482E090E09093A10B809324
S1131940A00B81E090E090939F0B80939E0B90936B
S11319508F0B80938E0B1DC080917800909179003D
S113196084369105B0F480918E0B90918F0B019782
S113197081F484E090E09093A10B8093A00B81E02C
S113198090E090939F0B80939E0B10928F0B10927C
S11319908E0B8091A00B9091A10BFC01EE0FFF1F09
S11319A0E65CFD4FC081D18129812F9328812F933B
S11319B09F938F9380E698E09F938F9320D4288100
S11319C0398180910C0290910D020F900F900F902D
S11319D00F900F900F9028173907ACF43F932F9373
S11319E09F938F9384E898E09F938F9308D481E02A
S11319F090E090930D0280930C020F900F900F9043
S1131A000F900F900F9080910D028F9380910C0294
S1131A108F9383EB98E09F938F93F1D380910C0283
S1131A2090910D02880F991FC80FD91F8881998141
S1131A305DDD80910C0290910D02019690930D0250
S1131A4080930C020F900F900F900F90DF91CF9125
S1131A5008958F929F92AF92BF92CF92DF92EF92AE
S1131A60FF920F931F93CF93DF938CEF81B98EEF87
S1131A7082B98FE787B98EE788B980E78AB981E1AF
S1131A808BB983D9DDD844D9CAEADBE00F2EF0E55F
S1131A90AF2EF02D0F2EFEEAEF2EFBE0FF2EF02DE1
S1131AA00CEA1BE00F2EFFED8F2EF02D0F2EF0EA27
S1131AB0BF2EF02D0F2EFFE79F2EF02D3AD9C6DE54
S1131AC0C6D8181619060CF082C011D96C010097FB
S1131AD009F47DC07ED9888199818630910509F405
S1131AE05CC094F48230910509F444C034F4009746
S1131AF001F1019709F440C062C08430910509F4F2
S1131B0048C00CF43AC047C08930910559F134F407
S1131B1087309105B1F0089701F151C08B309105E0
S1131B2009F450C00CF442C0873E934009F49CC0B1
S1131B3046C0F80180819181D9DC81E090E018D918
S1131B4041C0F70160817181F801808191817FDB5F
S1131B5088B881E090E00CD935C004DC81E090E0E5
S1131B6007D930C0F70160817181F80180819181CA
S1131B70E2DB28C095D926C073D9F8018081918110
S1131B808233910524F080E090E0F2D81BC003DAA0
S1131B9019C066DA17C0DFDA15C040E050E068E12A
S1131BA070E08EEF90E00E9433020CC01092920B12
S1131BB01092930B1092940B1092950B03C080E03B
S1131BC090E0D6D8F6012A2D11922A95E9F7FE0164
S1131BD02B2D11922A95E9F7019910C080910802E2
S1131BE090910902181619062CF510920902109208
S1131BF0080298B880E090E079DC1CC0809108026B
S1131C0090910902892B39F4469881E090E09093F1
S1131C100902809308028091A40B9091A50B1816D9
S1131C2019061CF02FDB6CDE05C00A979093A50BF8
S1131C308093A40B83EC99E00197F1F700C00000B6
S1131C408091920B9091930BA091940BB091950B72
S1131C500196A11DB11D8093920B9093930BA093B9
S1131C60940BB093950B2ACF87EE93E081D860E074
S1131C7070E080E090E0F8DB80E090E0DF91CF91CD
S1131C801F910F91FF90EF90DF90CF90BF90AF9096
S1131C909F908F9008950CD0EBC0E3D040F0DAD041
S1131CA030F021F45F3F19F0CCC0511115C1CFC001
S1131CB0F0D098F39923C9F35523B1F3951B550B31
S1131CC0BB27AA2762177307840738F09F5F5F4F0B
S1131CD0220F331F441FAA1FA9F333D00E2E3AF04C
S1131CE0E0E830D091505040E695001CCAF729D066
S1131CF0FE2F27D0660F771F881FBB1F26173707B5
S1131D004807AB07B0E809F0BB0B802DBF01FF27E4
S1131D1093585F4F2AF09E3F510568F092C0DCC093
S1131D205F3FECF3983EDCF3869577956795B7951E
S1131D30F7959F5FC9F7880F911D9695879597F939
S1131D400895E1E0660F771F881FBB1F62177307B2
S1131D508407BA0720F0621B730B840BBA0BEE1FC7
S1131D6088F7E095089504D06894B111B5C008953A
S1131D7098D088F09F5790F0B92F9927B751A0F0C9
S1131D80D1F0660F771F881F991F1AF0BA95C9F70B
S1131D9012C0B13081F09FD0B1E008959CC0672F8C
S1131DA0782F8827B85F39F0B93FCCF386957795BB
S1131DB06795B395D9F73EF49095809570956195A4
S1131DC07F4F8F4F9F4F0895E89409C097FB3EF4CF
S1131DD090958095709561957F4F8F4F9F4F992374
S1131DE0A9F0F92F96E9BB279395F69587957795F2
S1131DF06795B795F111F8CFFAF4BB0F11F460FFB2
S1131E001BC06F5F7F4F8F4F9F4F16C0882311F009
S1131E1096E911C0772321F09EE8872F762F05C01D
S1131E20662371F096E8862F70E060E02AF09A95B8
S1131E30660F771F881FDAF7880F9695879597F9AD
S1131E40089597F99F6780E870E060E008959FEF38
S1131E5080EC089500240A9416161706180609063D
S1131E60089500240A94121613061406050608950C
S1131E70092E0394000C11F4882352F0BB0F40F494
S1131E80BF2B11F460FF04C06F5F7F4F8F4F9F4FD4
S1131E90089557FD9058440F551F59F05F3F71F056
S1131EA04795880F97FB991F61F09F3F79F08795BD
S1131EB00895121613061406551FF2CF4695F1DF46
S1131EC008C0161617061806991FF1CF86957105D6
S1131ED0610508940895E894BB2766277727CB010A
S1131EE097F908950BD0C4CFB5DF28F0BADF18F006
S1131EF0952309F0A6CFABCF1124EECFCADFA0F310
S1131F00959FD1F3950F50E0551F629FF001729F8A
S1131F10BB27F00DB11D639FAA27F00DB11DAA1FA9
S1131F20649F6627B00DA11D661F829F2227B00DF6
S1131F30A11D621F739FB00DA11D621F839FA00D81
S1131F40611D221F749F3327A00D611D231F849FD1
S1131F50600D211D822F762F6A2F11249F57504028
S1131F608AF0E1F088234AF0EE0FFF1FBB1F661FC3
S1131F70771F881F91505040A9F79E3F510570F07C
S1131F8060CFAACF5F3FECF3983EDCF3869577955C
S1131F906795B795F795E7959F5FC1F7FE2B880F77
S1131FA0911D9695879597F9089503D008F481E0DB
S1131FB00895990F0008550FAA0BE0E8FEEF1616D6
S1131FC01706E807F907C0F012161306E407F50729
S1131FD098F0621B730B840B950B39F40A2661F09D
S1131FE0232B242B252B21F408950A2609F4A14040
S1131FF0A6958FEF811D811D0895DBDF08F48FEF17
S1132000089597FB072E16F4009406D077FD08D0A8
S11320100BD007FC05D03EF4909581959F4F089511
S1132020709561957F4F0895AA1BBB1B51E107C0B2
S1132030AA1FBB1FA617B70710F0A61BB70B881F54
S1132040991F5A95A9F780959095BC01CD010895E3
S1132050FC0188279927E89421912032E9F329305B
S113206010F02E30C8F32B3239F02D3231F468944D
S113207003C035D0820F911D219120532A30C8F31B
S11320801EF4909581959F4F089548E35BE000C04E
S1132090FA01A191B081009719F41097E1F0CD01F4
S11320A0DC01CD010D90002011F4C00113C0FB012F
S11320B02191222319F02015D9F7F3CFFB012191A7
S11320C0201519F41E92119606C02223C1F70D9013
S11320D00020A1F7D001FA01A193B08308957AE01A
S11320E0979F902D879F802D910D112408950F9314
S11320F01F93CF93DF93EC018B01009731F46115AB
S1132100710519F480E090E037C06EE070E081E082
S113211090E0A1D2FC010097A9F380E88383011524
S1132120110571F01387028781E883838091540C31
S11321309091550C892B21F4F093550CE093540C99
S11321402097C9F0D187C08783818260838380917F
S1132150560C9091570C892B71F4F093570CE09323
S1132160560C8091580C9091590C892B21F4F093C2
S1132170590CE093580CCF01DF91CF911F910F912F
S11321800895CF93DF93EC012B8120FF33C026FF0A
S11321900AC02F7B2B838E819F8101969F838E8320
S11321A08A8190E029C022FF0FC0E881F9818081F3
S11321B0992787FD9095009719F420622B831AC004
S11321C03196F983E8830EC0EA85FB85199597FF5C
S11321D009C02B81019611F480E101C080E2822BB9
S11321E08B8308C02E813F812F5F3F4F3F832E8317
S11321F0992702C08FEF9FEFDF91CF910895CF937E
S1132200DF93CDB7DEB7FE01369661917191AF01D0
S11322108091560C9091570C30D0DF91CF91089556
S11322200F931F93CF93DF93E091560CF091570CCB
S1132230238121FF1BC0EC0100E010E08991609133
S1132240560C7091570CDB011896ED91FC9119977F
S1132250882331F01995892B89F30FEF1FEFEECF07
S11322608AE01995892B11F4C80102C08FEF9FEF02
S1132270DF91CF911F910F9108952F923F924F922A
S11322805F926F927F928F929F92AF92BF92CF9202
S1132290DF92EF92FF920F931F93CF93DF93CDB70B
S11322A0DEB72C970FB6F894DEBF0FBECDBF7C010E
S11322B06B018A01FC0117821682838181FFB0C100
S11322C0CE0101964C01F7019381F60193FD8591AE
S11322D093FF81916F01882309F49EC1853239F4FB
S11322E093FD859193FF81916F01853221F4B701AC
S11322F090E00FD3E8CF512C312C20E02032A0F411
S11323008B3269F030F4803259F0833269F4206101
S11323102CC08D3239F0803339F4216026C022601C
S1132320246023C0286021C027FD27C030ED380F6A
S11323303A3078F426FF06C0FAE05F9E300D11248F
S1132340532E13C08AE0389E300D1124332E2062A0
S11323500CC08E3221F426FD5FC1206406C08C3689
S113236011F4206802C0883641F4F60193FD85918A
S113237093FF81916F018111C1CF982F9F7D955457
S1132380933028F40C5F1F4FFFE3F9830DC08336AD
S113239031F0833771F0833509F057C021C0F8015B
S11323A0808189830E5F1F4F44244394512C540130
S11323B014C03801F2E06F0E711CF801A080B180E6
S11323C026FF03C0652D70E002C06FEF7FEFC501EB
S11323D02C8794D22C0183012C852F77222E16C0B2
S11323E03801F2E06F0E711CF801A080B18026FF65
S11323F003C0652D70E002C06FEF7FEFC5012C872D
S11324006BD22C012C852068222E830123FC19C059
S1132410832D90E048165906A0F4B70180E290E0BD
S113242078D23A94F5CFF50127FC859127FE819166
S11324305F01B70190E06DD231103A94F1E04F1A88
S113244051084114510479F7DEC0843611F08936FD
S113245031F5F80127FF07C0608171818281938182
S11324600C5F1F4F08C060817181882777FD8095BC
S1132470982F0E5F1F4F2F76B22E97FF09C09095AD
S11324808095709561957F4F8F4F9F4F2068B22E36
S11324902AE030E0A4016FD2A82EA81843C08537E3
S11324A029F42F7EB22E2AE030E025C0F22FF97FE6
S11324B0BF2E8F36C1F018F4883579F0ADC080375F
S11324C019F0883721F0A8C02F2F2061B22EB4FE56
S11324D00DC08B2D8460B82E09C024FF0AC09F2F25
S11324E09660B92E06C028E030E005C020E130E057
S11324F002C020E132E0F801B7FE07C060817181BB
S1132500828193810C5F1F4F06C06081718180E0DE
S113251090E00E5F1F4FA4012ED2A82EA818FB2D09
S1132520FF77BF2EB6FE0BC02B2D2E7FA51450F4C3
S1132530B4FE0AC0B2FC08C02B2D2E7E05C07A2C36
S11325402B2D03C07A2C01C0752C24FF0DC0FE0175
S1132550EA0DF11D8081803311F4297E09C022FF28
S113256006C07394739404C0822F867809F0739420
S113257023FD12C020FF06C05A2C731418F4530C08
S11325805718732C731460F4B70180E290E02C8721
S1132590C0D173942C85F6CF731410F4371801C08E
S11325A0312C24FF11C0B70180E390E02C87B1D116
S11325B02C8522FF16C021FF03C088E590E002C0ED
S11325C088E790E0B7010CC0822F867851F021FD96
S11325D002C080E201C08BE227FD8DE2B70190E0EA
S11325E098D1A51430F4B70180E390E092D15A94C5
S11325F0F8CFAA94F401EA0DF11D8081B70190E0AF
S113260088D1A110F6CF332009F45DCEB70180E262
S113261090E07FD13A94F7CFF7018681978102C089
S11326208FEF9FEF2C960FB6F894DEBF0FBECDBF91
S1132630DF91CF911F910F91FF90EF90DF90CF909A
S1132640BF90AF909F908F907F906F905F904F90CE
S11326503F902F9008950F931F93CF93DF93869FFE
S11326608001879F100D969F100D1124C8010DD075
S1132670EC01009721F0A80160E070E038D1CE01B0
S1132680DF91CF911F910F910895CF93DF93823003
S1132690910510F482E090E0E0915C0CF0915D0C07
S11326A020E030E0A0E0B0E0309739F14081518182
S11326B048175907B8F04817590771F48281938174
S11326C0109729F013969C938E9312972CC0909395
S11326D05D0C80935C0C27C02115310531F0421745
S11326E0530718F0A901DB0101C0EF019A01BD01F4
S11326F0DF010280F381E02DD7CF21153105F9F0F8
S1132700281B390B2430310580F48A819B816115A3
S1132710710521F0FB019383828304C090935D0CC7
S113272080935C0CFE01329644C0FE01E20FF31F5D
S11327308193919322503109398328833AC020919F
S11327405A0C30915B0C232B41F4209104023091FC
S1132750050230935B0C20935A0C209102023091B5
S113276003022115310541F42DB73EB7409106020D
S113277050910702241B350BE0915A0CF0915B0C2D
S1132780E217F307A0F42E1B3F0B2817390778F044
S1132790AC014E5F5F4F2417350748F04E0F5F1FA3
S11327A050935B0C40935A0C8193919302C0E0E0E8
S11327B0F0E0CF01DF91CF910895CF93DF9300979D
S11327C009F487C0FC01329713821282C0915C0C19
S11327D0D0915D0C209781F420813181280F391F1D
S11327E080915A0C90915B0C8217930779F5F093C2
S11327F05B0CE0935A0C6DC0DE0120E030E0AE17B4
S1132800BF0750F412964D915C9113979D014115A9
S1132810510509F1DA01F3CFB383A28340815181D9
S1132820840F951F8A179B0771F48D919C911197C2
S1132830840F951F02969183808312968D919C91AB
S11328401397938382832115310529F4F0935D0C4A
S1132850E0935C0C3EC0D9011396FC93EE9312975F
S11328604D915D91A40FB51FEA17FB0779F48081A0
S11328709181840F951F0296D90111969C938E9392
S11328808281938113969C938E931297E0E0F0E0FB
S11328908A819B81009719F0FE01EC01F9CFCE01EA
S11328A0029628813981820F931F20915A0C30910E
S11328B05B0C2817390769F4309729F410925D0CE2
S11328C010925C0C02C013821282D0935B0CC093F2
S11328D05A0CDF91CF910895FC010590615070402E
S11328E00110D8F7809590958E0F9F1F0895DC01F5
S11328F001C06D9341505040E0F70895FC016150D0
S1132900704001900110D8F7809590958E0F9F1F0D
S113291008950F931F93CF93DF93182F092FEB0183
S11329208B8181FD03C08FEF9FEF20C082FF10C019
S11329304E815F812C813D81421753077CF4E881ED
S1132940F9819F012F5F3F4F39832883108306C08D
S1132950E885F985812F1995892B29F72E813F81E7
S11329602F5F3F4F3F832E83812F902FDF91CF9195
S11329701F910F910895FA01AA27283051F12031AF
S113298081F1E8946F936E7F6E5F7F4F8F4F9F4FFF
S1132990AF4FB1E03ED0B4E03CD0670F781F891F41
S11329A09A1FA11D680F791F8A1F911DA11D6A0F0F
S11329B0711D811D911DA11D20D009F468943F91C2
S11329C02AE0269F11243019305D3193DEF6CF01C1
S11329D00895462F4770405D4193B3E00FD0C9F787
S11329E0F6CF462F4F70405D4A3318F0495D31FDF4
S11329F04052419302D0A9F7EACFB4E0A695979547
S1132A00879577956795BA95C9F70097610571051C
S1132A1008959B01AC010A2E069457954795379566
S1132A202795BA95C9F7620F731F841F951FA01DC0
S1092A300895F894FFCFA5
S1132A36010000005E0C20000100FFFF0100E80316
S1132A460A000000010004000A0004000A00040051
S1132A560A0004000A0004000A0004000A00040034
S1132A660A0004000A000000010090028C027A02A7
S1132A76700262025602480206000A000B000C00AD
S1132A860D000E000F00050023002400250026007B
S1132A96270006001D001E001F0020002100220042
S1132AA60400160017001800190008002800290061
S1132AB62A002B002C002D002E002F0001000200FE
S1132AC601000000660033019803CC029803CC028F
S1132AD6660033016400660033019803CC02980350
S1132AE6CC02660033016400CD000002320300020A
S1132AF632030002CD0000026400CD00000232035E
S1132B06000232030002CD0000026400CD00000280
S1132B163203000232030002CD0000026400CD003D
S1132B2600023203000232030002CD0000026400F8
S1132B36CD0000023203000232030002CD0000027F
S1132B466400CD0000023203000232030002CD000D
S1132B560002640066009A019803660298036602FE
S1132B6666009A016400CD000002320300023203BB
S1132B760002CD0000026400CD0000023203000210
S1132B8632030002CD0000026400CD0000023203CD
S1132B96000232030002CD0000026400CD000002F0
S1132BA63203000232030002CD0000026400CD00AD
S1132BB600023203000232030002CD000002640068
S1132BC6CD0000023203000232030002CD000002EF
S1132BD66400CD0000023203000232030002CD007D
S1132BE6000264009A01CC02320300029803000238
S1132BF63301000264003301000298030002320329
S1132C060002000033016400CD00000266023301B5
S1132C16CC02000266000002640066000002CC02D8
S1132C260002FF03CC02CD0000026400CD000002C6
S1132C363203000232030002CD0000026400CD001C
S1132C4600023203000232030002CD0000026400D7
S1132C56330033016503FF02CB03CC026600000197
S1132C666400330000016503CC029803CC023300F0
S1132C760001640099000001CB03CC029803FF0213
S1132C8633003301640099003301CB03FF02CB0305
S1132C96FF02660033016400CD0000023203000225
S1132CA632030002CD0000026400CD0000023203AC
S1132CB6000232030002CD0000026400CD000002CF
S1132CC63203000232030002CD0000026400000059
S1132CD633019803320398033203000033013200B0
S1132CE6000033019803CC029803CC0200003301A0
S1132CF63200660033019803CC029803CC026600C6
S1132D06330132000000330198033203980332037F
S1132D16000033013200000033019803CC0298030B
S1132D26CC02000033013200660033019803CC0262
S1132D369803CC02660033013200CD000002320350
S1132D46000232030002CD0000026400CD0000023E
S1132D563203000232030002CD0000026400CD00FB
S1132D6600023203000232030002CD0000026400B6
S1132D76CD0000023203000232030002CD0000023D
S1132D866400CD0000023203000232030002CD00CB
S1132D96000264009A01CC02320300029803660220
S1132DA60000330164003301000232030002980379
S1132DB60002CD0000026400330100029803000201
S1132DC63203000200003301640033010002980359
S1132DD600029803660266009A016400CD000002B0
S1132DE666023301FF03CC0266009A016400CD003B
S1132DF60002CC02000232030002660000026400F4
S1132E0666000002CC020002FF03CC02CD000002E1
S1132E16640066000002CC020002980366026600A3
S1132E269A016400CD00000232030002320300025C
S1132E36CD0000026400CD0000023203000232031A
S1132E460002CD0000026400130004000E0011000D
S1132E5605000700100006002323232073656E7304
S1132E666F72496E6974002323232073656E736F32
S1132E767254657374282920414443203A25640D0D
S1132E860A0025640A0A0025643A25642C25642C64
S1132E9625642C25642C25642C25642C25642C257A
S1132EA6642C25642C25642C25642C25640A0025B1
S1132EB6643A25642C25642C25642C25642C25640D
S1132EC62C25642C25642C25642C25642C25642C43
S1132ED625642C25642C25640A0025643B0A0049D4
S1132EE66E70757420766F6C746167652065727296
S1132EF66F722100416E676C65206C696D69742080
S1132F066572726F7221004F76657268656174200E
S1132F166572726F7221004F7574206F662072613C
S1132F266E6765206572726F722100436865636B14
S1132F3673756D206572726F7221004F7665726CBF
S1132F466F6164206572726F722100496E737472C8
S1132F56756374696F6E20636F6465206572726F42
S1132F66722100434F4D4D5F54584641494C3A2017
S1132F764661696C6564207472616E736D69742050
S1132F86696E737472756374696F6E207061636BB6
S1132F9665742100434F4D4D5F54584552524F526C
S1132FA63A20496E636F727265637420696E737436
S1132FB672756374696F6E207061636B657421004A
S1132FC6434F4D4D5F52584641494C3A204661693C
S1132FD66C656420676574207374617475732070FE
S1132FE661636B65742066726F6D206465766963D0
S1132FF6652100434F4D4D5F525857414954494E40
S1133006473A204E6F7720726563696576696E6705
S113301620737461747573207061636B6574210029
S1133026434F4D4D5F525854494D454F55543A20E0
S11330365468657265206973206E6F2073746174B9
S11330467573207061636B65742100434F4D4D5F4A
S11330565258434F52525550543A20496E636F7238
S11330667265637420737461747573207061636B25
S1133076657421005468697320697320756E6B6EDC
S11330866F776E206572726F7220636F64652100BC
S1133096232323206D6F74696F6E4E756D6265729E
S11330A6203D2025642C206D6F74696F6E203D20B1
S11330B625640A00232323206D6F74696F6E436FA2
S11330C6756E74203E206D61782E206D6F74696F65
S11330D66E436F756E743A25642C206D61783A25BB
S11330E6640A00232323206D6F74696F6E436F7522
S10B30F66E743A25640A00001F
S9030000FC
