:100000006CC000008BC0000089C0000087C00000E9
:1000100085C0000083C0000081C000007FC00000D8
:100020007DC000007BC0000079C0000077C00000E8
:1000300075C0000073C0000071C000006FC00000F8
:100040006DC000006BC0000069C0000067C0000008
:1000500065C0000063C0000061C000005FC0000018
:100060005DC000002BC4000059C0000057C0000054
:1000700055C0000053C0000051C000004FC0000038
:100080004DC000004BC0000049C0000047C0000048
:100090001AC5000043C0000041C000003FC000007E
:1000A0003DC000003BC0000039C0000037C0000068
:1000B00035C0000033C0000031C000002FC0000078
:1000C0002DC000002BC0000029C00000190B250B1B
:1000D000310B3D0B490B550B610B11241FBECFEFAC
:1000E000D1E2DEBFCDBF00E00CBF13E1A0E0B2E083
:1000F000E2E9F0E300E00BBF02C007900D92AC38DC
:10010000B107D9F727E1ACE8B3E101C01D92A036F1
:10011000B207E1F70E948D0F0C94471871CF8091C0
:10012000000290910102089580938E1308958093A8
:1001300090130895FC01E457FC4E65830895809365
:100140008F13089520E030E090913014982311F03F
:1001500021E030E0C901089580912F1490E00895C6
:10016000FC01E45DFB4E858190E00895362F20E090
:10017000280F391FC9010895282F30E0C9010895BB
:100180008070892F90E008950F931F93CF93DF9392
:100190008091741490917514892B09F4B8C08091E2
:1001A0008E138E3F09F4A9C0809100029091010244
:1001B000892B29F41092731486E080937214809135
:1001C000731490E06091721470E0681B790B845D89
:1001D0009B4E49D390917314980F90937314809110
:1001E0007214981718F44AD2019771F07091731431
:1001F000472F50E0DA0111978A010250104060E069
:10020000ED01C45DDB4E18C080917314882309F0A2
:1002100071C086E090E073C0F901E45DFB4E80811F
:100220008F3F19F481818F3F61F02017310719F456
:1002300088818F3F31F06F5F262F30E02A173B0710
:100240005CF36623A1F090E0421B530B08C0E45D11
:10025000FB4EDF01A20FB31F8C9180839F5FE92FBC
:10026000F0E0E417F5079CF3761B7093731420916C
:10027000731480917214281728F190918E13809135
:100280002E149817B9F560912F146C5F6093721457
:10029000261788F4822F90E070E0681B790B845D4C
:1002A0009B4EE1D290917314980F909373148091A8
:1002B0007214981738F080912F14A82FB0E020E026
:1002C00090E00CC085E090E09093010280930002E2
:1002D0001EC0E45DFB4E8281980F2F5FE22FF0E09D
:1002E000AE17BF07B4F7A45DBB4E909513968C91E3
:1002F000891719F087E090E002C081E090E09093C8
:100300000102809300021092751410927414DF9110
:10031000CF911F910F9108951F9380917414909124
:100320007514019709F45DC081E090E09093751415
:100330008093741480918F13893940F490919013B5
:10034000892F8150863028F0933819F084E090E0AE
:100350002FC08FEF80938C1380938D1380918F1318
:10036000A82FB0E020E090E005C0E457FC4E828169
:10037000980F2F5FE22FF0E0AE17BF07B4F7A45736
:10038000BC4E909513969C9380910002909101022F
:100390000697029708F438D110918F131C5F8CE8F0
:1003A00093E1612F70E035D1181759F082E090E0A9
:1003B00090930102809300021092751410927414AD
:1003C00010C080919013823029F48091921390E0B4
:1003D000069602C086E090E040D110920102109291
:1003E00000021F91089598DF809100029091010210
:1003F000892B39F4C9DE80910002909101020597A2
:10040000C9F30895282F8091741490917514892B45
:1004100091F420938E1383E0809390136093911353
:10042000CA014093921380709093931385E0809358
:100430008F13D9CF0895FFCF282F809174149091F6
:100440007514892BB1F420938E1382E0809390135E
:10045000609391138093921384E080938F13C3DF92
:100460003091321420E080913114280F311DC901E0
:100470000895FFCF282F8091741490917514892BC3
:1004800071F420938E1383E0809390136093911303
:100490004093921384E080938F13A5CF0895FFCFEC
:1004A000282F8091741490917514892B91F42093C6
:1004B0008E1382E0809390136093911381E0809378
:1004C000921384E080938F138EDF8091311490E03B
:1004D0000895FFCF282F8091741490917514892B63
:1004E00051F420938E1381E08093901382E08093E7
:1004F0008F1379CF0895FFCF86C008950F931F9370
:100500008C016F5F7F4F882777FD8095982F0E9421
:100510000E129B01AC0160E074E284EF99E40E944A
:100520007311AB01BC01C80115D0892B19F420E06F
:1005300030E00CC081E090E09093010280930002D3
:10054000109275141092741421E030E0C9011F91CB
:100550000F910895EF92FF920F931F937A018B01F1
:1005600082E48093C00088E98093C10086E0809394
:10057000C20060E074E284EF99E4A80197010E9450
:1005800073110E94E011615070407093C500609338
:10059000C40060E074E284E799E4A80197010E9436
:1005A000731120E030E040E451E40E949A1260931D
:1005B0004E1770934F1780935017909351172091B7
:1005C0004E1730914F17409150175091511760E0DE
:1005D00070E08AE793E40E9473110E94E011709327
:1005E0004D1760934C177298739A8FEF8093C600E3
:1005F000109276151092771581E090E01F910F917F
:10060000FF90EF9008950895809177158093761567
:100610000895AC01F8947398729A20E030E011C00C
:100620008091C00085FFFCCF8091C00080648093E2
:10063000C000FA01E20FF31F80818093C6002F5F94
:100640003F4F2617370764F38091C00086FFFCCF29
:100650007298739A7894C901089510925517109260
:10066000541720914C1730914D17265F3F4F280F9C
:10067000391F30935317209352170895AF92BF92AA
:10068000CF92DF92EF92FF920F931F9380915417B6
:100690009091551701969093551780935417209178
:1006A0005417309155178091521790915317821714
:1006B000930718F421E030E074C0A0904E17B0907A
:1006C0004F17C0905017D0905117C601B5012BEAB3
:1006D0003AEA4AEA50E40E949A127B018C0120E037
:1006E00030E040E85FE30E94FD12882314F461E0EB
:1006F00054C0C801B70120E030E04FE753E40E9446
:10070000251318160CF045C0C601B50120E030E0F5
:100710004AE754E40E9473115B016C0120E030E071
:100720004AE755E40E949A127B018C0120E030E0F8
:1007300040E85FE30E94FD1288231CF461E070E052
:1007400024C0C801B70120E03FEF4FE757E40E9403
:1007500025131816B4F4C601B50120E030E040E2DC
:1007600051E40E949A120E94E01180E991E005C0D4
:10077000FC013197F1F76150704061157105C1F7C7
:100780000EC0C801B7010E94E011CB010197F1F73B
:1007900006C0C801B7010E94E0116A95F1F720E098
:1007A00030E0C9011F910F91FF90EF90DF90CF9043
:1007B000BF90AF9008959091761580917715981716
:1007C00019F420E030E017C09091761580917715EC
:1007D000981738F48091771590917615282F30E08E
:1007E00008C08091771590917615282F30E0205021
:1007F0003F4F291B3109C90108951F93182FDBDFD3
:100800008F3F910591F0E0917715F0E0EA58FB4EAB
:100810001083809177158F3F19F41092771505C0DA
:10082000809177158F5F809377151F910895909130
:10083000761580917715981711F4EFEF12C0E091BB
:100840007615F0E0EA58FB4EE081809176158F3FF7
:1008500019F41092761505C0809176158F5F8093FC
:1008600076158E2F0895EF92FF920F931F93CF93DB
:10087000DF937C01EB0190917615809177159817A5
:1008800019F400E010E012C096DF8C01C817D907F8
:100890000CF48E01C0E0D0E006C0C9DFF701EC0F18
:1008A000FD1F80832196C017D107BCF3C801DF91DB
:1008B000CF911F910F91FF90EF9008951F920F928B
:1008C0000FB60F920BB60F9211242F933F934F93B5
:1008D0005F936F937F938F939F93AF93BF93EF93A8
:1008E000FF938091C60089DFFF91EF91BF91AF9197
:1008F0009F918F917F916F915F914F913F912F9138
:100900000F900BBE0F900FBE0F901F901895AC016B
:1009100020E030E00CC08091C80085FFFCCFFA01D8
:10092000E20FF31F80818093CE002F5F3F4F261789
:1009300037078CF30895DC019091F8158091F91533
:10094000981711F480E008959091F8158091F915A9
:10095000981719F420E030E017C09091F8158091B5
:10096000F915981738F48091F9159091F815282FFA
:1009700030E008C08091F9159091F815282F30E0EB
:1009800020583F4F291B3109A901621773070CF446
:10099000AB0120E030E020C09091F8158091F9156E
:1009A000981711F49FEF12C0E091F815F0E0E858A5
:1009B000FA4E90818091F8158F3719F41092F8153E
:1009C00005C08091F8158F5F8093F815FD01E20F47
:1009D000F31F90832F5F3F4F24173507ECF2842FCE
:1009E00008959091F8158091F915981719F420E061
:1009F00030E017C09091F8158091F915981738F4E8
:100A00008091F9159091F815282F30E008C0809159
:100A1000F9159091F815282F30E020583F4F291BE9
:100A20003109C9010895482F9091F8158091F91561
:100A30009817D1F09091F8158091F915981738F41E
:100A40008091F9159091F815282F30E008C0809119
:100A5000F9159091F815282F30E020583F4F291BA9
:100A600031092F37310591F0E091F915F0E0E858A0
:100A7000FA4E40838091F9158F3719F41092F915C9
:100A800008958091F9158F5F8093F91508959091DD
:100A9000F8158091F915981711F4EFEF12C0E09155
:100AA000F815F0E0E858FA4EE0818091F8158F379C
:100AB00019F41092F81505C08091F8158F5F809396
:100AC000F8158E2F08951F920F920FB60F920BB646
:100AD0000F9211242F933F934F935F936F937F93C4
:100AE0008F939F93AF93BF93EF93FF938091CE002B
:100AF0009ADFFF91EF91BF91AF919F918F917F917D
:100B00006F915F914F913F912F910F900BBE0F907E
:100B10000FBE0F901F901895DF93CF930F920F92F7
:100B2000CDB7DEB7982F8A3099F48DE089839A8308
:100B3000FE0131969E012D5F3F4F8091C80085FFD9
:100B4000FCCF81918093CE00E217F307B1F706C086
:100B50008091C80085FFFCCF9093CE0080E090E0AC
:100B60000F900F90CF91DF9108959091F81580919B
:100B7000F9159817D1F39091F8158091F9159817F8
:100B800038F48091F9159091F815282F30E008C0BD
:100B90008091F9159091F815282F30E020583F4F9B
:100BA000291B3109232B09F39091F8158091F91530
:100BB000981711F4EFEF15C0E091F815F0E0E85840
:100BC000FA4EE0818091F8158F3719F41092F815DC
:100BD00005C08091F8158F5F8093F815ED3009F40A
:100BE000EAE08E2F90E008950E940E129B01AC0166
:100BF00060E074E284EF99E40E9473110E94E011B6
:100C00006150704022E42093C80028E92093C90075
:100C100026E02093CA002FEF2093CE001092F81503
:100C20001092F915272F332727FD3A952093CD00F1
:100C30006093CC007298739A8CE895E065EB75E050
:100C40000E94A5139093FB158093FA15089560E018
:100C500071EE80E090E0C8DF78940895C2DE181647
:100C600019060CF03FC080915617909157170E94BB
:100C7000EF138A3011F08D3091F480914E169091DF
:100C80004F16181619068CF510924F1610924E1624
:100C900081E090E090935116809350160895882338
:100CA00039F120914E1630914F16A9014F5F5F4FD9
:100CB00050934F1640934E16F901E250FA4E80833E
:100CC00080914E1690914F168F349105A4F010929A
:100CD0004F1610924E1681E090E09093511680933B
:100CE0005016089580E090E0089580E090E0089527
:100CF00080E090E0089580E090E0089580915016A3
:100D000090915116181619063CF410925116109233
:100D100050168EEF95E1089580E090E0089582EB03
:100D20009FE00E943E1460E071EE80E090E05CDFA6
:100D3000789486E880937A0081E080937C0008951F
:100D4000CF93DF93EC018130910551F08230910512
:100D500061F0009771F481E080937C00179809C0DE
:100D600082E080937C00169804C083E080937C002E
:100D7000159884E08A95F1F7EAE7F0E080818061D8
:100D80008083808180648083808184FFFDCF8EEFAB
:100D900082B9CE01880F991F880F991F880F991F5C
:100DA000FE01EE0FFF1FE80FF91FE25DF84E60E055
:100DB00070E020E030E02F5F3F4F4281538141934C
:100DC0005193640F751F24303105A9F78091780085
:100DD000909179009E012F5F3F4FF901EE0FFF1FA9
:100DE000220F331F220F331F220F331FE20FF31F77
:100DF000E25DF84E91838083860F971F209719F448
:100E00002DE230E002C027E330E065E070E00E94B0
:100E10002913261737074CF4CC0FDD1FC659D94EBE
:100E200081E090E09983888306C0CC0FDD1FC6590E
:100E3000D94E198218828091780090917900DF91C3
:100E4000CF9108959F938F9381EC9FE09F938F9311
:100E50000E942D140F900F900F900F90089561E055
:100E600070E080E090E04ADB41E050E06FE270E04B
:100E70008FE190E0C7DA40E050E060E270E08EEF92
:100E800090E0C0DA40E050E068E170E08EEF90E082
:100E9000F1DA2FE38DE093E0215080409040E1F7BC
:100EA00000C0000008950F931F93CF93DF9300D0ED
:100EB000CDB7DEB720E23CE240E029833A834B83A2
:100EC000BE016F5F7F4F0E947313009789F00EE899
:100ED00016E10E945613F801819391938F01BE0190
:100EE0006F5F7F4F80E090E00E947313009789F757
:100EF0000F900F900F90DF91CF911F910F91089558
:100F000080918016909181168C599F4F90938116F5
:100F10008093801620917E1630917F16821793075A
:100F20003CF0109281161092801680E090E00895B7
:100F300081E090E00895A0919016B0919116A436AA
:100F4000B105ACF4E2E9F6E1AA0FBB1FA295B29598
:100F5000B07FBA27A07FBA27AC5EBC4F22EB36E148
:100F6000819191918D939D93E217F307C9F70895AD
:100F7000CF92DF92EF92FF920F931F93CF93DF9365
:100F8000CDB7DEB76E970FB6F894DEBF0FBECDBFFC
:100F9000FE0131968EE1DF011D928A95E9F704E9A1
:100FA0001FE07F010F2EF2EBCF2EFFE0DF2EF02DA2
:100FB00064E270E0F801819191918F013DDAD701EF
:100FC0008D939D937D010C151D0591F78E8D8F934B
:100FD0008D8D8F938C8D8F938B8D8F938A8D8F9327
:100FE000898D8F93888D8F938F898F938E898F931F
:100FF0008D898F938C898F938B898F938A898F9317
:1010000089898F931F9282E08F9386EC9FE09F9354
:101010008F930E942D140FB6F894DEBF0FBECDBF84
:101020006E960FB6F894DEBF0FBECDBFDF91CF91A5
:101030001F910F91FF90EF90DF90CF900895880F50
:10104000991F82959295907F9827807F9827FC0121
:10105000EC5EFC4F818D8F93808D8F9387898F936A
:1010600086898F9385898F9384898F9383898F93C2
:1010700082898F9381898F9380898F9387858F93BE
:1010800086858F9385858F9384858F9383858F93B2
:1010900082858F9381858F9380858F9387818F93AE
:1010A00086818F9385818F9384818F9383818F93A2
:1010B00082818F9381818F9380818F931F9283E0B0
:1010C0008F938FEE9FE09F938F930E942D148DB787
:1010D0009EB74E960FB6F8949EBF0FBE8DBF089573
:1010E000CF92DF92EF92FF920F931F93CF93DF93F4
:1010F000CDB7DEB76E970FB6F894DEBF0FBECDBF8B
:10110000FE0131968EE1DF011D928A95E9F704E92F
:101110001FE07F010F2EF2EBCF2EFFE0DF2EF02D30
:1011200068E270E0F801819191918F0185D9D70132
:101130008D939D937D010C151D0591F7888D8F93DF
:101140008F898F938E898F938D898F938C898F93BD
:101150008B898F938A898F9389898F9388898F93BD
:101160008F858F938E858F938D858F938C858F93AD
:101170008B858F938A858F9389858F9388858F93AD
:101180008F818F938E818F938D818F938C818F939D
:101190008B818F938A818F9389818F931F9284E0B3
:1011A0008F938AE190E19F938F930E942D140FB645
:1011B000F894DEBF0FBECDBF6E960FB6F894DEBFBB
:1011C0000FBECDBFDF91CF911F910F91FF90EF9098
:1011D000DF90CF900895CF92DF92EF92FF920F931E
:1011E0001F93CF93DF93CDB7DEB76E970FB6F8940A
:1011F000DEBF0FBECDBFFE0131968EE1DF011D9235
:101200008A95E9F704E91FE07F010F2EF2EBCF2E5C
:10121000FFE0DF2EF02D6AE270E0F80181919191FC
:101220008F010AD90E94BC00D7018D939D937D0147
:101230000C151D0581F7888D8F938F898F938E896B
:101240008F938D898F938C898F938B898F938A89C4
:101250008F9389898F9388898F938F858F938E85BC
:101260008F938D858F938C858F938B858F938A85B4
:101270008F9389858F9388858F938F818F938E81AC
:101280008F938D818F938C818F938B818F938A81A4
:101290008F9389818F931F9285E08F938AE190E1EC
:1012A0009F938F930E942D140FB6F894DEBF0FBE4C
:1012B000CDBF6E960FB6F894DEBF0FBECDBFDF91E7
:1012C000CF911F910F91FF90EF90DF90CF900895F5
:1012D00090937D1680937C1670937B1660937A169C
:1012E0002091821630918316232BA1F4209184162D
:1012F0003091851630937916209378169093851641
:1013000080938416709383166093821610927B16D6
:1013100010927A1608959093851680938416709390
:1013200083166093821610927B1610927A1681E0D3
:1013300090E090930D0280930C021092811610920F
:101340008016089581E090E090930D0280930C0246
:1013500010928316109282161092811610928016A7
:101360008FEF9FEF90930B0280930A020895CF9323
:10137000DF93809154169091551690935316809355
:101380005216069709F06BC082E490E10E943E1469
:101390004091581650915916EAE5F6E181E090E047
:1013A000C0E0D0E0219131914217530714F4A90114
:1013B000EC01019686309105A9F741355105ECF015
:1013C00080915C1690915D164597BCF080915E16F9
:1013D00090915F1689978CF08091601690916116BC
:1013E00045975CF082E590E10E943E1487E090E032
:1013F0009093551680935416FBC0DF93CF9382E6EB
:1014000090E19F938F930E942D140F900F900F9057
:101410000F90C330D10571F01CF4219724F418C04B
:1014200026977CF015C081E090E09093551680934C
:101430005416DEC085E090E09093551680935416C4
:10144000D7C082E090E09093551680935416D0C098
:1014500085E090E09093551680935416C9C081E8BA
:1014600090E10E943E1480916A1690916B1600974D
:10147000B9F480916C1690916D16892B69F5809165
:101480006E1690916F16892B39F581E990E10E94D3
:101490003E1483E090E09093551680935416A8C0B4
:1014A0008130910509F045C080916C1690916D16C0
:1014B000892B09F041C080916E1690916F16892B8F
:1014C000D9F588EA90E10E943E1484E090E0909380
:1014D0005516809354168CC080916C1690916D16A1
:1014E0008130910591F480916E1690916F16892B41
:1014F00009F04FC08FEB90E10E943E1486E090E02F
:10150000909355168093541673C0892B09F041C0EF
:1015100080916E1690916F160197D9F586ED90E146
:101520000E943E1481E090E09093551680935416EB
:101530005FC08130910559F580916C1690916D16C0
:101540008130910589F480916E1690916F16892BE8
:10155000C9F58DEE90E10E943E1482E090E09093F8
:1015600055168093541644C0892B61F580916E16F0
:1015700090916F16019731F584E091E10E943E143D
:1015800086E090E0909355168093541631C00097F2
:10159000B9F480916C1690916D16019749F5809180
:1015A0006E1690916F16019719F58BE191E10E94EB
:1015B0003E1485E090E0909355168093541618C021
:1015C0000197B1F480916C1690916D16019781F49A
:1015D00080916E1690916F16019751F482E391E11C
:1015E0000E943E1486E090E0909355168093541626
:1015F000DF91CF910895CF93DF93809186169091DC
:101600008716C0916002D0916102E0915416F0916A
:1016100055163197E730F10520F4EA59FF4F0C9445
:101620003C13FC01EE0FFF1FEE0FFF1FE25AFD4FB0
:1016300053C0FC01EE0FFF1FEE0FFF1FEA5AFD4FD4
:10164000C0915802D091590247C0FC01EE0FFF1F14
:10165000EE0FFF1FE25BFD4FC0915002D09151028F
:101660003BC0FC01EE0FFF1FEE0FFF1FEE5BFD4FB7
:10167000C0914402D09145022FC0FC01EE0FFF1F24
:10168000EE0FFF1FEA5CFD4FC0913802D091390286
:1016900023C0FC01EE0FFF1FEE0FFF1FE25DFD4FA9
:1016A000C0913002D091310217C0FC01EE0FFF1F34
:1016B000EE0FFF1FE25EFD4FC0912002D09121028C
:1016C0000BC0FC01EE0FFF1FEE0FFF1FE25FFD4F8F
:1016D000C0911002D09111028091821690918316D0
:1016E0001816190684F180918C1690918D16019729
:1016F00051F580917816909179168D7F019751F070
:1017000080819181039731F461E070E081E090E0A5
:10171000DFDD19C06281738180819181D9DD809183
:101720008616909187160196C817D9072CF09093CA
:1017300087168093861607C081E090E09093871605
:101740008093861614DEDF91CF91089581E090E0BA
:101750000E94A200019721F48EE491E10E943E14C0
:1017600082E090E00E94A200019721F483E691E1DB
:101770000E943E1484E090E00E94A200019721F4B0
:1017800086E791E10E943E1488E090E00E94A2006A
:10179000019721F486E891E10E943E1480E190E0F7
:1017A0000E94A200019721F48AE991E10E943E146F
:1017B00080E290E00E94A200019721F48AEA91E180
:1017C0000E943E1480E490E00E94A200019721F460
:1017D0008AEB91E10C943E1408958430910599F0C0
:1017E00034F48230910551F0039791F025C0863092
:1017F0009105C1F094F00797D1F01EC082ED91E100
:101800000C943E14089583E092E10C943E140895E4
:101810008FE292E10C943E14089582E692E10C94DA
:101820003E1408958FE892E10C943E1408958AEBDB
:1018300092E10C943E14089583EE92E10C943E14D0
:1018400008950F931F93CF93DF938C01EB018EEFDD
:1018500090E00E94940083E890E00E94970060E28C
:1018600070E080E090E00E949A0062E070E081E029
:1018700090E00E949A00B80182E090E00E949A00F5
:10188000CE010E94BC00BC0183E090E00E949A005F
:10189000CE010E94C000BC0184E090E00E949A004A
:1018A00087E090E00E949F000E94F3010E948F0059
:1018B0008130910511F44ADF01C08FDFDF91CF91B4
:1018C0001F910F9108952F923F924F925F926F92C6
:1018D0007F928F929F92AF92BF92CF92DF92EF92C0
:1018E000FF920F931F93CF93DF93CDB7DEB7C8540A
:1018F000D1090FB6F894DEBF0FBECDBF25969FAFBE
:101900008EAF2597843691050CF082C1FE01319689
:101910008EE1DF011D928A95E9F725968EAD9FAD88
:101920002597880F991F82959295907F9827807FA1
:1019300098279C012C5E3C4F27963FAF2EAF2797F0
:101940006E2E7F2E0F2EF2EB8F2EFFE09F2EF02DAE
:101950007F01590104E91FE0C12CD12C64E270E041
:10196000D8018D919D918D010E941C02F50121915C
:1019700031915F01A901481B590BCA01992324F039
:10198000D7014D935C9306C0919581959109F7011C
:1019900091838083D7018D919D917D01C816D906D1
:1019A0000CF46C0108151905C9F61E01BFE12B0ED8
:1019B000311C8EE1F10111928A95E9F784E690E0FD
:1019C00098A38F8F2596EEADFFAD2597EE0FFF1FE5
:1019D000E295F295F07FFE27E07FFE27EC5EFC4F5C
:1019E000668D778D882777FD8095982F17D523965C
:1019F0006CAF7DAF8EAF9FAF239728962FAE289701
:101A000029963FAE29973EAE2DAEA62CB72CEE24DC
:101A1000D7FCE094FE2CD5010D911D915D01C7010D
:101A2000B601FCD42B013C01B801882777FD8095D5
:101A3000982FF4D4A301920156D49B01AC012396B4
:101A40006CAD7DAD8EAD9FAD239774D5B4D46115CB
:101A5000710521F0F1017183608305C0E1E0F0E0E0
:101A6000D101ED93FC93F2E02F0E311C2DAD3EAD74
:101A7000A216B30681F62596EEADFFAD2597EE0FC3
:101A8000FF1FE295F295F07FFE27E07FFE27EC5ED8
:101A9000FC4F668D778D8BEF93E1DBD5882777FD43
:101AA0008095982FBBD49B01AC01C301B20142D5F4
:101AB00082D4643671052CF070937F1660937E1685
:101AC00006C084E690E090937F1680937E168EEF9A
:101AD00090E00E94940083E890E00E94970060E20A
:101AE00070E080E090E00E949A0062E070E081E0A7
:101AF00090E00E949A002896CFAC28972996DFACF8
:101B000029970F2EF4E9EF2EFFE0FF2EF02D02E0D3
:101B100010E0D7016D917D917D01C8010E949A006E
:101B2000F601A190B1906F01C5010E94BC00BC01FB
:101B3000C80101960E949A00C5010E94C000BC0124
:101B4000C80102960E949A000D5F1F4FE814F90425
:101B500001F781E390E00E949F000E94F3010E9440
:101B60008F008130910509F052C0F0DD8EEF90E0DA
:101B70000E94940083E890E00E9497006EE170E07C
:101B800080E090E00E949A0062E070E081E090E0E6
:101B90000E949A002796CEACDFAC27970F2EF4E96F
:101BA000EF2EFFE0FF2EF02D02E010E0D7016D9147
:101BB0007D917D01C8010E949A005601F601819134
:101BC00091916F010E94BC00BC01C80101960E9466
:101BD0009A00D5018D919C910E94C000BC01C80162
:101BE00002960E949A000D5F1F4FE814F904F1F667
:101BF00081E390E00E949F000E94F3010E948F0009
:101C00008130910511F4A2DD03C0E7DD01C0E5DDFF
:101C1000C85BDF4F0FB6F894DEBF0FBECDBFDF91BC
:101C2000CF911F910F91FF90EF90DF90CF90BF90D9
:101C3000AF909F908F907F906F905F904F903F906C
:101C40002F90089548990EC080918A1690918B1616
:101C5000892B09F050C081E090E090938B1680931F
:101C60008A16089580918A1690918B16019709F033
:101C700042C010928B1610928A1680918C16909109
:101C80008D169C012F5F3F4F30938D1620938C163D
:101C900026E030E0A901481B590BCA0118161906A5
:101CA0003CF08FE388B910928D1610928C160BC001
:101CB00021E030E0A90102C0440F551F8A95E2F7E8
:101CC000CA01809588B93EDB80E090E0FCDD81E0D0
:101CD00090E0909387168093861680918C16909151
:101CE0008D16019741F480915E0290915F0290936E
:101CF00089168093881608950F931F93CF93DF93CF
:101D00008091821690918316181619060CF097C0D0
:101D1000F7D8892B09F093C080918416909185168D
:101D20008D3091055CF09F938F938FEF92E19F939D
:101D30008F9393D50F900F900F900F90E091841692
:101D4000F0918516EE0FFF1FEA59FD4FC081D1813A
:101D50002881398180910C0290910D022817390752
:101D6000E4F48BE193E18AD581E090E090930D0259
:101D700080930C0280918216909183168336910590
:101D800064F40197909383168093821618161906AF
:101D900024F082E293E172D552C0809185168F9330
:101DA000809184168F9389E293E19F938F9355D509
:101DB0000F900F900F900F90809184169091851640
:101DC000089749F500910C0210910D0280E090E017
:101DD0000E94A006F801EE0FFF1FE85AF94E91830A
:101DE000808380910C0290910D02FC01EE0FFF1F89
:101DF000E85AF94E21812F9320812F939F938F933F
:101E000081E493E19F938F9328D50F900F900F90CB
:101E10000F900F900F9080910C0290910D02880FFF
:101E2000991FC80FD91F888199814DDD80910C02BF
:101E300090910D02019690930D0280930C02DF9118
:101E4000CF911F910F910895CF93DF9359D8892B8C
:101E500009F060C0E0918416F0918516EE0FFF1F27
:101E6000EA59FD4FC081D1812881398180910C02CE
:101E700090910D0228173907CCF580916216909148
:101E80006316019690936316809362168A309105CB
:101E900054F48EE593E1F2D484E090E090938516BB
:101EA000809384161DC08431910554F48DE693E12E
:101EB000E5D485E090E0909385168093841610C059
:101EC0004E9754F48CE793E1D9D483E090E090935B
:101ED00085168093841604C01092631610926216C1
:101EE00081E090E090930D0280930C0280910C02AF
:101EF00090910D02880F991FC80FD91F8881998171
:101F0000E2DC80910C0290910D02019690930D02FB
:101F100080930C02DF91CF9108952F923F924F92C0
:101F20005F926F927F928F929F92AF92BF92CF9269
:101F3000DF92EF92FF920F931F93CF93DF938CEF7B
:101F400081B98EEF82B98FE787B98EE788B980E7CC
:101F50008AB981E18BB90E942F070E9427060E944F
:101F60008F068091701690917116019741F440E0B0
:101F700050E068E170E08EEF90E00E943A020F2E90
:101F8000FEE84F2EF6E15F2EF02D0F2EF0E53F2EEE
:101F9000F02D0F2EF0EA2F2EF02D0F2EFAE6CF2E79
:101FA000F6E1DF2EF02D0F2EF4E6AF2EF6E1BF2E78
:101FB000F02D0F2EFCE6EF2EF6E1FF2EF02D0F2E6A
:101FC000F6E68F2EF6E19F2EF02D0EE616E10F2E8F
:101FD000F8E66F2EF6E17F2EF02D80E090E00E9473
:101FE000A00681E090E00E94A00682E090E00E94BE
:101FF000A00628DE0E942E06181619060CF095C0C1
:102000000E947E06EC01009709F48FC00E945307DE
:10201000F201808191818630910509F46BC094F4BE
:102020008230910509F44DC034F4009701F1019715
:1020300009F44AC071C08430910509F456C00CF40B
:1020400045C056C08930910591F134F4873091052F
:10205000C1F0089731F160C08B30910509F460C080
:102060000CF451C0873E934009F41FC155C0E0E90C
:10207000F6E18081918127DC81E090E00E942207D7
:102080004FC0E2E9F6E160817181E0E9F6E180812B
:1020900091811ED9FFEDF8B981E090E00E942207FE
:1020A0003FC050D981E090E00E94220739C0E2E9A8
:1020B000F6E160817181E0E9F6E1808191812BD9BF
:1020C0002FC00E94B8072CC00E949B07E0E9F6E1F0
:1020D00080819181843691052CF080E090E00E940F
:1020E00022071EC00E941F081BC00E94700818C053
:1020F00072D816C040E050E068E170E08EEF90E0EA
:102100000E943A020DC01092741610927516109229
:1021100076161092771604C080E090E00E942207A5
:10212000FE01232D11922A95E9F7F201222D119239
:102130002A95E9F7019917C0809108029091090248
:1021400018161906ACF510920902109208028FE7D2
:1021500088B98091701690917116019749F180E0CD
:1021600090E0B1DB25C08091080290910902892B93
:1021700039F4469881E090E0909309028093080238
:102180008091881690918916181619065CF033DA3A
:102190008091561690915716019711F455DE08C09C
:1021A000ABDD06C0845691099093891680938816FA
:1021B000F60180819181009739F4F5018081918148
:1021C000892B49F0459A07C0F5012081318182179A
:1021D000930709F04598F70180819181009739F4C0
:1021E000F40180819181892B49F0449A07C0F40160
:1021F000208131818217930709F04498F80180818A
:102200009181009739F4F30180819181892B49F004
:10221000439A07C0F301208131818217930709F0A7
:102220004398F60180819181F50191838083F701C4
:1022300080819181F40191838083F8018081918173
:10224000F3019183808387EA91E60197F1F700C05B
:1022500000008091741690917516A0917616B09139
:1022600077160196A11DB11D809374169093751673
:10227000A0937616B093771680917216909173168C
:1022800001969093731680937216499709F0A5CE24
:102290008091701690917116019711F40E94B80701
:1022A000109273161092721698CE87EE93E00E94E9
:1022B000220760E070E080E090E0C3DA80E090E028
:1022C000DF91CF911F910F91FF90EF90DF90CF9012
:1022D000BF90AF909F908F907F906F905F904F9046
:1022E0003F902F9008950CD0EBC0E3D040F0DAD0AF
:1022F00030F021F45F3F19F0CCC0511115C1CFC0AF
:10230000F0D098F39923C9F35523B1F3951B550BDE
:10231000BB27AA2762177307840738F09F5F5F4FB8
:10232000220F331F441FAA1FA9F333D00E2E3AF0F9
:10233000E0E830D091505040E695001CCAF729D013
:10234000FE2F27D0660F771F881FBB1F2617370762
:102350004807AB07B0E809F0BB0B802DBF01FF2792
:1023600093585F4F2AF09E3F510568F092C0DCC041
:102370005F3FECF3983EDCF3869577956795B795CC
:10238000F7959F5FC9F7880F911D9695879597F9E7
:102390000895E1E0660F771F881FBB1F6217730760
:1023A0008407BA0720F0621B730B840BBA0BEE1F75
:1023B00088F7E095089504D06894B111B5C00895E8
:1023C00098D088F09F5790F0B92F9927B751A0F077
:1023D000D1F0660F771F881F991F1AF0BA95C9F7B9
:1023E00012C0B13081F09FD0B1E008959CC0672F3A
:1023F000782F8827B85F39F0B93FCCF38695779569
:102400006795B395D9F73EF4909580957095619551
:102410007F4F8F4F9F4F0895E89409C097FB3EF47C
:1024200090958095709561957F4F8F4F9F4F992321
:10243000A9F0F92F96E9BB279395F695879577959F
:102440006795B795F111F8CFFAF4BB0F11F460FF5F
:102450001BC06F5F7F4F8F4F9F4F16C0882311F0B7
:1024600096E911C0772321F09EE8872F762F05C0CB
:10247000662371F096E8862F70E060E02AF09A9566
:10248000660F771F881FDAF7880F9695879597F95B
:10249000089597F99F6780E870E060E008959FEFE6
:1024A00080EC089500240A941616170618060906EB
:1024B000089500240A9412161306140605060895BA
:1024C000092E0394000C11F4882352F0BB0F40F442
:1024D000BF2B11F460FF04C06F5F7F4F8F4F9F4F82
:1024E000089557FD9058440F551F59F05F3F71F004
:1024F0004795880F97FB991F61F09F3F79F087956B
:102500000895121613061406551FF2CF4695F1DFF3
:1025100008C0161617061806991FF1CF8695710583
:10252000610508940895E894BB2766277727CB01B7
:1025300097F908950BD0C4CFB5DF28F0BADF18F0B3
:10254000952309F0A6CFABCF1124EECFCADFA0F3BD
:10255000959FD1F3950F50E0551F629FF001729F38
:10256000BB27F00DB11D639FAA27F00DB11DAA1F57
:10257000649F6627B00DA11D661F829F2227B00DA4
:10258000A11D621F739FB00DA11D621F839FA00D2F
:10259000611D221F749F3327A00D611D231F849F7F
:1025A000600D211D822F762F6A2F11249F575040D6
:1025B0008AF0E1F088234AF0EE0FFF1FBB1F661F71
:1025C000771F881F91505040A9F79E3F510570F02A
:1025D00060CFAACF5F3FECF3983EDCF3869577950A
:1025E0006795B795F795E7959F5FC1F7FE2B880F25
:1025F000911D9695879597F9089503D008F481E089
:102600000895990F0008550FAA0BE0E8FEEF161683
:102610001706E807F907C0F012161306E407F507D6
:1026200098F0621B730B840B950B39F40A2661F04A
:10263000232B242B252B21F408950A2609F4A140ED
:10264000A6958FEF811D811D0895DBDF08F48FEFC4
:10265000089597FB072E16F4009406D077FD08D056
:1026600011D007FC05D03EF4909581959F4F0895B9
:10267000709561957F4F0895EE0FFF1F0590F491BF
:10268000E02D1994AA1BBB1B51E107C0AA1FBB1F59
:10269000A617B70710F0A61BB70B881F991F5A95EE
:1026A000A9F780959095BC01CD010895FC0188277C
:1026B0009927E89421912032E9F3293010F02E3047
:1026C000C8F32B3239F02D3231F4689403C035D081
:1026D000820F911D219120532A30C8F31EF490954A
:1026E00081959F4F08954CEF55E100C0FA01A191EB
:1026F000B081009719F41097E1F0CD01DC01CD0114
:102700000D90002011F4C00113C0FB012191222380
:1027100019F02015D9F7F3CFFB012191201519F4F9
:102720001E92119606C02223C1F70D900020A1F73A
:10273000D001FA01A193B08308957AE0979F902D7C
:10274000879F802D910D112408950F931F93CF9390
:10275000DF93EC018B01009731F46115710519F4D9
:1027600080E090E037C06EE070E081E090E0A1D2C0
:10277000FC010097A9F380E883830115110571F02E
:102780001387028781E883838091561790915717AA
:10279000892B21F4F0935717E09356172097C9F02F
:1027A000D187C087838182608383809158179091FD
:1027B0005917892B71F4F0935917E09358178091AA
:1027C0005A1790915B17892B21F4F0935B17E093D4
:1027D0005A17CF01DF91CF911F910F910895CF9399
:1027E000DF93EC012B8120FF33C026FF0AC02F7B33
:1027F0002B838E819F8101969F838E838A8190E0B7
:1028000029C022FF0FC0E881F9818081992787FDC7
:102810009095009719F420622B831AC03196F983A2
:10282000E8830EC0EA85FB85199597FF09C02B81C7
:10283000019611F480E101C080E2822B8B8308C0F5
:102840002E813F812F5F3F4F3F832E83992702C008
:102850008FEF9FEFDF91CF910895CF93DF93CDB7A7
:10286000DEB7FE01369661917191AF0180915817E4
:102870009091591730D0DF91CF9108950F931F9306
:10288000CF93DF93E0915817F0915917238121FFDF
:102890001BC0EC0100E010E0899160915817709125
:1028A0005917DB011896ED91FC911997882331F0A7
:1028B0001995892B89F30FEF1FEFEECF8AE0199559
:1028C000892B11F4C80102C08FEF9FEFDF91CF91E8
:1028D0001F910F9108952F923F924F925F926F92A6
:1028E0007F928F929F92AF92BF92CF92DF92EF92A0
:1028F000FF920F931F93CF93DF93CDB7DEB72C9743
:102900000FB6F894DEBF0FBECDBF7C016B018A010C
:10291000FC0117821682838181FFB0C1CE0101962E
:102920004C01F7019381F60193FD859193FF81910D
:102930006F01882309F49EC1853239F493FD859196
:1029400093FF81916F01853221F4B70190E00FD39D
:10295000E8CF512C312C20E02032A0F48B3269F0EA
:1029600030F4803259F0833269F420612CC08D320A
:1029700039F0803339F4216026C02260246023C0FE
:10298000286021C027FD27C030ED380F3A3078F499
:1029900026FF06C0FAE05F9E300D1124532E13C0AF
:1029A0008AE0389E300D1124332E20620CC08E3206
:1029B00021F426FD5FC1206406C08C3611F4206826
:1029C00002C0883641F4F60193FD859193FF819111
:1029D0006F018111C1CF982F9F7D9554933028F4BA
:1029E0000C5F1F4FFFE3F9830DC0833631F083374F
:1029F00071F0833509F057C021C0F80180818983C7
:102A00000E5F1F4F44244394512C540114C03801CD
:102A1000F2E06F0E711CF801A080B18026FF03C0A8
:102A2000652D70E002C06FEF7FEFC5012C8794D257
:102A30002C0183012C852F77222E16C03801F2E05D
:102A40006F0E711CF801A080B18026FF03C0652DB8
:102A500070E002C06FEF7FEFC5012C876BD22C01B5
:102A60002C852068222E830123FC19C0832D90E041
:102A700048165906A0F4B70180E290E078D23A9463
:102A8000F5CFF50127FC859127FE81915F01B70104
:102A900090E06DD231103A94F1E04F1A5108411490
:102AA000510479F7DEC0843611F0893631F5F8012A
:102AB00027FF07C060817181828193810C5F1F4F66
:102AC00008C060817181882777FD8095982F0E5FFF
:102AD0001F4F2F76B22E97FF09C090958095709565
:102AE00061957F4F8F4F9F4F2068B22E2AE030E0D4
:102AF000A4016FD2A82EA81843C0853729F42F7ED1
:102B0000B22E2AE030E025C0F22FF97FBF2E8F369B
:102B1000C1F018F4883579F0ADC0803719F08837E6
:102B200021F0A8C02F2F2061B22EB4FE0DC08B2D36
:102B30008460B82E09C024FF0AC09F2F9660B92E6A
:102B400006C028E030E005C020E130E002C020E10E
:102B500032E0F801B7FE07C0608171818281938104
:102B60000C5F1F4F06C06081718180E090E00E5FB6
:102B70001F4FA4012ED2A82EA818FB2DFF77BF2E21
:102B8000B6FE0BC02B2D2E7FA51450F4B4FE0AC048
:102B9000B2FC08C02B2D2E7E05C07A2C2B2D03C035
:102BA0007A2C01C0752C24FF0DC0FE01EA0DF11D29
:102BB0008081803311F4297E09C022FF06C07394FE
:102BC000739404C0822F867809F0739423FD12C099
:102BD00020FF06C05A2C731418F4530C5718732C8A
:102BE000731460F4B70180E290E02C87C0D1739435
:102BF0002C85F6CF731410F4371801C0312C24FF44
:102C000011C0B70180E390E02C87B1D12C8522FF61
:102C100016C021FF03C088E590E002C088E790E07D
:102C2000B7010CC0822F867851F021FD02C080E2EE
:102C300001C08BE227FD8DE2B70190E098D1A51489
:102C400030F4B70180E390E092D15A94F8CFAA947F
:102C5000F401EA0DF11D8081B70190E088D1A11047
:102C6000F6CF332009F45DCEB70180E290E07FD14A
:102C70003A94F7CFF7018681978102C08FEF9FEFDB
:102C80002C960FB6F894DEBF0FBECDBFDF91CF916B
:102C90001F910F91FF90EF90DF90CF90BF90AF907A
:102CA0009F908F907F906F905F904F903F902F906C
:102CB00008950F931F93CF93DF93869F8001879F83
:102CC000100D969F100D1124C8010DD0EC01009736
:102CD00021F0A80160E070E038D1CE01DF91CF9102
:102CE0001F910F910895CF93DF938230910510F4D7
:102CF00082E090E0E0915E17F0915F1720E030E015
:102D0000A0E0B0E0309739F1408151814817590770
:102D1000B8F04817590771F482819381109729F010
:102D200013969C938E9312972CC090935F17809369
:102D30005E1727C02115310531F04217530718F0EF
:102D4000A901DB0101C0EF019A01BD01DF01028091
:102D5000F381E02DD7CF21153105F9F0281B390B70
:102D60002430310580F48A819B816115710521F041
:102D7000FB019383828304C090935F1780935E1757
:102D8000FE01329644C0FE01E20FF31F819391933E
:102D900022503109398328833AC020915C17309141
:102DA0005D17232B41F420910402309105023093EA
:102DB0005D1720935C1720910202309103022115C8
:102DC000310541F42DB73EB74091060250910702FC
:102DD000241B350BE0915C17F0915D17E217F307A8
:102DE000A0F42E1B3F0B2817390778F0AC014E5F7B
:102DF0005F4F2417350748F04E0F5F1F50935D1744
:102E000040935C178193919302C0E0E0F0E0CF0122
:102E1000DF91CF910895CF93DF93009709F487C096
:102E2000FC01329713821282C0915E17D0915F1716
:102E3000209781F420813181280F391F80915C1700
:102E400090915D178217930779F5F0935D17E093E2
:102E50005C176DC0DE0120E030E0AE17BF0750F414
:102E600012964D915C9113979D014115510509F101
:102E7000DA01F3CFB383A28340815181840F951F80
:102E80008A179B0771F48D919C911197840F951F60
:102E900002969183808312968D919C9113979383D0
:102EA00082832115310529F4F0935F17E0935E17B3
:102EB0003EC0D9011396FC93EE9312974D915D910C
:102EC000A40FB51FEA17FB0779F480819181840F65
:102ED000951F0296D90111969C938E9382819381BE
:102EE00013969C938E931297E0E0F0E08A819B8189
:102EF000009719F0FE01EC01F9CFCE01029628816E
:102F00003981820F931F20915C1730915D1728172C
:102F1000390769F4309729F410925F1710925E1701
:102F200002C013821282D0935D17C0935C17DF91A9
:102F3000CF910895FC010590615070400110D8F7C1
:102F4000809590958E0F9F1F0895DC0101C06D93B1
:102F500041505040E0F70895FC01615070400190ED
:102F60000110D8F7809590958E0F9F1F08950F93AD
:102F70001F93CF93DF93182F092FEB018B8181FDD6
:102F800003C08FEF9FEF20C082FF10C04E815F8192
:102F90002C813D81421753077CF4E881F9819F0120
:102FA0002F5F3F4F39832883108306C0E885F9855A
:102FB000812F1995892B29F72E813F812F5F3F4F54
:102FC0003F832E83812F902FDF91CF911F910F91FF
:102FD0000895FA01AA27283051F1203181F1E894AF
:102FE0006F936E7F6E5F7F4F8F4F9F4FAF4FB1E0FC
:102FF0003ED0B4E03CD0670F781F891F9A1FA11DF7
:10300000680F791F8A1F911DA11D6A0F711D811DF7
:10301000911DA11D20D009F468943F912AE0269FBC
:1030200011243019305D3193DEF6CF010895462F1B
:103030004770405D4193B3E00FD0C9F7F6CF462FFC
:103040004F70405D4A3318F0495D31FD4052419365
:1030500002D0A9F7EACFB4E0A69597958795779522
:103060006795BA95C9F700976105710508959B01A9
:10307000AC010A2E06945795479537952795BA9532
:10308000C9F7620F731F841F951FA01D0895F89440
:02309000FFCF70
:1030920001000000601720000100FFFF0100640032
:1030A2000300030003000A0001000C000100640099
:1030B200030007000100080001000900010064008C
:1030C2000100030002006400020004000500030086
:1030D2000200640002000300020004000300640016
:1030E2000100050005006400020004000500E80379
:1030F20001000300080010030C03FA02EC02DE02D6
:10310200D002C202B802AC02A4029A028C0280026D
:1031120005004F00500051005200530006004900C4
:103122004A004B004C004D004E0004004500460092
:103132004700480003003D003E003F000500360006
:1031420037003800390039000400320033003400FF
:10315200350006000A000B000C000D000E000F00E7
:103162000600230024002500260027002800060070
:103172001D001E001F0020002100220006000A0080
:103182000B000C000D000E000F00080029002A00A1
:103192002B002C002D002E002F003000010001001A
:1031A2000100000070003D018E03C2028E03C202C4
:1031B20070003D01F40206024102FC003601F101F9
:1031C200E8036400700033018E03C2028E03C20260
:1031D20025003D01F7021102F601BE004A0102027A
:1031E200E8036400250000023203000232030002F9
:1031F200CD000002F7021102F601BE004A010202EE
:10320200E803C80070003D018E03C2028E03C202B1
:1032120070003D01F7021102F601BE004A010202EE
:10322200E803640070003D018E03C2028E03C202F5
:1032320070003D01F7021102F601BE004A010202CE
:10324200E803640070003D018E03C2028E03C202D5
:1032520070003D01F7021102F601BE004A010202AE
:10326200E803640070003D018E03C2028E03C202B5
:1032720070003D01F7021102F601BE004A0102028E
:10328200E803640070003D018E03C2028E03C20295
:1032920070003D01F7021102F601BE004A0102026E
:1032A200E803640070003D018E03C2028E03C20275
:1032B20070003D01F7021102F601BE004A0102024E
:1032C200E803640070003D018E03C2028E03C20255
:1032D20070003D01F7021102F601BE004A0102022E
:1032E200E8036400DE003301A203C2028E03C202BD
:1032F2002F006001F7021102F601BE004A0102022C
:10330200E80396005C003D01B603E0025C039A020A
:1033120070003D01F7021102F601BE004A010202ED
:10332200E80396005C003D01B603E002CF039F0272
:1033320070003D01F7021102F601BE004A010202CD
:10334200E8039600520033012003AE02CF039F022E
:1033520066003301F7021102F601BE004A010202C1
:10336200E803960052002901A203C2028E03AE02B4
:10337200A2004701F7021102F601BE004A01020251
:10338200E803960052002901A203C2028E03C20280
:103392002F006001F7021102F601BE004A0102028B
:1033A200E80396007A005B01C003E002CF039F02AC
:1033B20034002E01F7021102F601BE004A01020298
:1033C200E8036400520029018903C2029303C70281
:1033D2003E006001F7021102F601BE004A0102023C
:1033E200E8036400520029018903C2029303C70261
:1033F2003E006001F7021102F601BE004A0102021C
:10340200E8036400520029018903C2029303C70240
:103412003E006001F7021102F601BE004A010202FB
:10342200E8036400660033019803CC029803CC02DF
:1034320066003301F7021102F601BE004A010202E0
:10344200E8033200660033019803CC029803CC02F1
:1034520066003301F7021102F601BE004A010202C0
:10346200E8033200660033019803CC029803CC02D1
:1034720066003301F7021102F601BE004A010202A0
:10348200E8033200660033019803CC029803CC02B1
:1034920066003301F7021102F601BE004A01020280
:1034A200E8033200660033019803CC029803CC0291
:1034B20066003301F7021102F601BE004A01020260
:1034C200E8033200660033019803CC029803CC0271
:1034D20066003301F7021102F601BE004A01020240
:1034E200E8033200660033019803CC029803CC0251
:1034F20066003301F7021102F601BE004A01020220
:10350200E8033200660033019803CC029803CC0230
:1035120066003301F7021102F601BE004A010202FF
:10352200E8033200660033019803CC029803CC0210
:1035320066003301F7021102F601BE004A010202DF
:10354200E803320000003301980332039803320388
:1035520000003301F7021102F601BE004A01020225
:10356200E803B400000033019803CC029803CC02B4
:1035720000003301F7021102F601BE004A01020205
:10358200E803B400660033019803CC029803CC022E
:1035920066003301F7021102F601BE004A0102027F
:1035A200E803B400000033019803320398033203A6
:1035B20000003301F7021102F601BE004A010202C5
:1035C200E803B400000033019803CC029803CC0254
:1035D20000003301F7021102F601BE004A010202A5
:1035E200E803B400660033019803CC029803CC02CE
:1035F20066003301F7021102F601BE004A0102021F
:10360200E803B4006600CD00FF03CC02FF03CC0246
:103612006600CD00F7021102F601BE004A01020265
:10362200E803B40066003301FF03CC02FF03CC02BF
:1036320066003301F7021102F601BE004A010202DE
:10364200E803B400660033019803CC029803CC026D
:1036520066003301F7021102F601BE004A010202BE
:10366200E803B4006600CD00FF03CC02FF03CC02E6
:103672006600CD00F7021102F601BE004A01020205
:10368200E803B40066003301FF03CC02FF03CC025F
:1036920066003301F7021102F601BE004A0102027E
:1036A200E803B400660033019803CC029803CC020D
:1036B20066003301F7021102F601BE004A0102025E
:1036C200E803B4009A01CC023203000298036602B6
:1036D20000003301F7021102F601BE004A010202A4
:1036E200E80364003301000232030002980300027F
:1036F200CD000002F7021102F601BE004A010202E9
:10370200E80364003301000298030002320300025E
:1037120000003301F7021102F601BE004A01020263
:10372200E803640033010002980300029803660272
:1037320066009A01F7021102F601BE004A01020276
:10374200E8036400CD00000266023301FF03CC02ED
:1037520066009A01F7021102F601BE004A01020256
:10376200E8036400CD000002CC0200023203000232
:1037720066000002F7021102F601BE004A010202CF
:10378200E803640066000002CC020002FF03CC02E0
:10379200CD000002F7021102F601BE004A01020248
:1037A200E803640066000002CC020002980366028D
:1037B20066009A01F7021102F601BE004A010202F6
:1037C200E8036400CD00000232030002320300026B
:1037D200CD000002F7021102F601BE004A01020208
:1037E200E803640070003D018E03C2028E03C20230
:1037F20070003D015902FC0123010F01F800230270
:10380200E803320070003D018E03C2028E03C20241
:1038120070003D01F201FC01C400C9029D00560185
:10382200E803320070003D018E03C2028E03C20221
:1038320070003D01EA01FC01A100D801B300BE0104
:10384200E803320070003D018E03C2028E03C20201
:1038520070003D01EA013903A100D801B300BE01A5
:10386200E803640070003D018E03C2028E03C202AF
:1038720070003D01EA01A102A100D801B300BE011E
:10388200E803640070003D018E03C2028E03C2028F
:1038920070003D01EA010102A100D801B300BE019E
:1038A200E803640070003D018E03C2028E03C2026F
:1038B20070003D01EA017C01A100D801B300BE0104
:1038C200E803640070003D018E03C2028E03C2024F
:1038D20070003D01EA01C400A100D801B300BE019D
:1038E200E803640070003D018E03C2028E03C2022F
:1038F20070003D01F40203029401BD00E800A10240
:10390200E803640070003D018E03C2028E03C2020E
:1039120070003D01F40203029401BD00E800A1021F
:10392200E803640070003D018E03C2028E03C202EE
:1039320070003D01F40203029401BD00E800A102FF
:10394200E803640070003D018E03C2028E03C202CE
:1039520070003D01F201F601A100D801B300BE01E1
:10396200E803320070003D018E03C2028E03C202E0
:1039720070003D015502FC01C0002C019D00F501C3
:10398200E803320070003D018E03C2028E03C202C0
:1039920070003D01F40203029401BD00E800A1029F
:1039A200E803320070003D018E03C2028E03C202A0
:1039B20070003D01F7021102F601BE004A01020247
:1039C200E803640070003D018E03C2028E03C2024E
:1039D20070003D01F7021102F601BE004A01020227
:1039E200E803640070003D018E03C2028E03C2022E
:1039F20070003D01F7021102F601BE004A01020207
:103A0200E803640070003D018E03C2028E03C2020D
:103A120070003D01F7021102F601BE004A010202E6
:103A2200E803640070003D018E03C2028E03C202ED
:103A320070003D01F7021102F601BE004A010202C6
:103A4200E803640070003D018E03C2028E03C202CD
:103A520070003D01F7021102F601BE004A010202A6
:103A6200E803320070003D018E03C2028E03C202DF
:103A720070003D01820222027602AB0170013E0219
:103A8200E803320070003D018E03C2028E03C202BF
:103A920070003D01B8021302CF023202BF010E02D2
:103AA200E803320070003D018E03C2028E03C2029F
:103AB20070003D01B0025B02D7023202DC01F30169
:103AC200E8033200DE003301A203C2028E03C20207
:103AD2002F006001B0025B02D7023202DC01F30167
:103AE200E80364005C003D01B603E0025C039A0255
:103AF20070003D01B0025B02D7023202DC01F30129
:103B0200E80364005C003D01B603E002CF039F02BC
:103B120070003D01B0025B02D7023202DC01F30108
:103B2200E8036400520033012003AE02CF039F0278
:103B320066003301B0025B02D7023202DC01F301FC
:103B4200E803640052002901A203C2028E03AE02FE
:103B5200A2004701B0025B02D7023202DC01F3018C
:103B6200E803640052002901A203C2028E03C202CA
:103B72002F006001B0025B02D7023202DC01F301C6
:103B8200E803640070003D018E03C2028E03C2028C
:103B920070003D01D8014001720230023702D001AB
:103BA200E803320070003D018E03C2028E03C2029E
:103BB20070003D01D8014001720230023702D0018B
:103BC200F401640070003D018E03C2028E03C20242
:103BD20070003D01FA01F901100202024B02C90113
:103BE200F401320070003D018E03C2028E03C20254
:103BF20070003D015802110210029D01FD017A027E
:103C0200F401320070003D018E03C2028E03C20233
:103C120070003D01F7021102F601BE004A010202E4
:103C2200F401320070003D018E03C2028E03C20213
:103C320070003D01F7021102F601BE004A010202C4
:103C4200E803640070003D018E03C2028E03C202CB
:103C520070003D01F7021102F601BE004A010202A4
:103C6200E803640070003D018E03C2028E03C202AB
:103C720070003D01F7021102F601BE004A01020284
:103C8200E803640070003D018E03C2028E03C2028B
:103C920070003D01F7021102F601BE004A01020264
:103CA200E803640070003D018E03C2028E03C2026B
:103CB20070003D01F7021102F601BE004A01020244
:103CC200E803640070003D018E03C2028E03C2024B
:103CD20070003D01F7021102F601BE004A01020224
:103CE200E803640070003D018E03C2028E03C2022B
:103CF20070003D01F7021102F601BE004A01020204
:103D0200E803640070003D018E03C2028E03C2020A
:103D120070003D01F7021102F601BE004A010202E3
:103D2200E803640070003D018E03C2028E03C202EA
:103D320070003D01F7021102F601BE004A010202C3
:103D4200E803640070003D018E03C2028E03C202CA
:103D520070003D01F7021102F601BE004A010202A3
:103D6200E803640070003D018E03C2028E03C202AA
:103D720070003D01F7021102F601BE004A01020283
:103D8200E803640070003D018E03C2028E03C2028A
:103D920070003D01F7021102F601BE004A01020263
:103DA200E803640070003D018E03C2028E03C2026A
:103DB20070003D01F7021102F601BE004A01020243
:103DC200E803640070003D018E03C2028E03C2024A
:103DD20070003D01F7021102F601BE004A01020223
:103DE200E803640070003D018E03C2028E03C2022A
:103DF20070003D01F7021102F601BE004A01020203
:103E0200E803640070003D018E03C2028E03C20209
:103E120070003D01F7021102F601BE004A010202E2
:103E2200E8036400130004000E00110005000700FF
:103E3200100006000D000C000B000A00090008002B
:103E42000F002323232073656E736F72496E6974AA
:103E52000025640A0A004E65636B2E2E2E2025640F
:103E62003A7B25642C2025642C2025642C20256493
:103E72002C2025642C2025642C2025647D0A002515
:103E8200643A25642C25642C25642C25642C256435
:103E92002C25642C25642C25642C25642C25642C6B
:103EA20025642C25642C25640A0025643A25642C9B
:103EB20025642C25642C25642C25642C25642C2552
:103EC200642C25642C25642C25642C25642C256403
:103ED2000A006A756467654D6F64654163742031D9
:103EE20020006A756467654D6F64654163742032B2
:103EF20020006A756467654D6F64654163742033A1
:103F02002073656E736F724D617849643A25640A55
:103F1200006A756467654D6F64654163742034207F
:103F2200006A756467654D6F6465416374207061F2
:103F3200747465726E3A31006A756467654D6F64B8
:103F420065416374207061747465726E3A32006AFE
:103F5200756467654D6F6465416374207061747444
:103F620065726E3A33006A756467654D6F646541C8
:103F72006374207061747465726E3A34006A756499
:103F820067654D6F64654163742070617474657216
:103F92006E3A35006A756467654D6F646541637496
:103FA200207061747465726E3A36006A7564676572
:103FB2004D6F6465416374207061747465726E3A0A
:103FC20037006A756467654D6F646541637420707C
:103FD20061747465726E3A380025643B0A00496E5A
:103FE20070757420766F6C74616765206572726F8C
:103FF200722100416E676C65206C696D6974206581
:1040020072726F7221004F76657268656174206505
:1040120072726F7221004F7574206F662072616E2A
:104022006765206572726F722100436865636B7306
:10403200756D206572726F7221004F7665726C6FBA
:104042006164206572726F722100496E73747275B9
:104052006374696F6E20636F6465206572726F723C
:104062002100434F4D4D5F54584641494C3A20463A
:1040720061696C6564207472616E736D6974206924
:104082006E737472756374696F6E207061636B65B1
:10409200742100434F4D4D5F54584552524F523A8E
:1040A20020496E636F727265637420696E737472F5
:1040B200756374696F6E207061636B657421004370
:1040C2004F4D4D5F52584641494C3A204661696C0A
:1040D2006564206765742073746174757320706100
:1040E200636B65742066726F6D20646576696365C3
:1040F2002100434F4D4D5F525857414954494E4755
:104102003A204E6F7720726563696576696E672023
:10411200737461747573207061636B6574210043FD
:104122004F4D4D5F525854494D454F55543A2054C6
:1041320068657265206973206E6F2073746174758F
:1041420073207061636B65742100434F4D4D5F5264
:1041520058434F52525550543A20496E636F72720F
:1041620065637420737461747573207061636B6529
:104172007421005468697320697320756E6B6E6FC9
:10418200776E206572726F7220636F646521006DB5
:104192006F7665204F6F707321206D6F74696F6E3B
:1041A2004E756D6265723A25640A006D6F76652000
:1041B20031006D6F76652032006D6F766520332099
:1041C2006D6F74696F6E4E756D6265723A25640A21
:1041D200006D6F7665203420736561726368536584
:1041E2006E736F72735B25645D3A25640A00232344
:1041F20023206D6F76655465737420310023232369
:10420200206D6F766554657374203200232323205A
:0C4212006D6F76655465737420330000F6
:00000001FF
