S01700004763634170706C69636174696F6E312E737265635B
S113000065C0000084C0000082C0000080C0000001
S11300107EC000007CC000007AC0000078C00000F0
S113002076C0000074C0000072C0000070C0000000
S11300306EC000006CC000006AC0000068C0000010
S113004066C0000064C0000062C0000060C0000020
S11300505EC000005CC000005AC0000058C0000030
S113006056C0000024C4000052C0000050C000006C
S11300704EC000004CC000004AC0000048C0000050
S113008046C0000044C0000042C0000040C0000060
S113009013C500003CC000003AC0000038C0000096
S11300A036C0000034C0000032C0000030C0000080
S11300B02EC000002CC000002AC0000028C0000090
S11300C026C0000024C0000022C0000011241FBE6E
S11300D0CFEFD1E2DEBFCDBF00E00CBF19E0A0E05E
S11300E0B2E0ECEBFAE200E00BBF02C007900D9225
S11300F0A033B107D9F72CE0A0E3B9E001C01D9209
S1130100A43CB207E1F70E945A0D0C945C1578CF19
S1130110809100029091010208958093320908951C
S1130120809334090895FC01E05DF64F65830895DA
S113013080933309089520E030E09091D409982306
S113014011F021E030E0C90108958091D30990E0D5
S11301500895FC01E053F64F858190E00895362F11
S113016020E0280F391FC9010895282F30E0C90164
S113017008958070892F90E008950F931F93CF9373
S1130180DF938091180A9091190A892B09F4B8C059
S1130190809132098E3F09F4A9C0809100029091A8
S11301A00102892B29F41092170A86E08093160A1B
S11301B08091170A90E06091160A70E0681B790B31
S11301C08053964F49D39091170A980F9093170A2A
S11301D08091160A981718F44AD2019771F0709119
S11301E0170A472F50E0DA0111978A010250104094
S11301F060E0ED01C053D64F18C08091170A8823E0
S113020009F071C086E090E073C0F901E053F64F45
S113021080818F3F19F481818F3F61F0201731076E
S113022019F488818F3F31F06F5F262F30E02A1751
S11302303B075CF36623A1F090E0421B530B08C01C
S1130240E053F64FDF01A20FB31F8C9180839F5FB1
S1130250E92FF0E0E417F5079CF3761B7093170A77
S11302602091170A8091160A281728F190913209D3
S11302708091D2099817B9F56091D3096C5F6093A6
S1130280160A261788F4822F90E070E0681B790B19
S11302908053964FE1D29091170A980F9093170AC2
S11302A08091160A981738F08091D309A82FB0E0EE
S11302B020E090E00CC085E090E0909301028093F0
S11302C000021EC0E053F64F8281980F2F5FE22F89
S11302D0F0E0AE17BF07B4F7A053B64F909513964E
S11302E08C91891719F087E090E002C081E090E0DA
S11302F090930102809300021092190A1092180A36
S1130300DF91CF911F910F9108951F938091180A47
S11303109091190A019709F45DC081E090E09093EF
S1130320190A8093180A80913309893940F490910D
S11303303409892F8150863028F0933819F084E0ED
S113034090E02FC08FEF8093300980933109809122
S11303503309A82FB0E020E090E005C0E05DF64F3F
S11303608281980F2F5FE22FF0E0AE17BF07B4F73A
S1130370A05DB64F909513969C9380910002909146
S113038001020697029708F438D1109133091C5FD3
S113039080E399E0612F70E035D1181759F082E0BD
S11303A090E090930102809300021092190A109237
S11303B0180A10C080913409823029F480913609DA
S11303C090E0069602C086E090E040D110920102CF
S11303D0109200021F91089598DF8091000290917D
S11303E00102892B39F4C9DE809100029091010247
S11303F00597C9F30895282F8091180A9091190A36
S1130400892B91F42093320983E08093340960931B
S11304103509CA014093360980709093370985E005
S113042080933309D9CF0895FFCF282F8091180ADC
S11304309091190A892BB1F42093320982E08093B8
S11304403409609335098093360984E08093330935
S1130450C3DF3091D60920E08091D509280F311DE2
S1130460C9010895FFCF282F8091180A9091190A85
S1130470892B71F42093320983E0809334096093CB
S113048035094093360984E080933309A5CF089554
S1130490FFCF282F8091180A9091190A892B91F483
S11304A02093320982E0809334096093350981E016
S11304B08093360984E0809333098EDF8091D509D7
S11304C090E00895FFCF282F8091180A9091190A7F
S11304D0892B51F42093320981E08093340982E01E
S11304E08093330979CF0895FFCF86C008950F9381
S11304F01F938C016F5F7F4F882777FD8095982F1E
S11305000E94290F9B01AC0160E074E284EF99E43E
S11305100E948E0EAB01BC01C80115D0892B19F4C1
S113052020E030E00CC081E090E0909301028093E1
S113053000021092190A1092180A21E030E0C90151
S11305401F910F910895EF92FF920F931F937A01D9
S11305508B0182E48093C00088E98093C10086E027
S11305608093C20060E074E284EF99E4A8019701EB
S11305700E948E0E0E94FB0E615070407093C50065
S11305806093C40060E074E284E799E4A8019701F1
S11305900E948E0E20E030E040E451E40E94B50F4A
S11305A06093B20C7093B30C8093B40C9093B50C1D
S11305B02091B20C3091B30C4091B40C5091B50C15
S11305C060E070E08AE793E40E948E0E0E94FB0EC6
S11305D07093B10C6093B00C7298739A8FEF809300
S11305E0C60010921A0B10921B0B81E090E01F9131
S11305F00F91FF90EF900895089580911B0B8093C5
S11306001A0B0895AC01F8947398729A20E030E0C4
S113061011C08091C00085FFFCCF8091C000806430
S11306208093C000FA01E20FF31F80818093C6001B
S11306302F5F3F4F2617370764F38091C00086FF72
S1130640FCCF7298739A7894C90108951092B90CEA
S11306501092B80C2091B00C3091B10C265F3F4F32
S1130660280F391F3093B70C2093B60C0895AF921E
S1130670BF92CF92DF92EF92FF920F931F938091DC
S1130680B80C9091B90C01969093B90C8093B80C66
S11306902091B80C3091B90C8091B60C9091B70CA4
S11306A08217930718F421E030E074C0A090B20CD4
S11306B0B090B30CC090B40CD090B50CC601B50189
S11306C02BEA3AEA4AEA50E40E94B50F7B018C0116
S11306D020E030E040E85FE30E941810882314F41F
S11306E061E054C0C801B70120E030E04FE753E4B3
S11306F00E94401018160CF045C0C601B50120E058
S113070030E04AE754E40E948E0E5B016C0120E065
S113071030E04AE755E40E94B50F7B018C0120E0EC
S113072030E040E85FE30E94181088231CF461E085
S113073070E024C0C801B70120E03FEF4FE757E461
S11307400E9440101816B4F4C601B50120E030E050
S113075040E251E40E94B50F0E94FB0E80E991E053
S113076005C0FC013197F1F76150704061157105C6
S1130770C1F70EC0C801B7010E94FB0ECB0101975F
S1130780F1F706C0C801B7010E94FB0E6A95F1F7A4
S113079020E030E0C9011F910F91FF90EF90DF90AE
S11307A0CF90BF90AF90089590911A0B80911B0B3E
S11307B0981719F420E030E017C090911A0B80913B
S11307C01B0B981738F480911B0B90911A0B282F50
S11307D030E008C080911B0B90911A0B282F30E059
S11307E020503F4F291B3109C90108951F93182F29
S11307F0DBDF8F3F910591F0E0911B0BF0E0E65EAB
S1130800F54F108380911B0B8F3F19F410921B0B33
S113081005C080911B0B8F5F80931B0B1F91089564
S113082090911A0B80911B0B981711F4EFEF12C0E3
S1130830E0911A0BF0E0E65EF54FE08180911A0B2F
S11308408F3F19F410921A0B05C080911A0B8F5F19
S113085080931A0B8E2F0895EF92FF920F931F939C
S1130860CF93DF937C01EB0190911A0B80911B0BCA
S1130870981719F400E010E012C096DF8C01C81735
S1130880D9070CF48E01C0E0D0E006C0C9DFF7013F
S1130890EC0FFD1F80832196C017D107BCF3C8015C
S11308A0DF91CF911F910F91FF90EF9008951F92C8
S11308B00F920FB60F920BB60F9211242F933F9302
S11308C04F935F936F937F938F939F93AF93BF9354
S11308D0EF93FF938091C60089DFFF91EF91BF9161
S11308E0AF919F918F917F916F915F914F913F91C4
S11308F02F910F900BBE0F900FBE0F901F90189565
S1130900AC0120E030E00CC08091C80085FFFCCF32
S1130910FA01E20FF31F80818093CE002F5F3F4FD7
S1130920261737078CF30895DC0190919C0B809176
S11309309D0B981711F480E0089590919C0B809181
S11309409D0B981719F420E030E017C090919C0B90
S113095080919D0B981738F480919D0B90919C0B7E
S1130960282F30E008C080919D0B90919C0B282F7C
S113097030E020583F4F291B3109A9016217730742
S11309800CF4AB0120E030E020C090919C0B8091EE
S11309909D0B981711F49FEF12C0E0919C0BF0E0AF
S11309A0E45EF44F908180919C0B8F3719F4109280
S11309B09C0B05C080919C0B8F5F80939C0BFD0169
S11309C0E20FF31F90832F5F3F4F24173507ECF29C
S11309D0842F089590919C0B80919D0B981719F486
S11309E020E030E017C090919C0B80919D0B9817EC
S11309F038F480919D0B90919C0B282F30E008C017
S1130A0080919D0B90919C0B282F30E020583F4FF4
S1130A10291B3109C9010895482F90919C0B80919D
S1130A209D0B9817D1F090919C0B80919D0B98177A
S1130A3038F480919D0B90919C0B282F30E008C0D6
S1130A4080919D0B90919C0B282F30E020583F4FB4
S1130A50291B31092F37310591F0E0919D0BF0E00E
S1130A60E45EF44F408380919D0B8F3719F410920C
S1130A709D0B089580919D0B8F5F80939D0B08952E
S1130A8090919C0B80919D0B981711F4EFEF12C07D
S1130A90E0919C0BF0E0E45EF44FE08180919C0BCC
S1130AA08F3719F410929C0B05C080919C0B8F5FBB
S1130AB080939C0B8E2F08951F920F920FB60F9266
S1130AC00BB60F9211242F933F934F935F936F9321
S1130AD07F938F939F93AF93BF93EF93FF938091F3
S1130AE0CE009ADFFF91EF91BF91AF919F918F91CB
S1130AF07F916F915F914F913F912F910F900BBE1A
S1130B000F900FBE0F901F901895DF93CF930F9205
S1130B100F92CDB7DEB7982F8A3099F48DE0898390
S1130B209A83FE0131969E012D5F3F4F8091C8004C
S1130B3085FFFCCF81918093CE00E217F307B1F7D4
S1130B4006C08091C80085FFFCCF9093CE0080E062
S1130B5090E00F900F90CF91DF91089590919C0BAE
S1130B6080919D0B9817D1F390919C0B80919D0BD4
S1130B70981738F480919D0B90919C0B282F30E0AE
S1130B8008C080919D0B90919C0B282F30E0205839
S1130B903F4F291B3109232B09F390919C0B809122
S1130BA09D0B981711F4EFEF15C0E0919C0BF0E04A
S1130BB0E45EF44FE08180919C0B8F3719F410921E
S1130BC09C0B05C080919C0B8F5F80939C0BED3038
S1130BD009F4EAE08E2F90E008950E94290F9B010A
S1130BE0AC0160E074E284EF99E40E948E0E0E94EE
S1130BF0FB0E6150704022E42093C80028E9209342
S1130C00C90026E02093CA002FEF2093CE00109253
S1130C109C0B10929D0B272F332727FD3A95209389
S1130C20CD006093CC007298739A85E895E06EEAE3
S1130C3075E00E94BA1090939F0B80939E0B0895C9
S1130C4060E071EE80E090E0C8DF78940895C2DE41
S1130C50181619060CF03FC08091BA0C9091BB0C89
S1130C600E9404118A3011F08D3091F48091F20BBE
S1130C709091F30B181619068CF51092F30B109241
S1130C80F20B81E090E09093F50B8093F40B0895C0
S1130C90882339F12091F20B3091F30BA9014F5FB6
S1130CA05F4F5093F30B4093F20BF901EE55F44F61
S1130CB080838091F20B9091F30B8F349105A4F013
S1130CC01092F30B1092F20B81E090E09093F50BED
S1130CD08093F40B089580E090E0089580E090E024
S1130CE0089580E090E0089580E090E00895809178
S1130CF0F40B9091F50B181619063CF41092F50BB1
S1130D001092F40B82EA9BE0089580E090E008954D
S1130D108AE296E00E94531161E070E080E090E086
S1130D20E6DB789486E880937A0081E080937C0007
S1130D3008951798EAE7F0E08081806180838081DC
S1130D4080648083808184FFFDCF8CEF82B98091A1
S1130D507800909179009F938F9389E396E09F9315
S1130D608F930E9442110F900F900F900F9008954F
S1130D709F938F9384E596E09F938F930E944211F3
S1130D800F900F900F900F90089561E070E080E055
S1130D9090E0ADDB41E050E06FE270E08FE190E085
S1130DA02ADB40E050E060E270E08EEF90E023DB6D
S1130DB040E050E068E170E08EEF90E054DB2FE318
S1130DC08DE093E0215080409040E1F700C00000A6
S1130DD008950F931F93CF93DF9300D0CDB7DEB761
S1130DE020E23CE240E029833A834B83BE016F5FFB
S1130DF07F4F0E948810009789F000E11CE00E9458
S1130E006B10F801819391938F01BE016F5F7F4F47
S1130E1080E090E00E948810009789F70F900F906F
S1130E200F90DF91CF911F910F9108958091020C43
S1130E309091030C0A969093030C8093020C2091DA
S1130E40000C3091010C821793073CF01092030CB4
S1130E501092020C80E090E0089581E090E0089503
S1130E60A091120CB091130CA233B105C4F4E4E1C7
S1130E70FCE0AA0FBB1FCD01880F991F880F991F93
S1130E80880F991FA80FB91FAA56BD4F26E23CE050
S1130E90819191918D939D93E217F307C9F708957A
S1130EA0CF92DF92EF92FF920F931F93CF93DF9332
S1130EB0CDB7DEB760970FB6F894DEBF0FBECDBFD7
S1130EC0FE01319680E1DF011D928A95E9F70AE17E
S1130ED016E07F010F2EFAE2CF2EF6E0DF2EF02D82
S1130EE064E270E0F801819191918F019EDAD7015B
S1130EF08D939D937D010C151D0591F7888D8F931E
S1130F008F898F938E898F938D898F938C898F93FB
S1130F108B898F938A898F9389898F9388898F93FB
S1130F208F858F938E858F938D858F938C858F93EB
S1130F308B858F938A858F9389858F9388858F93EB
S1130F408F818F938E818F938D818F938C818F93DB
S1130F508B818F938A818F9389818F931F9282E0F3
S1130F608F9389E596E09F938F930E9442110FB669
S1130F70F894DEBF0FBECDBF60960FB6F894DEBF07
S1130F800FBECDBFDF91CF911F910F91FF90EF90D6
S1130F90DF90CF9008959C01220F331FF901EE0FCB
S1130FA0FF1FEE0FFF1FEE0FFF1FE20FF31FEA56A6
S1130FB0FD4F218D2F93208D2F9327892F932689E1
S1130FC02F9325892F9324892F930196DC01AA0F4F
S1130FD0BB1FCD01880F991F880F991F880F991F78
S1130FE0A80FB91FAA56BD4F11968C9111978F93D4
S1130FF08C918F9381898F9380898F9387858F9329
S113100086858F9385858F9384858F9383858F932E
S113101082858F9381858F9380858F9387818F932A
S113102086818F9385818F9384818F9383818F931E
S113103082818F9381818F9380818F931F9283E02C
S11310408F938CE896E09F938F930E9442118DB703
S11310509EB74E960FB6F8949EBF0FBE8DBF0895EF
S1131060CF92DF92EF92FF920F931F93CF93DF9370
S1131070CDB7DEB760970FB6F894DEBF0FBECDBF15
S1131080FE01319680E1DF011D928A95E9F70AE1BC
S113109016E07F010F2EFAE2CF2EF6E0DF2EF02DC0
S11310A068E270E0F801819191918F01BED9D70176
S11310B08D939D937D010C151D0591F7888D8F935C
S11310C08F898F938E898F938D898F938C898F933A
S11310D08B898F938A898F9389898F9388898F933A
S11310E08F858F938E858F938D858F938C858F932A
S11310F08B858F938A858F9389858F9388858F932A
S11311008F818F938E818F938D818F938C818F9319
S11311108B818F938A818F9389818F931F9284E02F
S11311208F9387EB96E09F938F930E9442110FB6A3
S1131130F894DEBF0FBECDBF60960FB6F894DEBF45
S11311400FBECDBFDF91CF911F910F91FF90EF9014
S1131150DF90CF900895CF92DF92EF92FF920F939A
S11311601F93CF93DF93CDB7DEB760970FB6F89494
S1131170DEBF0FBECDBFFE01319680E1DF011D92BF
S11311808A95E9F70AE116E07F010F2EFAE2CF2EE5
S1131190F6E0DF2EF02D6AE270E0F8018191919182
S11311A08F0143D90E94B500D7018D939D937D0192
S11311B00C151D0581F7888D8F938F898F938E89E8
S11311C08F938D898F938C898F938B898F938A8941
S11311D08F9389898F9388898F938F858F938E8539
S11311E08F938D858F938C858F938B858F938A8531
S11311F08F9389858F9388858F938F818F938E8129
S11312008F938D818F938C818F938B818F938A8120
S11312108F9389818F931F9285E08F9389EE96E057
S11312209F938F930E9442110FB6F894DEBF0FBEB6
S1131230CDBF60960FB6F894DEBF0FBECDBFDF9171
S1131240CF911F910F91FF90EF90DF90CF90089571
S11312509093FF0B8093FE0B7093FD0B6093FC0B3C
S11312602091040C3091050C232B61F49093070C0E
S11312708093060C7093050C6093040C1092FD0B84
S11312801092FC0B08958091040C9091050C181693
S113129019060CF450C080910E0C90910F0C01971C
S11312A009F049C08091F60B9091F70B892BD1F48A
S11312B0E091080CF091090CEE0FFF1FEE0FFF1FD9
S11312C0E25FFD4F80819181029761F461E070E0FB
S11312D081E090E0BDDF81E090E09093F70B809394
S11312E0F60B08951092F70B1092F60BE091080C90
S11312F0F091090CEE0FFF1FEE0FFF1FE25FFD4F91
S11313006281738180819181A3DF8091080C909127
S1131310090C01969093090C8093080C20911002FB
S1131320309111022817390734F481E090E090934A
S1131330090C8093080C08959093070C8093060C75
S11313407093050C6093040C1092FD0B1092FC0B2F
S113135081E090E090930D0280930C021092030CB4
S11313601092020C089581E090E090930D02809316
S11313700C021092050C1092040C1092030C1092A3
S1131380020C8FEF9FEF90930B0280930A02089553
S113139081E090E00E949B00019719F483E297E0BA
S11313A082D782E090E00E949B00019719F488E3C1
S11313B097E079D784E090E00E949B00019719F4AC
S11313C08BE497E070D788E090E00E949B0001973F
S11313D019F48BE597E067D780E190E00E949B00C9
S11313E0019719F48FE697E05ED780E290E00E94BF
S11313F09B00019719F48FE797E055D780E490E0BC
S11314000E949B00019719F48FE897E04CC7089558
S11314108430910591F034F48230910551F00397B2
S113142081F01FC086309105A1F07CF00797A9F0E8
S113143018C087EA97E037C7089588ED97E033C767
S1131440089584E098E02FC7089587E398E02BC7B8
S1131450089584E698E027C708958FE898E023C7A5
S1131460089588EB98E01FC708950F931F93CF93B7
S1131470DF938C01EB018EEF90E00E948D0083E8F6
S113148090E00E94900060E270E080E090E00E94B2
S1131490930062E070E081E090E00E949300B80164
S11314A082E090E00E949300CE010E94B500BC014E
S11314B083E090E00E949300CE010E94B900BC0139
S11314C084E090E00E94930087E090E00E949800FE
S11314D00E94EC010E9488008130910511F458DFCC
S11314E001C096DFDF91CF911F910F9108952F9244
S11314F03F924F925F926F927F928F929F92AF92A0
S1131500BF92CF92DF92EF92FF920F931F93CF93EC
S1131510DF93CDB7DEB7AA970FB6F894DEBF0FBE40
S1131520CDBF9EA38DA38233910594F01F9288E0D2
S11315308F939F932DA12F9384ED98E09F938F9386
S1131540A1D60F900F900F900F900F900F9078C12D
S1131550FE01319680E1DF011D928A95E9F78DA1A4
S11315609EA1880F991F9C01220F331F220F331F46
S1131570220F331F820F931F9C012A563D4F38A719
S11315802FA36E2E7F2E0F2EFAE28F2EF6E09F2EC3
S1131590F02D7F0169010AE116E0A12CB12C64E26F
S11315A070E0D8018D919D918D010E941502F60184
S11315B0219131916F01A901481B590BCA0199234B
S11315C024F0D7014D935C9306C0919581959109C0
S11315D0F70191838083D7018D919D917D01A81698
S11315E0B9060CF45C0108151905C9F68E010F5EE5
S11315F01F4F80E1F80111928A95E9F784E690E0A3
S11316009A8B898B8DA19EA1880F991FFC01EE0FE7
S1131610FF1FEE0FFF1FEE0FFF1F8E0F9F1FFC011A
S1131620EA56FD4F60897189882777FD8095982F48
S113163010D46B017C0109A71AA71AA309A31801E6
S1131640062D172D4501AA2497FCA094BA2CD80185
S1131650ED91FD918D01FCA3EBA3C501B401F9D378
S11316602B013C012BA13CA1B901882777FD809572
S1131670982FEFD3A301920151D39B01AC01C70171
S1131680B60173D4B3D36115710521F0D1016D9303
S11316907C9305C021E030E0F1013183208332E006
S11316A0230E311C49A15AA10417150781F68DA1F7
S11316B09EA1880F991FFC01EE0FFF1FEE0FFF1F65
S11316C0EE0FFF1F8E0F9F1FFC01EA56FD4F60892E
S11316D071898BEF93E1D8D4882777FD8095982F73
S11316E0B8D39B01AC01C301B2013FD47FD36A30AC
S11316F071052CF07093010C6093000C06C08AE015
S113170090E09093010C8093000C8EEF90E00E9487
S11317108D0083E890E00E94900060E270E080E039
S113172090E00E94930062E070E081E090E00E940B
S11317309300C9A4DAA40F2EFAE1AF2EF6E0BF2E6F
S1131740F02D02E010E0D5016D917D915D01C8019D
S11317500E949300F601E190F1906F01C7010E948D
S1131760B500BC01C80101960E949300C7010E9404
S1131770B900BC01C80102960E9493000D5F1F4F7F
S11317800A31110501F78CE190E00E9498000E9453
S1131790EC010E9488008130910509F050C0F8DD09
S11317A08EEF90E00E948D0083E890E00E9490000C
S11317B06EE170E080E090E00E94930062E070E0EF
S11317C081E090E00E949300EFA0F8A40F2EFAE1CC
S11317D0CF2EF6E0DF2EF02D02E010E0D6016D9161
S11317E07D916D01C8010E9493005701F701819119
S11317F091917F010E94B500BC01C80101960E942D
S11318009300D5018D919C910E94B900BC01C8013F
S113181002960E9493000D5F1F4F0A311105F1F6E5
S11318208CE190E00E9498000E94EC010E948800E4
S11318308130910511F4ACDD03C0EADD01C0E8DDBF
S1131840AA960FB6F894DEBF0FBECDBFDF91CF913D
S11318501F910F91FF90EF90DF90CF90BF90AF90CA
S11318609F908F907F906F905F904F903F902F90BC
S1131870089548990EC080910C0C90910D0C892B01
S113188009F050C081E090E090930D0C80930C0C13
S1131890089580910C0C90910D0C019709F042C0B1
S11318A010920D0C10920C0C80910E0C90910F0C58
S11318B09C012F5F3F4F30930F0C20930E0C26E0BA
S11318C030E0A901481B590BCA01181619063CF04F
S11318D08FE388B910920F0C10920E0C0BC021E00C
S11318E030E0A90102C0440F551F8A95E2F7CA01EE
S11318F0809588B938DD80E090E0F9DD81E090E002
S11319009093090C8093080C80910E0C90910F0C0D
S1131910019741F480910E0290910F0290930B0C69
S113192080930A0C0895CF93DF938091040C9091D7
S1131930050C181619060CF0BAC078DA892B09F0D0
S1131940B6C0E091060CF091070CEE0FFF1FE65CA9
S1131950FD4FC081D181EDD98091070C8F93809187
S1131960060C8F9388EE98E09F938F938BD480918D
S11319700D028F9380910C028F9386E099E09F93E0
S11319808F9380D48DB79EB708960FB6F8949EBFF8
S11319900FBE8DBF2881398180910C0290910D0278
S11319A0281739070CF06FC081E090E090930D0286
S11319B080930C028091040C9091050C8336910560
S11319C00CF061C001979093050C8093040C1816D9
S11319D019060CF458C02091FC0B3091FD0B121623
S11319E013060CF04EC08091FE0B9091FF0BAC01DE
S11319F0425051094230510590F44091060C5091E7
S1131A00070C4130510539F181E090E09093070CC7
S1131A108093060C9093050C8093040C28C040918D
S1131A20060C5091070C4430510521F48530910582
S1131A3091F406C08430910571F44530510559F490
S1131A401092070C1092060C81E090E09093050C24
S1131A508093040C0CC09093070C8093060C309375
S1131A60050C2093040C1092FD0B1092FC0B9FE5C7
S1131A702AEE80E0915020408040E1F700C0000051
S1131A8016C071DC14C080910C0290910D02880F75
S1131A90991FC80FD91F8881998129DD80910C0273
S1131AA090910D02019690930D0280930C02DF91A8
S1131AB0CF9108956F927F928F929F92AF92BF922F
S1131AC0CF92DF92EF92FF920F931F93CF93DF9306
S1131AD011B882E182B98FE787B98EE788B980E7C8
S1131AE08AB981E18BB951D9ABD812D903E219E093
S1131AF0C0E1DCE00F2EF0E58F2EF02D0F2EF4E187
S1131B00CF2EFCE0DF2EF02D0F2EF2E1EF2EFCE0C5
S1131B10FF2EF02D0F2EFFED6F2EF02D0F2EF0EA7D
S1131B209F2EF02D0F2EFFE77F2EF02DA2DE8FD8F3
S1131B30181619060CF08CC0DAD85C01009709F469
S1131B4087C0BF928F931F930F939CD3C50141D934
S1131B500F900F900F900F90888199818630910596
S1131B6009F45CC094F48230910509F444C034F45F
S1131B70009701F1019709F440C062C084309105D7
S1131B8009F448C00CF43AC047C08930910559F1B2
S1131B9034F487309105B1F0089701F151C08B30CE
S1131BA0910509F450C00CF442C0873E934009F4F7
S1131BB09CC046C0F7018081918199DC81E090E06E
S1131BC0D7D841C0F60160817181F701808191818C
S1131BD03FDB68B881E090E0CBD835C0C4DB81E05E
S1131BE090E0C6D830C0F60160817181F701808130
S1131BF09181A2DB28C054D926C032D9F701808153
S1131C0091818233910524F080E090E0B1D81BC02B
S1131C10C2D919C025DA17C09EDA15C040E050E0D9
S1131C2068E170E08EEF90E00E9433020CC01092E5
S1131C30F80B1092F90B1092FA0B1092FB0B03C0E5
S1131C4080E090E095D8F501282D11922A95E9F7C6
S1131C50FE01292D11922A95E9F7019910C080916E
S1131C60080290910902181619062CF5109209021F
S1131C701092080278B880E090E039DC1CC08091B2
S1131C80080290910902892B39F4469881E090E08A
S1131C90909309028093080280910A0C90910B0C96
S1131CA0181619061CF0EFDA3EDE05C00A97909369
S1131CB00B0C80930A0C83EC99E00197F1F700C0B8
S1131CC000008091F80B9091F90BA091FA0BB09160
S1131CD0FB0B0196A11DB11D8093F80B9093F90B9A
S1131CE0A093FA0BB093FB0B21CF87EE93E040D87F
S1131CF060E070E080E090E0B8DB80E090E0DF91AD
S1131D00CF911F910F91FF90EF90DF90CF90BF90F4
S1131D10AF909F908F907F906F9008950CD0EBC000
S1131D20E3D040F0DAD030F021F45F3F19F0CCC0BA
S1131D30511115C1CFC0F0D098F39923C9F355239D
S1131D40B1F3951B550BBB27AA27621773078407AA
S1131D5038F09F5F5F4F220F331F441FAA1FA9F360
S1131D6033D00E2E3AF0E0E830D091505040E69552
S1131D70001CCAF729D0FE2F27D0660F771F881FB3
S1131D80BB1F261737074807AB07B0E809F0BB0BA2
S1131D90802DBF01FF2793585F4F2AF09E3F5105C6
S1131DA068F092C0DCC05F3FECF3983EDCF38695AC
S1131DB077956795B795F7959F5FC9F7880F911D3C
S1131DC09695879597F90895E1E0660F771F881F28
S1131DD0BB1F621773078407BA0720F0621B730BDB
S1131DE0840BBA0BEE1F88F7E095089504D068942D
S1131DF0B111B5C0089598D088F09F5790F0B92FCD
S1131E009927B751A0F0D1F0660F771F881F991F4B
S1131E101AF0BA95C9F712C0B13081F09FD0B1E081
S1131E2008959CC0672F782F8827B85F39F0B93F91
S1131E30CCF3869577956795B395D9F73EF490954D
S1131E408095709561957F4F8F4F9F4F0895E894CB
S1131E5009C097FB3EF490958095709561957F4FEE
S1131E608F4F9F4F9923A9F0F92F96E9BB2793959C
S1131E70F695879577956795B795F111F8CFFAF4AC
S1131E80BB0F11F460FF1BC06F5F7F4F8F4F9F4FDD
S1131E9016C0882311F096E911C0772321F09EE83B
S1131EA0872F762F05C0662371F096E8862F70E0A1
S1131EB060E02AF09A95660F771F881FDAF7880F7B
S1131EC09695879597F9089597F99F6780E870E04C
S1131ED060E008959FEF80EC089500240A9416169C
S1131EE0170618060906089500240A941216130604
S1131EF0140605060895092E0394000C11F4882392
S1131F0052F0BB0F40F4BF2B11F460FF04C06F5FAD
S1131F107F4F8F4F9F4F089557FD9058440F551F83
S1131F2059F05F3F71F04795880F97FB991F61F057
S1131F309F3F79F087950895121613061406551FCE
S1131F40F2CF4695F1DF08C0161617061806991F3A
S1131F50F1CF86957105610508940895E894BB272F
S1131F6066277727CB0197F908950BD0C4CFB5DF47
S1131F7028F0BADF18F0952309F0A6CFABCF1124CF
S1131F80EECFCADFA0F3959FD1F3950F50E0551F14
S1131F90629FF001729FBB27F00DB11D639FAA27BA
S1131FA0F00DB11DAA1F649F6627B00DA11D661F09
S1131FB0829F2227B00DA11D621F739FB00DA11D2A
S1131FC0621F839FA00D611D221F749F3327A00DE4
S1131FD0611D231F849F600D211D822F762F6A2F80
S1131FE011249F5750408AF0E1F088234AF0EE0F05
S1131FF0FF1FBB1F661F771F881F91505040A9F712
S11320009E3F510570F060CFAACF5F3FECF3983E3E
S1132010DCF3869577956795B795F795E7959F5F78
S1132020C1F7FE2B880F911D9695879597F9089512
S113203003D008F481E00895990F0008550FAA0B06
S1132040E0E8FEEF16161706E807F907C0F01216C7
S11320501306E407F50798F0621B730B840B950BCA
S113206039F40A2661F0232B242B252B21F408951F
S11320700A2609F4A140A6958FEF811D811D0895BC
S1132080DBDF08F48FEF089597FB072E16F4009416
S113209006D077FD08D00BD007FC05D03EF4909510
S11320A081959F4F0895709561957F4F0895AA1B60
S11320B0BB1B51E107C0AA1FBB1FA617B70710F02F
S11320C0A61BB70B881F991F5A95A9F78095909561
S11320D0BC01CD010895FC0188279927E89421913A
S11320E02032E9F3293010F02E30C8F32B3239F0C6
S11320F02D3231F4689403C035D0820F911D2191A3
S113210020532A30C8F31EF4909581959F4F08956B
S113211040EA5BE000C0FA01A191B081009719F494
S11321201097E1F0CD01DC01CD010D90002011F4F8
S1132130C00113C0FB012191222319F02015D9F706
S1132140F3CFFB012191201519F41E92119606C0BC
S11321502223C1F70D900020A1F7D001FA01A19329
S1132160B08308957AE0979F902D879F802D910DDD
S1132170112408950F931F93CF93DF93EC018B01E8
S1132180009731F46115710519F480E090E037C0CF
S11321906EE070E081E090E0A1D2FC010097A9F329
S11321A080E883830115110571F01387028781E8A4
S11321B083838091BA0C9091BB0C892B21F4F0930A
S11321C0BB0CE093BA0C2097C9F0D187C0878381F8
S11321D0826083838091BC0C9091BD0C892B71F437
S11321E0F093BD0CE093BC0C8091BE0C9091BF0C9D
S11321F0892B21F4F093BF0CE093BE0CCF01DF9147
S1132200CF911F910F910895CF93DF93EC012B8110
S113221020FF33C026FF0AC02F7B2B838E819F8132
S113222001969F838E838A8190E029C022FF0FC08C
S1132230E881F9818081992787FD9095009719F4A9
S113224020622B831AC03196F983E8830EC0EA8595
S1132250FB85199597FF09C02B81019611F480E144
S113226001C080E2822B8B8308C02E813F812F5FC7
S11322703F4F3F832E83992702C08FEF9FEFDF915B
S1132280CF910895CF93DF93CDB7DEB7FE01369695
S113229061917191AF018091BC0C9091BD0C30D0D3
S11322A0DF91CF9108950F931F93CF93DF93E09124
S11322B0BC0CF091BD0C238121FF1BC0EC0100E09C
S11322C010E089916091BC0C7091BD0CDB011896F3
S11322D0ED91FC911997882331F01995892B89F395
S11322E00FEF1FEFEECF8AE01995892B11F4C80187
S11322F002C08FEF9FEFDF91CF911F910F9108954F
S11323002F923F924F925F926F927F928F929F9201
S1132310AF92BF92CF92DF92EF92FF920F931F93EF
S1132320CF93DF93CDB7DEB72C970FB6F894DEBF0B
S11323300FBECDBF7C016B018A01FC01178216829E
S1132340838181FFB0C1CE0101964C01F7019381D5
S1132350F60193FD859193FF81916F01882309F420
S11323609EC1853239F493FD859193FF81916F016C
S1132370853221F4B70190E00FD3E8CF512C312CF2
S113238020E02032A0F48B3269F030F4803259F02E
S1132390833269F420612CC08D3239F0803339F4F2
S11323A0216026C02260246023C0286021C027FD4C
S11323B027C030ED380F3A3078F426FF06C0FAE033
S11323C05F9E300D1124532E13C08AE0389E300DC9
S11323D01124332E20620CC08E3221F426FD5FC1FD
S11323E0206406C08C3611F4206802C0883641F49B
S11323F0F60193FD859193FF81916F018111C1CF06
S1132400982F9F7D9554933028F40C5F1F4FFFE362
S1132410F9830DC0833631F0833771F0833509F0C9
S113242057C021C0F801808189830E5F1F4F442467
S11324304394512C540114C03801F2E06F0E711C06
S1132440F801A080B18026FF03C0652D70E002C0B2
S11324506FEF7FEFC5012C8794D22C0183012C856B
S11324602F77222E16C03801F2E06F0E711CF8018E
S1132470A080B18026FF03C0652D70E002C06FEF1D
S11324807FEFC5012C876BD22C012C852068222E6E
S1132490830123FC19C0832D90E048165906A0F44B
S11324A0B70180E290E078D23A94F5CFF50127FCA9
S11324B0859127FE81915F01B70190E06DD23110C3
S11324C03A94F1E04F1A51084114510479F7DEC0EF
S11324D0843611F0893631F5F80127FF07C0608191
S11324E07181828193810C5F1F4F08C0608171816B
S11324F0882777FD8095982F0E5F1F4F2F76B22E79
S113250097FF09C090958095709561957F4F8F4F87
S11325109F4F2068B22E2AE030E0A4016FD2A82E8B
S1132520A81843C0853729F42F7EB22E2AE030E064
S113253025C0F22FF97FBF2E8F36C1F018F48835ED
S113254079F0ADC0803719F0883721F0A8C02F2F5B
S11325502061B22EB4FE0DC08B2D8460B82E09C04C
S113256024FF0AC09F2F9660B92E06C028E030E0F1
S113257005C020E130E002C020E132E0F801B7FEFE
S113258007C060817181828193810C5F1F4F06C0F7
S11325906081718180E090E00E5F1F4FA4012ED214
S11325A0A82EA818FB2DFF77BF2EB6FE0BC02B2D2F
S11325B02E7FA51450F4B4FE0AC0B2FC08C02B2D23
S11325C02E7E05C07A2C2B2D03C07A2C01C0752CCD
S11325D024FF0DC0FE01EA0DF11D8081803311F44A
S11325E0297E09C022FF06C07394739404C0822F0D
S11325F0867809F0739423FD12C020FF06C05A2C7C
S1132600731418F4530C5718732C731460F4B70133
S113261080E290E02C87C0D173942C85F6CF73149C
S113262010F4371801C0312C24FF11C0B70180E326
S113263090E02C87B1D12C8522FF16C021FF03C066
S113264088E590E002C088E790E0B7010CC0822FD3
S1132650867851F021FD02C080E201C08BE227FDA3
S11326608DE2B70190E098D1A51430F4B70180E36E
S113267090E092D15A94F8CFAA94F401EA0DF11D96
S11326808081B70190E088D1A110F6CF332009F4FE
S11326905DCEB70180E290E07FD13A94F7CFF701A5
S11326A08681978102C08FEF9FEF2C960FB6F89426
S11326B0DEBF0FBECDBFDF91CF911F910F91FF9071
S11326C0EF90DF90CF90BF90AF909F908F907F90CE
S11326D06F905F904F903F902F9008950F931F93AA
S11326E0CF93DF93869F8001879F100D969F100DD7
S11326F01124C8010DD0EC01009721F0A80160E07D
S113270070E038D1CE01DF91CF911F910F910895E0
S1132710CF93DF938230910510F482E090E0E09152
S1132720C20CF091C30C20E030E0A0E0B0E03097A0
S113273039F14081518148175907B8F048175907B2
S113274071F482819381109729F013969C938E9350
S113275012972CC09093C30C8093C20C27C02115F0
S1132760310531F04217530718F0A901DB0101C00C
S1132770EF019A01BD01DF010280F381E02DD7CF83
S113278021153105F9F0281B390B2430310580F46B
S11327908A819B816115710521F0FB0193838283FA
S11327A004C09093C30C8093C20CFE01329644C0C3
S11327B0FE01E20FF31F8193919322503109398373
S11327C028833AC02091C00C3091C10C232B41F4D2
S11327D020910402309105023093C10C2093C00C67
S11327E020910202309103022115310541F42DB7E5
S11327F03EB74091060250910702241B350BE0912D
S1132800C00CF091C10CE217F307A0F42E1B3F0B90
S11328102817390778F0AC014E5F5F4F241735074E
S113282048F04E0F5F1F5093C10C4093C00C81932E
S1132830919302C0E0E0F0E0CF01DF91CF910895E1
S1132840CF93DF93009709F487C0FC01329713827A
S11328501282C091C20CD091C30C209781F42081C4
S11328603181280F391F8091C00C9091C10C8217BF
S1132870930779F5F093C10CE093C00C6DC0DE01B1
S113288020E030E0AE17BF0750F412964D915C91F2
S113289013979D014115510509F1DA01F3CFB38373
S11328A0A28340815181840F951F8A179B0771F47D
S11328B08D919C911197840F951F0296918380832B
S11328C012968D919C9113979383828321153105E0
S11328D029F4F093C30CE093C20C3EC0D9011396C3
S11328E0FC93EE9312974D915D91A40FB51FEA17D7
S11328F0FB0779F480819181840F951F0296D90199
S113290011969C938E938281938113969C938E93BC
S11329101297E0E0F0E08A819B81009719F0FE01B4
S1132920EC01F9CFCE01029628813981820F931FE1
S11329302091C00C3091C10C2817390769F43097E5
S113294029F41092C30C1092C20C02C0138212829A
S1132950D093C10CC093C00CDF91CF910895FC01BA
S11329600590615070400110D8F7809590958E0FB6
S11329709F1F0895DC0101C06D9341505040E0F762
S11329800895FC016150704001900110D8F78095C2
S113299090958E0F9F1F08950F931F93CF93DF93EE
S11329A0182F092FEB018B8181FD03C08FEF9FEF5F
S11329B020C082FF10C04E815F812C813D8142176F
S11329C053077CF4E881F9819F012F5F3F4F3983DE
S11329D02883108306C0E885F985812F1995892BF2
S11329E029F72E813F812F5F3F4F3F832E83812F15
S11329F0902FDF91CF911F910F910895FA01AA278B
S1132A00283051F1203181F1E8946F936E7F6E5F2D
S1132A107F4F8F4F9F4FAF4FB1E03ED0B4E03CD0DB
S1132A20670F781F891F9A1FA11D680F791F8A1FBE
S1132A30911DA11D6A0F711D811D911DA11D20D025
S1132A4009F468943F912AE0269F11243019305DDF
S1132A503193DEF6CF010895462F4770405D4193D0
S1132A60B3E00FD0C9F7F6CF462F4F70405D4A331D
S1132A7018F0495D31FD4052419302D0A9F7EACFE5
S1132A80B4E0A6959795879577956795BA95C9F714
S1132A9000976105710508959B01AC010A2E069407
S1132AA05795479537952795BA95C9F7620F731FC0
S10F2AB0841F951FA01D0895F894FFCF0B
S1132ABC01000000C40C20000100FFFF0100B80B52
S1132ACC0A00000001000100010003000A000400D8
S1132ADC040003000A000500040003000A000500BA
S1132AEC040003000A000000010092028E0280021E
S1132AFC6E0262025602480206000A000B000C0029
S1132B0C0D000E000F0005002300240025002600F4
S1132B1C270005001E001F002000210022000800D1
S1132B2C16001700180019001A001B001C001D00C9
S1132B3C060010001100120013001400150001000F
S1132B4C0100010000000002F60100020002000274
S1132B5C000200020A0264000002F60100020002F4
S1132B6C0002000200020A0264000002F6010002E4
S1132B7C00020002000200020A0264000002F601D4
S1132B8C000200020002000200020A0264000002B9
S1132B9CF601000200020002000200020A026400B4
S1132BAC0002F601000200020002000200020A0206
S1132BBC64000002F601000200020002000200029E
S1132BCC0A0264000002F601000200020002000284
S1132BDC00020A0264000002F60100020002000274
S1132BEC000200020A0264000002F6010002000264
S1132BFC0002000200020A0264000002F601000254
S1132C0C00020002000200020A0264000002F60143
S1132C1C000200020002000200020A026400000228
S1132C2CF601000200020002000200020A02640023
S1132C3C0002F601000200020002000200020A0275
S1132C4C64000002F601000200020002000200020D
S1132C5C0A0264000002F6010002000200020002F3
S1132C6C00020A0264000002F601000200020002E3
S1132C7C000200020A0264000002F60100020002D3
S1132C8C0002000200020A0264000002F6010002C3
S1132C9C00020002000200020A0264000002F601B3
S1132CAC000200020002000200020A026400000298
S1132CBCF601000200020002000200020A02640093
S1132CCC0002F601000200020002000200020A02E5
S1132CDC6400CE01EC013202410200020002DD016B
S1132CEC1402C800CE01EC013202370200020002C9
S1132CFCE701AB01C800F601CE010002BF011402CA
S1132D0C000200020002C8003202C9010002BF0125
S1132D1C3202000232021402C8002302D801AA02B1
S1132D2C96023202000232021402C80019024B024B
S1132D3C320296023202000232021402C80000026D
S1132D4C000246024102EC0100020A023202C800EF
S1132D5CCE01EC0132022302E2010002CE01320266
S1132D6CC8000002F6010002000200020002000288
S1132D7C0A0264000002F6010002000200020002D2
S1132D8C00020A0264000002F601000200020002C2
S1132D9C000200020A0264000002F60100020002B2
S1132DAC0002000200020A0264000002F6010002A2
S1132DBC00020002000200020A0264000002F60192
S1132DCC000200020002000200020A026400000277
S1132DDCF601000200020002000200020A02640072
S1132DEC0002F601000200020002000200020A02C4
S1132DFC64000002F601000200020002000200025C
S1132E0C0A0264000002F601000200020002000241
S1132E1C00020A0264000002F60100020002000231
S1132E2C000200020A0264000002F6010002000221
S1132E3C0002000200020A0264000002F601000211
S1132E4C00020002000200020A0264000002F60101
S1132E5C000200020002000200020A0264000002E6
S1132E6CF601000200020002000200020A026400E1
S1132E7C0002F601000200020002000200020A0233
S1132E8C64000002F60100020002000200020002CB
S1132E9C0A0264000002F6010002000200020002B1
S1132EAC00020A0264000002F601000200020002A1
S1132EBC000200020A0264000002F6010002000291
S1132ECC0002000200020A02640003000400100065
S1132EDC06000E0011000500070023232320736550
S1132EEC6E736F72496E6974002323232073656EAD
S1132EFC736F7254657374282920414443203A2516
S1132F0C640D0A0025640A0A00676574416E676CD7
S1132F1C6528292025643A25642C25642C25642CE9
S1132F2C25642C25642C25642C25642C25642C25E3
S1132F3C642C25642C25642C25640A0025643A250C
S1132F4C642C25642C25642C25642C25642C256484
S1132F5C2C25642C25642C25642C25642C25642CAC
S1132F6C25642C25640A006765744C6F61642829F8
S1132F7C2025643A25642C25642C25642C25642C8A
S1132F8C25642C25642C25642C25642C25642C2583
S1132F9C642C25642C25640A00676574566F6C7464
S1132FAC61676528292025643A25642C25642C2521
S1132FBC642C25642C25642C25642C25642C256414
S1132FCC2C25642C25642C25642C25640A0025648A
S1132FDC3B0A00496E70757420766F6C746167657A
S1132FEC206572726F722100416E676C65206C698A
S1132FFC6D6974206572726F7221004F7665726808
S113300C656174206572726F7221004F7574206F44
S113301C662072616E6765206572726F722100435F
S113302C6865636B73756D206572726F7221004FE6
S113303C7665726C6F6164206572726F72210049DF
S113304C6E737472756374696F6E20636F6465203C
S113305C6572726F722100434F4D4D5F5458464157
S113306C494C3A204661696C6564207472616E73D4
S113307C6D697420696E737472756374696F6E20F4
S113308C7061636B65742100434F4D4D5F5458451B
S113309C52524F523A20496E636F727265637420B8
S11330AC696E737472756374696F6E207061636B8F
S11330BC65742100434F4D4D5F52584641494C3A7B
S11330CC204661696C65642067657420737461744F
S11330DC7573207061636B65742066726F6D206408
S11330EC65766963652100434F4D4D5F52585741D6
S11330FC4954494E473A204E6F772072656369658F
S113310C76696E6720737461747573207061636B78
S113311C65742100434F4D4D5F525854494D454FF2
S113312C55543A205468657265206973206E6F207B
S113313C737461747573207061636B6574210043DF
S113314C4F4D4D5F5258434F52525550543A2049AB
S113315C6E636F727265637420737461747573201B
S113316C7061636B65742100546869732069732002
S113317C756E6B6E6F776E206572726F7220636FF3
S113318C64652100616374206572726F723A202544
S113319C64202F2025640A00232323206D6F766579
S11331AC2829206D6F74696F6E4E756D626572207F
S11331BC3D2025640A00232323206D6F766528297E
S11331CC206D6F74696F6E436F756E74203D20258E
S11331DC640A0072656164446174613D25730A007C
S9030000FC
