:1000000065C0000084C0000082C0000080C0000005
:100010007EC000007CC000007AC0000078C00000F4
:1000200076C0000074C0000072C0000070C0000004
:100030006EC000006CC000006AC0000068C0000014
:1000400066C0000064C0000062C0000060C0000024
:100050005EC000005CC000005AC0000058C0000034
:1000600056C0000024C4000052C0000050C0000070
:100070004EC000004CC000004AC0000048C0000054
:1000800046C0000044C0000042C0000040C0000064
:1000900013C500003CC000003AC0000038C000009A
:1000A00036C0000034C0000032C0000030C0000084
:1000B0002EC000002CC000002AC0000028C0000094
:1000C00026C0000024C0000022C0000011241FBE72
:1000D000CFEFD1E2DEBFCDBF00E00CBF19E0A0E062
:1000E000B2E0ECE5F9E200E00BBF02C007900D9230
:1000F000A03DB107D9F72DE0A0EDB9E001C01D92F8
:10010000A436B207E1F70E94BE0C0C94AC1478CF71
:10011000809100029091010208958093D209089580
:100120008093D4090895FC01E053F64F6583089548
:100130008093D309089520E030E09091740A9823C9
:1001400011F021E030E0C90108958091730A90E038
:100150000895FC01E059F54F858190E00895362F10
:1001600020E0280F391FC9010895282F30E0C90168
:1001700008958070892F90E008950F931F93CF9377
:10018000DF938091B80A9091B90A892B09F4B8C01D
:100190008091D2098E3F09F4A9C08091000290910C
:1001A0000102892B29F41092B70A86E08093B60ADF
:1001B0008091B70A90E06091B60A70E0681B790BF5
:1001C0008059954F49D39091B70A980F9093B70AE9
:1001D0008091B60A981718F44AD2019771F070917D
:1001E000B70A472F50E0DA0111978A0102501040F8
:1001F00060E0ED01C059D54F18C08091B70A88233F
:1002000009F071C086E090E073C0F901E059F54F44
:1002100080818F3F19F481818F3F61F02017310772
:1002200019F488818F3F31F06F5F262F30E02A1755
:100230003B075CF36623A1F090E0421B530B08C020
:10024000E059F54FDF01A20FB31F8C9180839F5FB0
:10025000E92FF0E0E417F5079CF3761B7093B70ADB
:100260002091B70A8091B60A281728F19091D209F7
:100270008091720A9817B9F56091730A6C5F609368
:10028000B60A261788F4822F90E070E0681B790B7D
:100290008059954FE1D29091B70A980F9093B70A81
:1002A0008091B60A981738F08091730AA82FB0E0B1
:1002B00020E090E00CC085E090E0909301028093F4
:1002C00000021EC0E059F54F8281980F2F5FE22F88
:1002D000F0E0AE17BF07B4F7A059B54F909513964D
:1002E0008C91891719F087E090E002C081E090E0DE
:1002F00090930102809300021092B90A1092B80AFA
:10030000DF91CF911F910F9108951F938091B80AAB
:100310009091B90A019709F45DC081E090E0909353
:10032000B90A8093B80A8091D309893940F4909131
:10033000D409892F8150863028F0933819F084E051
:1003400090E02FC08FEF8093D0098093D1098091E6
:10035000D309A82FB0E020E090E005C0E053F64FAD
:100360008281980F2F5FE22FF0E0AE17BF07B4F73E
:10037000A053B64F909513969C9380910002909154
:1003800001020697029708F438D11091D3091C5F37
:1003900080ED99E0612F70E035D1181759F082E0B7
:1003A00090E090930102809300021092B90A10929B
:1003B000B80A10C08091D409823029F48091D609FE
:1003C00090E0069602C086E090E040D110920102D3
:1003D000109200021F91089598DF80910002909181
:1003E0000102892B39F4C9DE80910002909101024B
:1003F0000597C9F30895282F8091B80A9091B90AFA
:10040000892B91F42093D20983E08093D4096093DF
:10041000D509CA014093D60980709093D70985E029
:100420008093D309D9CF0895FFCF282F8091B80AA0
:100430009091B90A892BB1F42093D20982E080937C
:10044000D4096093D5098093D60984E08093D309B9
:10045000C3DF3091760A20E08091750A280F311DA4
:10046000C9010895FFCF282F8091B80A9091B90A49
:10047000892B71F42093D20983E08093D40960938F
:10048000D5094093D60984E08093D309A5CF089578
:10049000FFCF282F8091B80A9091B90A892B91F447
:1004A0002093D20982E08093D4096093D50981E03A
:1004B0008093D60984E08093D3098EDF8091750AFA
:1004C00090E00895FFCF282F8091B80A9091B90A43
:1004D000892B51F42093D20981E08093D40982E0E2
:1004E0008093D30979CF0895FFCF86C008950F93E5
:1004F0001F938C016F5F7F4F882777FD8095982F22
:100500000E94790E9B01AC0160E074E284EF99E4F3
:100510000E94DE0DAB01BC01C80115D0892B19F476
:1005200020E030E00CC081E090E0909301028093E5
:1005300000021092B90A1092B80A21E030E0C90115
:100540001F910F910895EF92FF920F931F937A01DD
:100550008B0182E48093C00088E98093C10086E02B
:100560008093C20060E074E284EF99E4A8019701EF
:100570000E94DE0D0E944B0E615070407093C500CA
:100580006093C40060E074E284E799E4A8019701F5
:100590000E94DE0D20E030E040E451E40E94050FAF
:1005A0006093520D7093530D8093540D9093550D9D
:1005B0002091520D3091530D4091540D5091550D95
:1005C00060E070E08AE793E40E94DE0D0E944B0E2B
:1005D0007093510D6093500D7298739A8FEF8093C2
:1005E000C6001092BA0B1092BB0B81E090E01F91F5
:1005F0000F91FF90EF90089508958091BB0B809329
:10060000BA0B0895AC01F8947398729A20E030E028
:1006100011C08091C00085FFFCCF8091C000806434
:100620008093C000FA01E20FF31F80818093C6001F
:100630002F5F3F4F2617370764F38091C00086FF76
:10064000FCCF7298739A7894C90108951092590D4D
:100650001092580D2091500D3091510D265F3F4F53
:10066000280F391F3093570D2093560D0895AF92E0
:10067000BF92CF92DF92EF92FF920F931F938091E0
:10068000580D9091590D01969093590D8093580DE6
:100690002091580D3091590D8091560D9091570D24
:1006A0008217930718F421E030E074C0A090520D37
:1006B000B090530DC090540DD090550DC601B501AA
:1006C0002BEA3AEA4AEA50E40E94050F7B018C01CA
:1006D00020E030E040E85FE30E94680F882314F4D4
:1006E00061E054C0C801B70120E030E04FE753E4B7
:1006F0000E94900F18160CF045C0C601B50120E00D
:1007000030E04AE754E40E94DE0D5B016C0120E01A
:1007100030E04AE755E40E94050F7B018C0120E0A0
:1007200030E040E85FE30E94680F88231CF461E03A
:1007300070E024C0C801B70120E03FEF4FE757E465
:100740000E94900F1816B4F4C601B50120E030E005
:1007500040E251E40E94050F0E944B0E80E991E0B7
:1007600005C0FC013197F1F76150704061157105CA
:10077000C1F70EC0C801B7010E944B0ECB01019713
:10078000F1F706C0C801B7010E944B0E6A95F1F758
:1007900020E030E0C9011F910F91FF90EF90DF90B2
:1007A000CF90BF90AF9008959091BA0B8091BB0B02
:1007B000981719F420E030E017C09091BA0B80919F
:1007C000BB0B981738F48091BB0B9091BA0B282F74
:1007D00030E008C08091BB0B9091BA0B282F30E01D
:1007E00020503F4F291B3109C90108951F93182F2D
:1007F000DBDF8F3F910591F0E091BB0BF0E0E65419
:10080000F54F10838091BB0B8F3F19F41092BB0BF7
:1008100005C08091BB0B8F5F8093BB0B1F91089528
:100820009091BA0B8091BB0B981711F4EFEF12C0A7
:10083000E091BA0BF0E0E654F54FE0818091BA0BFD
:100840008F3F19F41092BA0B05C08091BA0B8F5FDD
:100850008093BA0B8E2F0895EF92FF920F931F9300
:10086000CF93DF937C01EB019091BA0B8091BB0B8E
:10087000981719F400E010E012C096DF8C01C81739
:10088000D9070CF48E01C0E0D0E006C0C9DFF70143
:10089000EC0FFD1F80832196C017D107BCF3C80160
:1008A000DF91CF911F910F91FF90EF9008951F92CC
:1008B0000F920FB60F920BB60F9211242F933F9306
:1008C0004F935F936F937F938F939F93AF93BF9358
:1008D000EF93FF938091C60089DFFF91EF91BF9165
:1008E000AF919F918F917F916F915F914F913F91C8
:1008F0002F910F900BBE0F900FBE0F901F90189569
:10090000AC0120E030E00CC08091C80085FFFCCF36
:10091000FA01E20FF31F80818093CE002F5F3F4FDB
:10092000261737078CF30895DC0190913C0C8091D9
:100930003D0C981711F480E0089590913C0C809143
:100940003D0C981719F420E030E017C090913C0C52
:1009500080913D0C981738F480913D0C90913C0C9F
:10096000282F30E008C080913D0C90913C0C282F3E
:1009700030E020583F4F291B3109A9016217730746
:100980000CF4AB0120E030E020C090913C0C809151
:100990003D0C981711F49FEF12C0E0913C0CF0E071
:1009A000E454F44F908180913C0C8F3719F41092ED
:1009B0003C0C05C080913C0C8F5F80933C0CFD018A
:1009C000E20FF31F90832F5F3F4F24173507ECF2A0
:1009D000842F089590913C0C80913D0C981719F448
:1009E00020E030E017C090913C0C80913D0C9817AE
:1009F00038F480913D0C90913C0C282F30E008C0D9
:100A000080913D0C90913C0C282F30E020583F4FB6
:100A1000291B3109C9010895482F90913C0C809100
:100A20003D0C9817D1F090913C0C80913D0C98179B
:100A300038F480913D0C90913C0C282F30E008C098
:100A400080913D0C90913C0C282F30E020583F4F76
:100A5000291B31092F37310591F0E0913D0CF0E071
:100A6000E454F44F408380913D0C8F3719F4109279
:100A70003D0C089580913D0C8F5F80933D0C08954F
:100A800090913C0C80913D0C981711F4EFEF12C03F
:100A9000E0913C0CF0E0E454F44FE08180913C0C98
:100AA0008F3719F410923C0C05C080913C0C8F5F7D
:100AB00080933C0C8E2F08951F920F920FB60F92C9
:100AC0000BB60F9211242F933F934F935F936F9325
:100AD0007F938F939F93AF93BF93EF93FF938091F7
:100AE000CE009ADFFF91EF91BF91AF919F918F91CF
:100AF0007F916F915F914F913F912F910F900BBE1E
:100B00000F900FBE0F901F901895DF93CF930F9209
:100B10000F92CDB7DEB7982F8A3099F48DE0898394
:100B20009A83FE0131969E012D5F3F4F8091C80050
:100B300085FFFCCF81918093CE00E217F307B1F7D8
:100B400006C08091C80085FFFCCF9093CE0080E066
:100B500090E00F900F90CF91DF91089590913C0C11
:100B600080913D0C9817D1F390913C0C80913D0CF5
:100B7000981738F480913D0C90913C0C282F30E070
:100B800008C080913D0C90913C0C282F30E02058FB
:100B90003F4F291B3109232B09F390913C0C809185
:100BA0003D0C981711F4EFEF15C0E0913C0CF0E00C
:100BB000E454F44FE08180913C0C8F3719F410928B
:100BC0003C0C05C080913C0C8F5F80933C0CED3059
:100BD00009F4EAE08E2F90E008950E94790E9B01BF
:100BE000AC0160E074E284EF99E4E8D70E944B0E18
:100BF0006150704022E42093C80028E92093C90086
:100C000026E02093CA002FEF2093CE0010923C0CD8
:100C100010923D0C272F332727FD3A952093CD00C6
:100C20006093CC007298739A85E895E06EEA75E05F
:100C30000E940A1090933F0C80933E0C089560E050
:100C400071EE80E090E0C9DF78940895C3DE181655
:100C500019060CF03FC080915A0D90915B0D0E94D7
:100C600054108A3011F08D3091F48091920C909153
:100C7000930C181619068CF51092930C1092920C86
:100C800081E090E09093950C8093940C08958823D4
:100C900039F12091920C3091930CA9014F5F5F4F75
:100CA0005093930C4093920CF901EE5BF34F8083C9
:100CB0008091920C9091930C8F349105A4F0109236
:100CC000930C1092920C81E090E09093950C80939D
:100CD000940C089580E090E0089580E090E00895FD
:100CE00080E090E0089580E090E008958091940C79
:100CF0009091950C181619063CF41092950C1092D0
:100D0000940C82E49CE0089580E090E008959F9325
:100D10008F9382EC97E09F938F930E9492100F9095
:100D20000F900F900F90089561E070E080E090E0E8
:100D3000DEDB41E050E06FE270E08FE190E05BDBF2
:100D400040E050E060E270E08EEF90E054DB40E085
:100D500050E068E170E08EEF90E085DB2FE38DE0FE
:100D600093E0215080409040E1F700C000000895DA
:100D70000F931F93CF93DF9300D0CDB7DEB720E260
:100D80003CE240E029833A834B83BE016F5F7F4F93
:100D90000E94D80F009789F000EB1CE00E94BB0F67
:100DA000F801819391938F01BE016F5F7F4F80E0C7
:100DB00090E00E94D80F009789F70F900F900F9046
:100DC000DF91CF911F910F9108958091A20C909186
:100DD000A30C0A969093A30C8093A20C2091A00CD4
:100DE0003091A10C821793073CF01092A30C109243
:100DF000A20C80E090E0089581E090E00895809159
:100E0000B20C9091B30C823391059CF4E4EBFCE0BE
:100E10002AE1289FD001299FB00D1124AA56BD4F69
:100E20002EEC3CE0819191918D939D93E217F30715
:100E3000C9F70895CF92DF92EF92FF920F931F931D
:100E4000CF93DF93CDB7DEB768970FB6F894DEBFC8
:100E50000FBECDBFFE01319688E1DF011D928A955C
:100E6000E9F70AEA17E07F010F2EF2ECCF2EF7E048
:100E7000DF2EF02D64E270E0F801819191918F01F5
:100E8000D4DAD7018D939D937D010C151D0591F743
:100E9000888D8F938F898F938E898F938D898F9370
:100EA0008C898F938B898F938A898F9389898F936C
:100EB00088898F938F858F938E858F938D858F9360
:100EC0008C858F938B858F938A858F9389858F935C
:100ED00088858F938F818F938E818F938D818F9350
:100EE0008C818F938B818F938A818F9389818F934C
:100EF0001F9282E08F9387EC97E09F938F930E94DD
:100F000092100FB6F894DEBF0FBECDBF68960FB635
:100F1000F894DEBF0FBECDBFDF91CF911F910F912F
:100F2000FF90EF90DF90CF9008952AE1AC01249FCD
:100F3000C001259F900D1124FC01EA56FD4F818DC3
:100F40008F93808D8F9387898F9386898F938589DF
:100F50008F9384898F9383898F9382898F938189DB
:100F60008F9380898F9387858F9386858F938585CF
:100F70008F9384858F9383858F9382858F938185CB
:100F80008F9380858F9387818F9386818F938581BF
:100F90008F9384818F9383818F9382818F938181BB
:100FA0008F9380818F931F9283E08F938FEE97E0D2
:100FB0009F938F930E9492108DB79EB74E960FB657
:100FC000F8949EBF0FBE8DBF0895CF92DF92EF922F
:100FD000FF920F931F93CF93DF93CDB7DEB7689740
:100FE0000FB6F894DEBF0FBECDBFFE01319688E18B
:100FF000DF011D928A95E9F70AEA17E07F010F2EBB
:10100000F2ECCF2EF7E0DF2EF02D68E270E0F80171
:10101000819191918F0109DAD7018D939D937D0183
:101020000C151D0591F7888D8F938F898F938E896D
:101030008F938D898F938C898F938B898F938A89D6
:101040008F9389898F9388898F938F858F938E85CE
:101050008F938D858F938C858F938B858F938A85C6
:101060008F9389858F9388858F938F818F938E81BE
:101070008F938D818F938C818F938B818F938A81B6
:101080008F9389818F931F9284E08F9387EC97E0F1
:101090009F938F930E9492100FB6F894DEBF0FBEFD
:1010A000CDBF68960FB6F894DEBF0FBECDBFDF91FF
:1010B000CF911F910F91FF90EF90DF90CF90089507
:1010C000CF92DF92EF92FF920F931F93CF93DF9314
:1010D000CDB7DEB768970FB6F894DEBF0FBECDBFB1
:1010E000FE01319688E1DF011D928A95E9F70AEA4F
:1010F00017E07F010F2EF2ECCF2EF7E0DF2EF02D60
:101100006AE270E0F801819191918F018ED92DD81A
:10111000D7018D939D937D010C151D0589F7888D51
:101120008F938F898F938E898F938D898F938C89DD
:101130008F938B898F938A898F9389898F938889DD
:101140008F938F858F938E858F938D858F938C85CD
:101150008F938B858F938A858F9389858F938885CD
:101160008F938F818F938E818F938D818F938C81BD
:101170008F938B818F938A818F9389818F931F9215
:1011800085E08F9387EC97E09F938F93CBD70FB633
:10119000F894DEBF0FBECDBF68960FB6F894DEBFE1
:1011A0000FBECDBFDF91CF911F910F91FF90EF90B8
:1011B000DF90CF90089590939F0C80939E0C709336
:1011C0009D0C60939C0C2091A40C3091A50C232BBA
:1011D00061F49093A70C8093A60C7093A50C609378
:1011E000A40C10929D0C10929C0C08958091A40C5C
:1011F0009091A50C181619060CF450C08091AE0CF5
:101200009091AF0C019709F049C08091960C909194
:10121000970C892BD1F4E091A80CF091A90CEE0F5A
:10122000FF1FEE0FFF1FE25FFD4F8081918102974C
:1012300061F461E070E081E090E0BDDF81E090E08A
:101240009093970C8093960C08951092970C10929F
:10125000960CE091A80CF091A90CEE0FFF1FEE0F79
:10126000FF1FE25FFD4F6281738180819181A3DF67
:101270008091A80C9091A90C01969093A90C809351
:10128000A80C20911002309111022817390734F46C
:1012900081E090E09093A90C8093A80C089590931E
:1012A000A70C8093A60C7093A50C6093A40C1092CD
:1012B0009D0C10929C0C81E090E090930D02809325
:1012C0000C021092A30C1092A20C089581E090E001
:1012D00090930D0280930C021092A50C1092A40C16
:1012E0001092A30C1092A20C8FEF9FEF90930B0221
:1012F00080930A02089581E090E00E949B0001978C
:1013000019F48FE198E01FD782E090E00E949B00E3
:10131000019719F484E398E016D784E090E00E94E6
:101320009B00019719F487E498E00DD788E090E0DE
:101330000E949B00019719F487E598E004D780E1AB
:1013400090E00E949B00019719F48BE698E0FBD691
:1013500080E290E00E949B00019719F48BE798E0EF
:10136000F2D680E490E00E949B00019719F48BE88C
:1013700098E0E9C608958430910591F034F4823004
:10138000910551F0039781F01FC086309105A1F0BF
:101390007CF00797A9F018C083EA98E0D4C60895B6
:1013A00084ED98E0D0C6089580E099E0CCC6089519
:1013B00083E399E0C8C6089580E699E0C4C608951D
:1013C0008BE899E0C0C6089584EB99E0BCC6089507
:1013D0000F931F93CF93DF938C01EB018EEF90E07F
:1013E0000E948D0083E890E00E94900060E270E02F
:1013F00080E090E00E94930062E070E081E090E085
:101400000E949300B80182E090E00E949300CE0118
:101410000E94B500BC0183E090E00E949300CE01E1
:101420000E94B900BC0184E090E00E94930087E034
:1014300090E00E9498000E94EC010E948800813098
:10144000910511F458DF01C096DFDF91CF911F9114
:101450000F9108952F923F924F925F926F927F92D9
:101460008F929F92AF92BF92CF92DF92EF92FF92B4
:101470000F931F93CF93DF93CDB7DEB7EC970FB6E3
:10148000F894DEBF0FBECDBF98AF8FABC2970CF004
:1014900065C1FE01319688E1DF011D928A95E9F769
:1014A0002AE14FA958AD249FC001259F900D11241A
:1014B000DC01AA56BD4FBAAFA9AF6E2E7F2E0F2EFC
:1014C000F2EC8F2EF7E09F2EF02D7F015D010AEAEE
:1014D00017E0C12CD12C64E270E0F8018191919168
:1014E0008F010E941502D5012D913D915D01F901F9
:1014F000E81BF90BCF0122F0D701ED93FC9306C056
:10150000919581959109F70191838083D7018D9100
:101510009D917D01C816D9060CF46C0108151905BA
:10152000D1F61E01B9E12B0E311C88E1F1011192B7
:101530008A95E9F784E690E09A8F898F8AE12FA94E
:1015400038AD829FF001839FF00D1124EA56FD4FC4
:10155000608D718D882777FD8095982FCAD36BABEE
:101560007CAB8DAB9EAB2BAE3CAE3AAA29AAA62C87
:10157000B72CEE24D7FCE094FE2CD5010D911D91E3
:101580005D01C701B601B5D32B013C01B801882725
:1015900077FD8095982FADD3A30192010FD39B01C6
:1015A000AC016BA97CA98DA99EA92FD46FD361151D
:1015B000710521F0F1017183608305C0E1E0F0E085
:1015C000D101ED93FC93F2E02F0E311C29A93AA929
:1015D000A216B30691F68AE14FA958AD849FF00197
:1015E000859FF00D1124EA56FD4F608D718D8BEFB4
:1015F00093E19AD4882777FD8095982F7AD39B0121
:10160000AC01C301B20101D441D36A3071052CF0A1
:101610007093A10C6093A00C06C08AE090E09093B8
:10162000A10C8093A00C8EEF90E00E948D0083E8C7
:1016300090E00E94900060E270E080E090E00E9404
:10164000930062E070E081E090E00E949300CBACF8
:10165000DCAC0F2EFAEAEF2EF7E0FF2EF02D02E0C1
:1016600010E0D7016D917D917D01C8010E9493002A
:10167000F601A190B1906F01C5010E94B500BC01B7
:10168000C80101960E949300C5010E94B900BC01E7
:10169000C80102960E9493000D5F1F4FE814F904E1
:1016A00001F788E290E00E9498000E94EC010E94FD
:1016B00088008130910509F050C01DDE8EEF90E06A
:1016C0000E948D0083E890E00E9490006EE170E03F
:1016D00080E090E00E94930062E070E081E090E0A2
:1016E0000E949300C9ACDAAC0F2EFAEAEF2EF7E0B5
:1016F000FF2EF02D02E010E0D7016D917D917D016C
:10170000C8010E9493005601F601819191916F01E9
:101710000E94B500BC01C80101960E949300D5014A
:101720008D919C910E94B900BC01C80102960E9453
:1017300093000D5F1F4FE814F904F1F688E290E082
:101740000E9498000E94EC010E948800813091055F
:1017500011F4D1DD03C00FDE01C00DDEEC960FB633
:10176000F894DEBF0FBECDBFDF91CF911F910F91D7
:10177000FF90EF90DF90CF90BF90AF909F908F90B1
:101780007F906F905F904F903F902F900895489971
:101790000EC08091AC0C9091AD0C892B09F050C01B
:1017A00081E090E09093AD0C8093AC0C0895809113
:1017B000AC0C9091AD0C019709F042C01092AD0CA9
:1017C0001092AC0C8091AE0C9091AF0C9C012F5FED
:1017D0003F4F3093AF0C2093AE0C26E030E0A901D0
:1017E000481B590BCA01181619063CF08FE388B93B
:1017F0001092AF0C1092AE0C0BC021E030E0A901AA
:1018000002C0440F551F8A95E2F7CA01809588B936
:101810005DDD80E090E01EDE81E090E09093A90C19
:101820008093A80C8091AE0C9091AF0C019741F47D
:1018300080910E0290910F029093AB0C8093AA0CB2
:1018400008958091A40C9091A50C181619060CF01F
:1018500094C0BBDA892B09F090C08091A60C9091BE
:10186000A70CFC01EE0FFF1FE65CFD4F0190F0811D
:10187000E02D4081518120910C0230910D024217E0
:1018800053070CF066C021E030E030930D02209346
:101890000C022091A40C3091A50C233631050CF0DC
:1018A00058C0215031093093A50C2093A40C121676
:1018B00013060CF44EC040919C0C50919D0C1416D4
:1018C00015060CF044C020919E0C30919F0CB9017C
:1018D000625071096230710568F4019711F181E07D
:1018E00090E09093A70C8093A60C9093A50C809306
:1018F000A40C23C08430910521F42530310589F4EE
:1019000005C02430310569F4059759F41092A70CED
:101910001092A60C81E090E09093A50C8093A40C0B
:101920000CC03093A70C2093A60C5093A50C4093A9
:10193000A40C10929D0C10929C0C2FE58AEE90E066
:10194000215080409040E1F700C000000895BECCD7
:10195000089580910C0290910D02880F991FE80F55
:10196000F91F8081918176DD80910C0290910D02AA
:10197000019690930D0280930C0208958F929F928E
:10198000AF92BF92CF92DF92EF92FF920F931F938D
:10199000CF93DF9311B882E182B98FE787B98EE7E1
:1019A00088B980E78AB981E18BB9BED948D9C0EB43
:1019B000DCE00F2EF0E5AF2EF02D0F2EF4EBEF2E26
:1019C000FCE0FF2EF02D02EB1CE00F2EFFED8F2E22
:1019D000F02D0F2EF0EABF2EF02D0F2EFFE79F2ED9
:1019E000F02DD5DE33D9181619060CF083C07ED938
:1019F0006C01009709F47EC0BBD98881998185303C
:101A0000910509F45BC09CF48230910509F445C04E
:101A100034F4009709F1019709F441C063C08330A1
:101A2000910509F43DC0049709F446C05BC08830B5
:101A3000910531F13CF48630910509F441C00797D6
:101A400099F050C08A30910509F443C0F4F0873E04
:101A5000934009F49CC046C0F80180819181FADC72
:101A600081E090E054D941C0F70160817181F801B3
:101A700080819181A0DB88B881E090E048D935C0B1
:101A800025DC81E090E043D930C0F70160817181AD
:101A9000F8018081918103DC28C0CCD926C0AFD960
:101AA000F801808191818233910524F080E090E0FB
:101AB0002ED91BC03ADA19C088DA17C001DB15C06D
:101AC00040E050E068E170E08EEF90E00E94330269
:101AD0000CC01092980C1092990C10929A0C1092C3
:101AE0009B0C03C080E090E012D9F6012A2D1192E0
:101AF0002A95E9F7FE012B2D11922A95E9F7019914
:101B000010C08091080290910902181619062CF550
:101B1000109209021092080298B880E090E09ADCD6
:101B20001CC08091080290910902892B39F44698D3
:101B300081E090E090930902809308028091AA0CC2
:101B40009091AB0C181619061CF050DB7ADE05C01C
:101B50000A979093AB0C8093AA0C83EC99E00197C1
:101B6000F1F700C000008091980C9091990CA09121
:101B70009A0CB0919B0C0196A11DB11D8093980CFD
:101B80009093990CA0939A0CB0939B0C2ACF87EE5C
:101B900093E0BDD860E070E080E090E019DC80E088
:101BA00090E0DF91CF911F910F91FF90EF90DF9028
:101BB000CF90BF90AF909F908F9008950CD0EBC0C6
:101BC000E3D040F0DAD030F021F45F3F19F0CCC020
:101BD000511115C1CFC0F0D098F39923C9F3552303
:101BE000B1F3951B550BBB27AA2762177307840710
:101BF00038F09F5F5F4F220F331F441FAA1FA9F3C6
:101C000033D00E2E3AF0E0E830D091505040E695B7
:101C1000001CCAF729D0FE2F27D0660F771F881F18
:101C2000BB1F261737074807AB07B0E809F0BB0B07
:101C3000802DBF01FF2793585F4F2AF09E3F51052B
:101C400068F092C0DCC05F3FECF3983EDCF3869511
:101C500077956795B795F7959F5FC9F7880F911DA1
:101C60009695879597F90895E1E0660F771F881F8D
:101C7000BB1F621773078407BA0720F0621B730B40
:101C8000840BBA0BEE1F88F7E095089504D0689492
:101C9000B111B5C0089598D088F09F5790F0B92F32
:101CA0009927B751A0F0D1F0660F771F881F991FB1
:101CB0001AF0BA95C9F712C0B13081F09FD0B1E0E7
:101CC00008959CC0672F782F8827B85F39F0B93FF7
:101CD000CCF3869577956795B395D9F73EF49095B3
:101CE0008095709561957F4F8F4F9F4F0895E89431
:101CF00009C097FB3EF490958095709561957F4F54
:101D00008F4F9F4F9923A9F0F92F96E9BB27939501
:101D1000F695879577956795B795F111F8CFFAF411
:101D2000BB0F11F460FF1BC06F5F7F4F8F4F9F4F42
:101D300016C0882311F096E911C0772321F09EE8A0
:101D4000872F762F05C0662371F096E8862F70E006
:101D500060E02AF09A95660F771F881FDAF7880FE0
:101D60009695879597F9089597F99F6780E870E0B1
:101D700060E008959FEF80EC089500240A94161601
:101D8000170618060906089500240A941216130669
:101D9000140605060895092E0394000C11F48823F7
:101DA00052F0BB0F40F4BF2B11F460FF04C06F5F13
:101DB0007F4F8F4F9F4F089557FD9058440F551FE9
:101DC00059F05F3F71F04795880F97FB991F61F0BD
:101DD0009F3F79F087950895121613061406551F34
:101DE000F2CF4695F1DF08C0161617061806991FA0
:101DF000F1CF86957105610508940895E894BB2795
:101E000066277727CB0197F908950BD0C4CFB5DFAC
:101E100028F0BADF18F0952309F0A6CFABCF112434
:101E2000EECFCADFA0F3959FD1F3950F50E0551F79
:101E3000629FF001729FBB27F00DB11D639FAA271F
:101E4000F00DB11DAA1F649F6627B00DA11D661F6E
:101E5000829F2227B00DA11D621F739FB00DA11D8F
:101E6000621F839FA00D611D221F749F3327A00D49
:101E7000611D231F849F600D211D822F762F6A2FE5
:101E800011249F5750408AF0E1F088234AF0EE0F6A
:101E9000FF1FBB1F661F771F881F91505040A9F777
:101EA0009E3F510570F060CFAACF5F3FECF3983EA4
:101EB000DCF3869577956795B795F795E7959F5FDE
:101EC000C1F7FE2B880F911D9695879597F9089578
:101ED00003D008F481E00895990F0008550FAA0B6C
:101EE000E0E8FEEF16161706E807F907C0F012162D
:101EF0001306E407F50798F0621B730B840B950B30
:101F000039F40A2661F0232B242B252B21F4089584
:101F10000A2609F4A140A6958FEF811D811D089521
:101F2000DBDF08F48FEF089597FB072E16F400947B
:101F300006D077FD08D00BD007FC05D03EF4909575
:101F400081959F4F0895709561957F4F0895AA1BC5
:101F5000BB1B51E107C0AA1FBB1FA617B70710F094
:101F6000A61BB70B881F991F5A95A9F780959095C6
:101F7000BC01CD010895FC0188279927E89421919F
:101F80002032E9F3293010F02E30C8F32B3239F02B
:101F90002D3231F4689403C035D0820F911D219108
:101FA00020532A30C8F31EF4909581959F4F0895D1
:101FB00040E45CE000C0FA01A191B081009719F4FF
:101FC0001097E1F0CD01DC01CD010D90002011F45E
:101FD000C00113C0FB012191222319F02015D9F76C
:101FE000F3CFFB012191201519F41E92119606C022
:101FF0002223C1F70D900020A1F7D001FA01A1938F
:10200000B08308957AE0979F902D879F802D910D42
:10201000112408950F931F93CF93DF93EC018B014D
:10202000009731F46115710519F480E090E037C034
:102030006EE070E081E090E0A1D2FC010097A9F38E
:1020400080E883830115110571F01387028781E809
:10205000838380915A0D90915B0D892B21F4F0932D
:102060005B0DE0935A0D2097C9F0D187C08783811B
:102070008260838380915C0D90915D0D892B71F45A
:10208000F0935D0DE0935C0D80915E0D90915F0D7E
:10209000892B21F4F0935F0DE0935E0DCF01DF916A
:1020A000CF911F910F910895CF93DF93EC012B8176
:1020B00020FF33C026FF0AC02F7B2B838E819F8198
:1020C00001969F838E838A8190E029C022FF0FC0F2
:1020D000E881F9818081992787FD9095009719F40F
:1020E00020622B831AC03196F983E8830EC0EA85FB
:1020F000FB85199597FF09C02B81019611F480E1AA
:1021000001C080E2822B8B8308C02E813F812F5F2C
:102110003F4F3F832E83992702C08FEF9FEFDF91C0
:10212000CF910895CF93DF93CDB7DEB7FE013696FA
:1021300061917191AF0180915C0D90915D0D30D0F6
:10214000DF91CF9108950F931F93CF93DF93E09189
:102150005C0DF0915D0D238121FF1BC0EC0100E0BF
:1021600010E0899160915C0D70915D0DDB01189616
:10217000ED91FC911997882331F01995892B89F3FA
:102180000FEF1FEFEECF8AE01995892B11F4C801EC
:1021900002C08FEF9FEFDF91CF911F910F910895B4
:1021A0002F923F924F925F926F927F928F929F9267
:1021B000AF92BF92CF92DF92EF92FF920F931F9355
:1021C000CF93DF93CDB7DEB72C970FB6F894DEBF71
:1021D0000FBECDBF7C016B018A01FC011782168204
:1021E000838181FFB0C1CE0101964C01F70193813B
:1021F000F60193FD859193FF81916F01882309F486
:102200009EC1853239F493FD859193FF81916F01D1
:10221000853221F4B70190E00FD3E8CF512C312C57
:1022200020E02032A0F48B3269F030F4803259F093
:10223000833269F420612CC08D3239F0803339F457
:10224000216026C02260246023C0286021C027FDB1
:1022500027C030ED380F3A3078F426FF06C0FAE098
:102260005F9E300D1124532E13C08AE0389E300D2E
:102270001124332E20620CC08E3221F426FD5FC162
:10228000206406C08C3611F4206802C0883641F400
:10229000F60193FD859193FF81916F018111C1CF6B
:1022A000982F9F7D9554933028F40C5F1F4FFFE3C8
:1022B000F9830DC0833631F0833771F0833509F02F
:1022C00057C021C0F801808189830E5F1F4F4424CD
:1022D0004394512C540114C03801F2E06F0E711C6C
:1022E000F801A080B18026FF03C0652D70E002C018
:1022F0006FEF7FEFC5012C8794D22C0183012C85D1
:102300002F77222E16C03801F2E06F0E711CF801F3
:10231000A080B18026FF03C0652D70E002C06FEF82
:102320007FEFC5012C876BD22C012C852068222ED3
:10233000830123FC19C0832D90E048165906A0F4B0
:10234000B70180E290E078D23A94F5CFF50127FC0E
:10235000859127FE81915F01B70190E06DD2311028
:102360003A94F1E04F1A51084114510479F7DEC054
:10237000843611F0893631F5F80127FF07C06081F6
:102380007181828193810C5F1F4F08C060817181D0
:10239000882777FD8095982F0E5F1F4F2F76B22EDE
:1023A00097FF09C090958095709561957F4F8F4FED
:1023B0009F4F2068B22E2AE030E0A4016FD2A82EF1
:1023C000A81843C0853729F42F7EB22E2AE030E0CA
:1023D00025C0F22FF97FBF2E8F36C1F018F4883553
:1023E00079F0ADC0803719F0883721F0A8C02F2FC1
:1023F0002061B22EB4FE0DC08B2D8460B82E09C0B2
:1024000024FF0AC09F2F9660B92E06C028E030E056
:1024100005C020E130E002C020E132E0F801B7FE63
:1024200007C060817181828193810C5F1F4F06C05C
:102430006081718180E090E00E5F1F4FA4012ED279
:10244000A82EA818FB2DFF77BF2EB6FE0BC02B2D94
:102450002E7FA51450F4B4FE0AC0B2FC08C02B2D88
:102460002E7E05C07A2C2B2D03C07A2C01C0752C32
:1024700024FF0DC0FE01EA0DF11D8081803311F4AF
:10248000297E09C022FF06C07394739404C0822F72
:10249000867809F0739423FD12C020FF06C05A2CE1
:1024A000731418F4530C5718732C731460F4B70199
:1024B00080E290E02C87C0D173942C85F6CF731402
:1024C00010F4371801C0312C24FF11C0B70180E38C
:1024D00090E02C87B1D12C8522FF16C021FF03C0CC
:1024E00088E590E002C088E790E0B7010CC0822F39
:1024F000867851F021FD02C080E201C08BE227FD09
:102500008DE2B70190E098D1A51430F4B70180E3D3
:1025100090E092D15A94F8CFAA94F401EA0DF11DFB
:102520008081B70190E088D1A110F6CF332009F463
:102530005DCEB70180E290E07FD13A94F7CFF7010A
:102540008681978102C08FEF9FEF2C960FB6F8948B
:10255000DEBF0FBECDBFDF91CF911F910F91FF90D6
:10256000EF90DF90CF90BF90AF909F908F907F9033
:102570006F905F904F903F902F9008950F931F930F
:10258000CF93DF93869F8001879F100D969F100D3C
:102590001124C8010DD0EC01009721F0A80160E0E2
:1025A00070E038D1CE01DF91CF911F910F91089546
:1025B000CF93DF938230910510F482E090E0E091B8
:1025C000620DF091630D20E030E0A0E0B0E03097C4
:1025D00039F14081518148175907B8F04817590718
:1025E00071F482819381109729F013969C938E93B6
:1025F00012972CC09093630D8093620D27C0211514
:10260000310531F04217530718F0A901DB0101C071
:10261000EF019A01BD01DF010280F381E02DD7CFE8
:1026200021153105F9F0281B390B2430310580F4D0
:102630008A819B816115710521F0FB01938382835F
:1026400004C09093630D8093620DFE01329644C0E6
:10265000FE01E20FF31F81939193225031093983D8
:1026600028833AC02091600D3091610D232B41F4F5
:1026700020910402309105023093610D2093600D8A
:1026800020910202309103022115310541F42DB74A
:102690003EB74091060250910702241B350BE09192
:1026A000600DF091610DE217F307A0F42E1B3F0BB4
:1026B0002817390778F0AC014E5F5F4F24173507B4
:1026C00048F04E0F5F1F5093610D4093600D819352
:1026D000919302C0E0E0F0E0CF01DF91CF91089547
:1026E000CF93DF93009709F487C0FC0132971382E0
:1026F0001282C091620DD091630D209781F42081E8
:102700003181280F391F8091600D9091610D8217E2
:10271000930779F5F093610DE093600D6DC0DE01D4
:1027200020E030E0AE17BF0750F412964D915C9157
:1027300013979D014115510509F1DA01F3CFB383D8
:10274000A28340815181840F951F8A179B0771F4E2
:102750008D919C911197840F951F02969183808390
:1027600012968D919C911397938382832115310545
:1027700029F4F093630DE093620D3EC0D9011396E6
:10278000FC93EE9312974D915D91A40FB51FEA173C
:10279000FB0779F480819181840F951F0296D901FE
:1027A00011969C938E938281938113969C938E9322
:1027B0001297E0E0F0E08A819B81009719F0FE011A
:1027C000EC01F9CFCE01029628813981820F931F47
:1027D0002091600D3091610D2817390769F4309709
:1027E00029F41092630D1092620D02C013821282BE
:1027F000D093610DC093600DDF91CF910895FC01DE
:102800000590615070400110D8F7809590958E0F1B
:102810009F1F0895DC0101C06D9341505040E0F7C7
:102820000895FC016150704001900110D8F7809527
:1028300090958E0F9F1F08950F931F93CF93DF9353
:10284000182F092FEB018B8181FD03C08FEF9FEFC4
:1028500020C082FF10C04E815F812C813D814217D4
:1028600053077CF4E881F9819F012F5F3F4F398343
:102870002883108306C0E885F985812F1995892B57
:1028800029F72E813F812F5F3F4F3F832E83812F7A
:10289000902FDF91CF911F910F910895FA01AA27F0
:1028A000283051F1203181F1E8946F936E7F6E5F93
:1028B0007F4F8F4F9F4FAF4FB1E03ED0B4E03CD041
:1028C000670F781F891F9A1FA11D680F791F8A1F24
:1028D000911DA11D6A0F711D811D911DA11D20D08B
:1028E00009F468943F912AE0269F11243019305D45
:1028F0003193DEF6CF010895462F4770405D419336
:10290000B3E00FD0C9F7F6CF462F4F70405D4A3382
:1029100018F0495D31FD4052419302D0A9F7EACF4A
:10292000B4E0A6959795879577956795BA95C9F779
:1029300000976105710508959B01AC010A2E06946C
:102940005795479537952795BA95C9F7620F731F25
:0C295000841F951FA01D0895F894FFCF70
:10295C0001000000640D20000100FFFF0100B80B16
:10296C000A00000001000100010003000A0004003D
:10297C00040003000A000500040003000A0005001F
:10298C00040003000A000000010092028E02800283
:10299C006E0262025602480206000A000B000C008E
:1029AC000D000E000F00050023002400250026005A
:1029BC00270005001E001F00200021002200080037
:1029CC0016001700180019001A001B001C001D002F
:1029DC000600100011001200130014001500010075
:1029EC000100010000000002F601000200020002DA
:1029FC00000200020A02000200020002000264004F
:102A0C00E201F60100020002E2010002E2010A0208
:102A1C0000020002E201000232003202F601000262
:102A2C0000023202000232020A02000200023202EA
:102A3C000002320000020001900384020002000236
:102A4C000002000370007C01000200023200000250
:102A5C00F6016402640200029C01000264029C0103
:102A6C00000200029C01320000029C016402000280
:102A7C000002640200020A029C019C010002640232
:102A8C0032000002F6010002000200020002000205
:102A9C000A02000200020002000232000002F601EB
:102AAC00000200020002000200020A020002000200
:102ABC000002000232000002F601000200020002D5
:102ACC00000200020A0200020002000200023200B0
:102ADC000002F601000200020002000200020A02DB
:102AEC00000200020002000232000002F6010002A5
:102AFC0000020002000200020A02000200020002B0
:102B0C000002C8003202F60100020002320200028A
:102B1C0032020A020002000214020002C800320251
:102B2C009101EF027F023202000232020A0200021D
:102B3C0000021402000290010002F60100020002E1
:102B4C000002000200020A0200020002000200025F
:102B5C00C800CE01F60100020002EC010002CE0119
:102B6C000A0200020002CE010002C800CE010002DF
:102B7C0000020002EC010002CE016F021101810182
:102B8C00CE01000290012802DC01C802C802320208
:102B9C00D80146020502000200021402D8016400AA
:102BAC00F101E2015A025A02D801D801EC013202B9
:102BBC0000021E02DD01D8013C00D801C4016902EB
:102BCC006902E701D801E201280200021E02DD01C0
:102BDC00D8014600BA01FB0100020002EC01000220
:102BEC00D801240238013801CE010002640014021D
:102BFC00CE0100021E02230228020F021E02A601B1
:102C0C00A601280228023C001E02D80100021E0266
:102C1C002302280228023C0297019701190228027C
:102C2C004600CE01EC013202410200020002DD013D
:102C3C00140256016A01CE010002C800CE01EC015B
:102C4C003202370200020002E701AB01CE016A0139
:102C5C00CE010002C800F601CE010002BF01140231
:102C6C00000200020002BA01BF0114020002C800F7
:102C7C003202C9010002BF01320200023202140208
:102C8C00CE01DD011E020002C8002302D801AA02F7
:102C9C0096023202000232021402CE01BF0100027F
:102CAC000002C80019024B023202960232020002E4
:102CBC0032021402CE01CE0100020002C800000252
:102CCC00000246024102EC0100020A02320200023A
:102CDC004102EC010002C800CE01EC0132022302D9
:102CEC00E2010002CE01320200024102CE010002DA
:102CFC00C8000002000200020002000200020002F2
:102D0C00000200020002000200026400CE01000278
:102D1C0000020002EC010002CE01000200020002DF
:102D2C00CE0100026400CE01000200020002EC01A0
:102D3C006402CE016F0211018101CE0100022C014F
:102D4C000002000200020002000264020002000203
:102D5C0000020002000200026400320200020002C3
:102D6C0000023202000232020002000200021402CF
:102D7C0000026400000200020002000200020002D5
:102D8C000002000200020002000200026400320293
:102D9C0000020002000232020002320200020002B3
:102DAC00000214020002640032029101EF027F0261
:102DBC0032020002320200020002000214029C01E4
:102DCC002C010002000200020002000200020002BC
:102DDC0000020002000200029C016400CE0100020D
:102DEC0000020002EC010002CE010002000200020F
:102DFC00CE01000264000002000200020002000288
:102E0C000002000200020002000200020002320076
:102E1C000002000200020002000200020002000296
:102E2C000002000200020002320000020002000256
:102E3C000002000200020002000200020002000276
:102E4C000002320000020002000200020002000236
:102E5C000002000200020002000200023200000226
:102E6C000002000200020002000200020002000246
:102E7C000002000200023200000200020002000206
:102E8C000002000200020002000200020002000226
:102E9C0032000002000200020002000200020002E6
:102EAC0000020002000200020002320000020002D6
:102EBC0000020002000200020002000200020002F6
:102ECC0000020002320000020002000200020002B6
:102EDC0000020002000200020002000200023200A6
:102EEC0000020002000200020002000200020002C6
:102EFC000002000200020002320013001200110056
:102F0C000F0010000E000D000C000B0009000A0051
:102F1C00080025640A0A0025643A25642C25642CD3
:102F2C0025642C25642C25642C25642C25642C25E7
:102F3C00642C25642C25642C25642C25640A00251E
:102F4C00643A25642C25642C25642C25642C25647A
:102F5C002C25642C25642C25642C25642C25642CB0
:102F6C0025642C25642C25640A0025643B0A004941
:102F7C006E70757420766F6C746167652065727203
:102F8C006F722100416E676C65206C696D697420ED
:102F9C006572726F7221004F76657268656174207C
:102FAC006572726F7221004F7574206F66207261AA
:102FBC006E6765206572726F722100436865636B82
:102FCC0073756D206572726F7221004F7665726C2D
:102FDC006F6164206572726F722100496E73747236
:102FEC00756374696F6E20636F6465206572726FB0
:102FFC00722100434F4D4D5F54584641494C3A2085
:10300C004661696C6564207472616E736D697420BD
:10301C00696E737472756374696F6E207061636B23
:10302C0065742100434F4D4D5F54584552524F52D9
:10303C003A20496E636F727265637420696E7374A3
:10304C0072756374696F6E207061636B65742100B7
:10305C00434F4D4D5F52584641494C3A20466169A9
:10306C006C6564206765742073746174757320706B
:10307C0061636B65742066726F6D2064657669633D
:10308C00652100434F4D4D5F525857414954494EAD
:10309C00473A204E6F7720726563696576696E6773
:1030AC0020737461747573207061636B6574210097
:1030BC00434F4D4D5F525854494D454F55543A204E
:1030CC005468657265206973206E6F207374617427
:1030DC007573207061636B65742100434F4D4D5FB8
:1030EC005258434F52525550543A20496E636F72A6
:1030FC007265637420737461747573207061636B93
:10310C00657421005468697320697320756E6B6E49
:10311C006F776E206572726F7220636F6465210029
:00000001FF
