:1000000065C0000084C0000082C0000080C0000005
:100010007EC000007CC000007AC0000078C00000F4
:1000200076C0000074C0000072C0000070C0000004
:100030006EC000006CC000006AC0000068C0000014
:1000400066C0000064C0000062C0000060C0000024
:100050005EC000005CC000005AC0000058C0000034
:1000600056C0000024C4000052C0000050C0000070
:100070004EC000004CC000004AC0000048C0000054
:1000800046C0000044C0000042C0000040C0000064
:1000900013C500003CC000003AC0000038C000009A
:1000A00036C0000034C0000032C0000030C0000084
:1000B0002EC000002CC000002AC0000028C0000094
:1000C00026C0000024C0000022C0000011241FBE72
:1000D000CFEFD1E2DEBFCDBF00E00CBF18E0A0E063
:1000E000B2E0EEE2FAE200E00BBF02C007900D9230
:1000F000A63AB107D9F72CE0A6EAB8E001C01D92F4
:10010000AA33B207E1F70E94280D0C94151578CF99
:10011000809100029091010208958093A8080895AB
:100120008093AA080895FC01EA55F74F6583089566
:100130008093A908089520E030E090914A0998231F
:1001400011F021E030E0C90108958091490990E063
:100150000895FC01EA5BF64F858190E00895362F03
:1001600020E0280F391FC9010895282F30E0C90168
:1001700008958070892F90E008950F931F93CF9377
:10018000DF9380918E0990918F09892B09F4B8C073
:100190008091A8088E3F09F4A9C080910002909137
:1001A0000102892B29F410928D0986E080938C0935
:1001B00080918D0990E060918C0970E0681B790B4B
:1001C0008A5B964F49D390918D09980F90938D0932
:1001D00080918C09981718F44AD2019771F07091A8
:1001E0008D09472F50E0DA0111978A010250104023
:1001F00060E0ED01CA5BD64F18C080918D0988235D
:1002000009F071C086E090E073C0F901EA5BF64F37
:1002100080818F3F19F481818F3F61F02017310772
:1002200019F488818F3F31F06F5F262F30E02A1755
:100230003B075CF36623A1F090E0421B530B08C020
:10024000EA5BF64FDF01A20FB31F8C9180839F5FA3
:10025000E92FF0E0E417F5079CF3761B70938D0906
:1002600020918D0980918C09281728F19091A80878
:10027000809148099817B9F5609149096C5F6093BE
:100280008C09261788F4822F90E070E0681B790BA8
:100290008A5B964FE1D290918D09980F90938D09CA
:1002A00080918C09981738F080914909A82FB0E007
:1002B00020E090E00CC085E090E0909301028093F4
:1002C00000021EC0EA5BF64F8281980F2F5FE22F7B
:1002D000F0E0AE17BF07B4F7AA5BB64F9095139640
:1002E0008C91891719F087E090E002C081E090E0DE
:1002F000909301028093000210928F0910928E0950
:10030000DF91CF911F910F9108951F9380918E09D6
:1003100090918F09019709F45DC081E090E090937E
:100320008F0980938E098091A908893940F49091B2
:10033000AA08892F8150863028F0933819F084E07C
:1003400090E02FC08FEF8093A6088093A70880913C
:10035000A908A82FB0E020E090E005C0EA55F74FCB
:100360008281980F2F5FE22FF0E0AE17BF07B4F73E
:10037000AA55B74F909513969C9380910002909147
:1003800001020697029708F438D11091A9081C5F62
:1003900086EA98E0612F70E035D1181759F082E0B5
:1003A00090E0909301028093000210928F091092C6
:1003B0008E0910C08091AA08823029F48091AC087F
:1003C00090E0069602C086E090E040D110920102D3
:1003D000109200021F91089598DF80910002909181
:1003E0000102892B39F4C9DE80910002909101024B
:1003F0000597C9F30895282F80918E0990918F0950
:10040000892B91F42093A80883E08093AA08609335
:10041000AB08CA014093AC0880709093AD0885E0AA
:100420008093A908D9CF0895FFCF282F80918E09F6
:1004300090918F09892BB1F42093A80882E08093D2
:10044000AA086093AB088093AC0884E08093A90865
:10045000C3DF30914C0920E080914B09280F311DFA
:10046000C9010895FFCF282F80918E0990918F099F
:10047000892B71F42093A80883E08093AA086093E5
:10048000AB084093AC0884E08093A908A5CF0895F9
:10049000FFCF282F80918E0990918F09892B91F49D
:1004A0002093A80882E08093AA086093AB0881E0BB
:1004B0008093AC0884E08093A9088EDF80914B097B
:1004C00090E00895FFCF282F80918E0990918F0999
:1004D000892B51F42093A80881E08093AA0882E038
:1004E0008093A90879CF0895FFCF86C008950F9310
:1004F0001F938C016F5F7F4F882777FD8095982F22
:100500000E94E20E9B01AC0160E074E284EF99E48A
:100510000E94470EAB01BC01C80115D0892B19F40C
:1005200020E030E00CC081E090E0909301028093E5
:10053000000210928F0910928E0921E030E0C9016B
:100540001F910F910895EF92FF920F931F937A01DD
:100550008B0182E48093C00088E98093C10086E02B
:100560008093C20060E074E284EF99E4A8019701EF
:100570000E94470E0E94B40E615070407093C500F7
:100580006093C40060E074E284E799E4A8019701F5
:100590000E94470E20E030E040E451E40E946E0FDC
:1005A0006093280C7093290C80932A0C90932B0C49
:1005B0002091280C3091290C40912A0C50912B0C41
:1005C00060E070E08AE793E40E94470E0E94B40E58
:1005D0007093270C6093260C7298739A8FEF809318
:1005E000C6001092900A1092910A81E090E01F914B
:1005F0000F91FF90EF90089508958091910A809354
:10060000900A0895AC01F8947398729A20E030E053
:1006100011C08091C00085FFFCCF8091C000806434
:100620008093C000FA01E20FF31F80818093C6001F
:100630002F5F3F4F2617370764F38091C00086FF76
:10064000FCCF7298739A7894C901089510922F0C78
:1006500010922E0C2091260C3091270C265F3F4FD4
:10066000280F391F30932D0C20932C0C0895AF9236
:10067000BF92CF92DF92EF92FF920F931F938091E0
:100680002E0C90912F0C019690932F0C80932E0C92
:1006900020912E0C30912F0C80912C0C90912D0CD0
:1006A0008217930718F421E030E074C0A090280C62
:1006B000B090290CC0902A0CD0902B0CC601B5012B
:1006C0002BEA3AEA4AEA50E40E946E0F7B018C0161
:1006D00020E030E040E85FE30E94D10F882314F46B
:1006E00061E054C0C801B70120E030E04FE753E4B7
:1006F0000E94F90F18160CF045C0C601B50120E0A4
:1007000030E04AE754E40E94470E5B016C0120E0B0
:1007100030E04AE755E40E946E0F7B018C0120E037
:1007200030E040E85FE30E94D10F88231CF461E0D1
:1007300070E024C0C801B70120E03FEF4FE757E465
:100740000E94F90F1816B4F4C601B50120E030E09C
:1007500040E251E40E946E0F0E94B40E80E991E0E5
:1007600005C0FC013197F1F76150704061157105CA
:10077000C1F70EC0C801B7010E94B40ECB010197AA
:10078000F1F706C0C801B7010E94B40E6A95F1F7EF
:1007900020E030E0C9011F910F91FF90EF90DF90B2
:1007A000CF90BF90AF9008959091900A8091910A58
:1007B000981719F420E030E017C09091900A8091CA
:1007C000910A981738F48091910A9091900A282FF5
:1007D00030E008C08091910A9091900A282F30E073
:1007E00020503F4F291B3109C90108951F93182F2D
:1007F000DBDF8F3F910591F0E091910AF0E0E05747
:10080000F64F10838091910A8F3F19F41092910A4C
:1008100005C08091910A8F5F8093910A1F9108957E
:100820009091900A8091910A981711F4EFEF12C0FD
:10083000E091900AF0E0E057F64FE0818091900A55
:100840008F3F19F41092900A05C08091900A8F5F33
:100850008093900A8E2F0895EF92FF920F931F932B
:10086000CF93DF937C01EB019091900A8091910AE4
:10087000981719F400E010E012C096DF8C01C81739
:10088000D9070CF48E01C0E0D0E006C0C9DFF70143
:10089000EC0FFD1F80832196C017D107BCF3C80160
:1008A000DF91CF911F910F91FF90EF9008951F92CC
:1008B0000F920FB60F920BB60F9211242F933F9306
:1008C0004F935F936F937F938F939F93AF93BF9358
:1008D000EF93FF938091C60089DFFF91EF91BF9165
:1008E000AF919F918F917F916F915F914F913F91C8
:1008F0002F910F900BBE0F900FBE0F901F90189569
:10090000AC0120E030E00CC08091C80085FFFCCF36
:10091000FA01E20FF31F80818093CE002F5F3F4FDB
:10092000261737078CF30895DC019091120B809104
:10093000130B981711F480E008959091120B809199
:10094000130B981719F420E030E017C09091120BA8
:100950008091130B981738F48091130B9091120B20
:10096000282F30E008C08091130B9091120B282F94
:1009700030E020583F4F291B3109A9016217730746
:100980000CF4AB0120E030E020C09091120B80917C
:10099000130B981711F49FEF12C0E091120BF0E0C7
:1009A000EE56F54F90818091120B8F3719F410920B
:1009B000120B05C08091120B8F5F8093120BFD010B
:1009C000E20FF31F90832F5F3F4F24173507ECF2A0
:1009D000842F08959091120B8091130B981719F49E
:1009E00020E030E017C09091120B8091130B981704
:1009F00038F48091130B9091120B282F30E008C02F
:100A00008091130B9091120B282F30E020583F4F0C
:100A1000291B3109C9010895482F9091120B80912B
:100A2000130B9817D1F09091120B8091130B98171C
:100A300038F48091130B9091120B282F30E008C0EE
:100A40008091130B9091120B282F30E020583F4FCC
:100A5000291B31092F37310591F0E091130BF0E09C
:100A6000EE56F54F40838091130B8F3719F4109297
:100A7000130B08958091130B8F5F8093130B0895D0
:100A80009091120B8091130B981711F4EFEF12C095
:100A9000E091120BF0E0EE56F54FE0818091120BE1
:100AA0008F3719F41092120B05C08091120B8F5FD3
:100AB0008093120B8E2F08951F920F920FB60F92F4
:100AC0000BB60F9211242F933F934F935F936F9325
:100AD0007F938F939F93AF93BF93EF93FF938091F7
:100AE000CE009ADFFF91EF91BF91AF919F918F91CF
:100AF0007F916F915F914F913F912F910F900BBE1E
:100B00000F900FBE0F901F901895DF93CF930F9209
:100B10000F92CDB7DEB7982F8A3099F48DE0898394
:100B20009A83FE0131969E012D5F3F4F8091C80050
:100B300085FFFCCF81918093CE00E217F307B1F7D8
:100B400006C08091C80085FFFCCF9093CE0080E066
:100B500090E00F900F90CF91DF9108959091120B3C
:100B60008091130B9817D1F39091120B8091130B76
:100B7000981738F48091130B9091120B282F30E0C6
:100B800008C08091130B9091120B282F30E0205851
:100B90003F4F291B3109232B09F39091120B8091B0
:100BA000130B981711F4EFEF15C0E091120BF0E062
:100BB000EE56F54FE0818091120B8F3719F41092A9
:100BC000120B05C08091120B8F5F8093120BED30DA
:100BD00009F4EAE08E2F90E008950E94E20E9B0156
:100BE000AC0160E074E284EF99E40E94470E0E9439
:100BF000B40E6150704022E42093C80028E920938D
:100C0000C90026E02093CA002FEF2093CE00109257
:100C1000120B1092130B272F332727FD3A952093A1
:100C2000CD006093CC007298739A85E895E06EEAE7
:100C300075E00E9473109093150B8093140B089528
:100C400060E071EE80E090E0C8DF78940895C2DE45
:100C5000181619060CF03FC08091300C9091310CA1
:100C60000E94BD108A3011F08D3091F48091680B94
:100C70009091690B181619068CF51092690B109259
:100C8000680B81E090E090936B0B80936A0B089562
:100C9000882339F12091680B3091690BA9014F5FCE
:100CA0005F4F5093690B4093680BF901E85EF44F76
:100CB00080838091680B9091690B8F349105A4F02B
:100CC0001092690B1092680B81E090E090936B0B8F
:100CD00080936A0B089580E090E0089580E090E0B2
:100CE000089580E090E0089580E090E0089580917C
:100CF0006A0B90916B0B181619063CF410926B0B53
:100D000010926A0B88E19BE0089580E090E00895DE
:100D10009F938F9381E396E09F938F930E94FB10A4
:100D20000F900F900F900F90089561E070E080E0B9
:100D300090E0DDDB41E050E06FE270E08FE190E0B9
:100D40005ADB40E050E060E270E08EEF90E053DB71
:100D500040E050E068E170E08EEF90E084DB2FE34C
:100D60008DE093E0215080409040E1F700C000000A
:100D700008950F931F93CF93DF9300D0CDB7DEB7C5
:100D800020E23CE240E029833A834B83BE016F5F5F
:100D90007F4F0E944110009789F006E81BE00E94F7
:100DA0002410F801819391938F01BE016F5F7F4FF3
:100DB00080E090E00E944110009789F70F900F901B
:100DC0000F90DF91CF911F910F9108958091780B33
:100DD0009091790B0A969093790B8093780B2091E0
:100DE000760B3091770B821793073CF01092790BBA
:100DF0001092780B80E090E0089581E090E00895F3
:100E0000A091880BB091890BA233B105C4F4EAE834
:100E1000FBE0AA0FBB1FCD01880F991F880F991FF8
:100E2000880F991FA80FB91FA257BD4F2CE93BE0AF
:100E3000819191918D939D93E217F307C9F70895DE
:100E4000CF92DF92EF92FF920F931F93CF93DF9396
:100E5000CDB7DEB760970FB6F894DEBF0FBECDBF3B
:100E6000FE01319680E1DF011D928A95E9F702E1EA
:100E700016E07F010F2EF2E2CF2EF6E0DF2EF02DEE
:100E800064E270E0F801819191918F01CEDAD7018F
:100E90008D939D937D010C151D0591F7888D8F9382
:100EA0008F898F938E898F938D898F938C898F9360
:100EB0008B898F938A898F9389898F9388898F9360
:100EC0008F858F938E858F938D858F938C858F9350
:100ED0008B858F938A858F9389858F9388858F9350
:100EE0008F818F938E818F938D818F938C818F9340
:100EF0008B818F938A818F9389818F931F9282E058
:100F00008F9386E396E09F938F930E94FB100FB61A
:100F1000F894DEBF0FBECDBF60960FB6F894DEBF6B
:100F20000FBECDBFDF91CF911F910F91FF90EF903A
:100F3000DF90CF9008959C01220F331FF901EE0F2F
:100F4000FF1FEE0FFF1FEE0FFF1FE20FF31FE25711
:100F5000FD4F218D2F93208D2F9327892F93268945
:100F60002F9325892F9324892F930196DC01AA0FB3
:100F7000BB1FCD01880F991F880F991F880F991FDC
:100F8000A80FB91FA257BD4F11968C9111978F933F
:100F90008C918F9381898F9380898F9387858F938D
:100FA00086858F9385858F9384858F9383858F9393
:100FB00082858F9381858F9380858F9387818F938F
:100FC00086818F9385818F9384818F9383818F9383
:100FD00082818F9381818F9380818F931F9283E091
:100FE0008F938EE596E09F938F930E94FB108DB7B1
:100FF0009EB74E960FB6F8949EBF0FBE8DBF089554
:10100000CF92DF92EF92FF920F931F93CF93DF93D4
:10101000CDB7DEB760970FB6F894DEBF0FBECDBF79
:10102000FE01319680E1DF011D928A95E9F702E128
:1010300016E07F010F2EF2E2CF2EF6E0DF2EF02D2C
:1010400068E270E0F801819191918F01EED9D701AA
:101050008D939D937D010C151D0591F7888D8F93C0
:101060008F898F938E898F938D898F938C898F939E
:101070008B898F938A898F9389898F9388898F939E
:101080008F858F938E858F938D858F938C858F938E
:101090008B858F938A858F9389858F9388858F938E
:1010A0008F818F938E818F938D818F938C818F937E
:1010B0008B818F938A818F9389818F931F9284E094
:1010C0008F9386E396E09F938F930E94FB100FB659
:1010D000F894DEBF0FBECDBF60960FB6F894DEBFAA
:1010E0000FBECDBFDF91CF911F910F91FF90EF9079
:1010F000DF90CF900895CF92DF92EF92FF920F93FF
:101100001F93CF93DF93CDB7DEB760970FB6F894F8
:10111000DEBF0FBECDBFFE01319680E1DF011D9223
:101120008A95E9F702E116E07F010F2EF2E2CF2E59
:10113000F6E0DF2EF02D6AE270E0F80181919191E6
:101140008F0173D912D8D7018D939D937D010C1512
:101150001D0589F7888D8F938F898F938E898F9343
:101160008D898F938C898F938B898F938A898F93A5
:1011700089898F9388898F938F858F938E858F939D
:101180008D858F938C858F938B858F938A858F9395
:1011900089858F9388858F938F818F938E818F938D
:1011A0008D818F938C818F938B818F938A818F9385
:1011B00089818F931F9285E08F9386E396E09F93BA
:1011C0008F930E94FB100FB6F894DEBF0FBECDBF09
:1011D00060960FB6F894DEBF0FBECDBFDF91CF9102
:1011E0001F910F91FF90EF90DF90CF900895909313
:1011F000750B8093740B7093730B6093720B20913B
:101200007A0B30917B0B232B61F490937D0B8093B1
:101210007C0B70937B0B60937A0B1092730B109284
:10122000720B089580917A0B90917B0B181619061A
:101230000CF450C08091840B9091850B019709F0BC
:1012400049C080916C0B90916D0B892BD1F4E0918A
:101250007E0BF0917F0BEE0FFF1FEE0FFF1FE25F83
:10126000FD4F80819181029761F461E070E081E03F
:1012700090E0BDDF81E090E090936D0B80936C0B6C
:10128000089510926D0B10926C0BE0917E0BF09113
:101290007F0BEE0FFF1FEE0FFF1FE25FFD4F62811E
:1012A000738180819181A3DF80917E0B90917F0B70
:1012B000019690937F0B80937E0B209110023091CA
:1012C00011022817390734F481E090E090937F0BE6
:1012D00080937E0B089590937D0B80937C0B70938D
:1012E0007B0B60937A0B1092730B1092720B81E060
:1012F00090E090930D0280930C021092790B109263
:10130000780B089581E090E090930D0280930C0299
:1013100010927B0B10927A0B1092790B1092780B33
:101320008FEF9FEF90930B0280930A02089581E064
:1013300090E00E949B00019719F48EE896E06CD72C
:1013400082E090E00E949B00019719F483EA96E006
:1013500063D784E090E00E949B00019719F486EB2C
:1013600096E05AD788E090E00E949B00019719F41C
:1013700086EC96E051D780E190E00E949B000197B7
:1013800019F48AED96E048D780E290E00E949B0035
:10139000019719F48AEE96E03FD780E490E00E942E
:1013A0009B00019719F48AEF96E036C708958430C0
:1013B000910591F034F48230910551F0039781F05A
:1013C0001FC086309105A1F07CF00797A9F018C0E6
:1013D00082E197E021C7089583E497E01DC708954F
:1013E0008FE697E019C7089582EA97E015C7089538
:1013F0008FEC97E011C708958AEF97E00DC7089525
:1014000083E298E009C708950F931F93CF93DF936A
:101410008C01EB018EEF90E00E948D0083E890E05C
:101420000E94900060E270E080E090E00E949300F3
:1014300062E070E081E090E00E949300B80182E0F9
:1014400090E00E949300CE010E94B500BC0183E0B1
:1014500090E00E949300CE010E94B900BC0184E09C
:1014600090E00E94930087E090E00E9498000E9424
:10147000EC010E9488008130910511F458DF01C011
:1014800096DFDF91CF911F910F9108952F923F9298
:101490004F925F926F927F928F929F92AF92BF9284
:1014A000CF92DF92EF92FF920F931F93CF93DF9330
:1014B000CDB7DEB7AA970FB6F894DEBF0FBECDBF8B
:1014C0009EA38DA3C2970CF078C1FE01319680E1F6
:1014D000DF011D928A95E9F78DA19EA1880F991FC2
:1014E0009C01220F331F220F331F220F331F820F45
:1014F000931F9C0122573D4F38A72FA36E2E7F2E9E
:101500000F2EF2E28F2EF6E09F2EF02D7F01690163
:1015100002E116E0A12CB12C64E270E0D8018D91BB
:101520009D918D010E941502F601219131916F016B
:10153000A901481B590BCA01992324F0D7014D93E7
:101540005C9306C0919581959109F7019183808301
:10155000D7018D919D917D01A816B9060CF45C010F
:1015600008151905C9F68E010F5E1F4F80E1F801BD
:1015700011928A95E9F784E690E09A8B898B8DA188
:101580009EA1880F991FFC01EE0FFF1FEE0FFF1F9A
:10159000EE0FFF1F8E0F9F1FFC01E257FD4F60896A
:1015A0007189882777FD8095982F0CD46B017C0179
:1015B00009A71AA71AA309A31801062D172D45017B
:1015C000AA2497FCA094BA2CD801ED91FD918D012D
:1015D000FCA3EBA3C501B401F5D32B013C012BA166
:1015E0003CA1B901882777FD8095982FEBD3A30103
:1015F00092014DD39B01AC01C701B6016FD4AFD3AB
:101600006115710521F0D1016D937C9305C021E036
:1016100030E0F1013183208332E0230E311C49A1F7
:101620005AA10417150781F68DA19EA1880F991F55
:10163000FC01EE0FFF1FEE0FFF1FEE0FFF1F8E0FBF
:101640009F1FFC01E257FD4F608971898BEF93E189
:10165000D4D4882777FD8095982FB4D39B01AC0113
:10166000C301B2013BD47BD36A3071052CF0709377
:10167000770B6093760B06C08AE090E09093770B2F
:101680008093760B8EEF90E00E948D0083E890E0CF
:101690000E94900060E270E080E090E00E94930081
:1016A00062E070E081E090E00E949300C9A4DAA4B7
:1016B0000F2EF2E1AF2EF6E0BF2EF02D02E010E08B
:1016C000D5016D917D915D01C8010E949300F601E5
:1016D000E190F1906F01C7010E94B500BC01C80103
:1016E00001960E949300C7010E94B900BC01C80185
:1016F00002960E9493000D5F1F4F0A31110501F7FA
:101700008CE190E00E9498000E94EC010E94880009
:101710008130910509F050C00ADE8EEF90E00E9402
:101720008D0083E890E00E9490006EE170E080E020
:1017300090E00E94930062E070E081E090E00E94FF
:101740009300EFA0F8A40F2EF2E1CF2EF6E0DF2EEB
:10175000F02D02E010E0D6016D917D916D01C80180
:101760000E9493005701F701819191917F010E949E
:10177000B500BC01C80101960E949300D5018D916E
:101780009C910E94B900BC01C80102960E9493007E
:101790000D5F1F4F0A311105F1F68CE190E00E94B8
:1017A00098000E94EC010E9488008130910511F49C
:1017B000BEDD03C0FCDD01C0FADDAA960FB6F894C9
:1017C000DEBF0FBECDBFDF91CF911F910F91FF9074
:1017D000EF90DF90CF90BF90AF909F908F907F90D1
:1017E0006F905F904F903F902F90089548990EC052
:1017F0008091820B9091830B892B09F050C081E07E
:1018000090E09093830B8093820B08958091820BDC
:101810009091830B019709F042C01092830B1092B4
:10182000820B8091840B9091850B9C012F5F3F4F21
:101830003093850B2093840B26E030E0A901481BF0
:10184000590BCA01181619063CF08FE388B910929B
:10185000850B1092840B0BC021E030E0A90102C07F
:10186000440F551F8A95E2F7CA01809588B94ADD71
:1018700080E090E00BDE81E090E090937F0B80931E
:101880007E0B8091840B9091850B019741F48091A0
:101890000E0290910F029093810B8093800B08951C
:1018A000CF93DF9380917A0B90917B0B18161906DA
:1018B0000CF0CBC08BDA892B09F0C7C080917C0B70
:1018C00090917D0BFC01EE0FFF1FE65CFD4FC08188
:1018D000D18129812F9328812F939F938F938FE319
:1018E00098E09F938F9387D42881398180910C024F
:1018F00090910D020F900F900F900F900F900F90FE
:10190000281739070CF07EC03F932F939F938F9336
:1019100083E698E09F938F936ED481E090E090935C
:101920000D0280930C0280917A0B90917B0B0F90AB
:101930000F900F900F900F900F90833691050CF041
:1019400061C0019790937B0B80937A0B1816190650
:101950000CF458C02091720B3091730B12161306C1
:101960000CF04EC08091740B9091750BAC014250FD
:1019700051094230510590F440917C0B50917D0B00
:101980004130510539F181E090E090937D0B8093D7
:101990007C0B90937B0B80937A0B28C040917C0B3F
:1019A00050917D0B4430510521F48530910591F41F
:1019B00006C08430910571F44530510559F41092F8
:1019C0007D0B10927C0B81E090E090937B0B8093D9
:1019D0007A0B0CC090937D0B80937C0B30937B0B28
:1019E00020937A0B1092730B1092720B2FE58AEEF4
:1019F00090E0215080409040E1F700C0000025C0F9
:101A000081DC23C080910D028F9380910C028F9313
:101A100082E998E09F938F93EED380910C0290918E
:101A20000D02880F991FC80FD91F888199812EDD5B
:101A300080910C0290910D02019690930D0280937B
:101A40000C020F900F900F900F90DF91CF9108959F
:101A50008F929F92AF92BF92CF92DF92EF92FF92BE
:101A60000F931F93CF93DF9311B882E182B98FE771
:101A700087B98EE788B980E78AB981E18BB955D9F2
:101A8000DFD8C6E8DBE00F2EF0E5AF2EF02D0F2EED
:101A9000FAE8EF2EFBE0FF2EF02D08E81BE00F2EFA
:101AA000FFED8F2EF02D0F2EF0EABF2EF02D0F2E12
:101AB000FFE79F2EF02D9ADECAD8181619060CF0F3
:101AC00082C015D96C01009709F47DC052D9888174
:101AD00099818630910509F45CC094F482309105B7
:101AE00009F444C034F4009701F1019709F440C0AF
:101AF00062C08430910509F448C00CF43AC047C074
:101B00008930910559F134F487309105B1F0089787
:101B100001F151C08B30910509F450C00CF442C062
:101B2000873E934009F49CC046C0F80180819181B2
:101B3000ADDC81E090E0ECD841C0F70160817181BB
:101B4000F8018081918153DB88B881E090E0E0D892
:101B500035C0D8DB81E090E0DBD830C0F701608190
:101B60007181F80180819181B6DB28C069D926C0D6
:101B700047D9F801808191818233910524F080E07A
:101B800090E0C6D81BC0D7D919C03ADA17C0B3DA6B
:101B900015C040E050E068E170E08EEF90E00E94F8
:101BA00033020CC010926E0B10926F0B1092700BE0
:101BB0001092710B03C080E090E0AAD8F6012A2DA4
:101BC00011922A95E9F7FE012B2D11922A95E9F73A
:101BD000019910C080910802909109021816190607
:101BE0002CF5109209021092080298B880E090E05B
:101BF0004DDC1CC08091080290910902892B39F4B8
:101C0000469881E090E090930902809308028091C9
:101C1000800B9091810B181619061CF003DB40DE37
:101C200005C00A979093810B8093800B83EC99E019
:101C30000197F1F700C0000080916E0B90916F0B3F
:101C4000A091700BB091710B0196A11DB11D8093F5
:101C50006E0B90936F0BA093700BB093710B2BCF07
:101C600087EE93E055D860E070E080E090E0CCDB58
:101C700080E090E0DF91CF911F910F91FF90EF9066
:101C8000DF90CF90BF90AF909F908F9008950CD031
:101C9000EBC0E3D040F0DAD030F021F45F3F19F030
:101CA000CCC0511115C1CFC0F0D098F39923C9F31E
:101CB0005523B1F3951B550BBB27AA276217730752
:101CC000840738F09F5F5F4F220F331F441FAA1F06
:101CD000A9F333D00E2E3AF0E0E830D091505040C6
:101CE000E695001CCAF729D0FE2F27D0660F771F74
:101CF000881FBB1F261737074807AB07B0E809F056
:101D0000BB0B802DBF01FF2793585F4F2AF09E3FEA
:101D1000510568F092C0DCC05F3FECF3983EDCF305
:101D2000869577956795B795F7959F5FC9F7880F63
:101D3000911D9695879597F90895E1E0660F771FB5
:101D4000881FBB1F621773078407BA0720F0621B46
:101D5000730B840BBA0BEE1F88F7E095089504D03F
:101D60006894B111B5C0089598D088F09F5790F04D
:101D7000B92F9927B751A0F0D1F0660F771F881FB0
:101D8000991F1AF0BA95C9F712C0B13081F09FD0EF
:101D9000B1E008959CC0672F782F8827B85F39F08D
:101DA000B93FCCF3869577956795B395D9F73EF40F
:101DB00090958095709561957F4F8F4F9F4F0895B7
:101DC000E89409C097FB3EF49095809570956195D5
:101DD0007F4F8F4F9F4F9923A9F0F92F96E9BB278B
:101DE0009395F695879577956795B795F111F8CF07
:101DF000FAF4BB0F11F460FF1BC06F5F7F4F8F4F72
:101E00009F4F16C0882311F096E911C0772321F067
:101E10009EE8872F762F05C0662371F096E8862FFF
:101E200070E060E02AF09A95660F771F881FDAF756
:101E3000880F9695879597F9089597F99F6780E899
:101E400070E060E008959FEF80EC089500240A940C
:101E50001616170618060906089500240A94121685
:101E60001306140605060895092E0394000C11F4B8
:101E7000882352F0BB0F40F4BF2B11F460FF04C065
:101E80006F5F7F4F8F4F9F4F089557FD9058440FBE
:101E9000551F59F05F3F71F04795880F97FB991FC9
:101EA00061F09F3F79F08795089512161306140686
:101EB000551FF2CF4695F1DF08C016161706180613
:101EC000991FF1CF86957105610508940895E894EE
:101ED000BB2766277727CB0197F908950BD0C4CF8E
:101EE000B5DF28F0BADF18F0952309F0A6CFABCF05
:101EF0001124EECFCADFA0F3959FD1F3950F50E0E8
:101F0000551F629FF001729FBB27F00DB11D639FAB
:101F1000AA27F00DB11DAA1F649F6627B00DA11D51
:101F2000661F829F2227B00DA11D621F739FB00DF7
:101F3000A11D621F839FA00D611D221F749F332767
:101F4000A00D611D231F849F600D211D822F762F00
:101F50006A2F11249F5750408AF0E1F088234AF0FD
:101F6000EE0FFF1FBB1F661F771F881F9150504049
:101F7000A9F79E3F510570F060CFAACF5F3FECF309
:101F8000983EDCF3869577956795B795F795E79535
:101F90009F5FC1F7FE2B880F911D9695879597F946
:101FA000089503D008F481E00895990F0008550FB3
:101FB000AA0BE0E8FEEF16161706E807F907C0F0CF
:101FC00012161306E407F50798F0621B730B840BD7
:101FD000950B39F40A2661F0232B242B252B21F4B1
:101FE00008950A2609F4A140A6958FEF811D811D51
:101FF0000895DBDF08F48FEF089597FB072E16F4A2
:10200000009406D077FD08D00BD007FC05D03EF435
:10201000909581959F4F0895709561957F4F089594
:10202000AA1BBB1B51E107C0AA1FBB1FA617B707FE
:1020300010F0A61BB70B881F991F5A95A9F780951A
:102040009095BC01CD010895FC0188279927E8945B
:1020500021912032E9F3293010F02E30C8F32B32D1
:1020600039F02D3231F4689403C035D0820F911DC0
:10207000219120532A30C8F31EF4909581959F4FEB
:10208000089546E15BE000C0FA01A191B08100979C
:1020900019F41097E1F0CD01DC01CD010D90002085
:1020A00011F4C00113C0FB012191222319F0201566
:1020B000D9F7F3CFFB012191201519F41E92119647
:1020C00006C02223C1F70D900020A1F7D001FA012C
:1020D000A193B08308957AE0979F902D879F802DDC
:1020E000910D112408950F931F93CF93DF93EC016B
:1020F0008B01009731F46115710519F480E090E0CF
:1021000037C06EE070E081E090E0A1D2FC01009762
:10211000A9F380E883830115110571F01387028705
:1021200081E883838091300C9091310C892B21F4CC
:10213000F093310CE093300C2097C9F0D187C08721
:102140008381826083838091320C9091330C892B40
:1021500071F4F093330CE093320C8091340C909135
:10216000350C892B21F4F093350CE093340CCF011E
:10217000DF91CF911F910F910895CF93DF93EC01E1
:102180002B8120FF33C026FF0AC02F7B2B838E813B
:102190009F8101969F838E838A8190E029C022FFD0
:1021A0000FC0E881F9818081992787FD909500977C
:1021B00019F420622B831AC03196F983E8830EC08C
:1021C000EA85FB85199597FF09C02B81019611F4CB
:1021D00080E101C080E2822B8B8308C02E813F8189
:1021E0002F5F3F4F3F832E83992702C08FEF9FEFD2
:1021F000DF91CF910895CF93DF93CDB7DEB7FE0186
:10220000369661917191AF018091320C9091330CAF
:1022100030D0DF91CF9108950F931F93CF93DF9329
:10222000E091320CF091330C238121FF1BC0EC01B3
:1022300000E010E089916091320C7091330CDB0169
:102240001896ED91FC911997882331F01995892BF7
:1022500089F30FEF1FEFEECF8AE01995892B11F468
:10226000C80102C08FEF9FEFDF91CF911F910F91B7
:1022700008952F923F924F925F926F927F928F922A
:102280009F92AF92BF92CF92DF92EF92FF920F9305
:102290001F93CF93DF93CDB7DEB72C970FB6F8948B
:1022A000DEBF0FBECDBF7C016B018A01FC0117822E
:1022B0001682838181FFB0C1CE0101964C01F701E6
:1022C0009381F60193FD859193FF81916F0188239E
:1022D00009F49EC1853239F493FD859193FF819174
:1022E0006F01853221F4B70190E00FD3E8CF512C74
:1022F000312C20E02032A0F48B3269F030F48032AF
:1023000059F0833269F420612CC08D3239F080336A
:1023100039F4216026C02260246023C0286021C0D7
:1023200027FD27C030ED380F3A3078F426FF06C07D
:10233000FAE05F9E300D1124532E13C08AE0389EC0
:10234000300D1124332E20620CC08E3221F426FD74
:102350005FC1206406C08C3611F4206802C0883644
:1023600041F4F60193FD859193FF81916F018111F5
:10237000C1CF982F9F7D9554933028F40C5F1F4F49
:10238000FFE3F9830DC0833631F0833771F0833575
:1023900009F057C021C0F801808189830E5F1F4F6B
:1023A00044244394512C540114C03801F2E06F0EC0
:1023B000711CF801A080B18026FF03C0652D70E07C
:1023C00002C06FEF7FEFC5012C8794D22C018301EF
:1023D0002C852F77222E16C03801F2E06F0E711C6B
:1023E000F801A080B18026FF03C0652D70E002C017
:1023F0006FEF7FEFC5012C876BD22C012C852068F5
:10240000222E830123FC19C0832D90E04816590623
:10241000A0F4B70180E290E078D23A94F5CFF501CC
:1024200027FC859127FE81915F01B70190E06DD275
:1024300031103A94F1E04F1A51084114510479F7E0
:10244000DEC0843611F0893631F5F80127FF07C068
:1024500060817181828193810C5F1F4F08C0608110
:102460007181882777FD8095982F0E5F1F4F2F76FB
:10247000B22E97FF09C090958095709561957F4F1A
:102480008F4F9F4F2068B22E2AE030E0A4016FD218
:10249000A82EA81843C0853729F42F7EB22E2AE033
:1024A00030E025C0F22FF97FBF2E8F36C1F018F42F
:1024B000883579F0ADC0803719F0883721F0A8C091
:1024C0002F2F2061B22EB4FE0DC08B2D8460B82E4C
:1024D00009C024FF0AC09F2F9660B92E06C028E0CD
:1024E00030E005C020E130E002C020E132E0F80138
:1024F000B7FE07C060817181828193810C5F1F4F9D
:1025000006C06081718180E090E00E5F1F4FA401E2
:102510002ED2A82EA818FB2DFF77BF2EB6FE0BC01B
:102520002B2D2E7FA51450F4B4FE0AC0B2FC08C0B7
:102530002B2D2E7E05C07A2C2B2D03C07A2C01C0AA
:10254000752C24FF0DC0FE01EA0DF11D8081803342
:1025500011F4297E09C022FF06C07394739404C04D
:10256000822F867809F0739423FD12C020FF06C0E5
:102570005A2C731418F4530C5718732C731460F4FA
:10258000B70180E290E02C87C0D173942C85F6CF00
:10259000731410F4371801C0312C24FF11C0B70197
:1025A00080E390E02C87B1D12C8522FF16C021FF5B
:1025B00003C088E590E002C088E790E0B7010CC056
:1025C000822F867851F021FD02C080E201C08BE2AB
:1025D00027FD8DE2B70190E098D1A51430F4B70142
:1025E00080E390E092D15A94F8CFAA94F401EA0DD6
:1025F000F11D8081B70190E088D1A110F6CF332082
:1026000009F45DCEB70180E290E07FD13A94F7CF34
:10261000F7018681978102C08FEF9FEF2C960FB64E
:10262000F894DEBF0FBECDBFDF91CF911F910F9108
:10263000FF90EF90DF90CF90BF90AF909F908F90E2
:102640007F906F905F904F903F902F9008950F93E1
:102650001F93CF93DF93869F8001879F100D969FD6
:10266000100D1124C8010DD0EC01009721F0A80134
:1026700060E070E038D1CE01DF91CF911F910F91D2
:102680000895CF93DF938230910510F482E090E0BB
:10269000E091380CF091390C20E030E0A0E0B0E09F
:1026A000309739F14081518148175907B8F04817E0
:1026B000590771F482819381109729F013969C93A6
:1026C0008E9312972CC09093390C8093380C27C0AE
:1026D0002115310531F04217530718F0A901DB012C
:1026E00001C0EF019A01BD01DF010280F381E02DFD
:1026F000D7CF21153105F9F0281B390B24303105CE
:1027000080F48A819B816115710521F0FB0193831F
:10271000828304C09093390C8093380CFE0132966A
:1027200044C0FE01E20FF31F8193919322503109BF
:10273000398328833AC02091360C3091370C232BF3
:1027400041F420910402309105023093370C20931C
:10275000360C20910202309103022115310541F41B
:102760002DB73EB74091060250910702241B350B4E
:10277000E091360CF091370CE217F307A0F42E1B12
:102780003F0B2817390778F0AC014E5F5F4F2417D5
:10279000350748F04E0F5F1F5093370C4093360CAF
:1027A0008193919302C0E0E0F0E0CF01DF91CF91FF
:1027B0000895CF93DF93009709F487C0FC01329707
:1027C00013821282C091380CD091390C209781F479
:1027D00020813181280F391F8091360C9091370C60
:1027E0008217930779F5F093370CE093360C6DC0A0
:1027F000DE0120E030E0AE17BF0750F412964D9195
:102800005C9113979D014115510509F1DA01F3CF50
:10281000B383A28340815181840F951F8A179B0740
:1028200071F48D919C911197840F951F029691835D
:10283000808312968D919C911397938382832115A7
:10284000310529F4F093390CE093380C3EC0D901DE
:102850001396FC93EE9312974D915D91A40FB51FC3
:10286000EA17FB0779F480819181840F951F029606
:10287000D90111969C938E938281938113969C9398
:102880008E931297E0E0F0E08A819B81009719F027
:10289000FE01EC01F9CFCE01029628813981820F29
:1028A000931F2091360C3091370C2817390769F4A3
:1028B000309729F41092390C1092380C02C0138210
:1028C0001282D093370CC093360CDF91CF910895CC
:1028D000FC010590615070400110D8F780959095EB
:1028E0008E0F9F1F0895DC0101C06D934150504031
:1028F000E0F70895FC016150704001900110D8F795
:10290000809590958E0F9F1F08950F931F93CF93DF
:10291000DF93182F092FEB018B8181FD03C08FEF0F
:102920009FEF20C082FF10C04E815F812C813D81CE
:10293000421753077CF4E881F9819F012F5F3F4FD5
:1029400039832883108306C0E885F985812F19957E
:10295000892B29F72E813F812F5F3F4F3F832E83A5
:10296000812F902FDF91CF911F910F910895FA0140
:10297000AA27283051F1203181F1E8946F936E7FBE
:102980006E5F7F4F8F4F9F4FAF4FB1E03ED0B4E0AF
:102990003CD0670F781F891F9A1FA11D680F791FF0
:1029A0008A1F911DA11D6A0F711D811D911DA11D01
:1029B00020D009F468943F912AE0269F1124301911
:1029C000305D3193DEF6CF010895462F4770405DAC
:1029D0004193B3E00FD0C9F7F6CF462F4F70405D5B
:1029E0004A3318F0495D31FD4052419302D0A9F7B6
:1029F000EACFB4E0A6959795879577956795BA95B0
:102A0000C9F700976105710508959B01AC010A2E75
:102A100006945795479537952795BA95C9F7620F4C
:0E2A2000731F841F951FA01D0895F894FFCF0B
:102A2E00010000003A0C20000100FFFF0100E80346
:102A3E000A000000010003000A0003000A00030060
:102A4E000A0003000A0003000A0003000A00030044
:102A5E000A0003000A00000001008A0286027802C2
:102A6E006E0262025602480206000A000B000C00BB
:102A7E000D000E000F000500230024002500260087
:102A8E00270005001E001F00200021002200040068
:102A9E001600170018001900060010001100120091
:102AAE001300140015000100010001000000660073
:102ABE0033019803CC029803CC0266003301640004
:102ACE00660033019803CC029803CC0266003301F2
:102ADE006400CD0000023203000232030002CD007A
:102AEE0000026400CD000002320300023203000235
:102AFE00CD0000026400CD0000023203000232035A
:102B0E000002CD0000026400CD000002320300027C
:102B1E0032030002CD0000026400CD000002320339
:102B2E00000232030002CD0000026400CD0000025C
:102B3E003203000232030002CD0000026400660080
:102B4E009A01980366029803660266009A01640071
:102B5E00CD0000023203000232030002CD0000025B
:102B6E006400CD0000023203000232030002CD00E9
:102B7E0000026400CD0000023203000232030002A4
:102B8E00CD0000026400CD000002320300023203C9
:102B9E000002CD0000026400CD00000232030002EC
:102BAE0032030002CD0000026400CD0000023203A9
:102BBE00000232030002CD0000026400CD000002CC
:102BCE003203000232030002CD0000026400CD0089
:102BDE0000023203000232030002CD000002640044
:102BEE00CD0000023203000232030002CD000002CB
:102BFE006400CD0000023203000232030002CD0059
:102C0E0000026400CD000002320300023203000213
:102C1E00CD0000026400CD00000232030002320338
:102C2E000002CD0000026400CD000002320300025B
:102C3E0032030002CD00000264003300330165034D
:102C4E00FF02CB03CC0266000001640033000001DA
:102C5E006503CC029803CC02330000016400990096
:102C6E000001CB03CC029803FF0233003301640052
:102C7E0099003301CB03FF02CB03FF026600330141
:102C8E006400CD0000023203000232030002CD00C8
:102C9E0000026400CD000002320300023203000283
:102CAE00CD0000026400CD000002320300023203A8
:102CBE000002CD0000026400CD00000232030002CB
:102CCE0032030002CD0000026400CD000002320388
:102CDE00000232030002CD0000026400CD000002AB
:102CEE003203000232030002CD0000026400CD0068
:102CFE0000023203000232030002CD000002640023
:102D0E00CD0000023203000232030002CD000002A9
:102D1E006400CD0000023203000232030002CD0037
:102D2E0000026400CD0000023203000232030002F2
:102D3E00CD0000026400CD00000232030002320317
:102D4E000002CD0000026400CD000002320300023A
:102D5E0032030002CD0000026400CD0000023203F7
:102D6E00000232030002CD0000026400CD0000021A
:102D7E003203000232030002CD0000026400CD00D7
:102D8E0000023203000232030002CD000002640092
:102D9E00CD0000023203000232030002CD00000219
:102DAE006400CD0000023203000232030002CD00A7
:102DBE0000026400CD000002320300023203000262
:102DCE00CD0000026400CD00000232030002320387
:102DDE000002CD0000026400CD00000232030002AA
:102DEE0032030002CD0000026400CD000002320367
:102DFE00000232030002CD0000026400CD0000028A
:102E0E003203000232030002CD0000026400CD0046
:102E1E0000023203000232030002CD000002640001
:102E2E00CD0000023203000232030002CD00000288
:102E3E006400130004000E001100050007001000CE
:102E4E0006002323232073656E736F72496E6974B7
:102E5E000025640A0A0025643A25642C25642C2575
:102E6E00642C25642C25642C25642C25642C256467
:102E7E002C25642C25642C25642C25640A002564DD
:102E8E003A25642C25642C25642C25642C25642C71
:102E9E0025642C25642C25642C25642C25642C2576
:102EAE00642C25642C25640A0025643B0A00496EB7
:102EBE0070757420766F6C74616765206572726FC1
:102ECE00722100416E676C65206C696D69742065B6
:102EDE0072726F7221004F7665726865617420653B
:102EEE0072726F7221004F7574206F662072616E60
:102EFE006765206572726F722100436865636B733C
:102F0E00756D206572726F7221004F7665726C6FEF
:102F1E006164206572726F722100496E73747275EE
:102F2E006374696F6E20636F6465206572726F7271
:102F3E002100434F4D4D5F54584641494C3A20466F
:102F4E0061696C6564207472616E736D6974206959
:102F5E006E737472756374696F6E207061636B65E6
:102F6E00742100434F4D4D5F54584552524F523AC3
:102F7E0020496E636F727265637420696E7374722A
:102F8E00756374696F6E207061636B6574210043A5
:102F9E004F4D4D5F52584641494C3A204661696C3F
:102FAE006564206765742073746174757320706135
:102FBE00636B65742066726F6D20646576696365F8
:102FCE002100434F4D4D5F525857414954494E478A
:102FDE003A204E6F7720726563696576696E672059
:102FEE00737461747573207061636B657421004333
:102FFE004F4D4D5F525854494D454F55543A2054FC
:10300E0068657265206973206E6F207374617475C4
:10301E0073207061636B65742100434F4D4D5F5299
:10302E0058434F52525550543A20496E636F727244
:10303E0065637420737461747573207061636B655E
:10304E007421005468697320697320756E6B6E6FFE
:10305E00776E206572726F7220636F646521002334
:10306E002323206D6F74696F6E4E756D62657220CD
:10307E003D2025642C206D6F74696F6E203D2025D8
:10308E00640A00232323206D6F74696F6E436F757E
:10309E006E74203E206D61782E206D6F74696F6E98
:1030AE00436F756E743A25642C206D61783A2564F1
:1030BE000A00232323206D6F74696F6E436F756E44
:0630CE00743A25640A00BB
:00000001FF
